{
  "_format": "hh-sol-artifact-1",
  "contractName": "CampaignRegistry",
  "sourceName": "contracts/CampaignRegistry.sol",
  "abi": [
    {
      "anonymous": false,
      "inputs": [
        {
          "indexed": false,
          "internalType": "address",
          "name": "previousAdmin",
          "type": "address"
        },
        {
          "indexed": false,
          "internalType": "address",
          "name": "newAdmin",
          "type": "address"
        }
      ],
      "name": "AdminChanged",
      "type": "event"
    },
    {
      "anonymous": false,
      "inputs": [
        {
          "indexed": true,
          "internalType": "address",
          "name": "beacon",
          "type": "address"
        }
      ],
      "name": "BeaconUpgraded",
      "type": "event"
    },
    {
      "anonymous": false,
      "inputs": [
        {
          "indexed": false,
          "internalType": "uint256",
          "name": "campaignId",
          "type": "uint256"
        },
        {
          "indexed": false,
          "internalType": "address",
          "name": "entrepreneur",
          "type": "address"
        },
        {
          "indexed": false,
          "internalType": "uint256",
          "name": "targetAmount",
          "type": "uint256"
        },
        {
          "indexed": false,
          "internalType": "uint256",
          "name": "deadline",
          "type": "uint256"
        }
      ],
      "name": "CampaignCreated",
      "type": "event"
    },
    {
      "anonymous": false,
      "inputs": [
        {
          "indexed": false,
          "internalType": "uint256",
          "name": "campaignId",
          "type": "uint256"
        },
        {
          "indexed": false,
          "internalType": "address",
          "name": "investor",
          "type": "address"
        },
        {
          "indexed": false,
          "internalType": "uint256",
          "name": "amount",
          "type": "uint256"
        }
      ],
      "name": "ContributionMade",
      "type": "event"
    },
    {
      "anonymous": false,
      "inputs": [
        {
          "indexed": false,
          "internalType": "uint256",
          "name": "campaignId",
          "type": "uint256"
        }
      ],
      "name": "FundReleaseDeclined",
      "type": "event"
    },
    {
      "anonymous": false,
      "inputs": [
        {
          "indexed": false,
          "internalType": "uint256",
          "name": "campaignId",
          "type": "uint256"
        }
      ],
      "name": "FundsReceived",
      "type": "event"
    },
    {
      "anonymous": false,
      "inputs": [
        {
          "indexed": false,
          "internalType": "uint256",
          "name": "campaignId",
          "type": "uint256"
        },
        {
          "indexed": false,
          "internalType": "address",
          "name": "vendor",
          "type": "address"
        },
        {
          "indexed": false,
          "internalType": "uint256",
          "name": "amount",
          "type": "uint256"
        }
      ],
      "name": "FundsReleased",
      "type": "event"
    },
    {
      "anonymous": false,
      "inputs": [
        {
          "indexed": false,
          "internalType": "uint256",
          "name": "campaignId",
          "type": "uint256"
        },
        {
          "indexed": false,
          "internalType": "address",
          "name": "investor",
          "type": "address"
        }
      ],
      "name": "FundsWithdrawn",
      "type": "event"
    },
    {
      "anonymous": false,
      "inputs": [
        {
          "indexed": false,
          "internalType": "uint8",
          "name": "version",
          "type": "uint8"
        }
      ],
      "name": "Initialized",
      "type": "event"
    },
    {
      "anonymous": false,
      "inputs": [
        {
          "indexed": true,
          "internalType": "address",
          "name": "previousOwner",
          "type": "address"
        },
        {
          "indexed": true,
          "internalType": "address",
          "name": "newOwner",
          "type": "address"
        }
      ],
      "name": "OwnershipTransferred",
      "type": "event"
    },
    {
      "anonymous": false,
      "inputs": [
        {
          "indexed": false,
          "internalType": "uint256",
          "name": "campaignId",
          "type": "uint256"
        },
        {
          "indexed": false,
          "internalType": "address",
          "name": "investor",
          "type": "address"
        }
      ],
      "name": "RequestApproved",
      "type": "event"
    },
    {
      "anonymous": false,
      "inputs": [
        {
          "indexed": false,
          "internalType": "uint256",
          "name": "campaignId",
          "type": "uint256"
        },
        {
          "indexed": false,
          "internalType": "uint256",
          "name": "requestAmount",
          "type": "uint256"
        }
      ],
      "name": "RequestCreated",
      "type": "event"
    },
    {
      "anonymous": false,
      "inputs": [
        {
          "indexed": true,
          "internalType": "address",
          "name": "implementation",
          "type": "address"
        }
      ],
      "name": "Upgraded",
      "type": "event"
    },
    {
      "anonymous": false,
      "inputs": [
        {
          "indexed": false,
          "internalType": "string",
          "name": "email",
          "type": "string"
        },
        {
          "indexed": false,
          "internalType": "bool",
          "name": "verified",
          "type": "bool"
        },
        {
          "indexed": false,
          "internalType": "address",
          "name": "walletAddress",
          "type": "address"
        }
      ],
      "name": "UserRegistered",
      "type": "event"
    },
    {
      "inputs": [
        {
          "internalType": "address",
          "name": "_owner",
          "type": "address"
        },
        {
          "internalType": "uint256",
          "name": "index",
          "type": "uint256"
        }
      ],
      "name": "_campaignOfEntrepreneurByIndex",
      "outputs": [
        {
          "internalType": "uint256",
          "name": "",
          "type": "uint256"
        }
      ],
      "stateMutability": "view",
      "type": "function"
    },
    {
      "inputs": [
        {
          "internalType": "uint256",
          "name": "_campaignId",
          "type": "uint256"
        }
      ],
      "name": "approveFundReleaseRequest",
      "outputs": [],
      "stateMutability": "nonpayable",
      "type": "function"
    },
    {
      "inputs": [
        {
          "internalType": "uint256",
          "name": "",
          "type": "uint256"
        }
      ],
      "name": "campaigns",
      "outputs": [
        {
          "internalType": "uint256",
          "name": "campaignId",
          "type": "uint256"
        },
        {
          "internalType": "uint256",
          "name": "targetAmount",
          "type": "uint256"
        },
        {
          "internalType": "uint256",
          "name": "raisedAmount",
          "type": "uint256"
        },
        {
          "internalType": "uint256",
          "name": "requestAmount",
          "type": "uint256"
        },
        {
          "internalType": "uint256",
          "name": "deadline",
          "type": "uint256"
        },
        {
          "internalType": "uint256",
          "name": "completeAt",
          "type": "uint256"
        },
        {
          "internalType": "uint256",
          "name": "minimumContribution",
          "type": "uint256"
        },
        {
          "internalType": "string",
          "name": "imageUri",
          "type": "string"
        },
        {
          "internalType": "string",
          "name": "campaignTitle",
          "type": "string"
        },
        {
          "internalType": "string",
          "name": "campaignDescription",
          "type": "string"
        },
        {
          "internalType": "address",
          "name": "entrepreneur",
          "type": "address"
        },
        {
          "internalType": "address payable",
          "name": "vendor",
          "type": "address"
        },
        {
          "internalType": "enum ICampaignRegistry.CampaignStatus",
          "name": "status",
          "type": "uint8"
        },
        {
          "internalType": "bool",
          "name": "requestCreated",
          "type": "bool"
        },
        {
          "internalType": "bool",
          "name": "fundsReceived",
          "type": "bool"
        }
      ],
      "stateMutability": "view",
      "type": "function"
    },
    {
      "inputs": [
        {
          "internalType": "uint256",
          "name": "_campaignId",
          "type": "uint256"
        }
      ],
      "name": "confirmFundsReceived",
      "outputs": [],
      "stateMutability": "nonpayable",
      "type": "function"
    },
    {
      "inputs": [
        {
          "internalType": "uint256",
          "name": "_targetAmount",
          "type": "uint256"
        },
        {
          "internalType": "uint256",
          "name": "_deadline",
          "type": "uint256"
        },
        {
          "internalType": "uint256",
          "name": "minimumContribution",
          "type": "uint256"
        },
        {
          "internalType": "string",
          "name": "_imageUri",
          "type": "string"
        },
        {
          "internalType": "string",
          "name": "_campaignTitle",
          "type": "string"
        },
        {
          "internalType": "string",
          "name": "_campaignDescription",
          "type": "string"
        }
      ],
      "name": "createCampaign",
      "outputs": [],
      "stateMutability": "nonpayable",
      "type": "function"
    },
    {
      "inputs": [
        {
          "internalType": "uint256",
          "name": "_campaignId",
          "type": "uint256"
        },
        {
          "internalType": "uint256",
          "name": "_requestAmount",
          "type": "uint256"
        },
        {
          "internalType": "address payable",
          "name": "_vendorAddress",
          "type": "address"
        }
      ],
      "name": "createFundReleaseRequest",
      "outputs": [],
      "stateMutability": "nonpayable",
      "type": "function"
    },
    {
      "inputs": [
        {
          "internalType": "uint256",
          "name": "_campaignId",
          "type": "uint256"
        }
      ],
      "name": "declineFundRelease",
      "outputs": [],
      "stateMutability": "nonpayable",
      "type": "function"
    },
    {
      "inputs": [
        {
          "internalType": "uint256",
          "name": "_campaignId",
          "type": "uint256"
        }
      ],
      "name": "donateToCampaign",
      "outputs": [],
      "stateMutability": "payable",
      "type": "function"
    },
    {
      "inputs": [
        {
          "internalType": "uint256",
          "name": "_campaignId",
          "type": "uint256"
        }
      ],
      "name": "getAllDonations",
      "outputs": [
        {
          "internalType": "uint256[]",
          "name": "",
          "type": "uint256[]"
        }
      ],
      "stateMutability": "view",
      "type": "function"
    },
    {
      "inputs": [
        {
          "internalType": "uint256",
          "name": "_campaignId",
          "type": "uint256"
        }
      ],
      "name": "getAllDonators",
      "outputs": [
        {
          "internalType": "address[]",
          "name": "",
          "type": "address[]"
        }
      ],
      "stateMutability": "view",
      "type": "function"
    },
    {
      "inputs": [
        {
          "internalType": "uint256",
          "name": "_campaignId",
          "type": "uint256"
        }
      ],
      "name": "getCampaignById",
      "outputs": [
        {
          "components": [
            {
              "internalType": "uint256",
              "name": "campaignId",
              "type": "uint256"
            },
            {
              "internalType": "uint256",
              "name": "targetAmount",
              "type": "uint256"
            },
            {
              "internalType": "uint256",
              "name": "raisedAmount",
              "type": "uint256"
            },
            {
              "internalType": "uint256",
              "name": "requestAmount",
              "type": "uint256"
            },
            {
              "internalType": "uint256",
              "name": "deadline",
              "type": "uint256"
            },
            {
              "internalType": "uint256",
              "name": "completeAt",
              "type": "uint256"
            },
            {
              "internalType": "uint256",
              "name": "minimumContribution",
              "type": "uint256"
            },
            {
              "internalType": "string",
              "name": "imageUri",
              "type": "string"
            },
            {
              "internalType": "string",
              "name": "campaignTitle",
              "type": "string"
            },
            {
              "internalType": "string",
              "name": "campaignDescription",
              "type": "string"
            },
            {
              "internalType": "address",
              "name": "entrepreneur",
              "type": "address"
            },
            {
              "internalType": "address payable",
              "name": "vendor",
              "type": "address"
            },
            {
              "internalType": "address[]",
              "name": "investors",
              "type": "address[]"
            },
            {
              "internalType": "enum ICampaignRegistry.CampaignStatus",
              "name": "status",
              "type": "uint8"
            },
            {
              "internalType": "bool",
              "name": "requestCreated",
              "type": "bool"
            },
            {
              "internalType": "bool",
              "name": "fundsReceived",
              "type": "bool"
            }
          ],
          "internalType": "struct ICampaignRegistry.Campaign",
          "name": "",
          "type": "tuple"
        }
      ],
      "stateMutability": "view",
      "type": "function"
    },
    {
      "inputs": [],
      "name": "getCampaigns",
      "outputs": [
        {
          "components": [
            {
              "internalType": "uint256",
              "name": "campaignId",
              "type": "uint256"
            },
            {
              "internalType": "uint256",
              "name": "targetAmount",
              "type": "uint256"
            },
            {
              "internalType": "uint256",
              "name": "raisedAmount",
              "type": "uint256"
            },
            {
              "internalType": "uint256",
              "name": "requestAmount",
              "type": "uint256"
            },
            {
              "internalType": "uint256",
              "name": "deadline",
              "type": "uint256"
            },
            {
              "internalType": "uint256",
              "name": "completeAt",
              "type": "uint256"
            },
            {
              "internalType": "uint256",
              "name": "minimumContribution",
              "type": "uint256"
            },
            {
              "internalType": "string",
              "name": "imageUri",
              "type": "string"
            },
            {
              "internalType": "string",
              "name": "campaignTitle",
              "type": "string"
            },
            {
              "internalType": "string",
              "name": "campaignDescription",
              "type": "string"
            },
            {
              "internalType": "address",
              "name": "entrepreneur",
              "type": "address"
            },
            {
              "internalType": "address payable",
              "name": "vendor",
              "type": "address"
            },
            {
              "internalType": "address[]",
              "name": "investors",
              "type": "address[]"
            },
            {
              "internalType": "enum ICampaignRegistry.CampaignStatus",
              "name": "status",
              "type": "uint8"
            },
            {
              "internalType": "bool",
              "name": "requestCreated",
              "type": "bool"
            },
            {
              "internalType": "bool",
              "name": "fundsReceived",
              "type": "bool"
            }
          ],
          "internalType": "struct ICampaignRegistry.Campaign[]",
          "name": "",
          "type": "tuple[]"
        }
      ],
      "stateMutability": "view",
      "type": "function"
    },
    {
      "inputs": [
        {
          "internalType": "address",
          "name": "_entrepreneur",
          "type": "address"
        }
      ],
      "name": "getCampaignsByEntrepreneur",
      "outputs": [
        {
          "components": [
            {
              "internalType": "uint256",
              "name": "campaignId",
              "type": "uint256"
            },
            {
              "internalType": "uint256",
              "name": "targetAmount",
              "type": "uint256"
            },
            {
              "internalType": "uint256",
              "name": "raisedAmount",
              "type": "uint256"
            },
            {
              "internalType": "uint256",
              "name": "requestAmount",
              "type": "uint256"
            },
            {
              "internalType": "uint256",
              "name": "deadline",
              "type": "uint256"
            },
            {
              "internalType": "uint256",
              "name": "completeAt",
              "type": "uint256"
            },
            {
              "internalType": "uint256",
              "name": "minimumContribution",
              "type": "uint256"
            },
            {
              "internalType": "string",
              "name": "imageUri",
              "type": "string"
            },
            {
              "internalType": "string",
              "name": "campaignTitle",
              "type": "string"
            },
            {
              "internalType": "string",
              "name": "campaignDescription",
              "type": "string"
            },
            {
              "internalType": "address",
              "name": "entrepreneur",
              "type": "address"
            },
            {
              "internalType": "address payable",
              "name": "vendor",
              "type": "address"
            },
            {
              "internalType": "address[]",
              "name": "investors",
              "type": "address[]"
            },
            {
              "internalType": "enum ICampaignRegistry.CampaignStatus",
              "name": "status",
              "type": "uint8"
            },
            {
              "internalType": "bool",
              "name": "requestCreated",
              "type": "bool"
            },
            {
              "internalType": "bool",
              "name": "fundsReceived",
              "type": "bool"
            }
          ],
          "internalType": "struct ICampaignRegistry.Campaign[]",
          "name": "",
          "type": "tuple[]"
        }
      ],
      "stateMutability": "view",
      "type": "function"
    },
    {
      "inputs": [
        {
          "internalType": "uint256",
          "name": "_campaignId",
          "type": "uint256"
        }
      ],
      "name": "getInvestorDonations",
      "outputs": [
        {
          "internalType": "address[]",
          "name": "",
          "type": "address[]"
        },
        {
          "internalType": "uint256[]",
          "name": "",
          "type": "uint256[]"
        }
      ],
      "stateMutability": "view",
      "type": "function"
    },
    {
      "inputs": [
        {
          "internalType": "address",
          "name": "_investor",
          "type": "address"
        }
      ],
      "name": "getTotalCampaignsByInvestor",
      "outputs": [
        {
          "internalType": "uint256",
          "name": "",
          "type": "uint256"
        }
      ],
      "stateMutability": "view",
      "type": "function"
    },
    {
      "inputs": [
        {
          "internalType": "address",
          "name": "_walltetAddress",
          "type": "address"
        }
      ],
      "name": "getUserByAddress",
      "outputs": [
        {
          "components": [
            {
              "internalType": "string",
              "name": "email",
              "type": "string"
            },
            {
              "internalType": "string",
              "name": "password",
              "type": "string"
            },
            {
              "internalType": "enum ICampaignRegistry.Category",
              "name": "category",
              "type": "uint8"
            },
            {
              "internalType": "address",
              "name": "walletAddress",
              "type": "address"
            },
            {
              "internalType": "bool",
              "name": "verified",
              "type": "bool"
            }
          ],
          "internalType": "struct ICampaignRegistry.User",
          "name": "",
          "type": "tuple"
        }
      ],
      "stateMutability": "view",
      "type": "function"
    },
    {
      "inputs": [],
      "name": "initialize",
      "outputs": [],
      "stateMutability": "nonpayable",
      "type": "function"
    },
    {
      "inputs": [
        {
          "internalType": "uint256",
          "name": "_campaignId",
          "type": "uint256"
        }
      ],
      "name": "isRequestApprovedOrDeclined",
      "outputs": [
        {
          "internalType": "bool",
          "name": "",
          "type": "bool"
        }
      ],
      "stateMutability": "view",
      "type": "function"
    },
    {
      "inputs": [
        {
          "internalType": "string",
          "name": "_email",
          "type": "string"
        },
        {
          "internalType": "string",
          "name": "_password",
          "type": "string"
        }
      ],
      "name": "loginUser",
      "outputs": [
        {
          "internalType": "bool",
          "name": "",
          "type": "bool"
        }
      ],
      "stateMutability": "view",
      "type": "function"
    },
    {
      "inputs": [
        {
          "internalType": "uint256",
          "name": "_campaignId",
          "type": "uint256"
        }
      ],
      "name": "makeCampaignExpired",
      "outputs": [],
      "stateMutability": "nonpayable",
      "type": "function"
    },
    {
      "inputs": [],
      "name": "owner",
      "outputs": [
        {
          "internalType": "address",
          "name": "",
          "type": "address"
        }
      ],
      "stateMutability": "view",
      "type": "function"
    },
    {
      "inputs": [],
      "name": "proxiableUUID",
      "outputs": [
        {
          "internalType": "bytes32",
          "name": "",
          "type": "bytes32"
        }
      ],
      "stateMutability": "view",
      "type": "function"
    },
    {
      "inputs": [
        {
          "internalType": "string",
          "name": "_email",
          "type": "string"
        },
        {
          "internalType": "string",
          "name": "_password",
          "type": "string"
        },
        {
          "internalType": "enum ICampaignRegistry.Category",
          "name": "_category",
          "type": "uint8"
        }
      ],
      "name": "registerUser",
      "outputs": [],
      "stateMutability": "nonpayable",
      "type": "function"
    },
    {
      "inputs": [
        {
          "internalType": "uint256",
          "name": "_campaignId",
          "type": "uint256"
        }
      ],
      "name": "releaseFundsToVendors",
      "outputs": [],
      "stateMutability": "nonpayable",
      "type": "function"
    },
    {
      "inputs": [],
      "name": "renounceOwnership",
      "outputs": [],
      "stateMutability": "nonpayable",
      "type": "function"
    },
    {
      "inputs": [
        {
          "internalType": "address",
          "name": "newOwner",
          "type": "address"
        }
      ],
      "name": "transferOwnership",
      "outputs": [],
      "stateMutability": "nonpayable",
      "type": "function"
    },
    {
      "inputs": [
        {
          "internalType": "address",
          "name": "newImplementation",
          "type": "address"
        }
      ],
      "name": "upgradeTo",
      "outputs": [],
      "stateMutability": "nonpayable",
      "type": "function"
    },
    {
      "inputs": [
        {
          "internalType": "address",
          "name": "newImplementation",
          "type": "address"
        },
        {
          "internalType": "bytes",
          "name": "data",
          "type": "bytes"
        }
      ],
      "name": "upgradeToAndCall",
      "outputs": [],
      "stateMutability": "payable",
      "type": "function"
    },
    {
      "inputs": [
        {
          "internalType": "address",
          "name": "",
          "type": "address"
        }
      ],
      "name": "users",
      "outputs": [
        {
          "internalType": "string",
          "name": "email",
          "type": "string"
        },
        {
          "internalType": "string",
          "name": "password",
          "type": "string"
        },
        {
          "internalType": "enum ICampaignRegistry.Category",
          "name": "category",
          "type": "uint8"
        },
        {
          "internalType": "address",
          "name": "walletAddress",
          "type": "address"
        },
        {
          "internalType": "bool",
          "name": "verified",
          "type": "bool"
        }
      ],
      "stateMutability": "view",
      "type": "function"
    },
    {
      "inputs": [
        {
          "internalType": "uint256",
          "name": "_campaignId",
          "type": "uint256"
        }
      ],
      "name": "withdrawFunds",
      "outputs": [],
      "stateMutability": "nonpayable",
      "type": "function"
    }
  ],
  "bytecode": "0x60a080604052346100315730608052613b9090816100378239608051818181611636015281816117420152611d700152f35b600080fdfe6080604052600436101561001257600080fd5b60003560e01c8063141961bc14612d3b578063155dd5ee14612b555780631ad417bf1461259957806322ce12e51461254257806324777746146124f85780632e17a93114611fe55780633659cfe614611d4a57806342a4fda8146119ba5780634f1ef286146116f157806352d1902d1461161b57806367c2cbad1461153857806369c212f6146114255780636aaa4e28146113af57806370debcf714611150578063715018a6146110f557806373f1301614610fbb57806374c49fd514610cdf5780638129fc1c14610b8a5780638da5cb5b14610b635780638e5baa6214610ae5578063a6b0363314610998578063a7247cd9146107c2578063a87430ba14610720578063ae1f6802146105dd578063e27883fb1461059a578063e6ffcaa114610472578063edc2305a14610432578063efb80183146102b2578063f2fde38b1461020c5763ffa676d11461016657600080fd5b346102075760208060031936011261020757600435908160005260cc8152600c604060002001918254906101998261385d565b9360005b8381106101bb57604051858152806101b7818801896130de565b0390f35b806001600160a01b036101d16102029385613817565b9190548660005260cd895260406000209260031b1c1660005286526040600020546101fc828961388f565b526136f1565b61019d565b600080fd5b346102075760203660031901126102075761022561308b565b61022d613266565b6001600160a01b0381161561024757610245906132be565b005b60405162461bcd60e51b815260206004820152602660248201527f4f776e61626c653a206e6577206f776e657220697320746865207a65726f206160448201527f64647265737300000000000000000000000000000000000000000000000000006064820152608490fd5b3461020757602080600319360112610207576001600160a01b03806102d561308b565b16908160005260cf90818452604060002054916102f183613975565b9360005b84811061030a57604051806101b78882613204565b8160005282875261031f816040600020613817565b919054600392831b1c60005260cc885260406000206040519061034182612eb9565b80548252600193848201548b84015260028201546040840152810154606083015260048101546080830152600581015460a0830152600681015460c083015261038c60078201612f14565b60e0830152600d6008916103a1838201612f14565b6101008501526103b360098201612f14565b61012085015288600a8201541661014085015288600b820154166101608501526103df600c82016138a3565b6101808501520154809160ff9283918282166103fa81612ffa565b6101a08701521c1615156101c084015260101c1615156101e0820152610420828961388f565b5261042b818861388f565b50016102f5565b346102075760203660031901126102075760043560005260cc602052600d604060002061046460048201544211613a69565b01805460ff19166002179055005b346102075760203660031901126102075761048b6138fb565b5060043560005260cc6020526101b7604060002060ff600d604051926104b084612eb9565b8054845260018101546020850152600281015460408501526003810154606085015260048101546080850152600581015460a0850152600681015460c08501526104fc60078201612f14565b60e085015261050d60088201612f14565b61010085015261051f60098201612f14565b6101208501526001600160a01b0380600a83015416610140860152600b82015416610160850152610552600c82016138a3565b610180850152015481811661056681612ffa565b6101a0840152818160081c1615156101c084015260101c1615156101e0820152604051918291602083526020830190613112565b346102075760203660031901126102075760043560005260cc6020526101b76105c9600c6040600020016138a3565b6040519182916020835260208301906130a1565b346102075760208060031936011261020757600435903360005260cb815261061260ff60026040600020015460a81c16613627565b61061f60c9548310613700565b3360005260cb8152610646600260ff81604060002001541661064081612ffa565b1461367f565b8160005260cc8152604060002091336001600160a01b03600b85015416036106b557600d7fbcdc7071c1beb6dcf2744621e0b29a2f2432ee20812d9ca5e3d5e8f9308d93a393016201000081546106a360ff8260101c1615613798565b62ff00001916179055604051908152a1005b60405162461bcd60e51b815260048101839052603460248201527f4f6e6c79207468652063616d706169676e2076656e646f722063616e20636f6e60448201527f6669726d2066756e64732072656365697665642e0000000000000000000000006064820152608490fd5b346102075760203660031901126102075761078c6001600160a01b038061074561308b565b1660005260cb602052604060002060ff61075e82612f14565b92600261076d60018501612f14565b9301549061079a8383169460405197889760a0895260a0890190612fba565b908782036020890152612fba565b936107a481612ffa565b60408601528160081c16606085015260a81c16151560808301520390f35b346102075760208060031936011261020757600435903360005260cb81526107f760ff60026040600020015460a81c16613627565b61080460c9548310613700565b3360005260cb8152610826600160ff6002604060002001541661064081612ffa565b8160005260cc8152604060002060cd82526040600020336000528252604060002054156109475760ff600d61086092015460081c16613a11565b8160005260ce8152604060002033600052815260ff604060002054166108dd57600082815260ce8252604080822033808452935290819020805460ff19166001179055805192835260208301919091527ff3dc904660a0ea05aba8dfa1e21fbc4fb2914be2a3029da7b0fdd3e5eee20ddb9190819081015b0390a1005b6084906040519062461bcd60e51b82526004820152602960248201527f496e766573746f722068617320616c726561647920617070726f76656420746860448201527f65207265717565737400000000000000000000000000000000000000000000006064820152fd5b60405162461bcd60e51b8152600481018390526024808201527f4f6e6c7920696e766573746f72732063616e20617070726f76652061207265716044820152631d595cdd60e21b6064820152608490fd5b346102075760003660031901126102075760c9546109b581613975565b9060005b8181106109ce57604051806101b78582613204565b8060005260209060cc82526040600020604051906109eb82612eb9565b805482526001938482015490830152600281015460408301526003810154606083015260048101546080830152600581015460a0830152600681015460c0830152610a3860078201612f14565b60e0830152600d600891610a4d838201612f14565b610100850152610a5f60098201612f14565b6101208501526001600160a01b0380600a83015416610140860152600b82015416610160850152610a92600c82016138a3565b6101808501520154809160ff928391828216610aad81612ffa565b6101a08701521c1615156101c084015260101c1615156101e0820152610ad3828661388f565b52610ade818561388f565b50016109b9565b346102075760208060031936011261020757610aff61308b565b60c9546000916001600160a01b0316825b828110610b2257505050604051908152f35b8060005260cd85526040600020826000528552604060002054610b4e575b610b49906136f1565b610b10565b92610b5b610b49916136f1565b939050610b40565b346102075760003660031901126102075760206001600160a01b0360335416604051908152f35b346102075760003660031901126102075760005460ff8160081c161590818092610cd2575b8015610cbb575b15610c505760ff19811660011760005581610c3e575b50610be760ff60005460081c16610be281613535565b613535565b610bf0336132be565b60005490610c0360ff8360081c16613535565b610c0957005b61ff0019166000557f7f26b83ff96e1f2b6a682f133852f6798a09c465da95921460cefb3847402498602060405160018152a1005b61ffff19166101011760005581610bcc565b60405162461bcd60e51b815260206004820152602e60248201527f496e697469616c697a61626c653a20636f6e747261637420697320616c72656160448201527f647920696e697469616c697a65640000000000000000000000000000000000006064820152608490fd5b50303b158015610bb65750600160ff821614610bb6565b50600160ff821610610baf565b346102075760208060031936011261020757600435903360005260cb815260ff91610d168360026040600020015460a81c16613627565b610d2360c9548210613700565b3360005260cb8252610d488360026040600020015416610d4281612ffa565b1561367f565b8060005260cc8252604060002092600d840190610d73600182845416610d6d81612ffa565b146139c5565b8260005260cc84526040600020805460005260ca855260406000205460011c91600c600092019081549160005b838110610f5e575050505010610ee9578160005260cc83526040600020906001600160a01b039384600b840154169460026003809501549701805490888203918211610ed357558460005260cc825260008080808a85600b60408420015416828215610eca575bf115610ebe5760ff19926001848254161790558460005260cc8252600c6040600020019384549460005b868110610e8057604080518981526001600160a01b038b1660208201529081018b90527f6e3c6096795c8298a218b2cfb8bde42726ff7c9a3d27b4d3ba41ab7f74feb5fb9080606081016108d8565b8084610e8f610eb99385613817565b905490861b1c168960005260ce8752604060002090600052865260406000208781541690556136f1565b610e31565b6040513d6000823e3d90fd5b506108fc610e07565b634e487b7160e01b600052601160045260246000fd5b60405162461bcd60e51b815260048101849052604160248201527f5265717565737420686173206e6f74206265656e20617070726f76656420627960448201527f20746865207265717569726564206e756d626572206f6620696e766573746f726064820152607360f81b608482015260a490fd5b6001600160a01b03610f708284613817565b9190548a60005260ce8c5260406000209260031b1c1660005289528260406000205416610fa6575b610fa1906136f1565b610da0565b93610fb3610fa1916136f1565b949050610f98565b346102075760208060031936011261020757600435903360005260cb8152610ff060ff60026040600020015460a81c16613627565b610ffd60c9548310613700565b3360005260cb815261101f600160ff6002604060002001541661064081612ffa565b8160005260cc815260406000209160cd82526040600020336000528252604060002054156110a45761107b60ff600d7fbb447f2506f46702f313360e42b26bacac341b607c973ef8fe11ee7eb901bea195015460081c16613a11565b8060005260ce82526040600020336000528252604060002060ff198154169055604051908152a1005b60405162461bcd60e51b8152600481018390526024808201527f4f6e6c7920696e766573746f72732063616e206465636c696e652061207265716044820152631d595cdd60e21b6064820152608490fd5b346102075760003660031901126102075761110e613266565b60006001600160a01b036033546001600160a01b03198116603355167f8be0079c531659141344cd1fd0a4f28419497f9722a3daafe3b4186f6b6457e08280a3005b34610207576060366003190112610207576001600160a01b0360043560243560443583811690819003610207573360005260209360cb855261119f60ff60026040600020015460a81c16613627565b6111ac60c9548510613700565b3360005260cb85526111cc60ff60026040600020015416610d4281612ffa565b8360005260cc8552604060002090600d8201908154906111f4600160ff8416610d6d81612ffa565b3390600a85015416036113445760ff8160081c166112d9576002830154851161126e576003830185905561ff001916610100179055600b0180546001600160a01b031916909117905560408051928352928201527f99f063607b2d9f794eb8985daf4a0d3224e73b48e43228a183329e415dff077e9190a1005b60405162461bcd60e51b815260048101889052603e60248201527f5265717565737420616d6f756e74206d757374206265206c657373207468616e60448201527f206f7220657175616c20746f207468652072616973656420616d6f756e7400006064820152608490fd5b60405162461bcd60e51b815260048101889052603460248201527f4120726571756573742068617320616c7265616479206265656e20637265617460448201527f656420666f7220746869732063616d706169676e0000000000000000000000006064820152608490fd5b60405162461bcd60e51b815260048101889052602a60248201527f4f6e6c792074686520656e7472657072656e6575722063616e2063726561746560448201527f20612072657175657374000000000000000000000000000000000000000000006064820152608490fd5b3461020757602036600319011261020757602061141b6004353360005260cb83526113e760ff60026040600020015460a81c16613627565b6113f460c9548210613700565b3360005260cb8352611416600160ff6002604060002001541661064081612ffa565b613adb565b6040519015158152f35b34610207576020806003193601126102075760a09061144261308b565b906000608060405161145381612e9d565b6060815260608482015282604082015282606082015201526001600160a01b0380921660005260cb81526040600020906040519261149084612e9d565b61149983612f14565b845260026114a960018501612f14565b9383860194855201549161151560ff84169460408701956114c981612ffa565b86526115026060880193858760081c16855260ff60808a019760a81c1615158752604051998a99828b5251918a015260c0890190612fba565b9051878203601f19016040890152612fba565b935161152081612ffa565b60608601525116608084015251151560a08301520390f35b3461020757602080600319360112610207576004358060005260cc8252600c604060002001805461156881613845565b926115766040519485612ef2565b818452601f1961158583613845565b0136868601376115948261385d565b9260005b8381106115c9576115bc866101b789886040519485946040865260408601906130a1565b91848303908501526130de565b806001600160a01b036115df6116169385613817565b90549060031b1c16806115f2838a61388f565b528460005260cd895260406000209060005288526040600020546101fc828861388f565b611598565b34610207576000366003190112610207576001600160a01b037f00000000000000000000000000000000000000000000000000000000000000001630036116865760206040517f360894a13ba1a3210667c828492db98dca3e2076cc3735a920a3ca505d382bbc8152f35b60405162461bcd60e51b815260206004820152603860248201527f555550535570677261646561626c653a206d757374206e6f742062652063616c60448201527f6c6564207468726f7567682064656c656761746563616c6c00000000000000006064820152608490fd5b60403660031901126102075761170561308b565b60243567ffffffffffffffff8111610207573660238201121561020757611736903690602481600401359101613036565b6001600160a01b0390817f0000000000000000000000000000000000000000000000000000000000000000169161176f83301415613306565b61179e7f360894a13ba1a3210667c828492db98dca3e2076cc3735a920a3ca505d382bbc938285541614613378565b7f4910fdfa16fed3260ed0e7147f7cc6da11a60208b5b9406d12a635614ffd91435460ff16156117d457505050610245906133ea565b8316604051926352d1902d60e01b84526020938481600481865afa6000918161198b575b506118595760405162461bcd60e51b815260048101869052602e60248201527f45524331393637557067726164653a206e657720696d706c656d656e7461746960448201526d6f6e206973206e6f74205555505360901b6064820152608490fd5b939293036119345761186a846133ea565b7fbc7cd75a20ee27fd9adebab32041f755214dbc6bffa90cc0225b39da2e5c2d3b600080a281511580159061192c575b6118a057005b61024592600080604051946118b486612ed6565b602786527f416464726573733a206c6f772d6c6576656c2064656c65676174652063616c6c85870152660819985a5b195960ca1b60408701528481519101845af4903d15611923573d6119068161301a565b906119146040519283612ef2565b8152600081943d92013e613498565b60609250613498565b50600161189a565b60405162461bcd60e51b815260048101839052602960248201527f45524331393637557067726164653a20756e737570706f727465642070726f786044820152681a58589b195555525160ba1b6064820152608490fd5b9091508581813d83116119b3575b6119a38183612ef2565b81010312610207575190876117f8565b503d611999565b60208060031936011261020757600435903360005260cb81526119ea60ff60026040600020015460a81c16613627565b6119f760c9548310613700565b3360005260cb8152611a19600160ff6002604060002001541661064081612ffa565b8160005260cc8152611a3f60ff600d6040600020015416611a3981612ffa565b1561374c565b8160005260cc8152600460406000200154421015611d06578160005260cc81526040600020600d810154611a7960ff8216611a3981612ffa565b6004820154421015611cc1573415611c565760068201543410611c055760ff611aa69160101c1615613798565b8260005260cd825260406000203360005282526040600020611ac934825461380a565b905560028101611ada34825461380a565b90558260005260ca82526040600020611af381546136f1565b90558260005260cd825260406000203360005282523460406000205414611ba6575b5060408051838152336020820152349181019190915260cc92907f0a4a91237423e0a1766a761c7cb029311d8b95d6b1b81db1b949a70c98b4e08e90606090a1600052526040600020600281015460018201541115600014611b8957600d8101805460ff1916600117905542600590910155005b60048101544211611b9657005b600d01805460ff19166002179055005b600c019182549268010000000000000000841015611bef5783611bd091600160cc96018155613817565b81549060031b906001600160a01b0333831b921b191617905591611b15565b634e487b7160e01b600052604160045260246000fd5b60405162461bcd60e51b815260048101849052602360248201527f41206d696e756d756d20636f6e747269627574696f6e2069732072657175697260448201526232b21760e91b6064820152608490fd5b60405162461bcd60e51b815260048101849052602960248201527f446f6e6174696f6e20616d6f756e74206d75737420626520677265617465722060448201527f7468616e207a65726f00000000000000000000000000000000000000000000006064820152608490fd5b60405162461bcd60e51b815260048101849052601960248201527f43616d706169676e20706572696f642068617320656e646564000000000000006044820152606490fd5b6064906040519062461bcd60e51b82526004820152601560248201527f446561646c696e652068617320706173736564202100000000000000000000006044820152fd5b346102075760208060031936011261020757611d6461308b565b6001600160a01b0391827f000000000000000000000000000000000000000000000000000000000000000016611d9c81301415613306565b611dcb7f360894a13ba1a3210667c828492db98dca3e2076cc3735a920a3ca505d382bbc918583541614613378565b604051908282019482861067ffffffffffffffff871117611bef57856040526000835260ff7f4910fdfa16fed3260ed0e7147f7cc6da11a60208b5b9406d12a635614ffd91435416600014611e28575050505061024591506133ea565b8492939416906040516352d1902d60e01b81528581600481865afa60009181611fb6575b50611ead5760405162461bcd60e51b815260048101879052602e60248201527f45524331393637557067726164653a206e657720696d706c656d656e7461746960448201526d6f6e206973206e6f74205555505360901b6064820152608490fd5b94939403611f5f57611ebe826133ea565b7fbc7cd75a20ee27fd9adebab32041f755214dbc6bffa90cc0225b39da2e5c2d3b600080a2825115801590611f57575b611ef457005b6000806102459560405195611f0887612ed6565b602787527f416464726573733a206c6f772d6c6576656c2064656c65676174652063616c6c86880152660819985a5b195960ca1b60408801525190845af4903d15611923573d6119068161301a565b506000611eee565b60405162461bcd60e51b815260048101849052602960248201527f45524331393637557067726164653a20756e737570706f727465642070726f786044820152681a58589b195555525160ba1b6064820152608490fd5b9091508681813d8311611fde575b611fce8183612ef2565b8101031261020757519088611e4c565b503d611fc4565b346102075760603660031901126102075760043567ffffffffffffffff81116102075761201690369060040161306d565b60243567ffffffffffffffff81116102075761203690369060040161306d565b906044356003811015610207578151156124b35782511561246e573315612429573360005260cb60205260ff60026040600020015460a81c166123e4576040519261208084612e9d565b828452602084015261209181612ffa565b6040830152336060830152600160808301523360005260cb602052604060002090825192835167ffffffffffffffff8111611bef576120d08454612e63565b601f81116123a0575b506020601f821160011461233757819293949560009261232c575b50508160011b916000199060031b1c19161783555b602081015192835167ffffffffffffffff8111611bef5761212d6001830154612e63565b601f81116122e1575b506020601f821160011461224b57918160029261222e9695947f427b59b30d98f86c6e6670da78cff4cbaa374e6642ff6d038faa43cbb5fd8de398600092612240575b50508160011b916000199060031b1c19161760018201555b01906040810151906121a282612ffa565b6121ab82612ffa565b82547fffffffffffffffffffff0000000000000000000000000000000000000000000060ff75ff000000000000000000000000000000000000000000608074ffffffffffffffffffffffffffffffffffffffff00606087015160081b16950151151560a81b16941691161717179055604051918291606083526060830190612fba565b600160208301523360408301520390a1005b015190508880612179565b601f198216956001840160005260206000209660005b8181106122c95750927f427b59b30d98f86c6e6670da78cff4cbaa374e6642ff6d038faa43cbb5fd8de39761222e9796959360019383600297106122b0575b505050811b016001820155612191565b015160001960f88460031b161c191690558880806122a0565b83830151895560019098019760209384019301612261565b600183016000526020600020601f830160051c81019160208410612322575b601f0160051c01905b8181106123165750612136565b60008155600101612309565b9091508190612300565b0151905085806120f4565b8460005260206000209060005b601f1984168110612388575060019394959683601f1981161061236f575b505050811b018355612109565b015160001960f88460031b161c19169055858080612362565b9091602060018192858b015181550193019101612344565b846000526020600020601f830160051c8101602084106123dd575b601f830160051c820181106123d15750506120d9565b600081556001016123bb565b50806123bb565b60405162461bcd60e51b815260206004820152601a60248201527f5573657220697320616c726561647920726567697374657265640000000000006044820152606490fd5b60405162461bcd60e51b815260206004820152601660248201527f496e76616c69642077616c6c65742061646472657373000000000000000000006044820152606490fd5b60405162461bcd60e51b815260206004820152601860248201527f50617373776f72642063616e6e6f7420626520656d70747900000000000000006044820152606490fd5b60405162461bcd60e51b815260206004820152601560248201527f456d61696c2063616e6e6f7420626520656d70747900000000000000000000006044820152606490fd5b34610207576040366003190112610207576001600160a01b0361251961308b565b1660005260cf60205260206125346024356040600020613817565b90546040519160031b1c8152f35b346102075760403660031901126102075767ffffffffffffffff6004358181116102075761257490369060040161306d565b906024359081116102075760209161259361141b92369060040161306d565b906135a7565b346102075760c03660031901126102075760643567ffffffffffffffff8111610207576125ca90369060040161306d565b60843567ffffffffffffffff8111610207576125ea90369060040161306d565b9060a43567ffffffffffffffff81116102075761260b90369060040161306d565b903360005260cb60205261262c60ff60026040600020015460a81c16613627565b3360005260cb60205261264d60ff60026040600020015416610d4281612ffa565b60043515612aea5760c9548060005260cc6020526040600020916004830154421115612a7f57818355600a8301336001600160a01b0319825416179055600435600184015580519067ffffffffffffffff8211611bef5781906126b36007860154612e63565b601f8111612a2c575b50602090601f83116001146129ba576000926129af575b50508160011b916000199060031b1c19161760078301555b835167ffffffffffffffff8111611bef576127096008840154612e63565b601f8111612966575b506020601f82116001146128f75781929394956000926128ec575b50508160011b916000199060031b1c19161760088301555b825167ffffffffffffffff8111611bef5760098301906127658254612e63565b601f81116128a6575b506020601f821160011461283b5781906127de9596600092612830575b50508160011b916000199060031b1c19161790555b600d6024359384600482015560443560068201550160ff1981541690556127c860c9546136f1565b60c9553360005260cf6020526040600020613b01565b5060c954600019810191908211610ed3577f91b289a829e71d811b8c69e4a24ba2d40d115d8a236e9a724cb3bb2d43cf72239160809160405191825233602083015260043560408301526060820152a1005b01519050868061278b565b601f198216958360005260206000209660005b81811061288e5750916127de969791846001959410612875575b505050811b0190556127a0565b015160001960f88460031b161c19169055868080612868565b8383015189556001909801976020938401930161284e565b826000526020600020601f830160051c8101602084106128e5575b601f90920160051c01905b8181106128d9575061276e565b600081556001016128cc565b50806128c1565b01519050858061272d565b6008840160005260206000209060005b601f198416811061294e575060019394959683601f19811610612935575b505050811b016008830155612745565b015160001960f88460031b161c19169055858080612925565b9091602060018192858b015181550193019101612907565b600884016000526020600020601f830160051c8101602084106129a8575b601f90920160051c01905b81811061299c5750612712565b6000815560010161298f565b5080612984565b0151905086806126d3565b9250600785016000526020600020906000935b601f1984168510612a11576001945083601f198116106129f8575b505050811b0160078301556126eb565b015160001960f88460031b161c191690558680806129e8565b818101518355602094850194600190930192909101906129cd565b909150600785016000526020600020601f840160051c810160208510612a78575b90849392915b601f830160051c82018110612a695750506126bc565b60008155859450600101612a53565b5080612a4d565b60405162461bcd60e51b815260206004820152602960248201527f5468652063616d706169676e206d7573742062652061206461746520696e207460448201527f68652066757475726500000000000000000000000000000000000000000000006064820152608490fd5b60405162461bcd60e51b815260206004820152602760248201527f54617267657420616d6f756e74206d757374206265206772656174657220746860448201527f616e207a65726f000000000000000000000000000000000000000000000000006064820152608490fd5b346102075760208060031936011261020757600435903360005260cb8152612b8a60ff60026040600020015460a81c16613627565b612b9760c9548310613700565b3360005260cb8152612bb9600160ff6002604060002001541661064081612ffa565b8160005260cc8152604060002060cd8252604060002033600052825260406000205415612cd057600260ff600d83015416612bf381612ffa565b03612c8b576000808093612c0d6004839501544211613a69565b85825260cd815260408220338352815260408220549086835260cd8152604083209033845252816040812055818115612c82575b3390f115610ebe57604080519182523360208301527f6141b54b56b8a52a8c6f5cd2a857f6117b18ffbf4d46bd3106f300a839cbf5ea9190819081016108d8565b506108fc612c41565b60405162461bcd60e51b815260048101839052601d60248201527f43616d706169676e20686173206e6f742065787069726564207965742e0000006044820152606490fd5b60405162461bcd60e51b815260048101839052602a60248201527f596f752068617665206e6f7420636f6e747269627574656420746f207468697360448201527f2063616d706169676e2e000000000000000000000000000000000000000000006064820152608490fd5b346102075760203660031901126102075760043560005260cc6020526040600020805460018201549160028101546003820154906004830154926005810154600682015460078301612d8c90612f14565b612d9860088501612f14565b91612da560098601612f14565b936001600160a01b039889600a8801541699600b8801541696600d01549860ff8a16986040519d8e809e81526020015260408d015260608c015260808b015260a08a015260c08901526101e08060e08a01528801612e0291612fba565b878103610100890152612e1491612fba565b868103610120880152612e2691612fba565b93610140860152610160850152612e3c81612ffa565b6101808401528060081c60ff1615156101a084015260101c60ff1615156101c08301520390f35b90600182811c92168015612e93575b6020831014612e7d57565b634e487b7160e01b600052602260045260246000fd5b91607f1691612e72565b60a0810190811067ffffffffffffffff821117611bef57604052565b610200810190811067ffffffffffffffff821117611bef57604052565b6060810190811067ffffffffffffffff821117611bef57604052565b90601f8019910116810190811067ffffffffffffffff821117611bef57604052565b9060405191826000825492612f2884612e63565b908184526001948581169081600014612f975750600114612f54575b5050612f5292500383612ef2565b565b9093915060005260209081600020936000915b818310612f7f575050612f5293508201013880612f44565b85548884018501529485019487945091830191612f67565b915050612f5294506020925060ff191682840152151560051b8201013880612f44565b919082519283825260005b848110612fe6575050826000602080949584010152601f8019910116010190565b602081830181015184830182015201612fc5565b6003111561300457565b634e487b7160e01b600052602160045260246000fd5b67ffffffffffffffff8111611bef57601f01601f191660200190565b9291926130428261301a565b916130506040519384612ef2565b829481845281830111610207578281602093846000960137010152565b9080601f830112156102075781602061308893359101613036565b90565b600435906001600160a01b038216820361020757565b90815180825260208080930193019160005b8281106130c1575050505090565b83516001600160a01b0316855293810193928101926001016130b3565b90815180825260208080930193019160005b8281106130fe575050505090565b8351855293810193928101926001016130f0565b90815181526020820151602082015260408201516040820152606082015160608201526080820151608082015260a082015160a082015260c082015160c08201526131d361319d61318961317560e08601516102008060e0880152860190612fba565b610100808701519086830390870152612fba565b610120808601519085830390860152612fba565b6001600160a01b0361014081818701511690850152610160908186015116908401526101808085015190848303908501526130a1565b916101a080820151906131e582612ffa565b8301526101c0808201511515908301526101e080910151151591015290565b602080820190808352835180925260408301928160408460051b8301019501936000915b8483106132385750505050505090565b9091929394958480613256600193603f198682030187528a51613112565b9801930193019194939290613228565b6001600160a01b0360335416330361327a57565b606460405162461bcd60e51b815260206004820152602060248201527f4f776e61626c653a2063616c6c6572206973206e6f7420746865206f776e65726044820152fd5b603354906001600160a01b0380911691826001600160a01b0319821617603355167f8be0079c531659141344cd1fd0a4f28419497f9722a3daafe3b4186f6b6457e0600080a3565b1561330d57565b60405162461bcd60e51b815260206004820152602c60248201527f46756e6374696f6e206d7573742062652063616c6c6564207468726f7567682060448201527f64656c656761746563616c6c00000000000000000000000000000000000000006064820152608490fd5b1561337f57565b60405162461bcd60e51b815260206004820152602c60248201527f46756e6374696f6e206d7573742062652063616c6c6564207468726f7567682060448201527f6163746976652070726f787900000000000000000000000000000000000000006064820152608490fd5b803b1561342d576001600160a01b037f360894a13ba1a3210667c828492db98dca3e2076cc3735a920a3ca505d382bbc91166001600160a01b0319825416179055565b60405162461bcd60e51b815260206004820152602d60248201527f455243313936373a206e657720696d706c656d656e746174696f6e206973206e60448201527f6f74206120636f6e7472616374000000000000000000000000000000000000006064820152608490fd5b919290156134fa57508151156134ac575090565b3b156134b55790565b60405162461bcd60e51b815260206004820152601d60248201527f416464726573733a2063616c6c20746f206e6f6e2d636f6e74726163740000006044820152606490fd5b82519091501561350d5750805190602001fd5b60405162461bcd60e51b815260206004820152908190613531906024830190612fba565b0390fd5b1561353c57565b60405162461bcd60e51b815260206004820152602b60248201527f496e697469616c697a61626c653a20636f6e7472616374206973206e6f74206960448201527f6e697469616c697a696e670000000000000000000000000000000000000000006064820152608490fd5b903360005260cb602052604060002060ff600282015460a81c169283613604575b50826135df575b50506135da57600090565b600190565b6135ed919250600101612f14565b6020815191012090602081519101201438806135cf565b90925061361083612f14565b6020815191012090602081519101201491386135c8565b1561362e57565b60405162461bcd60e51b815260206004820152602360248201527f4f6e6c792076657269666965642075736572732063616e20706172746963697060448201526261746560e81b6064820152608490fd5b1561368657565b60405162461bcd60e51b815260206004820152603c60248201527f4f6e6c79207573657273206f662074686520737065636966696564206361746560448201527f676f72792063616e20706572666f726d207468697320616374696f6e000000006064820152608490fd5b6000198114610ed35760010190565b1561370757565b60405162461bcd60e51b815260206004820152601760248201527f43616d706169676e20646f6573206e6f742065786973740000000000000000006044820152606490fd5b1561375357565b60405162461bcd60e51b815260206004820152601760248201527f43616d706169676e206973206e6f74206f6e676f696e670000000000000000006044820152606490fd5b1561379f57565b60405162461bcd60e51b815260206004820152603360248201527f46756e647320666f7220746869732063616d706169676e206861766520616c7260448201527f65616479206265656e2072656365697665642e000000000000000000000000006064820152608490fd5b91908201809211610ed357565b805482101561382f5760005260206000200190600090565b634e487b7160e01b600052603260045260246000fd5b67ffffffffffffffff8111611bef5760051b60200190565b9061386782613845565b6138746040519182612ef2565b8281528092613885601f1991613845565b0190602036910137565b805182101561382f5760209160051b010190565b9060405191828154918282526020928383019160005283600020936000905b8282106138d857505050612f5292500383612ef2565b85546001600160a01b0316845260019586019588955093810193909101906138c2565b6040519061390882612eb9565b816101e06000918281528260208201528260408201528260608201528260808201528260a08201528260c0820152606060e08201526060610100820152606061012082015282610140820152826101608201526060610180820152826101a0820152826101c08201520152565b9061397f82613845565b61398c6040519182612ef2565b828152809261399d601f1991613845565b019060005b8281106139ae57505050565b6020906139b96138fb565b828285010152016139a2565b156139cc57565b60405162461bcd60e51b815260206004820152601960248201527f43616d706169676e206973206e6f7420636f6d706c65746564000000000000006044820152606490fd5b15613a1857565b60405162461bcd60e51b815260206004820152602360248201527f4e6f20726571756573742065786973747320666f7220746869732063616d706160448201526234b3b760e91b6064820152608490fd5b15613a7057565b60405162461bcd60e51b815260206004820152602560248201527f43616d706169676e20646561646c696e6520686173206e6f742070617373656460448201527f207965742e0000000000000000000000000000000000000000000000000000006064820152608490fd5b60005260ce60205260406000203360005260205260ff604060002054166135da57600090565b91906001830160009082825280602052604082205415600014613b7d5784549468010000000000000000861015613b6957613b46866001604096979801835582613817565b81549060031b9087821b91600019901b1916179055549382526020522055600190565b634e487b7160e01b83526041600452602483fd5b5092505056fea164736f6c6343000812000a",
  "linkReferences": {},
  "deployedLinkReferences": {}
}