{
  "_format": "hh-sol-artifact-1",
  "contractName": "CampaignRegistry",
  "sourceName": "contracts/CampaignRegistry.sol",
  "abi": [
    {
      "anonymous": false,
      "inputs": [
        {
          "indexed": false,
          "internalType": "address",
          "name": "previousAdmin",
          "type": "address"
        },
        {
          "indexed": false,
          "internalType": "address",
          "name": "newAdmin",
          "type": "address"
        }
      ],
      "name": "AdminChanged",
      "type": "event"
    },
    {
      "anonymous": false,
      "inputs": [
        {
          "indexed": true,
          "internalType": "address",
          "name": "beacon",
          "type": "address"
        }
      ],
      "name": "BeaconUpgraded",
      "type": "event"
    },
    {
      "anonymous": false,
      "inputs": [
        {
          "indexed": false,
          "internalType": "uint256",
          "name": "campaignId",
          "type": "uint256"
        },
        {
          "indexed": false,
          "internalType": "address",
          "name": "entrepreneur",
          "type": "address"
        },
        {
          "indexed": false,
          "internalType": "uint256",
          "name": "targetAmount",
          "type": "uint256"
        },
        {
          "indexed": false,
          "internalType": "uint256",
          "name": "deadline",
          "type": "uint256"
        }
      ],
      "name": "CampaignCreated",
      "type": "event"
    },
    {
      "anonymous": false,
      "inputs": [
        {
          "indexed": false,
          "internalType": "uint256",
          "name": "campaignId",
          "type": "uint256"
        },
        {
          "indexed": false,
          "internalType": "address",
          "name": "investor",
          "type": "address"
        },
        {
          "indexed": false,
          "internalType": "uint256",
          "name": "amount",
          "type": "uint256"
        }
      ],
      "name": "ContributionMade",
      "type": "event"
    },
    {
      "anonymous": false,
      "inputs": [
        {
          "indexed": false,
          "internalType": "uint256",
          "name": "campaignId",
          "type": "uint256"
        }
      ],
      "name": "FundReleaseDeclined",
      "type": "event"
    },
    {
      "anonymous": false,
      "inputs": [
        {
          "indexed": false,
          "internalType": "uint256",
          "name": "campaignId",
          "type": "uint256"
        }
      ],
      "name": "FundsReceived",
      "type": "event"
    },
    {
      "anonymous": false,
      "inputs": [
        {
          "indexed": false,
          "internalType": "uint256",
          "name": "campaignId",
          "type": "uint256"
        },
        {
          "indexed": false,
          "internalType": "address",
          "name": "vendor",
          "type": "address"
        },
        {
          "indexed": false,
          "internalType": "uint256",
          "name": "amount",
          "type": "uint256"
        }
      ],
      "name": "FundsReleased",
      "type": "event"
    },
    {
      "anonymous": false,
      "inputs": [
        {
          "indexed": false,
          "internalType": "uint256",
          "name": "campaignId",
          "type": "uint256"
        },
        {
          "indexed": false,
          "internalType": "address",
          "name": "investor",
          "type": "address"
        }
      ],
      "name": "FundsWithdrawn",
      "type": "event"
    },
    {
      "anonymous": false,
      "inputs": [
        {
          "indexed": false,
          "internalType": "uint8",
          "name": "version",
          "type": "uint8"
        }
      ],
      "name": "Initialized",
      "type": "event"
    },
    {
      "anonymous": false,
      "inputs": [
        {
          "indexed": true,
          "internalType": "address",
          "name": "previousOwner",
          "type": "address"
        },
        {
          "indexed": true,
          "internalType": "address",
          "name": "newOwner",
          "type": "address"
        }
      ],
      "name": "OwnershipTransferred",
      "type": "event"
    },
    {
      "anonymous": false,
      "inputs": [
        {
          "indexed": false,
          "internalType": "uint256",
          "name": "campaignId",
          "type": "uint256"
        },
        {
          "indexed": false,
          "internalType": "address",
          "name": "investor",
          "type": "address"
        }
      ],
      "name": "RequestApproved",
      "type": "event"
    },
    {
      "anonymous": false,
      "inputs": [
        {
          "indexed": false,
          "internalType": "uint256",
          "name": "campaignId",
          "type": "uint256"
        },
        {
          "indexed": false,
          "internalType": "uint256",
          "name": "requestAmount",
          "type": "uint256"
        }
      ],
      "name": "RequestCreated",
      "type": "event"
    },
    {
      "anonymous": false,
      "inputs": [
        {
          "indexed": true,
          "internalType": "address",
          "name": "implementation",
          "type": "address"
        }
      ],
      "name": "Upgraded",
      "type": "event"
    },
    {
      "anonymous": false,
      "inputs": [
        {
          "indexed": false,
          "internalType": "string",
          "name": "email",
          "type": "string"
        },
        {
          "indexed": false,
          "internalType": "bool",
          "name": "verified",
          "type": "bool"
        },
        {
          "indexed": false,
          "internalType": "address",
          "name": "walletAddress",
          "type": "address"
        }
      ],
      "name": "UserRegistered",
      "type": "event"
    },
    {
      "inputs": [
        {
          "internalType": "address",
          "name": "_owner",
          "type": "address"
        },
        {
          "internalType": "uint256",
          "name": "index",
          "type": "uint256"
        }
      ],
      "name": "_campaignOfEntrepreneurByIndex",
      "outputs": [
        {
          "internalType": "uint256",
          "name": "",
          "type": "uint256"
        }
      ],
      "stateMutability": "view",
      "type": "function"
    },
    {
      "inputs": [
        {
          "internalType": "uint256",
          "name": "_campaignId",
          "type": "uint256"
        }
      ],
      "name": "approveFundReleaseRequest",
      "outputs": [],
      "stateMutability": "nonpayable",
      "type": "function"
    },
    {
      "inputs": [
        {
          "internalType": "uint256",
          "name": "",
          "type": "uint256"
        }
      ],
      "name": "campaigns",
      "outputs": [
        {
          "internalType": "uint256",
          "name": "campaignId",
          "type": "uint256"
        },
        {
          "internalType": "uint256",
          "name": "targetAmount",
          "type": "uint256"
        },
        {
          "internalType": "uint256",
          "name": "raisedAmount",
          "type": "uint256"
        },
        {
          "internalType": "uint256",
          "name": "requestAmount",
          "type": "uint256"
        },
        {
          "internalType": "uint256",
          "name": "deadline",
          "type": "uint256"
        },
        {
          "internalType": "uint256",
          "name": "completeAt",
          "type": "uint256"
        },
        {
          "internalType": "uint256",
          "name": "minimumContribution",
          "type": "uint256"
        },
        {
          "internalType": "string",
          "name": "imageUri",
          "type": "string"
        },
        {
          "internalType": "string",
          "name": "campaignTitle",
          "type": "string"
        },
        {
          "internalType": "string",
          "name": "campaignDescription",
          "type": "string"
        },
        {
          "internalType": "address",
          "name": "entrepreneur",
          "type": "address"
        },
        {
          "internalType": "address payable",
          "name": "vendor",
          "type": "address"
        },
        {
          "internalType": "enum ICampaignRegistry.CampaignStatus",
          "name": "status",
          "type": "uint8"
        },
        {
          "internalType": "bool",
          "name": "requestCreated",
          "type": "bool"
        },
        {
          "internalType": "bool",
          "name": "fundsReceived",
          "type": "bool"
        }
      ],
      "stateMutability": "view",
      "type": "function"
    },
    {
      "inputs": [
        {
          "internalType": "uint256",
          "name": "_campaignId",
          "type": "uint256"
        }
      ],
      "name": "confirmFundsReceived",
      "outputs": [],
      "stateMutability": "nonpayable",
      "type": "function"
    },
    {
      "inputs": [
        {
          "internalType": "uint256",
          "name": "_targetAmount",
          "type": "uint256"
        },
        {
          "internalType": "uint256",
          "name": "_deadline",
          "type": "uint256"
        },
        {
          "internalType": "uint256",
          "name": "minimumContribution",
          "type": "uint256"
        },
        {
          "internalType": "string",
          "name": "_imageUri",
          "type": "string"
        },
        {
          "internalType": "string",
          "name": "_campaignTitle",
          "type": "string"
        },
        {
          "internalType": "string",
          "name": "_campaignDescription",
          "type": "string"
        }
      ],
      "name": "createCampaign",
      "outputs": [],
      "stateMutability": "nonpayable",
      "type": "function"
    },
    {
      "inputs": [
        {
          "internalType": "uint256",
          "name": "_campaignId",
          "type": "uint256"
        },
        {
          "internalType": "uint256",
          "name": "_requestAmount",
          "type": "uint256"
        },
        {
          "internalType": "address payable",
          "name": "_vendorAddress",
          "type": "address"
        }
      ],
      "name": "createFundReleaseRequest",
      "outputs": [],
      "stateMutability": "nonpayable",
      "type": "function"
    },
    {
      "inputs": [
        {
          "internalType": "uint256",
          "name": "_campaignId",
          "type": "uint256"
        }
      ],
      "name": "declineFundRelease",
      "outputs": [],
      "stateMutability": "nonpayable",
      "type": "function"
    },
    {
      "inputs": [
        {
          "internalType": "uint256",
          "name": "_campaignId",
          "type": "uint256"
        }
      ],
      "name": "donateToCampaign",
      "outputs": [],
      "stateMutability": "payable",
      "type": "function"
    },
    {
      "inputs": [
        {
          "internalType": "uint256",
          "name": "_campaignId",
          "type": "uint256"
        }
      ],
      "name": "getAllDonations",
      "outputs": [
        {
          "internalType": "uint256[]",
          "name": "",
          "type": "uint256[]"
        }
      ],
      "stateMutability": "view",
      "type": "function"
    },
    {
      "inputs": [
        {
          "internalType": "uint256",
          "name": "_campaignId",
          "type": "uint256"
        }
      ],
      "name": "getAllDonators",
      "outputs": [
        {
          "internalType": "address[]",
          "name": "",
          "type": "address[]"
        }
      ],
      "stateMutability": "view",
      "type": "function"
    },
    {
      "inputs": [
        {
          "internalType": "uint256",
          "name": "_campaignId",
          "type": "uint256"
        }
      ],
      "name": "getCampaignById",
      "outputs": [
        {
          "components": [
            {
              "internalType": "uint256",
              "name": "campaignId",
              "type": "uint256"
            },
            {
              "internalType": "uint256",
              "name": "targetAmount",
              "type": "uint256"
            },
            {
              "internalType": "uint256",
              "name": "raisedAmount",
              "type": "uint256"
            },
            {
              "internalType": "uint256",
              "name": "requestAmount",
              "type": "uint256"
            },
            {
              "internalType": "uint256",
              "name": "deadline",
              "type": "uint256"
            },
            {
              "internalType": "uint256",
              "name": "completeAt",
              "type": "uint256"
            },
            {
              "internalType": "uint256",
              "name": "minimumContribution",
              "type": "uint256"
            },
            {
              "internalType": "string",
              "name": "imageUri",
              "type": "string"
            },
            {
              "internalType": "string",
              "name": "campaignTitle",
              "type": "string"
            },
            {
              "internalType": "string",
              "name": "campaignDescription",
              "type": "string"
            },
            {
              "internalType": "address",
              "name": "entrepreneur",
              "type": "address"
            },
            {
              "internalType": "address payable",
              "name": "vendor",
              "type": "address"
            },
            {
              "internalType": "address[]",
              "name": "investors",
              "type": "address[]"
            },
            {
              "internalType": "enum ICampaignRegistry.CampaignStatus",
              "name": "status",
              "type": "uint8"
            },
            {
              "internalType": "bool",
              "name": "requestCreated",
              "type": "bool"
            },
            {
              "internalType": "bool",
              "name": "fundsReceived",
              "type": "bool"
            }
          ],
          "internalType": "struct ICampaignRegistry.Campaign",
          "name": "",
          "type": "tuple"
        }
      ],
      "stateMutability": "view",
      "type": "function"
    },
    {
      "inputs": [],
      "name": "getCampaigns",
      "outputs": [
        {
          "components": [
            {
              "internalType": "uint256",
              "name": "campaignId",
              "type": "uint256"
            },
            {
              "internalType": "uint256",
              "name": "targetAmount",
              "type": "uint256"
            },
            {
              "internalType": "uint256",
              "name": "raisedAmount",
              "type": "uint256"
            },
            {
              "internalType": "uint256",
              "name": "requestAmount",
              "type": "uint256"
            },
            {
              "internalType": "uint256",
              "name": "deadline",
              "type": "uint256"
            },
            {
              "internalType": "uint256",
              "name": "completeAt",
              "type": "uint256"
            },
            {
              "internalType": "uint256",
              "name": "minimumContribution",
              "type": "uint256"
            },
            {
              "internalType": "string",
              "name": "imageUri",
              "type": "string"
            },
            {
              "internalType": "string",
              "name": "campaignTitle",
              "type": "string"
            },
            {
              "internalType": "string",
              "name": "campaignDescription",
              "type": "string"
            },
            {
              "internalType": "address",
              "name": "entrepreneur",
              "type": "address"
            },
            {
              "internalType": "address payable",
              "name": "vendor",
              "type": "address"
            },
            {
              "internalType": "address[]",
              "name": "investors",
              "type": "address[]"
            },
            {
              "internalType": "enum ICampaignRegistry.CampaignStatus",
              "name": "status",
              "type": "uint8"
            },
            {
              "internalType": "bool",
              "name": "requestCreated",
              "type": "bool"
            },
            {
              "internalType": "bool",
              "name": "fundsReceived",
              "type": "bool"
            }
          ],
          "internalType": "struct ICampaignRegistry.Campaign[]",
          "name": "",
          "type": "tuple[]"
        }
      ],
      "stateMutability": "view",
      "type": "function"
    },
    {
      "inputs": [
        {
          "internalType": "address",
          "name": "_entrepreneur",
          "type": "address"
        }
      ],
      "name": "getCampaignsByEntrepreneur",
      "outputs": [
        {
          "components": [
            {
              "internalType": "uint256",
              "name": "campaignId",
              "type": "uint256"
            },
            {
              "internalType": "uint256",
              "name": "targetAmount",
              "type": "uint256"
            },
            {
              "internalType": "uint256",
              "name": "raisedAmount",
              "type": "uint256"
            },
            {
              "internalType": "uint256",
              "name": "requestAmount",
              "type": "uint256"
            },
            {
              "internalType": "uint256",
              "name": "deadline",
              "type": "uint256"
            },
            {
              "internalType": "uint256",
              "name": "completeAt",
              "type": "uint256"
            },
            {
              "internalType": "uint256",
              "name": "minimumContribution",
              "type": "uint256"
            },
            {
              "internalType": "string",
              "name": "imageUri",
              "type": "string"
            },
            {
              "internalType": "string",
              "name": "campaignTitle",
              "type": "string"
            },
            {
              "internalType": "string",
              "name": "campaignDescription",
              "type": "string"
            },
            {
              "internalType": "address",
              "name": "entrepreneur",
              "type": "address"
            },
            {
              "internalType": "address payable",
              "name": "vendor",
              "type": "address"
            },
            {
              "internalType": "address[]",
              "name": "investors",
              "type": "address[]"
            },
            {
              "internalType": "enum ICampaignRegistry.CampaignStatus",
              "name": "status",
              "type": "uint8"
            },
            {
              "internalType": "bool",
              "name": "requestCreated",
              "type": "bool"
            },
            {
              "internalType": "bool",
              "name": "fundsReceived",
              "type": "bool"
            }
          ],
          "internalType": "struct ICampaignRegistry.Campaign[]",
          "name": "",
          "type": "tuple[]"
        }
      ],
      "stateMutability": "view",
      "type": "function"
    },
    {
      "inputs": [
        {
          "internalType": "uint256",
          "name": "_campaignId",
          "type": "uint256"
        }
      ],
      "name": "getInvestorDonations",
      "outputs": [
        {
          "internalType": "address[]",
          "name": "",
          "type": "address[]"
        },
        {
          "internalType": "uint256[]",
          "name": "",
          "type": "uint256[]"
        }
      ],
      "stateMutability": "view",
      "type": "function"
    },
    {
      "inputs": [
        {
          "internalType": "address",
          "name": "_investor",
          "type": "address"
        }
      ],
      "name": "getTotalCampaignsByInvestor",
      "outputs": [
        {
          "internalType": "uint256",
          "name": "",
          "type": "uint256"
        }
      ],
      "stateMutability": "view",
      "type": "function"
    },
    {
      "inputs": [
        {
          "internalType": "address",
          "name": "_walltetAddress",
          "type": "address"
        }
      ],
      "name": "getUserByAddress",
      "outputs": [
        {
          "components": [
            {
              "internalType": "string",
              "name": "email",
              "type": "string"
            },
            {
              "internalType": "string",
              "name": "password",
              "type": "string"
            },
            {
              "internalType": "enum ICampaignRegistry.Category",
              "name": "category",
              "type": "uint8"
            },
            {
              "internalType": "address",
              "name": "walletAddress",
              "type": "address"
            },
            {
              "internalType": "bool",
              "name": "verified",
              "type": "bool"
            }
          ],
          "internalType": "struct ICampaignRegistry.User",
          "name": "",
          "type": "tuple"
        }
      ],
      "stateMutability": "view",
      "type": "function"
    },
    {
      "inputs": [],
      "name": "initialize",
      "outputs": [],
      "stateMutability": "nonpayable",
      "type": "function"
    },
    {
      "inputs": [
        {
          "internalType": "uint256",
          "name": "_campaignId",
          "type": "uint256"
        }
      ],
      "name": "isRequestApprovedOrDeclined",
      "outputs": [
        {
          "internalType": "bool",
          "name": "",
          "type": "bool"
        }
      ],
      "stateMutability": "view",
      "type": "function"
    },
    {
      "inputs": [
        {
          "internalType": "uint256",
          "name": "_campaignId",
          "type": "uint256"
        }
      ],
      "name": "makeCampaignExpired",
      "outputs": [],
      "stateMutability": "nonpayable",
      "type": "function"
    },
    {
      "inputs": [],
      "name": "owner",
      "outputs": [
        {
          "internalType": "address",
          "name": "",
          "type": "address"
        }
      ],
      "stateMutability": "view",
      "type": "function"
    },
    {
      "inputs": [],
      "name": "proxiableUUID",
      "outputs": [
        {
          "internalType": "bytes32",
          "name": "",
          "type": "bytes32"
        }
      ],
      "stateMutability": "view",
      "type": "function"
    },
    {
      "inputs": [
        {
          "internalType": "string",
          "name": "_email",
          "type": "string"
        },
        {
          "internalType": "string",
          "name": "_password",
          "type": "string"
        },
        {
          "internalType": "enum ICampaignRegistry.Category",
          "name": "_category",
          "type": "uint8"
        }
      ],
      "name": "registerUser",
      "outputs": [],
      "stateMutability": "nonpayable",
      "type": "function"
    },
    {
      "inputs": [
        {
          "internalType": "uint256",
          "name": "_campaignId",
          "type": "uint256"
        }
      ],
      "name": "releaseFundsToVendors",
      "outputs": [],
      "stateMutability": "nonpayable",
      "type": "function"
    },
    {
      "inputs": [],
      "name": "renounceOwnership",
      "outputs": [],
      "stateMutability": "nonpayable",
      "type": "function"
    },
    {
      "inputs": [
        {
          "internalType": "address",
          "name": "newOwner",
          "type": "address"
        }
      ],
      "name": "transferOwnership",
      "outputs": [],
      "stateMutability": "nonpayable",
      "type": "function"
    },
    {
      "inputs": [
        {
          "internalType": "address",
          "name": "newImplementation",
          "type": "address"
        }
      ],
      "name": "upgradeTo",
      "outputs": [],
      "stateMutability": "nonpayable",
      "type": "function"
    },
    {
      "inputs": [
        {
          "internalType": "address",
          "name": "newImplementation",
          "type": "address"
        },
        {
          "internalType": "bytes",
          "name": "data",
          "type": "bytes"
        }
      ],
      "name": "upgradeToAndCall",
      "outputs": [],
      "stateMutability": "payable",
      "type": "function"
    },
    {
      "inputs": [
        {
          "internalType": "address",
          "name": "",
          "type": "address"
        }
      ],
      "name": "users",
      "outputs": [
        {
          "internalType": "string",
          "name": "email",
          "type": "string"
        },
        {
          "internalType": "string",
          "name": "password",
          "type": "string"
        },
        {
          "internalType": "enum ICampaignRegistry.Category",
          "name": "category",
          "type": "uint8"
        },
        {
          "internalType": "address",
          "name": "walletAddress",
          "type": "address"
        },
        {
          "internalType": "bool",
          "name": "verified",
          "type": "bool"
        }
      ],
      "stateMutability": "view",
      "type": "function"
    },
    {
      "inputs": [
        {
          "internalType": "uint256",
          "name": "_campaignId",
          "type": "uint256"
        }
      ],
      "name": "withdrawFunds",
      "outputs": [],
      "stateMutability": "nonpayable",
      "type": "function"
    }
  ],
  "bytecode": "0x60a080604052346100315730608052613ab39081610037823960805181818161162b015281816117370152611d650152f35b600080fdfe6080604052600436101561001257600080fd5b60003560e01c8063141961bc14612cd9578063155dd5ee14612af35780631ad417bf1461253757806324777746146124ed5780632e17a93114611fda5780633659cfe614611d3f57806342a4fda8146119af5780634f1ef286146116e657806352d1902d1461161057806367c2cbad1461152d57806369c212f61461141a5780636aaa4e28146113a457806370debcf714611145578063715018a6146110ea57806373f1301614610fb057806374c49fd514610cd45780638129fc1c14610b7f5780638da5cb5b14610b585780638e5baa6214610ada578063a6b036331461098d578063a7247cd9146107b7578063a87430ba14610715578063ae1f6802146105d2578063e27883fb1461058f578063e6ffcaa114610467578063edc2305a14610427578063efb80183146102a7578063f2fde38b146102015763ffa676d11461015b57600080fd5b346101fc576020806003193601126101fc57600435908160005260cc8152600c6040600020019182549061018e8261377b565b9360005b8381106101b057604051858152806101ac8188018961307c565b0390f35b806001600160a01b036101c66101f79385613735565b9190548660005260cd895260406000209260031b1c1660005286526040600020546101f182896137ad565b5261360f565b610192565b600080fd5b346101fc5760203660031901126101fc5761021a613029565b610222613204565b6001600160a01b0381161561023c5761023a9061325c565b005b60405162461bcd60e51b815260206004820152602660248201527f4f776e61626c653a206e6577206f776e657220697320746865207a65726f206160448201527f64647265737300000000000000000000000000000000000000000000000000006064820152608490fd5b346101fc576020806003193601126101fc576001600160a01b03806102ca613029565b16908160005260cf90818452604060002054916102e683613893565b9360005b8481106102ff57604051806101ac88826131a2565b81600052828752610314816040600020613735565b919054600392831b1c60005260cc885260406000206040519061033682612e57565b80548252600193848201548b84015260028201546040840152810154606083015260048101546080830152600581015460a0830152600681015460c083015261038160078201612eb2565b60e0830152600d600891610396838201612eb2565b6101008501526103a860098201612eb2565b61012085015288600a8201541661014085015288600b820154166101608501526103d4600c82016137c1565b6101808501520154809160ff9283918282166103ef81612f98565b6101a08701521c1615156101c084015260101c1615156101e082015261041582896137ad565b5261042081886137ad565b50016102ea565b346101fc5760203660031901126101fc5760043560005260cc602052600d604060002061045960048201544211613987565b01805460ff19166002179055005b346101fc5760203660031901126101fc57610480613819565b5060043560005260cc6020526101ac604060002060ff600d604051926104a584612e57565b8054845260018101546020850152600281015460408501526003810154606085015260048101546080850152600581015460a0850152600681015460c08501526104f160078201612eb2565b60e085015261050260088201612eb2565b61010085015261051460098201612eb2565b6101208501526001600160a01b0380600a83015416610140860152600b82015416610160850152610547600c82016137c1565b610180850152015481811661055b81612f98565b6101a0840152818160081c1615156101c084015260101c1615156101e08201526040519182916020835260208301906130b0565b346101fc5760203660031901126101fc5760043560005260cc6020526101ac6105be600c6040600020016137c1565b60405191829160208352602083019061303f565b346101fc576020806003193601126101fc57600435903360005260cb815261060760ff60026040600020015460a81c16613545565b61061460c954831061361e565b3360005260cb815261063b600260ff81604060002001541661063581612f98565b1461359d565b8160005260cc8152604060002091336001600160a01b03600b85015416036106aa57600d7fbcdc7071c1beb6dcf2744621e0b29a2f2432ee20812d9ca5e3d5e8f9308d93a3930162010000815461069860ff8260101c16156136b6565b62ff00001916179055604051908152a1005b60405162461bcd60e51b815260048101839052603460248201527f4f6e6c79207468652063616d706169676e2076656e646f722063616e20636f6e60448201527f6669726d2066756e64732072656365697665642e0000000000000000000000006064820152608490fd5b346101fc5760203660031901126101fc576107816001600160a01b038061073a613029565b1660005260cb602052604060002060ff61075382612eb2565b92600261076260018501612eb2565b9301549061078f8383169460405197889760a0895260a0890190612f58565b908782036020890152612f58565b9361079981612f98565b60408601528160081c16606085015260a81c16151560808301520390f35b346101fc576020806003193601126101fc57600435903360005260cb81526107ec60ff60026040600020015460a81c16613545565b6107f960c954831061361e565b3360005260cb815261081b600160ff6002604060002001541661063581612f98565b8160005260cc8152604060002060cd825260406000203360005282526040600020541561093c5760ff600d61085592015460081c1661392f565b8160005260ce8152604060002033600052815260ff604060002054166108d257600082815260ce8252604080822033808452935290819020805460ff19166001179055805192835260208301919091527ff3dc904660a0ea05aba8dfa1e21fbc4fb2914be2a3029da7b0fdd3e5eee20ddb9190819081015b0390a1005b6084906040519062461bcd60e51b82526004820152602960248201527f496e766573746f722068617320616c726561647920617070726f76656420746860448201527f65207265717565737400000000000000000000000000000000000000000000006064820152fd5b60405162461bcd60e51b8152600481018390526024808201527f4f6e6c7920696e766573746f72732063616e20617070726f76652061207265716044820152631d595cdd60e21b6064820152608490fd5b346101fc5760003660031901126101fc5760c9546109aa81613893565b9060005b8181106109c357604051806101ac85826131a2565b8060005260209060cc82526040600020604051906109e082612e57565b805482526001938482015490830152600281015460408301526003810154606083015260048101546080830152600581015460a0830152600681015460c0830152610a2d60078201612eb2565b60e0830152600d600891610a42838201612eb2565b610100850152610a5460098201612eb2565b6101208501526001600160a01b0380600a83015416610140860152600b82015416610160850152610a87600c82016137c1565b6101808501520154809160ff928391828216610aa281612f98565b6101a08701521c1615156101c084015260101c1615156101e0820152610ac882866137ad565b52610ad381856137ad565b50016109ae565b346101fc576020806003193601126101fc57610af4613029565b60c9546000916001600160a01b0316825b828110610b1757505050604051908152f35b8060005260cd85526040600020826000528552604060002054610b43575b610b3e9061360f565b610b05565b92610b50610b3e9161360f565b939050610b35565b346101fc5760003660031901126101fc5760206001600160a01b0360335416604051908152f35b346101fc5760003660031901126101fc5760005460ff8160081c161590818092610cc7575b8015610cb0575b15610c455760ff19811660011760005581610c33575b50610bdc60ff60005460081c16610bd7816134d3565b6134d3565b610be53361325c565b60005490610bf860ff8360081c166134d3565b610bfe57005b61ff0019166000557f7f26b83ff96e1f2b6a682f133852f6798a09c465da95921460cefb3847402498602060405160018152a1005b61ffff19166101011760005581610bc1565b60405162461bcd60e51b815260206004820152602e60248201527f496e697469616c697a61626c653a20636f6e747261637420697320616c72656160448201527f647920696e697469616c697a65640000000000000000000000000000000000006064820152608490fd5b50303b158015610bab5750600160ff821614610bab565b50600160ff821610610ba4565b346101fc576020806003193601126101fc57600435903360005260cb815260ff91610d0b8360026040600020015460a81c16613545565b610d1860c954821061361e565b3360005260cb8252610d3d8360026040600020015416610d3781612f98565b1561359d565b8060005260cc8252604060002092600d840190610d68600182845416610d6281612f98565b146138e3565b8260005260cc84526040600020805460005260ca855260406000205460011c91600c600092019081549160005b838110610f53575050505010610ede578160005260cc83526040600020906001600160a01b039384600b840154169460026003809501549701805490888203918211610ec857558460005260cc825260008080808a85600b60408420015416828215610ebf575bf115610eb35760ff19926001848254161790558460005260cc8252600c6040600020019384549460005b868110610e7557604080518981526001600160a01b038b1660208201529081018b90527f6e3c6096795c8298a218b2cfb8bde42726ff7c9a3d27b4d3ba41ab7f74feb5fb9080606081016108cd565b8084610e84610eae9385613735565b905490861b1c168960005260ce87526040600020906000528652604060002087815416905561360f565b610e26565b6040513d6000823e3d90fd5b506108fc610dfc565b634e487b7160e01b600052601160045260246000fd5b60405162461bcd60e51b815260048101849052604160248201527f5265717565737420686173206e6f74206265656e20617070726f76656420627960448201527f20746865207265717569726564206e756d626572206f6620696e766573746f726064820152607360f81b608482015260a490fd5b6001600160a01b03610f658284613735565b9190548a60005260ce8c5260406000209260031b1c1660005289528260406000205416610f9b575b610f969061360f565b610d95565b93610fa8610f969161360f565b949050610f8d565b346101fc576020806003193601126101fc57600435903360005260cb8152610fe560ff60026040600020015460a81c16613545565b610ff260c954831061361e565b3360005260cb8152611014600160ff6002604060002001541661063581612f98565b8160005260cc815260406000209160cd82526040600020336000528252604060002054156110995761107060ff600d7fbb447f2506f46702f313360e42b26bacac341b607c973ef8fe11ee7eb901bea195015460081c1661392f565b8060005260ce82526040600020336000528252604060002060ff198154169055604051908152a1005b60405162461bcd60e51b8152600481018390526024808201527f4f6e6c7920696e766573746f72732063616e206465636c696e652061207265716044820152631d595cdd60e21b6064820152608490fd5b346101fc5760003660031901126101fc57611103613204565b60006001600160a01b036033546001600160a01b03198116603355167f8be0079c531659141344cd1fd0a4f28419497f9722a3daafe3b4186f6b6457e08280a3005b346101fc5760603660031901126101fc576001600160a01b03600435602435604435838116908190036101fc573360005260209360cb855261119460ff60026040600020015460a81c16613545565b6111a160c954851061361e565b3360005260cb85526111c160ff60026040600020015416610d3781612f98565b8360005260cc8552604060002090600d8201908154906111e9600160ff8416610d6281612f98565b3390600a85015416036113395760ff8160081c166112ce5760028301548511611263576003830185905561ff001916610100179055600b0180546001600160a01b031916909117905560408051928352928201527f99f063607b2d9f794eb8985daf4a0d3224e73b48e43228a183329e415dff077e9190a1005b60405162461bcd60e51b815260048101889052603e60248201527f5265717565737420616d6f756e74206d757374206265206c657373207468616e60448201527f206f7220657175616c20746f207468652072616973656420616d6f756e7400006064820152608490fd5b60405162461bcd60e51b815260048101889052603460248201527f4120726571756573742068617320616c7265616479206265656e20637265617460448201527f656420666f7220746869732063616d706169676e0000000000000000000000006064820152608490fd5b60405162461bcd60e51b815260048101889052602a60248201527f4f6e6c792074686520656e7472657072656e6575722063616e2063726561746560448201527f20612072657175657374000000000000000000000000000000000000000000006064820152608490fd5b346101fc5760203660031901126101fc5760206114106004353360005260cb83526113dc60ff60026040600020015460a81c16613545565b6113e960c954821061361e565b3360005260cb835261140b600160ff6002604060002001541661063581612f98565b6139f9565b6040519015158152f35b346101fc576020806003193601126101fc5760a090611437613029565b906000608060405161144881612e3b565b6060815260608482015282604082015282606082015201526001600160a01b0380921660005260cb81526040600020906040519261148584612e3b565b61148e83612eb2565b8452600261149e60018501612eb2565b9383860194855201549161150a60ff84169460408701956114be81612f98565b86526114f76060880193858760081c16855260ff60808a019760a81c1615158752604051998a99828b5251918a015260c0890190612f58565b9051878203601f19016040890152612f58565b935161151581612f98565b60608601525116608084015251151560a08301520390f35b346101fc576020806003193601126101fc576004358060005260cc8252600c604060002001805461155d81613763565b9261156b6040519485612e90565b818452601f1961157a83613763565b0136868601376115898261377b565b9260005b8381106115be576115b1866101ac898860405194859460408652604086019061303f565b918483039085015261307c565b806001600160a01b036115d461160b9385613735565b90549060031b1c16806115e7838a6137ad565b528460005260cd895260406000209060005288526040600020546101f182886137ad565b61158d565b346101fc5760003660031901126101fc576001600160a01b037f000000000000000000000000000000000000000000000000000000000000000016300361167b5760206040517f360894a13ba1a3210667c828492db98dca3e2076cc3735a920a3ca505d382bbc8152f35b60405162461bcd60e51b815260206004820152603860248201527f555550535570677261646561626c653a206d757374206e6f742062652063616c60448201527f6c6564207468726f7567682064656c656761746563616c6c00000000000000006064820152608490fd5b60403660031901126101fc576116fa613029565b60243567ffffffffffffffff81116101fc57366023820112156101fc5761172b903690602481600401359101612fd4565b6001600160a01b0390817f00000000000000000000000000000000000000000000000000000000000000001691611764833014156132a4565b6117937f360894a13ba1a3210667c828492db98dca3e2076cc3735a920a3ca505d382bbc938285541614613316565b7f4910fdfa16fed3260ed0e7147f7cc6da11a60208b5b9406d12a635614ffd91435460ff16156117c95750505061023a90613388565b8316604051926352d1902d60e01b84526020938481600481865afa60009181611980575b5061184e5760405162461bcd60e51b815260048101869052602e60248201527f45524331393637557067726164653a206e657720696d706c656d656e7461746960448201526d6f6e206973206e6f74205555505360901b6064820152608490fd5b939293036119295761185f84613388565b7fbc7cd75a20ee27fd9adebab32041f755214dbc6bffa90cc0225b39da2e5c2d3b600080a2815115801590611921575b61189557005b61023a92600080604051946118a986612e74565b602786527f416464726573733a206c6f772d6c6576656c2064656c65676174652063616c6c85870152660819985a5b195960ca1b60408701528481519101845af4903d15611918573d6118fb81612fb8565b906119096040519283612e90565b8152600081943d92013e613436565b60609250613436565b50600161188f565b60405162461bcd60e51b815260048101839052602960248201527f45524331393637557067726164653a20756e737570706f727465642070726f786044820152681a58589b195555525160ba1b6064820152608490fd5b9091508581813d83116119a8575b6119988183612e90565b810103126101fc575190876117ed565b503d61198e565b6020806003193601126101fc57600435903360005260cb81526119df60ff60026040600020015460a81c16613545565b6119ec60c954831061361e565b3360005260cb8152611a0e600160ff6002604060002001541661063581612f98565b8160005260cc8152611a3460ff600d6040600020015416611a2e81612f98565b1561366a565b8160005260cc8152600460406000200154421015611cfb578160005260cc81526040600020600d810154611a6e60ff8216611a2e81612f98565b6004820154421015611cb6573415611c4b5760068201543410611bfa5760ff611a9b9160101c16156136b6565b8260005260cd825260406000203360005282526040600020611abe348254613728565b905560028101611acf348254613728565b90558260005260ca82526040600020611ae8815461360f565b90558260005260cd825260406000203360005282523460406000205414611b9b575b5060408051838152336020820152349181019190915260cc92907f0a4a91237423e0a1766a761c7cb029311d8b95d6b1b81db1b949a70c98b4e08e90606090a1600052526040600020600281015460018201541115600014611b7e57600d8101805460ff1916600117905542600590910155005b60048101544211611b8b57005b600d01805460ff19166002179055005b600c019182549268010000000000000000841015611be45783611bc591600160cc96018155613735565b81549060031b906001600160a01b0333831b921b191617905591611b0a565b634e487b7160e01b600052604160045260246000fd5b60405162461bcd60e51b815260048101849052602360248201527f41206d696e756d756d20636f6e747269627574696f6e2069732072657175697260448201526232b21760e91b6064820152608490fd5b60405162461bcd60e51b815260048101849052602960248201527f446f6e6174696f6e20616d6f756e74206d75737420626520677265617465722060448201527f7468616e207a65726f00000000000000000000000000000000000000000000006064820152608490fd5b60405162461bcd60e51b815260048101849052601960248201527f43616d706169676e20706572696f642068617320656e646564000000000000006044820152606490fd5b6064906040519062461bcd60e51b82526004820152601560248201527f446561646c696e652068617320706173736564202100000000000000000000006044820152fd5b346101fc576020806003193601126101fc57611d59613029565b6001600160a01b0391827f000000000000000000000000000000000000000000000000000000000000000016611d91813014156132a4565b611dc07f360894a13ba1a3210667c828492db98dca3e2076cc3735a920a3ca505d382bbc918583541614613316565b604051908282019482861067ffffffffffffffff871117611be457856040526000835260ff7f4910fdfa16fed3260ed0e7147f7cc6da11a60208b5b9406d12a635614ffd91435416600014611e1d575050505061023a9150613388565b8492939416906040516352d1902d60e01b81528581600481865afa60009181611fab575b50611ea25760405162461bcd60e51b815260048101879052602e60248201527f45524331393637557067726164653a206e657720696d706c656d656e7461746960448201526d6f6e206973206e6f74205555505360901b6064820152608490fd5b94939403611f5457611eb382613388565b7fbc7cd75a20ee27fd9adebab32041f755214dbc6bffa90cc0225b39da2e5c2d3b600080a2825115801590611f4c575b611ee957005b60008061023a9560405195611efd87612e74565b602787527f416464726573733a206c6f772d6c6576656c2064656c65676174652063616c6c86880152660819985a5b195960ca1b60408801525190845af4903d15611918573d6118fb81612fb8565b506000611ee3565b60405162461bcd60e51b815260048101849052602960248201527f45524331393637557067726164653a20756e737570706f727465642070726f786044820152681a58589b195555525160ba1b6064820152608490fd5b9091508681813d8311611fd3575b611fc38183612e90565b810103126101fc57519088611e41565b503d611fb9565b346101fc5760603660031901126101fc5760043567ffffffffffffffff81116101fc5761200b90369060040161300b565b60243567ffffffffffffffff81116101fc5761202b90369060040161300b565b9060443560038110156101fc578151156124a85782511561246357331561241e573360005260cb60205260ff60026040600020015460a81c166123d9576040519261207584612e3b565b828452602084015261208681612f98565b6040830152336060830152600160808301523360005260cb602052604060002090825192835167ffffffffffffffff8111611be4576120c58454612e01565b601f8111612395575b506020601f821160011461232c578192939495600092612321575b50508160011b916000199060031b1c19161783555b602081015192835167ffffffffffffffff8111611be4576121226001830154612e01565b601f81116122d6575b506020601f82116001146122405791816002926122239695947f427b59b30d98f86c6e6670da78cff4cbaa374e6642ff6d038faa43cbb5fd8de398600092612235575b50508160011b916000199060031b1c19161760018201555b019060408101519061219782612f98565b6121a082612f98565b82547fffffffffffffffffffff0000000000000000000000000000000000000000000060ff75ff000000000000000000000000000000000000000000608074ffffffffffffffffffffffffffffffffffffffff00606087015160081b16950151151560a81b16941691161717179055604051918291606083526060830190612f58565b600160208301523360408301520390a1005b01519050888061216e565b601f198216956001840160005260206000209660005b8181106122be5750927f427b59b30d98f86c6e6670da78cff4cbaa374e6642ff6d038faa43cbb5fd8de3976122239796959360019383600297106122a5575b505050811b016001820155612186565b015160001960f88460031b161c19169055888080612295565b83830151895560019098019760209384019301612256565b600183016000526020600020601f830160051c81019160208410612317575b601f0160051c01905b81811061230b575061212b565b600081556001016122fe565b90915081906122f5565b0151905085806120e9565b8460005260206000209060005b601f198416811061237d575060019394959683601f19811610612364575b505050811b0183556120fe565b015160001960f88460031b161c19169055858080612357565b9091602060018192858b015181550193019101612339565b846000526020600020601f830160051c8101602084106123d2575b601f830160051c820181106123c65750506120ce565b600081556001016123b0565b50806123b0565b60405162461bcd60e51b815260206004820152601a60248201527f5573657220697320616c726561647920726567697374657265640000000000006044820152606490fd5b60405162461bcd60e51b815260206004820152601660248201527f496e76616c69642077616c6c65742061646472657373000000000000000000006044820152606490fd5b60405162461bcd60e51b815260206004820152601860248201527f50617373776f72642063616e6e6f7420626520656d70747900000000000000006044820152606490fd5b60405162461bcd60e51b815260206004820152601560248201527f456d61696c2063616e6e6f7420626520656d70747900000000000000000000006044820152606490fd5b346101fc5760403660031901126101fc576001600160a01b0361250e613029565b1660005260cf60205260206125296024356040600020613735565b90546040519160031b1c8152f35b346101fc5760c03660031901126101fc5760643567ffffffffffffffff81116101fc5761256890369060040161300b565b60843567ffffffffffffffff81116101fc5761258890369060040161300b565b9060a43567ffffffffffffffff81116101fc576125a990369060040161300b565b903360005260cb6020526125ca60ff60026040600020015460a81c16613545565b3360005260cb6020526125eb60ff60026040600020015416610d3781612f98565b60043515612a885760c9548060005260cc6020526040600020916004830154421115612a1d57818355600a8301336001600160a01b0319825416179055600435600184015580519067ffffffffffffffff8211611be45781906126516007860154612e01565b601f81116129ca575b50602090601f83116001146129585760009261294d575b50508160011b916000199060031b1c19161760078301555b835167ffffffffffffffff8111611be4576126a76008840154612e01565b601f8111612904575b506020601f821160011461289557819293949560009261288a575b50508160011b916000199060031b1c19161760088301555b825167ffffffffffffffff8111611be45760098301906127038254612e01565b601f8111612844575b506020601f82116001146127d957819061277c95966000926127ce575b50508160011b916000199060031b1c19161790555b600d6024359384600482015560443560068201550160ff19815416905561276660c95461360f565b60c9553360005260cf6020526040600020613a24565b5060c954600019810191908211610ec8577f91b289a829e71d811b8c69e4a24ba2d40d115d8a236e9a724cb3bb2d43cf72239160809160405191825233602083015260043560408301526060820152a1005b015190508680612729565b601f198216958360005260206000209660005b81811061282c57509161277c969791846001959410612813575b505050811b01905561273e565b015160001960f88460031b161c19169055868080612806565b838301518955600190980197602093840193016127ec565b826000526020600020601f830160051c810160208410612883575b601f90920160051c01905b818110612877575061270c565b6000815560010161286a565b508061285f565b0151905085806126cb565b6008840160005260206000209060005b601f19841681106128ec575060019394959683601f198116106128d3575b505050811b0160088301556126e3565b015160001960f88460031b161c191690558580806128c3565b9091602060018192858b0151815501930191016128a5565b600884016000526020600020601f830160051c810160208410612946575b601f90920160051c01905b81811061293a57506126b0565b6000815560010161292d565b5080612922565b015190508680612671565b9250600785016000526020600020906000935b601f19841685106129af576001945083601f19811610612996575b505050811b016007830155612689565b015160001960f88460031b161c19169055868080612986565b8181015183556020948501946001909301929091019061296b565b909150600785016000526020600020601f840160051c810160208510612a16575b90849392915b601f830160051c82018110612a0757505061265a565b600081558594506001016129f1565b50806129eb565b60405162461bcd60e51b815260206004820152602960248201527f5468652063616d706169676e206d7573742062652061206461746520696e207460448201527f68652066757475726500000000000000000000000000000000000000000000006064820152608490fd5b60405162461bcd60e51b815260206004820152602760248201527f54617267657420616d6f756e74206d757374206265206772656174657220746860448201527f616e207a65726f000000000000000000000000000000000000000000000000006064820152608490fd5b346101fc576020806003193601126101fc57600435903360005260cb8152612b2860ff60026040600020015460a81c16613545565b612b3560c954831061361e565b3360005260cb8152612b57600160ff6002604060002001541661063581612f98565b8160005260cc8152604060002060cd8252604060002033600052825260406000205415612c6e57600260ff600d83015416612b9181612f98565b03612c29576000808093612bab6004839501544211613987565b85825260cd815260408220338352815260408220549086835260cd8152604083209033845252816040812055818115612c20575b3390f115610eb357604080519182523360208301527f6141b54b56b8a52a8c6f5cd2a857f6117b18ffbf4d46bd3106f300a839cbf5ea9190819081016108cd565b506108fc612bdf565b60405162461bcd60e51b815260048101839052601d60248201527f43616d706169676e20686173206e6f742065787069726564207965742e0000006044820152606490fd5b60405162461bcd60e51b815260048101839052602a60248201527f596f752068617665206e6f7420636f6e747269627574656420746f207468697360448201527f2063616d706169676e2e000000000000000000000000000000000000000000006064820152608490fd5b346101fc5760203660031901126101fc5760043560005260cc6020526040600020805460018201549160028101546003820154906004830154926005810154600682015460078301612d2a90612eb2565b612d3660088501612eb2565b91612d4360098601612eb2565b936001600160a01b039889600a8801541699600b8801541696600d01549860ff8a16986040519d8e809e81526020015260408d015260608c015260808b015260a08a015260c08901526101e08060e08a01528801612da091612f58565b878103610100890152612db291612f58565b868103610120880152612dc491612f58565b93610140860152610160850152612dda81612f98565b6101808401528060081c60ff1615156101a084015260101c60ff1615156101c08301520390f35b90600182811c92168015612e31575b6020831014612e1b57565b634e487b7160e01b600052602260045260246000fd5b91607f1691612e10565b60a0810190811067ffffffffffffffff821117611be457604052565b610200810190811067ffffffffffffffff821117611be457604052565b6060810190811067ffffffffffffffff821117611be457604052565b90601f8019910116810190811067ffffffffffffffff821117611be457604052565b9060405191826000825492612ec684612e01565b908184526001948581169081600014612f355750600114612ef2575b5050612ef092500383612e90565b565b9093915060005260209081600020936000915b818310612f1d575050612ef093508201013880612ee2565b85548884018501529485019487945091830191612f05565b915050612ef094506020925060ff191682840152151560051b8201013880612ee2565b919082519283825260005b848110612f84575050826000602080949584010152601f8019910116010190565b602081830181015184830182015201612f63565b60031115612fa257565b634e487b7160e01b600052602160045260246000fd5b67ffffffffffffffff8111611be457601f01601f191660200190565b929192612fe082612fb8565b91612fee6040519384612e90565b8294818452818301116101fc578281602093846000960137010152565b9080601f830112156101fc5781602061302693359101612fd4565b90565b600435906001600160a01b03821682036101fc57565b90815180825260208080930193019160005b82811061305f575050505090565b83516001600160a01b031685529381019392810192600101613051565b90815180825260208080930193019160005b82811061309c575050505090565b83518552938101939281019260010161308e565b90815181526020820151602082015260408201516040820152606082015160608201526080820151608082015260a082015160a082015260c082015160c082015261317161313b61312761311360e08601516102008060e0880152860190612f58565b610100808701519086830390870152612f58565b610120808601519085830390860152612f58565b6001600160a01b03610140818187015116908501526101609081860151169084015261018080850151908483039085015261303f565b916101a0808201519061318382612f98565b8301526101c0808201511515908301526101e080910151151591015290565b602080820190808352835180925260408301928160408460051b8301019501936000915b8483106131d65750505050505090565b90919293949584806131f4600193603f198682030187528a516130b0565b98019301930191949392906131c6565b6001600160a01b0360335416330361321857565b606460405162461bcd60e51b815260206004820152602060248201527f4f776e61626c653a2063616c6c6572206973206e6f7420746865206f776e65726044820152fd5b603354906001600160a01b0380911691826001600160a01b0319821617603355167f8be0079c531659141344cd1fd0a4f28419497f9722a3daafe3b4186f6b6457e0600080a3565b156132ab57565b60405162461bcd60e51b815260206004820152602c60248201527f46756e6374696f6e206d7573742062652063616c6c6564207468726f7567682060448201527f64656c656761746563616c6c00000000000000000000000000000000000000006064820152608490fd5b1561331d57565b60405162461bcd60e51b815260206004820152602c60248201527f46756e6374696f6e206d7573742062652063616c6c6564207468726f7567682060448201527f6163746976652070726f787900000000000000000000000000000000000000006064820152608490fd5b803b156133cb576001600160a01b037f360894a13ba1a3210667c828492db98dca3e2076cc3735a920a3ca505d382bbc91166001600160a01b0319825416179055565b60405162461bcd60e51b815260206004820152602d60248201527f455243313936373a206e657720696d706c656d656e746174696f6e206973206e60448201527f6f74206120636f6e7472616374000000000000000000000000000000000000006064820152608490fd5b91929015613498575081511561344a575090565b3b156134535790565b60405162461bcd60e51b815260206004820152601d60248201527f416464726573733a2063616c6c20746f206e6f6e2d636f6e74726163740000006044820152606490fd5b8251909150156134ab5750805190602001fd5b60405162461bcd60e51b8152602060048201529081906134cf906024830190612f58565b0390fd5b156134da57565b60405162461bcd60e51b815260206004820152602b60248201527f496e697469616c697a61626c653a20636f6e7472616374206973206e6f74206960448201527f6e697469616c697a696e670000000000000000000000000000000000000000006064820152608490fd5b1561354c57565b60405162461bcd60e51b815260206004820152602360248201527f4f6e6c792076657269666965642075736572732063616e20706172746963697060448201526261746560e81b6064820152608490fd5b156135a457565b60405162461bcd60e51b815260206004820152603c60248201527f4f6e6c79207573657273206f662074686520737065636966696564206361746560448201527f676f72792063616e20706572666f726d207468697320616374696f6e000000006064820152608490fd5b6000198114610ec85760010190565b1561362557565b60405162461bcd60e51b815260206004820152601760248201527f43616d706169676e20646f6573206e6f742065786973740000000000000000006044820152606490fd5b1561367157565b60405162461bcd60e51b815260206004820152601760248201527f43616d706169676e206973206e6f74206f6e676f696e670000000000000000006044820152606490fd5b156136bd57565b60405162461bcd60e51b815260206004820152603360248201527f46756e647320666f7220746869732063616d706169676e206861766520616c7260448201527f65616479206265656e2072656365697665642e000000000000000000000000006064820152608490fd5b91908201809211610ec857565b805482101561374d5760005260206000200190600090565b634e487b7160e01b600052603260045260246000fd5b67ffffffffffffffff8111611be45760051b60200190565b9061378582613763565b6137926040519182612e90565b82815280926137a3601f1991613763565b0190602036910137565b805182101561374d5760209160051b010190565b9060405191828154918282526020928383019160005283600020936000905b8282106137f657505050612ef092500383612e90565b85546001600160a01b0316845260019586019588955093810193909101906137e0565b6040519061382682612e57565b816101e06000918281528260208201528260408201528260608201528260808201528260a08201528260c0820152606060e08201526060610100820152606061012082015282610140820152826101608201526060610180820152826101a0820152826101c08201520152565b9061389d82613763565b6138aa6040519182612e90565b82815280926138bb601f1991613763565b019060005b8281106138cc57505050565b6020906138d7613819565b828285010152016138c0565b156138ea57565b60405162461bcd60e51b815260206004820152601960248201527f43616d706169676e206973206e6f7420636f6d706c65746564000000000000006044820152606490fd5b1561393657565b60405162461bcd60e51b815260206004820152602360248201527f4e6f20726571756573742065786973747320666f7220746869732063616d706160448201526234b3b760e91b6064820152608490fd5b1561398e57565b60405162461bcd60e51b815260206004820152602560248201527f43616d706169676e20646561646c696e6520686173206e6f742070617373656460448201527f207965742e0000000000000000000000000000000000000000000000000000006064820152608490fd5b60005260ce60205260406000203360005260205260ff60406000205416613a1f57600090565b600190565b91906001830160009082825280602052604082205415600014613aa05784549468010000000000000000861015613a8c57613a69866001604096979801835582613735565b81549060031b9087821b91600019901b1916179055549382526020522055600190565b634e487b7160e01b83526041600452602483fd5b5092505056fea164736f6c6343000812000a",
  "linkReferences": {},
  "deployedLinkReferences": {}
}