{"contracts/CampaignRegistry.sol":{"CampaignRegistry":{"abi":[{"anonymous":false,"inputs":[{"indexed":false,"internalType":"address","name":"previousAdmin","type":"address"},{"indexed":false,"internalType":"address","name":"newAdmin","type":"address"}],"name":"AdminChanged","type":"event"},{"anonymous":false,"inputs":[{"indexed":true,"internalType":"address","name":"beacon","type":"address"}],"name":"BeaconUpgraded","type":"event"},{"anonymous":false,"inputs":[{"indexed":false,"internalType":"uint256","name":"campaignId","type":"uint256"},{"indexed":false,"internalType":"address","name":"entrepreneur","type":"address"},{"indexed":false,"internalType":"uint256","name":"targetAmount","type":"uint256"},{"indexed":false,"internalType":"uint256","name":"deadline","type":"uint256"}],"name":"CampaignCreated","type":"event"},{"anonymous":false,"inputs":[{"indexed":false,"internalType":"uint256","name":"campaignId","type":"uint256"},{"indexed":false,"internalType":"address","name":"investor","type":"address"},{"indexed":false,"internalType":"uint256","name":"amount","type":"uint256"}],"name":"ContributionMade","type":"event"},{"anonymous":false,"inputs":[{"indexed":false,"internalType":"uint256","name":"campaignId","type":"uint256"}],"name":"FundReleaseDeclined","type":"event"},{"anonymous":false,"inputs":[{"indexed":false,"internalType":"uint256","name":"campaignId","type":"uint256"}],"name":"FundsReceived","type":"event"},{"anonymous":false,"inputs":[{"indexed":false,"internalType":"uint256","name":"campaignId","type":"uint256"},{"indexed":false,"internalType":"address","name":"vendor","type":"address"},{"indexed":false,"internalType":"uint256","name":"amount","type":"uint256"}],"name":"FundsReleased","type":"event"},{"anonymous":false,"inputs":[{"indexed":false,"internalType":"uint256","name":"campaignId","type":"uint256"},{"indexed":false,"internalType":"address","name":"investor","type":"address"}],"name":"FundsWithdrawn","type":"event"},{"anonymous":false,"inputs":[{"indexed":false,"internalType":"uint8","name":"version","type":"uint8"}],"name":"Initialized","type":"event"},{"anonymous":false,"inputs":[{"indexed":true,"internalType":"address","name":"previousOwner","type":"address"},{"indexed":true,"internalType":"address","name":"newOwner","type":"address"}],"name":"OwnershipTransferred","type":"event"},{"anonymous":false,"inputs":[{"indexed":false,"internalType":"uint256","name":"campaignId","type":"uint256"},{"indexed":false,"internalType":"address","name":"investor","type":"address"}],"name":"RequestApproved","type":"event"},{"anonymous":false,"inputs":[{"indexed":false,"internalType":"uint256","name":"campaignId","type":"uint256"},{"indexed":false,"internalType":"uint256","name":"requestAmount","type":"uint256"}],"name":"RequestCreated","type":"event"},{"anonymous":false,"inputs":[{"indexed":true,"internalType":"address","name":"implementation","type":"address"}],"name":"Upgraded","type":"event"},{"anonymous":false,"inputs":[{"indexed":false,"internalType":"string","name":"email","type":"string"},{"indexed":false,"internalType":"bool","name":"verified","type":"bool"},{"indexed":false,"internalType":"address","name":"walletAddress","type":"address"}],"name":"UserRegistered","type":"event"},{"inputs":[{"internalType":"address","name":"_owner","type":"address"},{"internalType":"uint256","name":"index","type":"uint256"}],"name":"_campaignOfEntrepreneurByIndex","outputs":[{"internalType":"uint256","name":"","type":"uint256"}],"stateMutability":"view","type":"function"},{"inputs":[{"internalType":"uint256","name":"_campaignId","type":"uint256"}],"name":"approveFundReleaseRequest","outputs":[],"stateMutability":"nonpayable","type":"function"},{"inputs":[{"internalType":"uint256","name":"","type":"uint256"}],"name":"campaigns","outputs":[{"internalType":"uint256","name":"campaignId","type":"uint256"},{"internalType":"uint256","name":"targetAmount","type":"uint256"},{"internalType":"uint256","name":"raisedAmount","type":"uint256"},{"internalType":"uint256","name":"requestAmount","type":"uint256"},{"internalType":"uint256","name":"deadline","type":"uint256"},{"internalType":"uint256","name":"completeAt","type":"uint256"},{"internalType":"uint256","name":"minimumContribution","type":"uint256"},{"internalType":"string","name":"imageUri","type":"string"},{"internalType":"string","name":"campaignTitle","type":"string"},{"internalType":"string","name":"campaignDescription","type":"string"},{"internalType":"address","name":"entrepreneur","type":"address"},{"internalType":"address payable","name":"vendor","type":"address"},{"internalType":"enum ICampaignRegistry.CampaignStatus","name":"status","type":"uint8"},{"internalType":"bool","name":"requestCreated","type":"bool"},{"internalType":"bool","name":"fundsReceived","type":"bool"}],"stateMutability":"view","type":"function"},{"inputs":[{"internalType":"uint256","name":"_campaignId","type":"uint256"}],"name":"confirmFundsReceived","outputs":[],"stateMutability":"nonpayable","type":"function"},{"inputs":[{"internalType":"uint256","name":"_targetAmount","type":"uint256"},{"internalType":"uint256","name":"_deadline","type":"uint256"},{"internalType":"uint256","name":"minimumContribution","type":"uint256"},{"internalType":"string","name":"_imageUri","type":"string"},{"internalType":"string","name":"_campaignTitle","type":"string"},{"internalType":"string","name":"_campaignDescription","type":"string"}],"name":"createCampaign","outputs":[],"stateMutability":"nonpayable","type":"function"},{"inputs":[{"internalType":"uint256","name":"_campaignId","type":"uint256"},{"internalType":"uint256","name":"_requestAmount","type":"uint256"},{"internalType":"address payable","name":"_vendorAddress","type":"address"}],"name":"createFundReleaseRequest","outputs":[],"stateMutability":"nonpayable","type":"function"},{"inputs":[{"internalType":"uint256","name":"_campaignId","type":"uint256"}],"name":"declineFundRelease","outputs":[],"stateMutability":"nonpayable","type":"function"},{"inputs":[{"internalType":"uint256","name":"_campaignId","type":"uint256"}],"name":"donateToCampaign","outputs":[],"stateMutability":"payable","type":"function"},{"inputs":[{"internalType":"uint256","name":"_campaignId","type":"uint256"}],"name":"getAllDonations","outputs":[{"internalType":"uint256[]","name":"","type":"uint256[]"}],"stateMutability":"view","type":"function"},{"inputs":[{"internalType":"uint256","name":"_campaignId","type":"uint256"}],"name":"getAllDonators","outputs":[{"internalType":"address[]","name":"","type":"address[]"}],"stateMutability":"view","type":"function"},{"inputs":[{"internalType":"uint256","name":"_campaignId","type":"uint256"}],"name":"getCampaignById","outputs":[{"components":[{"internalType":"uint256","name":"campaignId","type":"uint256"},{"internalType":"uint256","name":"targetAmount","type":"uint256"},{"internalType":"uint256","name":"raisedAmount","type":"uint256"},{"internalType":"uint256","name":"requestAmount","type":"uint256"},{"internalType":"uint256","name":"deadline","type":"uint256"},{"internalType":"uint256","name":"completeAt","type":"uint256"},{"internalType":"uint256","name":"minimumContribution","type":"uint256"},{"internalType":"string","name":"imageUri","type":"string"},{"internalType":"string","name":"campaignTitle","type":"string"},{"internalType":"string","name":"campaignDescription","type":"string"},{"internalType":"address","name":"entrepreneur","type":"address"},{"internalType":"address payable","name":"vendor","type":"address"},{"internalType":"address[]","name":"investors","type":"address[]"},{"internalType":"enum ICampaignRegistry.CampaignStatus","name":"status","type":"uint8"},{"internalType":"bool","name":"requestCreated","type":"bool"},{"internalType":"bool","name":"fundsReceived","type":"bool"}],"internalType":"struct ICampaignRegistry.Campaign","name":"","type":"tuple"}],"stateMutability":"view","type":"function"},{"inputs":[],"name":"getCampaigns","outputs":[{"components":[{"internalType":"uint256","name":"campaignId","type":"uint256"},{"internalType":"uint256","name":"targetAmount","type":"uint256"},{"internalType":"uint256","name":"raisedAmount","type":"uint256"},{"internalType":"uint256","name":"requestAmount","type":"uint256"},{"internalType":"uint256","name":"deadline","type":"uint256"},{"internalType":"uint256","name":"completeAt","type":"uint256"},{"internalType":"uint256","name":"minimumContribution","type":"uint256"},{"internalType":"string","name":"imageUri","type":"string"},{"internalType":"string","name":"campaignTitle","type":"string"},{"internalType":"string","name":"campaignDescription","type":"string"},{"internalType":"address","name":"entrepreneur","type":"address"},{"internalType":"address payable","name":"vendor","type":"address"},{"internalType":"address[]","name":"investors","type":"address[]"},{"internalType":"enum ICampaignRegistry.CampaignStatus","name":"status","type":"uint8"},{"internalType":"bool","name":"requestCreated","type":"bool"},{"internalType":"bool","name":"fundsReceived","type":"bool"}],"internalType":"struct ICampaignRegistry.Campaign[]","name":"","type":"tuple[]"}],"stateMutability":"view","type":"function"},{"inputs":[{"internalType":"address","name":"_entrepreneur","type":"address"}],"name":"getCampaignsByEntrepreneur","outputs":[{"components":[{"internalType":"uint256","name":"campaignId","type":"uint256"},{"internalType":"uint256","name":"targetAmount","type":"uint256"},{"internalType":"uint256","name":"raisedAmount","type":"uint256"},{"internalType":"uint256","name":"requestAmount","type":"uint256"},{"internalType":"uint256","name":"deadline","type":"uint256"},{"internalType":"uint256","name":"completeAt","type":"uint256"},{"internalType":"uint256","name":"minimumContribution","type":"uint256"},{"internalType":"string","name":"imageUri","type":"string"},{"internalType":"string","name":"campaignTitle","type":"string"},{"internalType":"string","name":"campaignDescription","type":"string"},{"internalType":"address","name":"entrepreneur","type":"address"},{"internalType":"address payable","name":"vendor","type":"address"},{"internalType":"address[]","name":"investors","type":"address[]"},{"internalType":"enum ICampaignRegistry.CampaignStatus","name":"status","type":"uint8"},{"internalType":"bool","name":"requestCreated","type":"bool"},{"internalType":"bool","name":"fundsReceived","type":"bool"}],"internalType":"struct ICampaignRegistry.Campaign[]","name":"","type":"tuple[]"}],"stateMutability":"view","type":"function"},{"inputs":[{"internalType":"uint256","name":"_campaignId","type":"uint256"}],"name":"getInvestorDonations","outputs":[{"internalType":"address[]","name":"","type":"address[]"},{"internalType":"uint256[]","name":"","type":"uint256[]"}],"stateMutability":"view","type":"function"},{"inputs":[{"internalType":"address","name":"_investor","type":"address"}],"name":"getTotalCampaignsByInvestor","outputs":[{"internalType":"uint256","name":"","type":"uint256"}],"stateMutability":"view","type":"function"},{"inputs":[{"internalType":"address","name":"_walltetAddress","type":"address"}],"name":"getUserByAddress","outputs":[{"components":[{"internalType":"string","name":"email","type":"string"},{"internalType":"string","name":"password","type":"string"},{"internalType":"enum ICampaignRegistry.Category","name":"category","type":"uint8"},{"internalType":"address","name":"walletAddress","type":"address"},{"internalType":"bool","name":"verified","type":"bool"}],"internalType":"struct ICampaignRegistry.User","name":"","type":"tuple"}],"stateMutability":"view","type":"function"},{"inputs":[],"name":"initialize","outputs":[],"stateMutability":"nonpayable","type":"function"},{"inputs":[{"internalType":"string","name":"_email","type":"string"},{"internalType":"string","name":"_password","type":"string"}],"name":"loginUser","outputs":[{"internalType":"bool","name":"","type":"bool"}],"stateMutability":"view","type":"function"},{"inputs":[],"name":"owner","outputs":[{"internalType":"address","name":"","type":"address"}],"stateMutability":"view","type":"function"},{"inputs":[],"name":"proxiableUUID","outputs":[{"internalType":"bytes32","name":"","type":"bytes32"}],"stateMutability":"view","type":"function"},{"inputs":[{"internalType":"string","name":"_email","type":"string"},{"internalType":"string","name":"_password","type":"string"},{"internalType":"enum ICampaignRegistry.Category","name":"_category","type":"uint8"}],"name":"registerUser","outputs":[],"stateMutability":"nonpayable","type":"function"},{"inputs":[{"internalType":"uint256","name":"_campaignId","type":"uint256"}],"name":"releaseFundsToVendors","outputs":[],"stateMutability":"nonpayable","type":"function"},{"inputs":[],"name":"renounceOwnership","outputs":[],"stateMutability":"nonpayable","type":"function"},{"inputs":[{"internalType":"address","name":"newOwner","type":"address"}],"name":"transferOwnership","outputs":[],"stateMutability":"nonpayable","type":"function"},{"inputs":[{"internalType":"address","name":"newImplementation","type":"address"}],"name":"upgradeTo","outputs":[],"stateMutability":"nonpayable","type":"function"},{"inputs":[{"internalType":"address","name":"newImplementation","type":"address"},{"internalType":"bytes","name":"data","type":"bytes"}],"name":"upgradeToAndCall","outputs":[],"stateMutability":"payable","type":"function"},{"inputs":[{"internalType":"address","name":"","type":"address"}],"name":"users","outputs":[{"internalType":"string","name":"email","type":"string"},{"internalType":"string","name":"password","type":"string"},{"internalType":"enum ICampaignRegistry.Category","name":"category","type":"uint8"},{"internalType":"address","name":"walletAddress","type":"address"},{"internalType":"bool","name":"verified","type":"bool"}],"stateMutability":"view","type":"function"},{"inputs":[{"internalType":"uint256","name":"_campaignId","type":"uint256"}],"name":"withdrawFunds","outputs":[],"stateMutability":"nonpayable","type":"function"}],"evm":{"bytecode":{"linkReferences":{},"object":"60a080604052346100315730608052613c4b90816100378239608051818181610b8501528181610e360152610f9d0152f35b600080fdfe6080604052600436101561001257600080fd5b60003560e01c8063141961bc146101d7578063155dd5ee146101d25780631ad417bf146101cd57806322ce12e5146101c857806324777746146101c35780632e17a931146101be5780633659cfe6146101b957806342a4fda8146101b45780634f1ef286146101af57806352d1902d146101aa57806367c2cbad146101a557806369c212f6146101a057806370debcf71461019b578063715018a61461019657806373f130161461019157806374c49fd51461018c5780638129fc1c146101875780638da5cb5b146101825780638e5baa621461017d578063a6b0363314610178578063a7247cd914610173578063a87430ba1461016e578063ae1f680214610169578063e27883fb14610164578063e6ffcaa11461015f578063efb801831461015a578063f2fde38b146101555763ffa676d11461015057600080fd5b612238565b61217f565b6120d1565b611f9c565b611f48565b611de8565b611d41565b611bef565b611a70565b611894565b61186d565b611787565b61160e565b6114a8565b611449565b6112f9565b61123a565b6110ef565b610f82565b610de0565b610cf8565b610b5c565b6109eb565b61099d565b61092b565b61077f565b610545565b61047a565b90600182811c9216801561020c575b60208310146101f657565b634e487b7160e01b600052602260045260246000fd5b91607f16916101eb565b634e487b7160e01b600052604160045260246000fd5b60a0810190811067ffffffffffffffff82111761024857604052565b610216565b6020810190811067ffffffffffffffff82111761024857604052565b6060810190811067ffffffffffffffff82111761024857604052565b90601f8019910116810190811067ffffffffffffffff82111761024857604052565b90604051918260008254926102bb846101dc565b90818452600194858116908160001461032a57506001146102e7575b50506102e592500383610285565b565b9093915060005260209081600020936000915b8183106103125750506102e5935082010138806102d7565b855488840185015294850194879450918301916102fa565b9150506102e594506020925060ff191682840152151560051b82010138806102d7565b919082519283825260005b848110610379575050826000602080949584010152601f8019910116010190565b602081830181015184830182015201610358565b6003111561039757565b634e487b7160e01b600052602160045260246000fd5b906103b78261038d565b52565b9a9f9e9c969861041b6102e59f9a996104689a6101c09f988f6104729f979b60c09261044c9b6104399b61045d9f61042a9b8652602086015260408501526060840152608083015260a082015201528d6101e0908160e0820152019061034d565b8c81036101008e01529061034d565b908a82036101208c015261034d565b6001600160a01b03909d16610140890152565b6001600160a01b0316610160870152565b6101808501906103ad565b15156101a0830152565b019015159052565b346105405760203660031901126105405760043560005260cc602052604060002080549060018101546002820154906003830154926004810154946005820154916006810154600782016104cd906102a7565b6104d9600884016102a7565b6104e5600985016102a7565b91600a8501546104fb906001600160a01b031690565b93600b860154610511906001600160a01b031690565b95600d0154976040519c8d9c8d9c8b60101c60ff169c8c60081c60ff169c60ff169b61053c9f6103ba565b0390f35b600080fd5b346105405760203660031901126105405760043560009033825260cb60205261057a60ff600260408520015460a81c16612d26565b61058760c9548210612f1a565b33825260cb6020526105ae600160ff6002604086200154166105a88161038d565b14612d7e565b818080806105c68560005260cc602052604060002090565b6106016105f9336105e18960005260cd602052604060002090565b906001600160a01b0316600052602052604060002090565b541515613866565b6106236002610614600d84015460ff1690565b61061d8161038d565b146138d8565b61063260048201544211613924565b600261064c336105e18960005260cd602052604060002090565b549161065f610659613996565b84613be6565b83610678336105e18b60005260cd602052604060002090565b5501610685828254612f0d565b90558181156106d7575b3390f1156106d257604080519182523360208301527f6141b54b56b8a52a8c6f5cd2a857f6117b18ffbf4d46bd3106f300a839cbf5ea9190819081015b0390a180f35b61246a565b506108fc61068f565b604051906102e58261022c565b60405190610200820182811067ffffffffffffffff82111761024857604052565b67ffffffffffffffff811161024857601f01601f191660200190565b9291926107368261070e565b916107446040519384610285565b829481845281830111610540578281602093846000960137010152565b9080601f830112156105405781602061077c9335910161072a565b90565b346105405760c03660031901126105405767ffffffffffffffff602435600435606435838111610540576107b7903690600401610761565b92608435818111610540576107d0903690600401610761565b9060a435908111610540576107e9903690600401610761565b908360009533875260cb602052604087206002015460a81c60ff1661080d90612d26565b33875260cb602052604087206002015460ff166108298161038d565b1561083390612d7e565b61083e851515612df0565b60c954936108568560005260cc602052604060002090565b9360048501928354421161086990612e62565b868655600a860180546001600160a01b031916331790558760018701556007860190610894916129d4565b6108a190600886016129d4565b6108ae90600985016129d4565b556044356006820155600d01805460ff1916905560c9546108ce90612eea565b60c9556108db9033613b5d565b60c9546108e790612efe565b6040805191825233602083015281019190915260608101919091527f91b289a829e71d811b8c69e4a24ba2d40d115d8a236e9a724cb3bb2d43cf722390608090a180f35b346105405760403660031901126105405767ffffffffffffffff6004358181116105405761095d903690600401610761565b906024359081116105405760209161097c610982923690600401610761565b90612ca6565b6040519015158152f35b6001600160a01b0381160361054057565b34610540576040366003190112610540576001600160a01b036004356109c28161098c565b1660005260cf60205260206109dd602435604060002061315d565b90546040519160031b1c8152f35b346105405760603660031901126105405767ffffffffffffffff60043581811161054057610a1d903690600401610761565b9060243590811161054057610a36903690600401610761565b60443591600383101561054057805115610b1757610b0482610ae37f427b59b30d98f86c6e6670da78cff4cbaa374e6642ff6d038faa43cbb5fd8de395610a82610b1296511515612893565b610a8d3315156128df565b610ac9610ac4610ac06002610ab5336001600160a01b031660005260cb602052604060002090565b015460a81c60ff1690565b1590565b61292b565b610ad16106e0565b92858452602084015260408301612977565b3360608201526001608082015233600090815260cb60205260409020612abb565b604051918291339083612c78565b0390a1005b60405162461bcd60e51b815260206004820152601560248201527f456d61696c2063616e6e6f7420626520656d70747900000000000000000000006044820152606490fd5b3461054057602036600319011261054057600435610b798161098c565b6001600160a01b0390817f00000000000000000000000000000000000000000000000000000000000000001691610bb283301415612377565b610be17f360894a13ba1a3210667c828492db98dca3e2076cc3735a920a3ca505d382bbc9382855416146123e9565b60405190610bee8261024d565b600082527f4910fdfa16fed3260ed0e7147f7cc6da11a60208b5b9406d12a635614ffd91435460ff1615610c2a575050610c2891506124e8565b005b6020600491604094939451928380926352d1902d60e01b825286165afa60009181610cc8575b50610cb55760405162461bcd60e51b815260206004820152602e60248201527f45524331393637557067726164653a206e657720696d706c656d656e7461746960448201526d6f6e206973206e6f74205555505360901b6064820152608490fd5b0390fd5b610c2893610cc39114612476565b612596565b610cea91925060203d8111610cf1575b610ce28183610285565b81019061245b565b9038610c50565b503d610cd8565b6020806003193601126105405760043560009133835260cb8152610d2860ff600260408620015460a81c16612d26565b610d3560c9548310612f1a565b33835260cb8152610d55600160ff6002604087200154166105a88161038d565b81835260cc8152610d7960ff600d60408620015416610d738161038d565b15612f66565b81835260cc81526004604084200154421015610d9c5750610d99906131bb565b80f35b6064906040519062461bcd60e51b82526004820152601560248201527f446561646c696e652068617320706173736564202100000000000000000000006044820152fd5b604036600319011261054057600435610df88161098c565b60243567ffffffffffffffff8111610540573660238201121561054057610e2990369060248160040135910161072a565b906001600160a01b0391827f00000000000000000000000000000000000000000000000000000000000000001692610e6384301415612377565b610e927f360894a13ba1a3210667c828492db98dca3e2076cc3735a920a3ca505d382bbc9482865416146123e9565b7f4910fdfa16fed3260ed0e7147f7cc6da11a60208b5b9406d12a635614ffd91435460ff1615610ec8575050610c2891506124e8565b6020600491604094939451928380926352d1902d60e01b825286165afa60009181610f62575b50610f4f5760405162461bcd60e51b815260206004820152602e60248201527f45524331393637557067726164653a206e657720696d706c656d656e7461746960448201526d6f6e206973206e6f74205555505360901b6064820152608490fd5b610c2893610f5d9114612476565b612691565b610f7b91925060203d8111610cf157610ce28183610285565b9038610eee565b34610540576000366003190112610540576001600160a01b037f0000000000000000000000000000000000000000000000000000000000000000163003610fee576040517f360894a13ba1a3210667c828492db98dca3e2076cc3735a920a3ca505d382bbc8152602090f35b60405162461bcd60e51b815260206004820152603860248201527f555550535570677261646561626c653a206d757374206e6f742062652063616c60448201527f6c6564207468726f7567682064656c656761746563616c6c00000000000000006064820152608490fd5b90815180825260208080930193019160005b828110611079575050505090565b83516001600160a01b03168552938101939281019260010161106b565b90815180825260208080930193019160005b8281106110b6575050505090565b8351855293810193928101926001016110a8565b90916110e161077c93604084526040840190611059565b916020818403910152611096565b34610540576020366003190112610540576004358060005260cc602052600c60406000200190815461112081613302565b9161112e6040519384610285565b818352601f1961113d83613302565b0136602085013761114d8261331a565b9360005b838110611167576040518061053c8888836110ca565b806111be61118e61117b6111cf948661315d565b90546001600160a01b039160031b1c1690565b6111aa8161119c858b61334c565b906001600160a01b03169052565b6105e18660005260cd602052604060002090565b546111c9828961334c565b52612eea565b611151565b6020815260a0608061120a6111f4855184602087015260c086019061034d565b6020860151858203601f1901604087015261034d565b9360408101516112198161038d565b60608501526001600160a01b03606082015116828501520151151591015290565b346105405760203660031901126105405761053c60043561125a8161098c565b604060006080825161126b8161022c565b6060815260606020820152828482015282606082015201526001600160a01b0380921660005260cb60205260ff816000209260028351946112ab8661022c565b6112b4816102a7565b86526112c2600182016102a7565b60208701520154908282166112d68161038d565b848601528160081c16606085015260a81c161515608083015251918291826111d4565b34610540576060366003190112610540576044357f99f063607b2d9f794eb8985daf4a0d3224e73b48e43228a183329e415dff077e60243560043561133d8461098c565b61143060009433865260cb60205261136160ff600260408920015460a81c16612d26565b61136e60c9548410612f1a565b33865260cb60205261139360ff60026040892001541661138d8161038d565b15612d7e565b82865260cc602052600b60408720611414600d82016113ef60ff82546113be828216610d738161038d565b6113e5336001600160a01b036113de600a8a01546001600160a01b031690565b1614613572565b60081c16156135e4565b6113ff6002840154891115613656565b87600384015561010061ff0019825416179055565b01906001600160a01b03166001600160a01b0319825416179055565b60408051918252602082019290925290819081016106cc565b34610540576000806003193601126114a5576114636122d7565b806001600160a01b036033546001600160a01b03198116603355167f8be0079c531659141344cd1fd0a4f28419497f9722a3daafe3b4186f6b6457e08280a380f35b80fd5b34610540576020806003193601126105405760043560009133835260cb81526040906114df60ff6002848720015460a81c16612d26565b6114ec60c9548410612f1a565b33845260cb815261150b600160ff60028588200154166105a88161038d565b82845260cc8152600d82852001549061152a60ff8316610d738161038d565b83855260cd815261155033848720906001600160a01b0316600052602052604060002090565b54156115bf5750916106cc9161158c60ff7fbb447f2506f46702f313360e42b26bacac341b607c973ef8fe11ee7eb901bea19560081c16613720565b6115b16115a7336105e18560005260ce602052604060002090565b805460ff19169055565b519081529081906020820190565b60849083519062461bcd60e51b825260048201526024808201527f4f6e6c7920696e766573746f72732063616e206465636c696e652061207265716044820152631d595cdd60e21b6064820152fd5b346105405760203660031901126105405760043560009033825260cb60205261164360ff600260408520015460a81c16612d26565b61165060c9548210612f1a565b33825260cb60205261166f60ff60026040852001541661138d8161038d565b80825260cc60205260408220906116a86116a3600d84019361169e611695865460ff1690565b610d738161038d565b613abd565b6137ea565b6116de6116d2600b6116c48460005260cc602052604060002090565b01546001600160a01b031690565b6001600160a01b031690565b9060026116f58260005260cc602052604060002090565b01549284808080876117196116d2600b6116c48a60005260cc602052604060002090565b82821561177e575bf1156106d257805460ff191660011790557f6e3c6096795c8298a218b2cfb8bde42726ff7c9a3d27b4d3ba41ab7f74feb5fb926106cc90604051938493846001600160a01b03604092959493606083019683521660208201520152565b506108fc611721565b34610540576000806003193601126114a55780546117bc60ff8260081c16158092819361185f575b811561183f575b5061277f565b806117cf600160ff196000541617600055565b611826575b6117dc6127f1565b6117e35780f35b6117f361ff001960005416600055565b604051600181527f7f26b83ff96e1f2b6a682f133852f6798a09c465da95921460cefb38474024989080602081016106cc565b61183a61010061ff00196000541617600055565b6117d4565b303b15915081611851575b50386117b6565b6001915060ff16143861184a565b600160ff82161091506117af565b346105405760003660031901126105405760206001600160a01b0360335416604051908152f35b3461054057602080600319360112610540576004356118b28161098c565b60c954600091825b8281106118cc57505050604051908152f35b600081815260cd865260408082206001600160a01b03851683526020529020546118ff575b6118fa90612eea565b6118ba565b9261190c6118fa91612eea565b9390506118f1565b9061077c90825181526020830151602082015260408301516040820152606083015160608201526080830151608082015260a083015160a082015260c083015160c08201526119df6119a361198f61197b60e08701516102008060e088015286019061034d565b61010080880151908683039087015261034d565b61012080870151908583039086015261034d565b610140858101516001600160a01b031690840152610160858101516001600160a01b031690840152610180808601519084830390850152611059565b926119f36101a080830151908401906103ad565b6101c0818101511515908301526101e0908101511515910152565b602080820190808352835180925260408301928160408460051b8301019501936000915b848310611a425750505050505090565b9091929394958480611a60600193603f198682030187528a51611914565b9801930193019194939290611a32565b34610540576000806003193601126114a55760c954611a8e8161342d565b90825b818110611aa6576040518061053c8582611a0e565b80845260209060cc82526040611bd3611bc5828820611ac36106ed565b938154855260019687830154908601526002820154908501526003810154606085015260048101546080850152600581015460a0850152600681015460c0850152611b10600782016102a7565b60e0850152600d600891611b258382016102a7565b610100870152611b37600982016102a7565b610120870152611b65611b54600a8301546001600160a01b031690565b6001600160a01b0316610140880152565b611b8d611b7c600b8301546001600160a01b031690565b6001600160a01b0316610160880152565b611b99600c8201613360565b610180870152015491829160ff938491611bb98383166101a08a01612977565b1c1615156101c0860152565b60101c1615156101e0830152565b611bdd828661334c565b52611be8818561334c565b5001611a91565b34610540576020366003190112610540576004357ff3dc904660a0ea05aba8dfa1e21fbc4fb2914be2a3029da7b0fdd3e5eee20ddb6106cc60009233845260cb602052611c4860ff600260408720015460a81c16612d26565b611c5560c9548210612f1a565b33845260cb602052611c76600160ff6002604088200154166105a88161038d565b80845260cc602052611cd660ff600d604087200154611c9a828216610d738161038d565b83875260cd602052611ccd611cc53360408a20906001600160a01b0316600052602052604060002090565b5415156136c8565b60081c16613720565b611d03611cfe610ac0611cf7336105e18660005260ce602052604060002090565b5460ff1690565b613778565b611d2b611d1e336105e18460005260ce602052604060002090565b805460ff19166001179055565b6040805191825233602083015290918291820190565b3461054057602036600319011261054057611db2600435611d618161098c565b6001600160a01b0380911660005260cb602052604060002060ff611d84826102a7565b926002611d93600185016102a7565b93015490611dc08383169460405197889760a0895260a089019061034d565b90878203602089015261034d565b93611dca8161038d565b60408601528160081c16606085015260a81c16151560808301520390f35b346105405760203660031901126105405760043560009033825260cb602052611e1d60ff600260408520015460a81c16612d26565b611e2a60c9548210612f1a565b33825260cb602052611e4a600260ff81604086200154166105a88161038d565b80825260cc60205260408220336001600160a01b03600b8301541603611edd577fbcdc7071c1beb6dcf2744621e0b29a2f2432ee20812d9ca5e3d5e8f9308d93a391611ecd600d83611ea16116a36106cc96613abd565b01611ebc611eb7610ac0835460ff9060101c1690565b6130c8565b805462ff0000191662010000179055565b6040519081529081906020820190565b60405162461bcd60e51b815260206004820152603460248201527f4f6e6c79207468652063616d706169676e2076656e646f722063616e20636f6e60448201527f6669726d2066756e64732072656365697665642e0000000000000000000000006064820152608490fd5b346105405760203660031901126105405760043560005260cc60205261053c611f77600c604060002001613360565b604051918291602083526020830190611059565b90602061077c928181520190611914565b3461054057602036600319011261054057611fb56133b8565b5060043560005260cc60205261053c60406000206120c560ff600d611fd86106ed565b938054855260018101546020860152600281015460408601526003810154606086015260048101546080860152600581015460a0860152600681015460c0860152612025600782016102a7565b60e0860152612036600882016102a7565b610100860152612048600982016102a7565b610120860152612076612065600a8301546001600160a01b031690565b6001600160a01b0316610140870152565b61208d61044c600b8301546001600160a01b031690565b612099600c8201613360565b61018086015201546120b18282166101a08601612977565b600881901c821615156101c0850152611bc5565b60405191829182611f8b565b3461054057602080600319360112610540576001600160a01b036004356120f78161098c565b1660009181835260cf9081815260409182852054916121158361342d565b94865b84811061212c5785518061053c8982611a0e565b60019082895284845261216361215e612147838a8d2061315d565b90549060031b1c60005260cc602052604060002090565b61347d565b61216d828a61334c565b52612178818961334c565b5001612118565b346105405760203660031901126105405760043561219c8161098c565b6121a46122d7565b6001600160a01b038116156121bc57610c289061232f565b60405162461bcd60e51b815260206004820152602660248201527f4f776e61626c653a206e6577206f776e657220697320746865207a65726f206160448201527f64647265737300000000000000000000000000000000000000000000000000006064820152608490fd5b90602061077c928181520190611096565b34610540576020806003193601126105405760043560009181835260cc8152604092600c848220019283549261226d8461331a565b94835b8581106122845787518061053c8982612227565b806122c76001600160a01b0361229d6122d2948661315d565b905490888a5260cd885260031b1c168a8820906001600160a01b0316600052602052604060002090565b546111c9828a61334c565b612270565b6001600160a01b036033541633036122eb57565b606460405162461bcd60e51b815260206004820152602060248201527f4f776e61626c653a2063616c6c6572206973206e6f7420746865206f776e65726044820152fd5b603354906001600160a01b0380911691826001600160a01b0319821617603355167f8be0079c531659141344cd1fd0a4f28419497f9722a3daafe3b4186f6b6457e0600080a3565b1561237e57565b60405162461bcd60e51b815260206004820152602c60248201527f46756e6374696f6e206d7573742062652063616c6c6564207468726f7567682060448201527f64656c656761746563616c6c00000000000000000000000000000000000000006064820152608490fd5b156123f057565b60405162461bcd60e51b815260206004820152602c60248201527f46756e6374696f6e206d7573742062652063616c6c6564207468726f7567682060448201527f6163746976652070726f787900000000000000000000000000000000000000006064820152608490fd5b90816020910312610540575190565b6040513d6000823e3d90fd5b1561247d57565b60405162461bcd60e51b815260206004820152602960248201527f45524331393637557067726164653a20756e737570706f727465642070726f7860448201527f6961626c655555494400000000000000000000000000000000000000000000006064820152608490fd5b803b1561252b576001600160a01b037f360894a13ba1a3210667c828492db98dca3e2076cc3735a920a3ca505d382bbc91166001600160a01b0319825416179055565b60405162461bcd60e51b815260206004820152602d60248201527f455243313936373a206e657720696d706c656d656e746174696f6e206973206e60448201527f6f74206120636f6e7472616374000000000000000000000000000000000000006064820152608490fd5b906125a0826124e8565b60006001600160a01b0383167fbc7cd75a20ee27fd9adebab32041f755214dbc6bffa90cc0225b39da2e5c2d3b8280a281511580159061268a575b6125e457505050565b61267e928180604051946125f786610269565b602786527f416464726573733a206c6f772d6c6576656c2064656c65676174652063616c6c60208701527f206661696c6564000000000000000000000000000000000000000000000000006040870152602081519101845af4903d15612681573d6126618161070e565b9061266f6040519283610285565b8152809360203d92013e6126e6565b50565b606092506126e6565b50806125db565b9061269b826124e8565b60006001600160a01b0383167fbc7cd75a20ee27fd9adebab32041f755214dbc6bffa90cc0225b39da2e5c2d3b8280a28151158015906126de576125e457505050565b5060016125db565b9192901561274857508151156126fa575090565b3b156127035790565b60405162461bcd60e51b815260206004820152601d60248201527f416464726573733a2063616c6c20746f206e6f6e2d636f6e74726163740000006044820152606490fd5b82519091501561275b5750805190602001fd5b60405162461bcd60e51b815260206004820152908190610cb190602483019061034d565b1561278657565b60405162461bcd60e51b815260206004820152602e60248201527f496e697469616c697a61626c653a20636f6e747261637420697320616c72656160448201527f647920696e697469616c697a65640000000000000000000000000000000000006064820152608490fd5b61280b60ff60005460081c1661280681612821565b612821565b6128143361232f565b6102e560ff60005460081c165b1561282857565b60405162461bcd60e51b815260206004820152602b60248201527f496e697469616c697a61626c653a20636f6e7472616374206973206e6f74206960448201527f6e697469616c697a696e670000000000000000000000000000000000000000006064820152608490fd5b1561289a57565b60405162461bcd60e51b815260206004820152601860248201527f50617373776f72642063616e6e6f7420626520656d70747900000000000000006044820152606490fd5b156128e657565b60405162461bcd60e51b815260206004820152601660248201527f496e76616c69642077616c6c65742061646472657373000000000000000000006044820152606490fd5b1561293257565b60405162461bcd60e51b815260206004820152601a60248201527f5573657220697320616c726561647920726567697374657265640000000000006044820152606490fd5b6103b78261038d565b90601f811161298e57505050565b600091825260208220906020601f850160051c830194106129ca575b601f0160051c01915b8281106129bf57505050565b8181556001016129b3565b90925082906129aa565b919091825167ffffffffffffffff8111610248576129fc816129f684546101dc565b84612980565b602080601f8311600114612a38575081929394600092612a2d575b50508160011b916000199060031b1c1916179055565b015190503880612a17565b90601f19831695612a4e85600052602060002090565b926000905b888210612a8b57505083600195969710612a72575b505050811b019055565b015160001960f88460031b161c19169055388080612a68565b80600185968294968601518155019501930190612a53565b90612aad8161038d565b60ff80198354169116179055565b9190805192835167ffffffffffffffff811161024857612adf816129f684546101dc565b6020948590601f8311600114612bfb5792612b2c6102e5969784608095600295612ba998600092612bf0575b50508160011b916000199060031b1c19161783555b860151600183016129d4565b0192612b456040820151612b3f8161038d565b85612aa3565b612ba2612b5c60608301516001600160a01b031690565b85547fffffffffffffffffffffff0000000000000000000000000000000000000000ff1660089190911b74ffffffffffffffffffffffffffffffffffffffff0016178555565b0151151590565b81547fffffffffffffffffffff00ffffffffffffffffffffffffffffffffffffffffff1690151560a81b75ff00000000000000000000000000000000000000000016179055565b015190503880612b0b565b90601f19831691612c1185600052602060002090565b9260005b818110612c61575097600185600295612ba99895612b2c956080996102e59d9e10612c48575b505050811b018355612b20565b015160001960f88460031b161c19169055388080612c3b565b929389600181928786015181550195019301612c15565b906001600160a01b03612c9860409295949560608552606085019061034d565b946001602085015216910152565b903360005260cb602052604060002060ff600282015460a81c169283612d03575b5082612cde575b5050612cd957600090565b600190565b612cec9192506001016102a7565b602081519101209060208151910120143880612cce565b909250612d0f836102a7565b602081519101209060208151910120149138612cc7565b15612d2d57565b60405162461bcd60e51b815260206004820152602360248201527f4f6e6c792076657269666965642075736572732063616e20706172746963697060448201526261746560e81b6064820152608490fd5b15612d8557565b60405162461bcd60e51b815260206004820152603c60248201527f4f6e6c79207573657273206f662074686520737065636966696564206361746560448201527f676f72792063616e20706572666f726d207468697320616374696f6e000000006064820152608490fd5b15612df757565b60405162461bcd60e51b815260206004820152602760248201527f54617267657420616d6f756e74206d757374206265206772656174657220746860448201527f616e207a65726f000000000000000000000000000000000000000000000000006064820152608490fd5b15612e6957565b60405162461bcd60e51b815260206004820152602960248201527f5468652063616d706169676e206d7573742062652061206461746520696e207460448201527f68652066757475726500000000000000000000000000000000000000000000006064820152608490fd5b634e487b7160e01b600052601160045260246000fd5b6000198114612ef95760010190565b612ed4565b600019810191908211612ef957565b91908203918211612ef957565b15612f2157565b60405162461bcd60e51b815260206004820152601760248201527f43616d706169676e20646f6573206e6f742065786973740000000000000000006044820152606490fd5b15612f6d57565b60405162461bcd60e51b815260206004820152601760248201527f43616d706169676e206973206e6f74206f6e676f696e670000000000000000006044820152606490fd5b15612fb957565b60405162461bcd60e51b815260206004820152601960248201527f43616d706169676e20706572696f642068617320656e646564000000000000006044820152606490fd5b1561300557565b60405162461bcd60e51b815260206004820152602960248201527f446f6e6174696f6e20616d6f756e74206d75737420626520677265617465722060448201527f7468616e207a65726f00000000000000000000000000000000000000000000006064820152608490fd5b1561307757565b60405162461bcd60e51b815260206004820152602360248201527f41206d696e756d756d20636f6e747269627574696f6e2069732072657175697260448201526232b21760e91b6064820152608490fd5b156130cf57565b60405162461bcd60e51b815260206004820152603360248201527f46756e647320666f7220746869732063616d706169676e206861766520616c7260448201527f65616479206265656e2072656365697665642e000000000000000000000000006064820152608490fd5b91908201809211612ef957565b634e487b7160e01b600052603260045260246000fd5b80548210156131755760005260206000200190600090565b613147565b8054680100000000000000008110156102485761319c9160018201815561315d565b819291549060031b916001600160a01b03809116831b921b1916179055565b6102e5906131d38160005260cc602052604060002090565b61322060ff600d8301546131ec828216610d738161038d565b6131fb60048501544210612fb2565b613206341515612ffe565b6132166006850154341015613070565b60101c16156130c8565b61324f6132378360005260cd602052604060002090565b336001600160a01b0316600052602052604060002090565b61325a34825461313a565b90556002810161326b34825461313a565b90556132818260005260ca602052604060002090565b61328b8154612eea565b9055346132a6336105e18560005260cd602052604060002090565b54146132ee575b506040805182815233602082015234918101919091527f0a4a91237423e0a1766a761c7cb029311d8b95d6b1b81db1b949a70c98b4e08e90606090a16139e0565b6132fc90600c33910161317a565b386132ad565b67ffffffffffffffff81116102485760051b60200190565b9061332482613302565b6133316040519182610285565b8281528092613342601f1991613302565b0190602036910137565b80518210156131755760209160051b010190565b9060405191828154918282526020928383019160005283600020936000905b828210613395575050506102e592500383610285565b85546001600160a01b03168452600195860195889550938101939091019061337f565b6133c06106ed565b9060008083528060208401528060408401528060608401528060808401528060a08401528060c0840152606060e08401526060610100840152606061012084015280610140840152806101608401526060610180840152806101a0840152806101c08401526101e0830152565b9061343782613302565b6134446040519182610285565b8281528092613455601f1991613302565b019060005b82811061346657505050565b6020906134716133b8565b8282850101520161345a565b906102e560ff600d61348d6106ed565b948054865260018101546020870152600281015460408701526003810154606087015260048101546080870152600581015460a0870152600681015460c08701526134da600782016102a7565b60e08701526134eb600882016102a7565b6101008701526134fd600982016102a7565b61012087015261351a611b54600a8301546001600160a01b031690565b613531611b7c600b8301546001600160a01b031690565b61353d600c8201613360565b61018087015201546135558282166101a08701612977565b600881901c821615156101c086015260101c1615156101e0840152565b1561357957565b60405162461bcd60e51b815260206004820152602a60248201527f4f6e6c792074686520656e7472657072656e6575722063616e2063726561746560448201527f20612072657175657374000000000000000000000000000000000000000000006064820152608490fd5b156135eb57565b60405162461bcd60e51b815260206004820152603460248201527f4120726571756573742068617320616c7265616479206265656e20637265617460448201527f656420666f7220746869732063616d706169676e0000000000000000000000006064820152608490fd5b1561365d57565b60405162461bcd60e51b815260206004820152603e60248201527f5265717565737420616d6f756e74206d757374206265206c657373207468616e60448201527f206f7220657175616c20746f207468652072616973656420616d6f756e7400006064820152608490fd5b156136cf57565b60405162461bcd60e51b8152602060048201526024808201527f4f6e6c7920696e766573746f72732063616e20617070726f76652061207265716044820152631d595cdd60e21b6064820152608490fd5b1561372757565b60405162461bcd60e51b815260206004820152602360248201527f4e6f20726571756573742065786973747320666f7220746869732063616d706160448201526234b3b760e91b6064820152608490fd5b1561377f57565b60405162461bcd60e51b815260206004820152602960248201527f496e766573746f722068617320616c726561647920617070726f76656420746860448201527f65207265717565737400000000000000000000000000000000000000000000006064820152608490fd5b156137f157565b60405162461bcd60e51b815260206004820152604160248201527f5265717565737420686173206e6f74206265656e20617070726f76656420627960448201527f20746865207265717569726564206e756d626572206f6620696e766573746f726064820152607360f81b608482015260a490fd5b1561386d57565b60405162461bcd60e51b815260206004820152602a60248201527f596f752068617665206e6f7420636f6e747269627574656420746f207468697360448201527f2063616d706169676e2e000000000000000000000000000000000000000000006064820152608490fd5b156138df57565b60405162461bcd60e51b815260206004820152601d60248201527f43616d706169676e20686173206e6f742065787069726564207965742e0000006044820152606490fd5b1561392b57565b60405162461bcd60e51b815260206004820152602560248201527f43616d706169676e20646561646c696e6520686173206e6f742070617373656460448201527f207965742e0000000000000000000000000000000000000000000000000000006064820152608490fd5b604051906040820182811067ffffffffffffffff82111761024857604052601082527f616d6f756e74546f5769746864726177000000000000000000000000000000006020830152565b8060005260cc6020526004604060002001544210600014613a1f57600d613a146102e59260005260cc602052604060002090565b01805460ff19169055565b6002613a358260005260cc602052604060002090565b01546001613a4d8360005260cc602052604060002090565b015411613a9657613a7b600d613a6d8360005260cc602052604060002090565b01805460ff19166001179055565b6005613a92429260005260cc602052604060002090565b0155565b600d613aaf6102e59260005260cc602052604060002090565b01805460ff19166002179055565b80546000908152602060ca81526040918281205492600c82950192835493835b858110613af25750505050505060011c111590565b60ff613b336001600160a01b03613b09848661315d565b905490858a5260ce885260031b1c16868820906001600160a01b0316600052602052604060002090565b5416613b48575b613b4390612eea565b613add565b96613b55613b4391612eea565b979050613b3a565b906001600160a01b0361267e921660005260cf60205260406000206001810190826000528160205260406000205415600014613bde5780546801000000000000000081101561024857806001613bb6920183558261315d565b81549060031b9085821b91600019901b19161790555491600052602052604060002055600190565b505050600090565b60009190613c1d613c2b8493604051928391602083019563643fd0df60e01b8752602484015260406044840152606483019061034d565b03601f198101835282610285565b51906a636f6e736f6c652e6c6f675afa5056fea164736f6c6343000812000a","opcodes":"PUSH1 0xA0 DUP1 PUSH1 0x40 MSTORE CALLVALUE PUSH2 0x31 JUMPI ADDRESS PUSH1 0x80 MSTORE PUSH2 0x3C4B SWAP1 DUP2 PUSH2 0x37 DUP3 CODECOPY PUSH1 0x80 MLOAD DUP2 DUP2 DUP2 PUSH2 0xB85 ADD MSTORE DUP2 DUP2 PUSH2 0xE36 ADD MSTORE PUSH2 0xF9D ADD MSTORE RETURN JUMPDEST PUSH1 0x0 DUP1 REVERT INVALID PUSH1 0x80 PUSH1 0x40 MSTORE PUSH1 0x4 CALLDATASIZE LT ISZERO PUSH2 0x12 JUMPI PUSH1 0x0 DUP1 REVERT JUMPDEST PUSH1 0x0 CALLDATALOAD PUSH1 0xE0 SHR DUP1 PUSH4 0x141961BC EQ PUSH2 0x1D7 JUMPI DUP1 PUSH4 0x155DD5EE EQ PUSH2 0x1D2 JUMPI DUP1 PUSH4 0x1AD417BF EQ PUSH2 0x1CD JUMPI DUP1 PUSH4 0x22CE12E5 EQ PUSH2 0x1C8 JUMPI DUP1 PUSH4 0x24777746 EQ PUSH2 0x1C3 JUMPI DUP1 PUSH4 0x2E17A931 EQ PUSH2 0x1BE JUMPI DUP1 PUSH4 0x3659CFE6 EQ PUSH2 0x1B9 JUMPI DUP1 PUSH4 0x42A4FDA8 EQ PUSH2 0x1B4 JUMPI DUP1 PUSH4 0x4F1EF286 EQ PUSH2 0x1AF JUMPI DUP1 PUSH4 0x52D1902D EQ PUSH2 0x1AA JUMPI DUP1 PUSH4 0x67C2CBAD EQ PUSH2 0x1A5 JUMPI DUP1 PUSH4 0x69C212F6 EQ PUSH2 0x1A0 JUMPI DUP1 PUSH4 0x70DEBCF7 EQ PUSH2 0x19B JUMPI DUP1 PUSH4 0x715018A6 EQ PUSH2 0x196 JUMPI DUP1 PUSH4 0x73F13016 EQ PUSH2 0x191 JUMPI DUP1 PUSH4 0x74C49FD5 EQ PUSH2 0x18C JUMPI DUP1 PUSH4 0x8129FC1C EQ PUSH2 0x187 JUMPI DUP1 PUSH4 0x8DA5CB5B EQ PUSH2 0x182 JUMPI DUP1 PUSH4 0x8E5BAA62 EQ PUSH2 0x17D JUMPI DUP1 PUSH4 0xA6B03633 EQ PUSH2 0x178 JUMPI DUP1 PUSH4 0xA7247CD9 EQ PUSH2 0x173 JUMPI DUP1 PUSH4 0xA87430BA EQ PUSH2 0x16E JUMPI DUP1 PUSH4 0xAE1F6802 EQ PUSH2 0x169 JUMPI DUP1 PUSH4 0xE27883FB EQ PUSH2 0x164 JUMPI DUP1 PUSH4 0xE6FFCAA1 EQ PUSH2 0x15F JUMPI DUP1 PUSH4 0xEFB80183 EQ PUSH2 0x15A JUMPI DUP1 PUSH4 0xF2FDE38B EQ PUSH2 0x155 JUMPI PUSH4 0xFFA676D1 EQ PUSH2 0x150 JUMPI PUSH1 0x0 DUP1 REVERT JUMPDEST PUSH2 0x2238 JUMP JUMPDEST PUSH2 0x217F JUMP JUMPDEST PUSH2 0x20D1 JUMP JUMPDEST PUSH2 0x1F9C JUMP JUMPDEST PUSH2 0x1F48 JUMP JUMPDEST PUSH2 0x1DE8 JUMP JUMPDEST PUSH2 0x1D41 JUMP JUMPDEST PUSH2 0x1BEF JUMP JUMPDEST PUSH2 0x1A70 JUMP JUMPDEST PUSH2 0x1894 JUMP JUMPDEST PUSH2 0x186D JUMP JUMPDEST PUSH2 0x1787 JUMP JUMPDEST PUSH2 0x160E JUMP JUMPDEST PUSH2 0x14A8 JUMP JUMPDEST PUSH2 0x1449 JUMP JUMPDEST PUSH2 0x12F9 JUMP JUMPDEST PUSH2 0x123A JUMP JUMPDEST PUSH2 0x10EF JUMP JUMPDEST PUSH2 0xF82 JUMP JUMPDEST PUSH2 0xDE0 JUMP JUMPDEST PUSH2 0xCF8 JUMP JUMPDEST PUSH2 0xB5C JUMP JUMPDEST PUSH2 0x9EB JUMP JUMPDEST PUSH2 0x99D JUMP JUMPDEST PUSH2 0x92B JUMP JUMPDEST PUSH2 0x77F JUMP JUMPDEST PUSH2 0x545 JUMP JUMPDEST PUSH2 0x47A JUMP JUMPDEST SWAP1 PUSH1 0x1 DUP3 DUP2 SHR SWAP3 AND DUP1 ISZERO PUSH2 0x20C JUMPI JUMPDEST PUSH1 0x20 DUP4 LT EQ PUSH2 0x1F6 JUMPI JUMP JUMPDEST PUSH4 0x4E487B71 PUSH1 0xE0 SHL PUSH1 0x0 MSTORE PUSH1 0x22 PUSH1 0x4 MSTORE PUSH1 0x24 PUSH1 0x0 REVERT JUMPDEST SWAP2 PUSH1 0x7F AND SWAP2 PUSH2 0x1EB JUMP JUMPDEST PUSH4 0x4E487B71 PUSH1 0xE0 SHL PUSH1 0x0 MSTORE PUSH1 0x41 PUSH1 0x4 MSTORE PUSH1 0x24 PUSH1 0x0 REVERT JUMPDEST PUSH1 0xA0 DUP2 ADD SWAP1 DUP2 LT PUSH8 0xFFFFFFFFFFFFFFFF DUP3 GT OR PUSH2 0x248 JUMPI PUSH1 0x40 MSTORE JUMP JUMPDEST PUSH2 0x216 JUMP JUMPDEST PUSH1 0x20 DUP2 ADD SWAP1 DUP2 LT PUSH8 0xFFFFFFFFFFFFFFFF DUP3 GT OR PUSH2 0x248 JUMPI PUSH1 0x40 MSTORE JUMP JUMPDEST PUSH1 0x60 DUP2 ADD SWAP1 DUP2 LT PUSH8 0xFFFFFFFFFFFFFFFF DUP3 GT OR PUSH2 0x248 JUMPI PUSH1 0x40 MSTORE JUMP JUMPDEST SWAP1 PUSH1 0x1F DUP1 NOT SWAP2 ADD AND DUP2 ADD SWAP1 DUP2 LT PUSH8 0xFFFFFFFFFFFFFFFF DUP3 GT OR PUSH2 0x248 JUMPI PUSH1 0x40 MSTORE JUMP JUMPDEST SWAP1 PUSH1 0x40 MLOAD SWAP2 DUP3 PUSH1 0x0 DUP3 SLOAD SWAP3 PUSH2 0x2BB DUP5 PUSH2 0x1DC JUMP JUMPDEST SWAP1 DUP2 DUP5 MSTORE PUSH1 0x1 SWAP5 DUP6 DUP2 AND SWAP1 DUP2 PUSH1 0x0 EQ PUSH2 0x32A JUMPI POP PUSH1 0x1 EQ PUSH2 0x2E7 JUMPI JUMPDEST POP POP PUSH2 0x2E5 SWAP3 POP SUB DUP4 PUSH2 0x285 JUMP JUMPDEST JUMP JUMPDEST SWAP1 SWAP4 SWAP2 POP PUSH1 0x0 MSTORE PUSH1 0x20 SWAP1 DUP2 PUSH1 0x0 KECCAK256 SWAP4 PUSH1 0x0 SWAP2 JUMPDEST DUP2 DUP4 LT PUSH2 0x312 JUMPI POP POP PUSH2 0x2E5 SWAP4 POP DUP3 ADD ADD CODESIZE DUP1 PUSH2 0x2D7 JUMP JUMPDEST DUP6 SLOAD DUP9 DUP5 ADD DUP6 ADD MSTORE SWAP5 DUP6 ADD SWAP5 DUP8 SWAP5 POP SWAP2 DUP4 ADD SWAP2 PUSH2 0x2FA JUMP JUMPDEST SWAP2 POP POP PUSH2 0x2E5 SWAP5 POP PUSH1 0x20 SWAP3 POP PUSH1 0xFF NOT AND DUP3 DUP5 ADD MSTORE ISZERO ISZERO PUSH1 0x5 SHL DUP3 ADD ADD CODESIZE DUP1 PUSH2 0x2D7 JUMP JUMPDEST SWAP2 SWAP1 DUP3 MLOAD SWAP3 DUP4 DUP3 MSTORE PUSH1 0x0 JUMPDEST DUP5 DUP2 LT PUSH2 0x379 JUMPI POP POP DUP3 PUSH1 0x0 PUSH1 0x20 DUP1 SWAP5 SWAP6 DUP5 ADD ADD MSTORE PUSH1 0x1F DUP1 NOT SWAP2 ADD AND ADD ADD SWAP1 JUMP JUMPDEST PUSH1 0x20 DUP2 DUP4 ADD DUP2 ADD MLOAD DUP5 DUP4 ADD DUP3 ADD MSTORE ADD PUSH2 0x358 JUMP JUMPDEST PUSH1 0x3 GT ISZERO PUSH2 0x397 JUMPI JUMP JUMPDEST PUSH4 0x4E487B71 PUSH1 0xE0 SHL PUSH1 0x0 MSTORE PUSH1 0x21 PUSH1 0x4 MSTORE PUSH1 0x24 PUSH1 0x0 REVERT JUMPDEST SWAP1 PUSH2 0x3B7 DUP3 PUSH2 0x38D JUMP JUMPDEST MSTORE JUMP JUMPDEST SWAP11 SWAP16 SWAP15 SWAP13 SWAP7 SWAP9 PUSH2 0x41B PUSH2 0x2E5 SWAP16 SWAP11 SWAP10 PUSH2 0x468 SWAP11 PUSH2 0x1C0 SWAP16 SWAP9 DUP16 PUSH2 0x472 SWAP16 SWAP8 SWAP12 PUSH1 0xC0 SWAP3 PUSH2 0x44C SWAP12 PUSH2 0x439 SWAP12 PUSH2 0x45D SWAP16 PUSH2 0x42A SWAP12 DUP7 MSTORE PUSH1 0x20 DUP7 ADD MSTORE PUSH1 0x40 DUP6 ADD MSTORE PUSH1 0x60 DUP5 ADD MSTORE PUSH1 0x80 DUP4 ADD MSTORE PUSH1 0xA0 DUP3 ADD MSTORE ADD MSTORE DUP14 PUSH2 0x1E0 SWAP1 DUP2 PUSH1 0xE0 DUP3 ADD MSTORE ADD SWAP1 PUSH2 0x34D JUMP JUMPDEST DUP13 DUP2 SUB PUSH2 0x100 DUP15 ADD MSTORE SWAP1 PUSH2 0x34D JUMP JUMPDEST SWAP1 DUP11 DUP3 SUB PUSH2 0x120 DUP13 ADD MSTORE PUSH2 0x34D JUMP JUMPDEST PUSH1 0x1 PUSH1 0x1 PUSH1 0xA0 SHL SUB SWAP1 SWAP14 AND PUSH2 0x140 DUP10 ADD MSTORE JUMP JUMPDEST PUSH1 0x1 PUSH1 0x1 PUSH1 0xA0 SHL SUB AND PUSH2 0x160 DUP8 ADD MSTORE JUMP JUMPDEST PUSH2 0x180 DUP6 ADD SWAP1 PUSH2 0x3AD JUMP JUMPDEST ISZERO ISZERO PUSH2 0x1A0 DUP4 ADD MSTORE JUMP JUMPDEST ADD SWAP1 ISZERO ISZERO SWAP1 MSTORE JUMP JUMPDEST CALLVALUE PUSH2 0x540 JUMPI PUSH1 0x20 CALLDATASIZE PUSH1 0x3 NOT ADD SLT PUSH2 0x540 JUMPI PUSH1 0x4 CALLDATALOAD PUSH1 0x0 MSTORE PUSH1 0xCC PUSH1 0x20 MSTORE PUSH1 0x40 PUSH1 0x0 KECCAK256 DUP1 SLOAD SWAP1 PUSH1 0x1 DUP2 ADD SLOAD PUSH1 0x2 DUP3 ADD SLOAD SWAP1 PUSH1 0x3 DUP4 ADD SLOAD SWAP3 PUSH1 0x4 DUP2 ADD SLOAD SWAP5 PUSH1 0x5 DUP3 ADD SLOAD SWAP2 PUSH1 0x6 DUP2 ADD SLOAD PUSH1 0x7 DUP3 ADD PUSH2 0x4CD SWAP1 PUSH2 0x2A7 JUMP JUMPDEST PUSH2 0x4D9 PUSH1 0x8 DUP5 ADD PUSH2 0x2A7 JUMP JUMPDEST PUSH2 0x4E5 PUSH1 0x9 DUP6 ADD PUSH2 0x2A7 JUMP JUMPDEST SWAP2 PUSH1 0xA DUP6 ADD SLOAD PUSH2 0x4FB SWAP1 PUSH1 0x1 PUSH1 0x1 PUSH1 0xA0 SHL SUB AND SWAP1 JUMP JUMPDEST SWAP4 PUSH1 0xB DUP7 ADD SLOAD PUSH2 0x511 SWAP1 PUSH1 0x1 PUSH1 0x1 PUSH1 0xA0 SHL SUB AND SWAP1 JUMP JUMPDEST SWAP6 PUSH1 0xD ADD SLOAD SWAP8 PUSH1 0x40 MLOAD SWAP13 DUP14 SWAP13 DUP14 SWAP13 DUP12 PUSH1 0x10 SHR PUSH1 0xFF AND SWAP13 DUP13 PUSH1 0x8 SHR PUSH1 0xFF AND SWAP13 PUSH1 0xFF AND SWAP12 PUSH2 0x53C SWAP16 PUSH2 0x3BA JUMP JUMPDEST SUB SWAP1 RETURN JUMPDEST PUSH1 0x0 DUP1 REVERT JUMPDEST CALLVALUE PUSH2 0x540 JUMPI PUSH1 0x20 CALLDATASIZE PUSH1 0x3 NOT ADD SLT PUSH2 0x540 JUMPI PUSH1 0x4 CALLDATALOAD PUSH1 0x0 SWAP1 CALLER DUP3 MSTORE PUSH1 0xCB PUSH1 0x20 MSTORE PUSH2 0x57A PUSH1 0xFF PUSH1 0x2 PUSH1 0x40 DUP6 KECCAK256 ADD SLOAD PUSH1 0xA8 SHR AND PUSH2 0x2D26 JUMP JUMPDEST PUSH2 0x587 PUSH1 0xC9 SLOAD DUP3 LT PUSH2 0x2F1A JUMP JUMPDEST CALLER DUP3 MSTORE PUSH1 0xCB PUSH1 0x20 MSTORE PUSH2 0x5AE PUSH1 0x1 PUSH1 0xFF PUSH1 0x2 PUSH1 0x40 DUP7 KECCAK256 ADD SLOAD AND PUSH2 0x5A8 DUP2 PUSH2 0x38D JUMP JUMPDEST EQ PUSH2 0x2D7E JUMP JUMPDEST DUP2 DUP1 DUP1 DUP1 PUSH2 0x5C6 DUP6 PUSH1 0x0 MSTORE PUSH1 0xCC PUSH1 0x20 MSTORE PUSH1 0x40 PUSH1 0x0 KECCAK256 SWAP1 JUMP JUMPDEST PUSH2 0x601 PUSH2 0x5F9 CALLER PUSH2 0x5E1 DUP10 PUSH1 0x0 MSTORE PUSH1 0xCD PUSH1 0x20 MSTORE PUSH1 0x40 PUSH1 0x0 KECCAK256 SWAP1 JUMP JUMPDEST SWAP1 PUSH1 0x1 PUSH1 0x1 PUSH1 0xA0 SHL SUB AND PUSH1 0x0 MSTORE PUSH1 0x20 MSTORE PUSH1 0x40 PUSH1 0x0 KECCAK256 SWAP1 JUMP JUMPDEST SLOAD ISZERO ISZERO PUSH2 0x3866 JUMP JUMPDEST PUSH2 0x623 PUSH1 0x2 PUSH2 0x614 PUSH1 0xD DUP5 ADD SLOAD PUSH1 0xFF AND SWAP1 JUMP JUMPDEST PUSH2 0x61D DUP2 PUSH2 0x38D JUMP JUMPDEST EQ PUSH2 0x38D8 JUMP JUMPDEST PUSH2 0x632 PUSH1 0x4 DUP3 ADD SLOAD TIMESTAMP GT PUSH2 0x3924 JUMP JUMPDEST PUSH1 0x2 PUSH2 0x64C CALLER PUSH2 0x5E1 DUP10 PUSH1 0x0 MSTORE PUSH1 0xCD PUSH1 0x20 MSTORE PUSH1 0x40 PUSH1 0x0 KECCAK256 SWAP1 JUMP JUMPDEST SLOAD SWAP2 PUSH2 0x65F PUSH2 0x659 PUSH2 0x3996 JUMP JUMPDEST DUP5 PUSH2 0x3BE6 JUMP JUMPDEST DUP4 PUSH2 0x678 CALLER PUSH2 0x5E1 DUP12 PUSH1 0x0 MSTORE PUSH1 0xCD PUSH1 0x20 MSTORE PUSH1 0x40 PUSH1 0x0 KECCAK256 SWAP1 JUMP JUMPDEST SSTORE ADD PUSH2 0x685 DUP3 DUP3 SLOAD PUSH2 0x2F0D JUMP JUMPDEST SWAP1 SSTORE DUP2 DUP2 ISZERO PUSH2 0x6D7 JUMPI JUMPDEST CALLER SWAP1 CALL ISZERO PUSH2 0x6D2 JUMPI PUSH1 0x40 DUP1 MLOAD SWAP2 DUP3 MSTORE CALLER PUSH1 0x20 DUP4 ADD MSTORE PUSH32 0x6141B54B56B8A52A8C6F5CD2A857F6117B18FFBF4D46BD3106F300A839CBF5EA SWAP2 SWAP1 DUP2 SWAP1 DUP2 ADD JUMPDEST SUB SWAP1 LOG1 DUP1 RETURN JUMPDEST PUSH2 0x246A JUMP JUMPDEST POP PUSH2 0x8FC PUSH2 0x68F JUMP JUMPDEST PUSH1 0x40 MLOAD SWAP1 PUSH2 0x2E5 DUP3 PUSH2 0x22C JUMP JUMPDEST PUSH1 0x40 MLOAD SWAP1 PUSH2 0x200 DUP3 ADD DUP3 DUP2 LT PUSH8 0xFFFFFFFFFFFFFFFF DUP3 GT OR PUSH2 0x248 JUMPI PUSH1 0x40 MSTORE JUMP JUMPDEST PUSH8 0xFFFFFFFFFFFFFFFF DUP2 GT PUSH2 0x248 JUMPI PUSH1 0x1F ADD PUSH1 0x1F NOT AND PUSH1 0x20 ADD SWAP1 JUMP JUMPDEST SWAP3 SWAP2 SWAP3 PUSH2 0x736 DUP3 PUSH2 0x70E JUMP JUMPDEST SWAP2 PUSH2 0x744 PUSH1 0x40 MLOAD SWAP4 DUP5 PUSH2 0x285 JUMP JUMPDEST DUP3 SWAP5 DUP2 DUP5 MSTORE DUP2 DUP4 ADD GT PUSH2 0x540 JUMPI DUP3 DUP2 PUSH1 0x20 SWAP4 DUP5 PUSH1 0x0 SWAP7 ADD CALLDATACOPY ADD ADD MSTORE JUMP JUMPDEST SWAP1 DUP1 PUSH1 0x1F DUP4 ADD SLT ISZERO PUSH2 0x540 JUMPI DUP2 PUSH1 0x20 PUSH2 0x77C SWAP4 CALLDATALOAD SWAP2 ADD PUSH2 0x72A JUMP JUMPDEST SWAP1 JUMP JUMPDEST CALLVALUE PUSH2 0x540 JUMPI PUSH1 0xC0 CALLDATASIZE PUSH1 0x3 NOT ADD SLT PUSH2 0x540 JUMPI PUSH8 0xFFFFFFFFFFFFFFFF PUSH1 0x24 CALLDATALOAD PUSH1 0x4 CALLDATALOAD PUSH1 0x64 CALLDATALOAD DUP4 DUP2 GT PUSH2 0x540 JUMPI PUSH2 0x7B7 SWAP1 CALLDATASIZE SWAP1 PUSH1 0x4 ADD PUSH2 0x761 JUMP JUMPDEST SWAP3 PUSH1 0x84 CALLDATALOAD DUP2 DUP2 GT PUSH2 0x540 JUMPI PUSH2 0x7D0 SWAP1 CALLDATASIZE SWAP1 PUSH1 0x4 ADD PUSH2 0x761 JUMP JUMPDEST SWAP1 PUSH1 0xA4 CALLDATALOAD SWAP1 DUP2 GT PUSH2 0x540 JUMPI PUSH2 0x7E9 SWAP1 CALLDATASIZE SWAP1 PUSH1 0x4 ADD PUSH2 0x761 JUMP JUMPDEST SWAP1 DUP4 PUSH1 0x0 SWAP6 CALLER DUP8 MSTORE PUSH1 0xCB PUSH1 0x20 MSTORE PUSH1 0x40 DUP8 KECCAK256 PUSH1 0x2 ADD SLOAD PUSH1 0xA8 SHR PUSH1 0xFF AND PUSH2 0x80D SWAP1 PUSH2 0x2D26 JUMP JUMPDEST CALLER DUP8 MSTORE PUSH1 0xCB PUSH1 0x20 MSTORE PUSH1 0x40 DUP8 KECCAK256 PUSH1 0x2 ADD SLOAD PUSH1 0xFF AND PUSH2 0x829 DUP2 PUSH2 0x38D JUMP JUMPDEST ISZERO PUSH2 0x833 SWAP1 PUSH2 0x2D7E JUMP JUMPDEST PUSH2 0x83E DUP6 ISZERO ISZERO PUSH2 0x2DF0 JUMP JUMPDEST PUSH1 0xC9 SLOAD SWAP4 PUSH2 0x856 DUP6 PUSH1 0x0 MSTORE PUSH1 0xCC PUSH1 0x20 MSTORE PUSH1 0x40 PUSH1 0x0 KECCAK256 SWAP1 JUMP JUMPDEST SWAP4 PUSH1 0x4 DUP6 ADD SWAP3 DUP4 SLOAD TIMESTAMP GT PUSH2 0x869 SWAP1 PUSH2 0x2E62 JUMP JUMPDEST DUP7 DUP7 SSTORE PUSH1 0xA DUP7 ADD DUP1 SLOAD PUSH1 0x1 PUSH1 0x1 PUSH1 0xA0 SHL SUB NOT AND CALLER OR SWAP1 SSTORE DUP8 PUSH1 0x1 DUP8 ADD SSTORE PUSH1 0x7 DUP7 ADD SWAP1 PUSH2 0x894 SWAP2 PUSH2 0x29D4 JUMP JUMPDEST PUSH2 0x8A1 SWAP1 PUSH1 0x8 DUP7 ADD PUSH2 0x29D4 JUMP JUMPDEST PUSH2 0x8AE SWAP1 PUSH1 0x9 DUP6 ADD PUSH2 0x29D4 JUMP JUMPDEST SSTORE PUSH1 0x44 CALLDATALOAD PUSH1 0x6 DUP3 ADD SSTORE PUSH1 0xD ADD DUP1 SLOAD PUSH1 0xFF NOT AND SWAP1 SSTORE PUSH1 0xC9 SLOAD PUSH2 0x8CE SWAP1 PUSH2 0x2EEA JUMP JUMPDEST PUSH1 0xC9 SSTORE PUSH2 0x8DB SWAP1 CALLER PUSH2 0x3B5D JUMP JUMPDEST PUSH1 0xC9 SLOAD PUSH2 0x8E7 SWAP1 PUSH2 0x2EFE JUMP JUMPDEST PUSH1 0x40 DUP1 MLOAD SWAP2 DUP3 MSTORE CALLER PUSH1 0x20 DUP4 ADD MSTORE DUP2 ADD SWAP2 SWAP1 SWAP2 MSTORE PUSH1 0x60 DUP2 ADD SWAP2 SWAP1 SWAP2 MSTORE PUSH32 0x91B289A829E71D811B8C69E4A24BA2D40D115D8A236E9A724CB3BB2D43CF7223 SWAP1 PUSH1 0x80 SWAP1 LOG1 DUP1 RETURN JUMPDEST CALLVALUE PUSH2 0x540 JUMPI PUSH1 0x40 CALLDATASIZE PUSH1 0x3 NOT ADD SLT PUSH2 0x540 JUMPI PUSH8 0xFFFFFFFFFFFFFFFF PUSH1 0x4 CALLDATALOAD DUP2 DUP2 GT PUSH2 0x540 JUMPI PUSH2 0x95D SWAP1 CALLDATASIZE SWAP1 PUSH1 0x4 ADD PUSH2 0x761 JUMP JUMPDEST SWAP1 PUSH1 0x24 CALLDATALOAD SWAP1 DUP2 GT PUSH2 0x540 JUMPI PUSH1 0x20 SWAP2 PUSH2 0x97C PUSH2 0x982 SWAP3 CALLDATASIZE SWAP1 PUSH1 0x4 ADD PUSH2 0x761 JUMP JUMPDEST SWAP1 PUSH2 0x2CA6 JUMP JUMPDEST PUSH1 0x40 MLOAD SWAP1 ISZERO ISZERO DUP2 MSTORE RETURN JUMPDEST PUSH1 0x1 PUSH1 0x1 PUSH1 0xA0 SHL SUB DUP2 AND SUB PUSH2 0x540 JUMPI JUMP JUMPDEST CALLVALUE PUSH2 0x540 JUMPI PUSH1 0x40 CALLDATASIZE PUSH1 0x3 NOT ADD SLT PUSH2 0x540 JUMPI PUSH1 0x1 PUSH1 0x1 PUSH1 0xA0 SHL SUB PUSH1 0x4 CALLDATALOAD PUSH2 0x9C2 DUP2 PUSH2 0x98C JUMP JUMPDEST AND PUSH1 0x0 MSTORE PUSH1 0xCF PUSH1 0x20 MSTORE PUSH1 0x20 PUSH2 0x9DD PUSH1 0x24 CALLDATALOAD PUSH1 0x40 PUSH1 0x0 KECCAK256 PUSH2 0x315D JUMP JUMPDEST SWAP1 SLOAD PUSH1 0x40 MLOAD SWAP2 PUSH1 0x3 SHL SHR DUP2 MSTORE RETURN JUMPDEST CALLVALUE PUSH2 0x540 JUMPI PUSH1 0x60 CALLDATASIZE PUSH1 0x3 NOT ADD SLT PUSH2 0x540 JUMPI PUSH8 0xFFFFFFFFFFFFFFFF PUSH1 0x4 CALLDATALOAD DUP2 DUP2 GT PUSH2 0x540 JUMPI PUSH2 0xA1D SWAP1 CALLDATASIZE SWAP1 PUSH1 0x4 ADD PUSH2 0x761 JUMP JUMPDEST SWAP1 PUSH1 0x24 CALLDATALOAD SWAP1 DUP2 GT PUSH2 0x540 JUMPI PUSH2 0xA36 SWAP1 CALLDATASIZE SWAP1 PUSH1 0x4 ADD PUSH2 0x761 JUMP JUMPDEST PUSH1 0x44 CALLDATALOAD SWAP2 PUSH1 0x3 DUP4 LT ISZERO PUSH2 0x540 JUMPI DUP1 MLOAD ISZERO PUSH2 0xB17 JUMPI PUSH2 0xB04 DUP3 PUSH2 0xAE3 PUSH32 0x427B59B30D98F86C6E6670DA78CFF4CBAA374E6642FF6D038FAA43CBB5FD8DE3 SWAP6 PUSH2 0xA82 PUSH2 0xB12 SWAP7 MLOAD ISZERO ISZERO PUSH2 0x2893 JUMP JUMPDEST PUSH2 0xA8D CALLER ISZERO ISZERO PUSH2 0x28DF JUMP JUMPDEST PUSH2 0xAC9 PUSH2 0xAC4 PUSH2 0xAC0 PUSH1 0x2 PUSH2 0xAB5 CALLER PUSH1 0x1 PUSH1 0x1 PUSH1 0xA0 SHL SUB AND PUSH1 0x0 MSTORE PUSH1 0xCB PUSH1 0x20 MSTORE PUSH1 0x40 PUSH1 0x0 KECCAK256 SWAP1 JUMP JUMPDEST ADD SLOAD PUSH1 0xA8 SHR PUSH1 0xFF AND SWAP1 JUMP JUMPDEST ISZERO SWAP1 JUMP JUMPDEST PUSH2 0x292B JUMP JUMPDEST PUSH2 0xAD1 PUSH2 0x6E0 JUMP JUMPDEST SWAP3 DUP6 DUP5 MSTORE PUSH1 0x20 DUP5 ADD MSTORE PUSH1 0x40 DUP4 ADD PUSH2 0x2977 JUMP JUMPDEST CALLER PUSH1 0x60 DUP3 ADD MSTORE PUSH1 0x1 PUSH1 0x80 DUP3 ADD MSTORE CALLER PUSH1 0x0 SWAP1 DUP2 MSTORE PUSH1 0xCB PUSH1 0x20 MSTORE PUSH1 0x40 SWAP1 KECCAK256 PUSH2 0x2ABB JUMP JUMPDEST PUSH1 0x40 MLOAD SWAP2 DUP3 SWAP2 CALLER SWAP1 DUP4 PUSH2 0x2C78 JUMP JUMPDEST SUB SWAP1 LOG1 STOP JUMPDEST PUSH1 0x40 MLOAD PUSH3 0x461BCD PUSH1 0xE5 SHL DUP2 MSTORE PUSH1 0x20 PUSH1 0x4 DUP3 ADD MSTORE PUSH1 0x15 PUSH1 0x24 DUP3 ADD MSTORE PUSH32 0x456D61696C2063616E6E6F7420626520656D7074790000000000000000000000 PUSH1 0x44 DUP3 ADD MSTORE PUSH1 0x64 SWAP1 REVERT JUMPDEST CALLVALUE PUSH2 0x540 JUMPI PUSH1 0x20 CALLDATASIZE PUSH1 0x3 NOT ADD SLT PUSH2 0x540 JUMPI PUSH1 0x4 CALLDATALOAD PUSH2 0xB79 DUP2 PUSH2 0x98C JUMP JUMPDEST PUSH1 0x1 PUSH1 0x1 PUSH1 0xA0 SHL SUB SWAP1 DUP2 PUSH32 0x0 AND SWAP2 PUSH2 0xBB2 DUP4 ADDRESS EQ ISZERO PUSH2 0x2377 JUMP JUMPDEST PUSH2 0xBE1 PUSH32 0x360894A13BA1A3210667C828492DB98DCA3E2076CC3735A920A3CA505D382BBC SWAP4 DUP3 DUP6 SLOAD AND EQ PUSH2 0x23E9 JUMP JUMPDEST PUSH1 0x40 MLOAD SWAP1 PUSH2 0xBEE DUP3 PUSH2 0x24D JUMP JUMPDEST PUSH1 0x0 DUP3 MSTORE PUSH32 0x4910FDFA16FED3260ED0E7147F7CC6DA11A60208B5B9406D12A635614FFD9143 SLOAD PUSH1 0xFF AND ISZERO PUSH2 0xC2A JUMPI POP POP PUSH2 0xC28 SWAP2 POP PUSH2 0x24E8 JUMP JUMPDEST STOP JUMPDEST PUSH1 0x20 PUSH1 0x4 SWAP2 PUSH1 0x40 SWAP5 SWAP4 SWAP5 MLOAD SWAP3 DUP4 DUP1 SWAP3 PUSH4 0x52D1902D PUSH1 0xE0 SHL DUP3 MSTORE DUP7 AND GAS STATICCALL PUSH1 0x0 SWAP2 DUP2 PUSH2 0xCC8 JUMPI JUMPDEST POP PUSH2 0xCB5 JUMPI PUSH1 0x40 MLOAD PUSH3 0x461BCD PUSH1 0xE5 SHL DUP2 MSTORE PUSH1 0x20 PUSH1 0x4 DUP3 ADD MSTORE PUSH1 0x2E PUSH1 0x24 DUP3 ADD MSTORE PUSH32 0x45524331393637557067726164653A206E657720696D706C656D656E74617469 PUSH1 0x44 DUP3 ADD MSTORE PUSH14 0x6F6E206973206E6F742055555053 PUSH1 0x90 SHL PUSH1 0x64 DUP3 ADD MSTORE PUSH1 0x84 SWAP1 REVERT JUMPDEST SUB SWAP1 REVERT JUMPDEST PUSH2 0xC28 SWAP4 PUSH2 0xCC3 SWAP2 EQ PUSH2 0x2476 JUMP JUMPDEST PUSH2 0x2596 JUMP JUMPDEST PUSH2 0xCEA SWAP2 SWAP3 POP PUSH1 0x20 RETURNDATASIZE DUP2 GT PUSH2 0xCF1 JUMPI JUMPDEST PUSH2 0xCE2 DUP2 DUP4 PUSH2 0x285 JUMP JUMPDEST DUP2 ADD SWAP1 PUSH2 0x245B JUMP JUMPDEST SWAP1 CODESIZE PUSH2 0xC50 JUMP JUMPDEST POP RETURNDATASIZE PUSH2 0xCD8 JUMP JUMPDEST PUSH1 0x20 DUP1 PUSH1 0x3 NOT CALLDATASIZE ADD SLT PUSH2 0x540 JUMPI PUSH1 0x4 CALLDATALOAD PUSH1 0x0 SWAP2 CALLER DUP4 MSTORE PUSH1 0xCB DUP2 MSTORE PUSH2 0xD28 PUSH1 0xFF PUSH1 0x2 PUSH1 0x40 DUP7 KECCAK256 ADD SLOAD PUSH1 0xA8 SHR AND PUSH2 0x2D26 JUMP JUMPDEST PUSH2 0xD35 PUSH1 0xC9 SLOAD DUP4 LT PUSH2 0x2F1A JUMP JUMPDEST CALLER DUP4 MSTORE PUSH1 0xCB DUP2 MSTORE PUSH2 0xD55 PUSH1 0x1 PUSH1 0xFF PUSH1 0x2 PUSH1 0x40 DUP8 KECCAK256 ADD SLOAD AND PUSH2 0x5A8 DUP2 PUSH2 0x38D JUMP JUMPDEST DUP2 DUP4 MSTORE PUSH1 0xCC DUP2 MSTORE PUSH2 0xD79 PUSH1 0xFF PUSH1 0xD PUSH1 0x40 DUP7 KECCAK256 ADD SLOAD AND PUSH2 0xD73 DUP2 PUSH2 0x38D JUMP JUMPDEST ISZERO PUSH2 0x2F66 JUMP JUMPDEST DUP2 DUP4 MSTORE PUSH1 0xCC DUP2 MSTORE PUSH1 0x4 PUSH1 0x40 DUP5 KECCAK256 ADD SLOAD TIMESTAMP LT ISZERO PUSH2 0xD9C JUMPI POP PUSH2 0xD99 SWAP1 PUSH2 0x31BB JUMP JUMPDEST DUP1 RETURN JUMPDEST PUSH1 0x64 SWAP1 PUSH1 0x40 MLOAD SWAP1 PUSH3 0x461BCD PUSH1 0xE5 SHL DUP3 MSTORE PUSH1 0x4 DUP3 ADD MSTORE PUSH1 0x15 PUSH1 0x24 DUP3 ADD MSTORE PUSH32 0x446561646C696E65206861732070617373656420210000000000000000000000 PUSH1 0x44 DUP3 ADD MSTORE REVERT JUMPDEST PUSH1 0x40 CALLDATASIZE PUSH1 0x3 NOT ADD SLT PUSH2 0x540 JUMPI PUSH1 0x4 CALLDATALOAD PUSH2 0xDF8 DUP2 PUSH2 0x98C JUMP JUMPDEST PUSH1 0x24 CALLDATALOAD PUSH8 0xFFFFFFFFFFFFFFFF DUP2 GT PUSH2 0x540 JUMPI CALLDATASIZE PUSH1 0x23 DUP3 ADD SLT ISZERO PUSH2 0x540 JUMPI PUSH2 0xE29 SWAP1 CALLDATASIZE SWAP1 PUSH1 0x24 DUP2 PUSH1 0x4 ADD CALLDATALOAD SWAP2 ADD PUSH2 0x72A JUMP JUMPDEST SWAP1 PUSH1 0x1 PUSH1 0x1 PUSH1 0xA0 SHL SUB SWAP2 DUP3 PUSH32 0x0 AND SWAP3 PUSH2 0xE63 DUP5 ADDRESS EQ ISZERO PUSH2 0x2377 JUMP JUMPDEST PUSH2 0xE92 PUSH32 0x360894A13BA1A3210667C828492DB98DCA3E2076CC3735A920A3CA505D382BBC SWAP5 DUP3 DUP7 SLOAD AND EQ PUSH2 0x23E9 JUMP JUMPDEST PUSH32 0x4910FDFA16FED3260ED0E7147F7CC6DA11A60208B5B9406D12A635614FFD9143 SLOAD PUSH1 0xFF AND ISZERO PUSH2 0xEC8 JUMPI POP POP PUSH2 0xC28 SWAP2 POP PUSH2 0x24E8 JUMP JUMPDEST PUSH1 0x20 PUSH1 0x4 SWAP2 PUSH1 0x40 SWAP5 SWAP4 SWAP5 MLOAD SWAP3 DUP4 DUP1 SWAP3 PUSH4 0x52D1902D PUSH1 0xE0 SHL DUP3 MSTORE DUP7 AND GAS STATICCALL PUSH1 0x0 SWAP2 DUP2 PUSH2 0xF62 JUMPI JUMPDEST POP PUSH2 0xF4F JUMPI PUSH1 0x40 MLOAD PUSH3 0x461BCD PUSH1 0xE5 SHL DUP2 MSTORE PUSH1 0x20 PUSH1 0x4 DUP3 ADD MSTORE PUSH1 0x2E PUSH1 0x24 DUP3 ADD MSTORE PUSH32 0x45524331393637557067726164653A206E657720696D706C656D656E74617469 PUSH1 0x44 DUP3 ADD MSTORE PUSH14 0x6F6E206973206E6F742055555053 PUSH1 0x90 SHL PUSH1 0x64 DUP3 ADD MSTORE PUSH1 0x84 SWAP1 REVERT JUMPDEST PUSH2 0xC28 SWAP4 PUSH2 0xF5D SWAP2 EQ PUSH2 0x2476 JUMP JUMPDEST PUSH2 0x2691 JUMP JUMPDEST PUSH2 0xF7B SWAP2 SWAP3 POP PUSH1 0x20 RETURNDATASIZE DUP2 GT PUSH2 0xCF1 JUMPI PUSH2 0xCE2 DUP2 DUP4 PUSH2 0x285 JUMP JUMPDEST SWAP1 CODESIZE PUSH2 0xEEE JUMP JUMPDEST CALLVALUE PUSH2 0x540 JUMPI PUSH1 0x0 CALLDATASIZE PUSH1 0x3 NOT ADD SLT PUSH2 0x540 JUMPI PUSH1 0x1 PUSH1 0x1 PUSH1 0xA0 SHL SUB PUSH32 0x0 AND ADDRESS SUB PUSH2 0xFEE JUMPI PUSH1 0x40 MLOAD PUSH32 0x360894A13BA1A3210667C828492DB98DCA3E2076CC3735A920A3CA505D382BBC DUP2 MSTORE PUSH1 0x20 SWAP1 RETURN JUMPDEST PUSH1 0x40 MLOAD PUSH3 0x461BCD PUSH1 0xE5 SHL DUP2 MSTORE PUSH1 0x20 PUSH1 0x4 DUP3 ADD MSTORE PUSH1 0x38 PUSH1 0x24 DUP3 ADD MSTORE PUSH32 0x555550535570677261646561626C653A206D757374206E6F742062652063616C PUSH1 0x44 DUP3 ADD MSTORE PUSH32 0x6C6564207468726F7567682064656C656761746563616C6C0000000000000000 PUSH1 0x64 DUP3 ADD MSTORE PUSH1 0x84 SWAP1 REVERT JUMPDEST SWAP1 DUP2 MLOAD DUP1 DUP3 MSTORE PUSH1 0x20 DUP1 DUP1 SWAP4 ADD SWAP4 ADD SWAP2 PUSH1 0x0 JUMPDEST DUP3 DUP2 LT PUSH2 0x1079 JUMPI POP POP POP POP SWAP1 JUMP JUMPDEST DUP4 MLOAD PUSH1 0x1 PUSH1 0x1 PUSH1 0xA0 SHL SUB AND DUP6 MSTORE SWAP4 DUP2 ADD SWAP4 SWAP3 DUP2 ADD SWAP3 PUSH1 0x1 ADD PUSH2 0x106B JUMP JUMPDEST SWAP1 DUP2 MLOAD DUP1 DUP3 MSTORE PUSH1 0x20 DUP1 DUP1 SWAP4 ADD SWAP4 ADD SWAP2 PUSH1 0x0 JUMPDEST DUP3 DUP2 LT PUSH2 0x10B6 JUMPI POP POP POP POP SWAP1 JUMP JUMPDEST DUP4 MLOAD DUP6 MSTORE SWAP4 DUP2 ADD SWAP4 SWAP3 DUP2 ADD SWAP3 PUSH1 0x1 ADD PUSH2 0x10A8 JUMP JUMPDEST SWAP1 SWAP2 PUSH2 0x10E1 PUSH2 0x77C SWAP4 PUSH1 0x40 DUP5 MSTORE PUSH1 0x40 DUP5 ADD SWAP1 PUSH2 0x1059 JUMP JUMPDEST SWAP2 PUSH1 0x20 DUP2 DUP5 SUB SWAP2 ADD MSTORE PUSH2 0x1096 JUMP JUMPDEST CALLVALUE PUSH2 0x540 JUMPI PUSH1 0x20 CALLDATASIZE PUSH1 0x3 NOT ADD SLT PUSH2 0x540 JUMPI PUSH1 0x4 CALLDATALOAD DUP1 PUSH1 0x0 MSTORE PUSH1 0xCC PUSH1 0x20 MSTORE PUSH1 0xC PUSH1 0x40 PUSH1 0x0 KECCAK256 ADD SWAP1 DUP2 SLOAD PUSH2 0x1120 DUP2 PUSH2 0x3302 JUMP JUMPDEST SWAP2 PUSH2 0x112E PUSH1 0x40 MLOAD SWAP4 DUP5 PUSH2 0x285 JUMP JUMPDEST DUP2 DUP4 MSTORE PUSH1 0x1F NOT PUSH2 0x113D DUP4 PUSH2 0x3302 JUMP JUMPDEST ADD CALLDATASIZE PUSH1 0x20 DUP6 ADD CALLDATACOPY PUSH2 0x114D DUP3 PUSH2 0x331A JUMP JUMPDEST SWAP4 PUSH1 0x0 JUMPDEST DUP4 DUP2 LT PUSH2 0x1167 JUMPI PUSH1 0x40 MLOAD DUP1 PUSH2 0x53C DUP9 DUP9 DUP4 PUSH2 0x10CA JUMP JUMPDEST DUP1 PUSH2 0x11BE PUSH2 0x118E PUSH2 0x117B PUSH2 0x11CF SWAP5 DUP7 PUSH2 0x315D JUMP JUMPDEST SWAP1 SLOAD PUSH1 0x1 PUSH1 0x1 PUSH1 0xA0 SHL SUB SWAP2 PUSH1 0x3 SHL SHR AND SWAP1 JUMP JUMPDEST PUSH2 0x11AA DUP2 PUSH2 0x119C DUP6 DUP12 PUSH2 0x334C JUMP JUMPDEST SWAP1 PUSH1 0x1 PUSH1 0x1 PUSH1 0xA0 SHL SUB AND SWAP1 MSTORE JUMP JUMPDEST PUSH2 0x5E1 DUP7 PUSH1 0x0 MSTORE PUSH1 0xCD PUSH1 0x20 MSTORE PUSH1 0x40 PUSH1 0x0 KECCAK256 SWAP1 JUMP JUMPDEST SLOAD PUSH2 0x11C9 DUP3 DUP10 PUSH2 0x334C JUMP JUMPDEST MSTORE PUSH2 0x2EEA JUMP JUMPDEST PUSH2 0x1151 JUMP JUMPDEST PUSH1 0x20 DUP2 MSTORE PUSH1 0xA0 PUSH1 0x80 PUSH2 0x120A PUSH2 0x11F4 DUP6 MLOAD DUP5 PUSH1 0x20 DUP8 ADD MSTORE PUSH1 0xC0 DUP7 ADD SWAP1 PUSH2 0x34D JUMP JUMPDEST PUSH1 0x20 DUP7 ADD MLOAD DUP6 DUP3 SUB PUSH1 0x1F NOT ADD PUSH1 0x40 DUP8 ADD MSTORE PUSH2 0x34D JUMP JUMPDEST SWAP4 PUSH1 0x40 DUP2 ADD MLOAD PUSH2 0x1219 DUP2 PUSH2 0x38D JUMP JUMPDEST PUSH1 0x60 DUP6 ADD MSTORE PUSH1 0x1 PUSH1 0x1 PUSH1 0xA0 SHL SUB PUSH1 0x60 DUP3 ADD MLOAD AND DUP3 DUP6 ADD MSTORE ADD MLOAD ISZERO ISZERO SWAP2 ADD MSTORE SWAP1 JUMP JUMPDEST CALLVALUE PUSH2 0x540 JUMPI PUSH1 0x20 CALLDATASIZE PUSH1 0x3 NOT ADD SLT PUSH2 0x540 JUMPI PUSH2 0x53C PUSH1 0x4 CALLDATALOAD PUSH2 0x125A DUP2 PUSH2 0x98C JUMP JUMPDEST PUSH1 0x40 PUSH1 0x0 PUSH1 0x80 DUP3 MLOAD PUSH2 0x126B DUP2 PUSH2 0x22C JUMP JUMPDEST PUSH1 0x60 DUP2 MSTORE PUSH1 0x60 PUSH1 0x20 DUP3 ADD MSTORE DUP3 DUP5 DUP3 ADD MSTORE DUP3 PUSH1 0x60 DUP3 ADD MSTORE ADD MSTORE PUSH1 0x1 PUSH1 0x1 PUSH1 0xA0 SHL SUB DUP1 SWAP3 AND PUSH1 0x0 MSTORE PUSH1 0xCB PUSH1 0x20 MSTORE PUSH1 0xFF DUP2 PUSH1 0x0 KECCAK256 SWAP3 PUSH1 0x2 DUP4 MLOAD SWAP5 PUSH2 0x12AB DUP7 PUSH2 0x22C JUMP JUMPDEST PUSH2 0x12B4 DUP2 PUSH2 0x2A7 JUMP JUMPDEST DUP7 MSTORE PUSH2 0x12C2 PUSH1 0x1 DUP3 ADD PUSH2 0x2A7 JUMP JUMPDEST PUSH1 0x20 DUP8 ADD MSTORE ADD SLOAD SWAP1 DUP3 DUP3 AND PUSH2 0x12D6 DUP2 PUSH2 0x38D JUMP JUMPDEST DUP5 DUP7 ADD MSTORE DUP2 PUSH1 0x8 SHR AND PUSH1 0x60 DUP6 ADD MSTORE PUSH1 0xA8 SHR AND ISZERO ISZERO PUSH1 0x80 DUP4 ADD MSTORE MLOAD SWAP2 DUP3 SWAP2 DUP3 PUSH2 0x11D4 JUMP JUMPDEST CALLVALUE PUSH2 0x540 JUMPI PUSH1 0x60 CALLDATASIZE PUSH1 0x3 NOT ADD SLT PUSH2 0x540 JUMPI PUSH1 0x44 CALLDATALOAD PUSH32 0x99F063607B2D9F794EB8985DAF4A0D3224E73B48E43228A183329E415DFF077E PUSH1 0x24 CALLDATALOAD PUSH1 0x4 CALLDATALOAD PUSH2 0x133D DUP5 PUSH2 0x98C JUMP JUMPDEST PUSH2 0x1430 PUSH1 0x0 SWAP5 CALLER DUP7 MSTORE PUSH1 0xCB PUSH1 0x20 MSTORE PUSH2 0x1361 PUSH1 0xFF PUSH1 0x2 PUSH1 0x40 DUP10 KECCAK256 ADD SLOAD PUSH1 0xA8 SHR AND PUSH2 0x2D26 JUMP JUMPDEST PUSH2 0x136E PUSH1 0xC9 SLOAD DUP5 LT PUSH2 0x2F1A JUMP JUMPDEST CALLER DUP7 MSTORE PUSH1 0xCB PUSH1 0x20 MSTORE PUSH2 0x1393 PUSH1 0xFF PUSH1 0x2 PUSH1 0x40 DUP10 KECCAK256 ADD SLOAD AND PUSH2 0x138D DUP2 PUSH2 0x38D JUMP JUMPDEST ISZERO PUSH2 0x2D7E JUMP JUMPDEST DUP3 DUP7 MSTORE PUSH1 0xCC PUSH1 0x20 MSTORE PUSH1 0xB PUSH1 0x40 DUP8 KECCAK256 PUSH2 0x1414 PUSH1 0xD DUP3 ADD PUSH2 0x13EF PUSH1 0xFF DUP3 SLOAD PUSH2 0x13BE DUP3 DUP3 AND PUSH2 0xD73 DUP2 PUSH2 0x38D JUMP JUMPDEST PUSH2 0x13E5 CALLER PUSH1 0x1 PUSH1 0x1 PUSH1 0xA0 SHL SUB PUSH2 0x13DE PUSH1 0xA DUP11 ADD SLOAD PUSH1 0x1 PUSH1 0x1 PUSH1 0xA0 SHL SUB AND SWAP1 JUMP JUMPDEST AND EQ PUSH2 0x3572 JUMP JUMPDEST PUSH1 0x8 SHR AND ISZERO PUSH2 0x35E4 JUMP JUMPDEST PUSH2 0x13FF PUSH1 0x2 DUP5 ADD SLOAD DUP10 GT ISZERO PUSH2 0x3656 JUMP JUMPDEST DUP8 PUSH1 0x3 DUP5 ADD SSTORE PUSH2 0x100 PUSH2 0xFF00 NOT DUP3 SLOAD AND OR SWAP1 SSTORE JUMP JUMPDEST ADD SWAP1 PUSH1 0x1 PUSH1 0x1 PUSH1 0xA0 SHL SUB AND PUSH1 0x1 PUSH1 0x1 PUSH1 0xA0 SHL SUB NOT DUP3 SLOAD AND OR SWAP1 SSTORE JUMP JUMPDEST PUSH1 0x40 DUP1 MLOAD SWAP2 DUP3 MSTORE PUSH1 0x20 DUP3 ADD SWAP3 SWAP1 SWAP3 MSTORE SWAP1 DUP2 SWAP1 DUP2 ADD PUSH2 0x6CC JUMP JUMPDEST CALLVALUE PUSH2 0x540 JUMPI PUSH1 0x0 DUP1 PUSH1 0x3 NOT CALLDATASIZE ADD SLT PUSH2 0x14A5 JUMPI PUSH2 0x1463 PUSH2 0x22D7 JUMP JUMPDEST DUP1 PUSH1 0x1 PUSH1 0x1 PUSH1 0xA0 SHL SUB PUSH1 0x33 SLOAD PUSH1 0x1 PUSH1 0x1 PUSH1 0xA0 SHL SUB NOT DUP2 AND PUSH1 0x33 SSTORE AND PUSH32 0x8BE0079C531659141344CD1FD0A4F28419497F9722A3DAAFE3B4186F6B6457E0 DUP3 DUP1 LOG3 DUP1 RETURN JUMPDEST DUP1 REVERT JUMPDEST CALLVALUE PUSH2 0x540 JUMPI PUSH1 0x20 DUP1 PUSH1 0x3 NOT CALLDATASIZE ADD SLT PUSH2 0x540 JUMPI PUSH1 0x4 CALLDATALOAD PUSH1 0x0 SWAP2 CALLER DUP4 MSTORE PUSH1 0xCB DUP2 MSTORE PUSH1 0x40 SWAP1 PUSH2 0x14DF PUSH1 0xFF PUSH1 0x2 DUP5 DUP8 KECCAK256 ADD SLOAD PUSH1 0xA8 SHR AND PUSH2 0x2D26 JUMP JUMPDEST PUSH2 0x14EC PUSH1 0xC9 SLOAD DUP5 LT PUSH2 0x2F1A JUMP JUMPDEST CALLER DUP5 MSTORE PUSH1 0xCB DUP2 MSTORE PUSH2 0x150B PUSH1 0x1 PUSH1 0xFF PUSH1 0x2 DUP6 DUP9 KECCAK256 ADD SLOAD AND PUSH2 0x5A8 DUP2 PUSH2 0x38D JUMP JUMPDEST DUP3 DUP5 MSTORE PUSH1 0xCC DUP2 MSTORE PUSH1 0xD DUP3 DUP6 KECCAK256 ADD SLOAD SWAP1 PUSH2 0x152A PUSH1 0xFF DUP4 AND PUSH2 0xD73 DUP2 PUSH2 0x38D JUMP JUMPDEST DUP4 DUP6 MSTORE PUSH1 0xCD DUP2 MSTORE PUSH2 0x1550 CALLER DUP5 DUP8 KECCAK256 SWAP1 PUSH1 0x1 PUSH1 0x1 PUSH1 0xA0 SHL SUB AND PUSH1 0x0 MSTORE PUSH1 0x20 MSTORE PUSH1 0x40 PUSH1 0x0 KECCAK256 SWAP1 JUMP JUMPDEST SLOAD ISZERO PUSH2 0x15BF JUMPI POP SWAP2 PUSH2 0x6CC SWAP2 PUSH2 0x158C PUSH1 0xFF PUSH32 0xBB447F2506F46702F313360E42B26BACAC341B607C973EF8FE11EE7EB901BEA1 SWAP6 PUSH1 0x8 SHR AND PUSH2 0x3720 JUMP JUMPDEST PUSH2 0x15B1 PUSH2 0x15A7 CALLER PUSH2 0x5E1 DUP6 PUSH1 0x0 MSTORE PUSH1 0xCE PUSH1 0x20 MSTORE PUSH1 0x40 PUSH1 0x0 KECCAK256 SWAP1 JUMP JUMPDEST DUP1 SLOAD PUSH1 0xFF NOT AND SWAP1 SSTORE JUMP JUMPDEST MLOAD SWAP1 DUP2 MSTORE SWAP1 DUP2 SWAP1 PUSH1 0x20 DUP3 ADD SWAP1 JUMP JUMPDEST PUSH1 0x84 SWAP1 DUP4 MLOAD SWAP1 PUSH3 0x461BCD PUSH1 0xE5 SHL DUP3 MSTORE PUSH1 0x4 DUP3 ADD MSTORE PUSH1 0x24 DUP1 DUP3 ADD MSTORE PUSH32 0x4F6E6C7920696E766573746F72732063616E206465636C696E65206120726571 PUSH1 0x44 DUP3 ADD MSTORE PUSH4 0x1D595CDD PUSH1 0xE2 SHL PUSH1 0x64 DUP3 ADD MSTORE REVERT JUMPDEST CALLVALUE PUSH2 0x540 JUMPI PUSH1 0x20 CALLDATASIZE PUSH1 0x3 NOT ADD SLT PUSH2 0x540 JUMPI PUSH1 0x4 CALLDATALOAD PUSH1 0x0 SWAP1 CALLER DUP3 MSTORE PUSH1 0xCB PUSH1 0x20 MSTORE PUSH2 0x1643 PUSH1 0xFF PUSH1 0x2 PUSH1 0x40 DUP6 KECCAK256 ADD SLOAD PUSH1 0xA8 SHR AND PUSH2 0x2D26 JUMP JUMPDEST PUSH2 0x1650 PUSH1 0xC9 SLOAD DUP3 LT PUSH2 0x2F1A JUMP JUMPDEST CALLER DUP3 MSTORE PUSH1 0xCB PUSH1 0x20 MSTORE PUSH2 0x166F PUSH1 0xFF PUSH1 0x2 PUSH1 0x40 DUP6 KECCAK256 ADD SLOAD AND PUSH2 0x138D DUP2 PUSH2 0x38D JUMP JUMPDEST DUP1 DUP3 MSTORE PUSH1 0xCC PUSH1 0x20 MSTORE PUSH1 0x40 DUP3 KECCAK256 SWAP1 PUSH2 0x16A8 PUSH2 0x16A3 PUSH1 0xD DUP5 ADD SWAP4 PUSH2 0x169E PUSH2 0x1695 DUP7 SLOAD PUSH1 0xFF AND SWAP1 JUMP JUMPDEST PUSH2 0xD73 DUP2 PUSH2 0x38D JUMP JUMPDEST PUSH2 0x3ABD JUMP JUMPDEST PUSH2 0x37EA JUMP JUMPDEST PUSH2 0x16DE PUSH2 0x16D2 PUSH1 0xB PUSH2 0x16C4 DUP5 PUSH1 0x0 MSTORE PUSH1 0xCC PUSH1 0x20 MSTORE PUSH1 0x40 PUSH1 0x0 KECCAK256 SWAP1 JUMP JUMPDEST ADD SLOAD PUSH1 0x1 PUSH1 0x1 PUSH1 0xA0 SHL SUB AND SWAP1 JUMP JUMPDEST PUSH1 0x1 PUSH1 0x1 PUSH1 0xA0 SHL SUB AND SWAP1 JUMP JUMPDEST SWAP1 PUSH1 0x2 PUSH2 0x16F5 DUP3 PUSH1 0x0 MSTORE PUSH1 0xCC PUSH1 0x20 MSTORE PUSH1 0x40 PUSH1 0x0 KECCAK256 SWAP1 JUMP JUMPDEST ADD SLOAD SWAP3 DUP5 DUP1 DUP1 DUP1 DUP8 PUSH2 0x1719 PUSH2 0x16D2 PUSH1 0xB PUSH2 0x16C4 DUP11 PUSH1 0x0 MSTORE PUSH1 0xCC PUSH1 0x20 MSTORE PUSH1 0x40 PUSH1 0x0 KECCAK256 SWAP1 JUMP JUMPDEST DUP3 DUP3 ISZERO PUSH2 0x177E JUMPI JUMPDEST CALL ISZERO PUSH2 0x6D2 JUMPI DUP1 SLOAD PUSH1 0xFF NOT AND PUSH1 0x1 OR SWAP1 SSTORE PUSH32 0x6E3C6096795C8298A218B2CFB8BDE42726FF7C9A3D27B4D3BA41AB7F74FEB5FB SWAP3 PUSH2 0x6CC SWAP1 PUSH1 0x40 MLOAD SWAP4 DUP5 SWAP4 DUP5 PUSH1 0x1 PUSH1 0x1 PUSH1 0xA0 SHL SUB PUSH1 0x40 SWAP3 SWAP6 SWAP5 SWAP4 PUSH1 0x60 DUP4 ADD SWAP7 DUP4 MSTORE AND PUSH1 0x20 DUP3 ADD MSTORE ADD MSTORE JUMP JUMPDEST POP PUSH2 0x8FC PUSH2 0x1721 JUMP JUMPDEST CALLVALUE PUSH2 0x540 JUMPI PUSH1 0x0 DUP1 PUSH1 0x3 NOT CALLDATASIZE ADD SLT PUSH2 0x14A5 JUMPI DUP1 SLOAD PUSH2 0x17BC PUSH1 0xFF DUP3 PUSH1 0x8 SHR AND ISZERO DUP1 SWAP3 DUP2 SWAP4 PUSH2 0x185F JUMPI JUMPDEST DUP2 ISZERO PUSH2 0x183F JUMPI JUMPDEST POP PUSH2 0x277F JUMP JUMPDEST DUP1 PUSH2 0x17CF PUSH1 0x1 PUSH1 0xFF NOT PUSH1 0x0 SLOAD AND OR PUSH1 0x0 SSTORE JUMP JUMPDEST PUSH2 0x1826 JUMPI JUMPDEST PUSH2 0x17DC PUSH2 0x27F1 JUMP JUMPDEST PUSH2 0x17E3 JUMPI DUP1 RETURN JUMPDEST PUSH2 0x17F3 PUSH2 0xFF00 NOT PUSH1 0x0 SLOAD AND PUSH1 0x0 SSTORE JUMP JUMPDEST PUSH1 0x40 MLOAD PUSH1 0x1 DUP2 MSTORE PUSH32 0x7F26B83FF96E1F2B6A682F133852F6798A09C465DA95921460CEFB3847402498 SWAP1 DUP1 PUSH1 0x20 DUP2 ADD PUSH2 0x6CC JUMP JUMPDEST PUSH2 0x183A PUSH2 0x100 PUSH2 0xFF00 NOT PUSH1 0x0 SLOAD AND OR PUSH1 0x0 SSTORE JUMP JUMPDEST PUSH2 0x17D4 JUMP JUMPDEST ADDRESS EXTCODESIZE ISZERO SWAP2 POP DUP2 PUSH2 0x1851 JUMPI JUMPDEST POP CODESIZE PUSH2 0x17B6 JUMP JUMPDEST PUSH1 0x1 SWAP2 POP PUSH1 0xFF AND EQ CODESIZE PUSH2 0x184A JUMP JUMPDEST PUSH1 0x1 PUSH1 0xFF DUP3 AND LT SWAP2 POP PUSH2 0x17AF JUMP JUMPDEST CALLVALUE PUSH2 0x540 JUMPI PUSH1 0x0 CALLDATASIZE PUSH1 0x3 NOT ADD SLT PUSH2 0x540 JUMPI PUSH1 0x20 PUSH1 0x1 PUSH1 0x1 PUSH1 0xA0 SHL SUB PUSH1 0x33 SLOAD AND PUSH1 0x40 MLOAD SWAP1 DUP2 MSTORE RETURN JUMPDEST CALLVALUE PUSH2 0x540 JUMPI PUSH1 0x20 DUP1 PUSH1 0x3 NOT CALLDATASIZE ADD SLT PUSH2 0x540 JUMPI PUSH1 0x4 CALLDATALOAD PUSH2 0x18B2 DUP2 PUSH2 0x98C JUMP JUMPDEST PUSH1 0xC9 SLOAD PUSH1 0x0 SWAP2 DUP3 JUMPDEST DUP3 DUP2 LT PUSH2 0x18CC JUMPI POP POP POP PUSH1 0x40 MLOAD SWAP1 DUP2 MSTORE RETURN JUMPDEST PUSH1 0x0 DUP2 DUP2 MSTORE PUSH1 0xCD DUP7 MSTORE PUSH1 0x40 DUP1 DUP3 KECCAK256 PUSH1 0x1 PUSH1 0x1 PUSH1 0xA0 SHL SUB DUP6 AND DUP4 MSTORE PUSH1 0x20 MSTORE SWAP1 KECCAK256 SLOAD PUSH2 0x18FF JUMPI JUMPDEST PUSH2 0x18FA SWAP1 PUSH2 0x2EEA JUMP JUMPDEST PUSH2 0x18BA JUMP JUMPDEST SWAP3 PUSH2 0x190C PUSH2 0x18FA SWAP2 PUSH2 0x2EEA JUMP JUMPDEST SWAP4 SWAP1 POP PUSH2 0x18F1 JUMP JUMPDEST SWAP1 PUSH2 0x77C SWAP1 DUP3 MLOAD DUP2 MSTORE PUSH1 0x20 DUP4 ADD MLOAD PUSH1 0x20 DUP3 ADD MSTORE PUSH1 0x40 DUP4 ADD MLOAD PUSH1 0x40 DUP3 ADD MSTORE PUSH1 0x60 DUP4 ADD MLOAD PUSH1 0x60 DUP3 ADD MSTORE PUSH1 0x80 DUP4 ADD MLOAD PUSH1 0x80 DUP3 ADD MSTORE PUSH1 0xA0 DUP4 ADD MLOAD PUSH1 0xA0 DUP3 ADD MSTORE PUSH1 0xC0 DUP4 ADD MLOAD PUSH1 0xC0 DUP3 ADD MSTORE PUSH2 0x19DF PUSH2 0x19A3 PUSH2 0x198F PUSH2 0x197B PUSH1 0xE0 DUP8 ADD MLOAD PUSH2 0x200 DUP1 PUSH1 0xE0 DUP9 ADD MSTORE DUP7 ADD SWAP1 PUSH2 0x34D JUMP JUMPDEST PUSH2 0x100 DUP1 DUP9 ADD MLOAD SWAP1 DUP7 DUP4 SUB SWAP1 DUP8 ADD MSTORE PUSH2 0x34D JUMP JUMPDEST PUSH2 0x120 DUP1 DUP8 ADD MLOAD SWAP1 DUP6 DUP4 SUB SWAP1 DUP7 ADD MSTORE PUSH2 0x34D JUMP JUMPDEST PUSH2 0x140 DUP6 DUP2 ADD MLOAD PUSH1 0x1 PUSH1 0x1 PUSH1 0xA0 SHL SUB AND SWAP1 DUP5 ADD MSTORE PUSH2 0x160 DUP6 DUP2 ADD MLOAD PUSH1 0x1 PUSH1 0x1 PUSH1 0xA0 SHL SUB AND SWAP1 DUP5 ADD MSTORE PUSH2 0x180 DUP1 DUP7 ADD MLOAD SWAP1 DUP5 DUP4 SUB SWAP1 DUP6 ADD MSTORE PUSH2 0x1059 JUMP JUMPDEST SWAP3 PUSH2 0x19F3 PUSH2 0x1A0 DUP1 DUP4 ADD MLOAD SWAP1 DUP5 ADD SWAP1 PUSH2 0x3AD JUMP JUMPDEST PUSH2 0x1C0 DUP2 DUP2 ADD MLOAD ISZERO ISZERO SWAP1 DUP4 ADD MSTORE PUSH2 0x1E0 SWAP1 DUP2 ADD MLOAD ISZERO ISZERO SWAP2 ADD MSTORE JUMP JUMPDEST PUSH1 0x20 DUP1 DUP3 ADD SWAP1 DUP1 DUP4 MSTORE DUP4 MLOAD DUP1 SWAP3 MSTORE PUSH1 0x40 DUP4 ADD SWAP3 DUP2 PUSH1 0x40 DUP5 PUSH1 0x5 SHL DUP4 ADD ADD SWAP6 ADD SWAP4 PUSH1 0x0 SWAP2 JUMPDEST DUP5 DUP4 LT PUSH2 0x1A42 JUMPI POP POP POP POP POP POP SWAP1 JUMP JUMPDEST SWAP1 SWAP2 SWAP3 SWAP4 SWAP5 SWAP6 DUP5 DUP1 PUSH2 0x1A60 PUSH1 0x1 SWAP4 PUSH1 0x3F NOT DUP7 DUP3 SUB ADD DUP8 MSTORE DUP11 MLOAD PUSH2 0x1914 JUMP JUMPDEST SWAP9 ADD SWAP4 ADD SWAP4 ADD SWAP2 SWAP5 SWAP4 SWAP3 SWAP1 PUSH2 0x1A32 JUMP JUMPDEST CALLVALUE PUSH2 0x540 JUMPI PUSH1 0x0 DUP1 PUSH1 0x3 NOT CALLDATASIZE ADD SLT PUSH2 0x14A5 JUMPI PUSH1 0xC9 SLOAD PUSH2 0x1A8E DUP2 PUSH2 0x342D JUMP JUMPDEST SWAP1 DUP3 JUMPDEST DUP2 DUP2 LT PUSH2 0x1AA6 JUMPI PUSH1 0x40 MLOAD DUP1 PUSH2 0x53C DUP6 DUP3 PUSH2 0x1A0E JUMP JUMPDEST DUP1 DUP5 MSTORE PUSH1 0x20 SWAP1 PUSH1 0xCC DUP3 MSTORE PUSH1 0x40 PUSH2 0x1BD3 PUSH2 0x1BC5 DUP3 DUP9 KECCAK256 PUSH2 0x1AC3 PUSH2 0x6ED JUMP JUMPDEST SWAP4 DUP2 SLOAD DUP6 MSTORE PUSH1 0x1 SWAP7 DUP8 DUP4 ADD SLOAD SWAP1 DUP7 ADD MSTORE PUSH1 0x2 DUP3 ADD SLOAD SWAP1 DUP6 ADD MSTORE PUSH1 0x3 DUP2 ADD SLOAD PUSH1 0x60 DUP6 ADD MSTORE PUSH1 0x4 DUP2 ADD SLOAD PUSH1 0x80 DUP6 ADD MSTORE PUSH1 0x5 DUP2 ADD SLOAD PUSH1 0xA0 DUP6 ADD MSTORE PUSH1 0x6 DUP2 ADD SLOAD PUSH1 0xC0 DUP6 ADD MSTORE PUSH2 0x1B10 PUSH1 0x7 DUP3 ADD PUSH2 0x2A7 JUMP JUMPDEST PUSH1 0xE0 DUP6 ADD MSTORE PUSH1 0xD PUSH1 0x8 SWAP2 PUSH2 0x1B25 DUP4 DUP3 ADD PUSH2 0x2A7 JUMP JUMPDEST PUSH2 0x100 DUP8 ADD MSTORE PUSH2 0x1B37 PUSH1 0x9 DUP3 ADD PUSH2 0x2A7 JUMP JUMPDEST PUSH2 0x120 DUP8 ADD MSTORE PUSH2 0x1B65 PUSH2 0x1B54 PUSH1 0xA DUP4 ADD SLOAD PUSH1 0x1 PUSH1 0x1 PUSH1 0xA0 SHL SUB AND SWAP1 JUMP JUMPDEST PUSH1 0x1 PUSH1 0x1 PUSH1 0xA0 SHL SUB AND PUSH2 0x140 DUP9 ADD MSTORE JUMP JUMPDEST PUSH2 0x1B8D PUSH2 0x1B7C PUSH1 0xB DUP4 ADD SLOAD PUSH1 0x1 PUSH1 0x1 PUSH1 0xA0 SHL SUB AND SWAP1 JUMP JUMPDEST PUSH1 0x1 PUSH1 0x1 PUSH1 0xA0 SHL SUB AND PUSH2 0x160 DUP9 ADD MSTORE JUMP JUMPDEST PUSH2 0x1B99 PUSH1 0xC DUP3 ADD PUSH2 0x3360 JUMP JUMPDEST PUSH2 0x180 DUP8 ADD MSTORE ADD SLOAD SWAP2 DUP3 SWAP2 PUSH1 0xFF SWAP4 DUP5 SWAP2 PUSH2 0x1BB9 DUP4 DUP4 AND PUSH2 0x1A0 DUP11 ADD PUSH2 0x2977 JUMP JUMPDEST SHR AND ISZERO ISZERO PUSH2 0x1C0 DUP7 ADD MSTORE JUMP JUMPDEST PUSH1 0x10 SHR AND ISZERO ISZERO PUSH2 0x1E0 DUP4 ADD MSTORE JUMP JUMPDEST PUSH2 0x1BDD DUP3 DUP7 PUSH2 0x334C JUMP JUMPDEST MSTORE PUSH2 0x1BE8 DUP2 DUP6 PUSH2 0x334C JUMP JUMPDEST POP ADD PUSH2 0x1A91 JUMP JUMPDEST CALLVALUE PUSH2 0x540 JUMPI PUSH1 0x20 CALLDATASIZE PUSH1 0x3 NOT ADD SLT PUSH2 0x540 JUMPI PUSH1 0x4 CALLDATALOAD PUSH32 0xF3DC904660A0EA05ABA8DFA1E21FBC4FB2914BE2A3029DA7B0FDD3E5EEE20DDB PUSH2 0x6CC PUSH1 0x0 SWAP3 CALLER DUP5 MSTORE PUSH1 0xCB PUSH1 0x20 MSTORE PUSH2 0x1C48 PUSH1 0xFF PUSH1 0x2 PUSH1 0x40 DUP8 KECCAK256 ADD SLOAD PUSH1 0xA8 SHR AND PUSH2 0x2D26 JUMP JUMPDEST PUSH2 0x1C55 PUSH1 0xC9 SLOAD DUP3 LT PUSH2 0x2F1A JUMP JUMPDEST CALLER DUP5 MSTORE PUSH1 0xCB PUSH1 0x20 MSTORE PUSH2 0x1C76 PUSH1 0x1 PUSH1 0xFF PUSH1 0x2 PUSH1 0x40 DUP9 KECCAK256 ADD SLOAD AND PUSH2 0x5A8 DUP2 PUSH2 0x38D JUMP JUMPDEST DUP1 DUP5 MSTORE PUSH1 0xCC PUSH1 0x20 MSTORE PUSH2 0x1CD6 PUSH1 0xFF PUSH1 0xD PUSH1 0x40 DUP8 KECCAK256 ADD SLOAD PUSH2 0x1C9A DUP3 DUP3 AND PUSH2 0xD73 DUP2 PUSH2 0x38D JUMP JUMPDEST DUP4 DUP8 MSTORE PUSH1 0xCD PUSH1 0x20 MSTORE PUSH2 0x1CCD PUSH2 0x1CC5 CALLER PUSH1 0x40 DUP11 KECCAK256 SWAP1 PUSH1 0x1 PUSH1 0x1 PUSH1 0xA0 SHL SUB AND PUSH1 0x0 MSTORE PUSH1 0x20 MSTORE PUSH1 0x40 PUSH1 0x0 KECCAK256 SWAP1 JUMP JUMPDEST SLOAD ISZERO ISZERO PUSH2 0x36C8 JUMP JUMPDEST PUSH1 0x8 SHR AND PUSH2 0x3720 JUMP JUMPDEST PUSH2 0x1D03 PUSH2 0x1CFE PUSH2 0xAC0 PUSH2 0x1CF7 CALLER PUSH2 0x5E1 DUP7 PUSH1 0x0 MSTORE PUSH1 0xCE PUSH1 0x20 MSTORE PUSH1 0x40 PUSH1 0x0 KECCAK256 SWAP1 JUMP JUMPDEST SLOAD PUSH1 0xFF AND SWAP1 JUMP JUMPDEST PUSH2 0x3778 JUMP JUMPDEST PUSH2 0x1D2B PUSH2 0x1D1E CALLER PUSH2 0x5E1 DUP5 PUSH1 0x0 MSTORE PUSH1 0xCE PUSH1 0x20 MSTORE PUSH1 0x40 PUSH1 0x0 KECCAK256 SWAP1 JUMP JUMPDEST DUP1 SLOAD PUSH1 0xFF NOT AND PUSH1 0x1 OR SWAP1 SSTORE JUMP JUMPDEST PUSH1 0x40 DUP1 MLOAD SWAP2 DUP3 MSTORE CALLER PUSH1 0x20 DUP4 ADD MSTORE SWAP1 SWAP2 DUP3 SWAP2 DUP3 ADD SWAP1 JUMP JUMPDEST CALLVALUE PUSH2 0x540 JUMPI PUSH1 0x20 CALLDATASIZE PUSH1 0x3 NOT ADD SLT PUSH2 0x540 JUMPI PUSH2 0x1DB2 PUSH1 0x4 CALLDATALOAD PUSH2 0x1D61 DUP2 PUSH2 0x98C JUMP JUMPDEST PUSH1 0x1 PUSH1 0x1 PUSH1 0xA0 SHL SUB DUP1 SWAP2 AND PUSH1 0x0 MSTORE PUSH1 0xCB PUSH1 0x20 MSTORE PUSH1 0x40 PUSH1 0x0 KECCAK256 PUSH1 0xFF PUSH2 0x1D84 DUP3 PUSH2 0x2A7 JUMP JUMPDEST SWAP3 PUSH1 0x2 PUSH2 0x1D93 PUSH1 0x1 DUP6 ADD PUSH2 0x2A7 JUMP JUMPDEST SWAP4 ADD SLOAD SWAP1 PUSH2 0x1DC0 DUP4 DUP4 AND SWAP5 PUSH1 0x40 MLOAD SWAP8 DUP9 SWAP8 PUSH1 0xA0 DUP10 MSTORE PUSH1 0xA0 DUP10 ADD SWAP1 PUSH2 0x34D JUMP JUMPDEST SWAP1 DUP8 DUP3 SUB PUSH1 0x20 DUP10 ADD MSTORE PUSH2 0x34D JUMP JUMPDEST SWAP4 PUSH2 0x1DCA DUP2 PUSH2 0x38D JUMP JUMPDEST PUSH1 0x40 DUP7 ADD MSTORE DUP2 PUSH1 0x8 SHR AND PUSH1 0x60 DUP6 ADD MSTORE PUSH1 0xA8 SHR AND ISZERO ISZERO PUSH1 0x80 DUP4 ADD MSTORE SUB SWAP1 RETURN JUMPDEST CALLVALUE PUSH2 0x540 JUMPI PUSH1 0x20 CALLDATASIZE PUSH1 0x3 NOT ADD SLT PUSH2 0x540 JUMPI PUSH1 0x4 CALLDATALOAD PUSH1 0x0 SWAP1 CALLER DUP3 MSTORE PUSH1 0xCB PUSH1 0x20 MSTORE PUSH2 0x1E1D PUSH1 0xFF PUSH1 0x2 PUSH1 0x40 DUP6 KECCAK256 ADD SLOAD PUSH1 0xA8 SHR AND PUSH2 0x2D26 JUMP JUMPDEST PUSH2 0x1E2A PUSH1 0xC9 SLOAD DUP3 LT PUSH2 0x2F1A JUMP JUMPDEST CALLER DUP3 MSTORE PUSH1 0xCB PUSH1 0x20 MSTORE PUSH2 0x1E4A PUSH1 0x2 PUSH1 0xFF DUP2 PUSH1 0x40 DUP7 KECCAK256 ADD SLOAD AND PUSH2 0x5A8 DUP2 PUSH2 0x38D JUMP JUMPDEST DUP1 DUP3 MSTORE PUSH1 0xCC PUSH1 0x20 MSTORE PUSH1 0x40 DUP3 KECCAK256 CALLER PUSH1 0x1 PUSH1 0x1 PUSH1 0xA0 SHL SUB PUSH1 0xB DUP4 ADD SLOAD AND SUB PUSH2 0x1EDD JUMPI PUSH32 0xBCDC7071C1BEB6DCF2744621E0B29A2F2432EE20812D9CA5E3D5E8F9308D93A3 SWAP2 PUSH2 0x1ECD PUSH1 0xD DUP4 PUSH2 0x1EA1 PUSH2 0x16A3 PUSH2 0x6CC SWAP7 PUSH2 0x3ABD JUMP JUMPDEST ADD PUSH2 0x1EBC PUSH2 0x1EB7 PUSH2 0xAC0 DUP4 SLOAD PUSH1 0xFF SWAP1 PUSH1 0x10 SHR AND SWAP1 JUMP JUMPDEST PUSH2 0x30C8 JUMP JUMPDEST DUP1 SLOAD PUSH3 0xFF0000 NOT AND PUSH3 0x10000 OR SWAP1 SSTORE JUMP JUMPDEST PUSH1 0x40 MLOAD SWAP1 DUP2 MSTORE SWAP1 DUP2 SWAP1 PUSH1 0x20 DUP3 ADD SWAP1 JUMP JUMPDEST PUSH1 0x40 MLOAD PUSH3 0x461BCD PUSH1 0xE5 SHL DUP2 MSTORE PUSH1 0x20 PUSH1 0x4 DUP3 ADD MSTORE PUSH1 0x34 PUSH1 0x24 DUP3 ADD MSTORE PUSH32 0x4F6E6C79207468652063616D706169676E2076656E646F722063616E20636F6E PUSH1 0x44 DUP3 ADD MSTORE PUSH32 0x6669726D2066756E64732072656365697665642E000000000000000000000000 PUSH1 0x64 DUP3 ADD MSTORE PUSH1 0x84 SWAP1 REVERT JUMPDEST CALLVALUE PUSH2 0x540 JUMPI PUSH1 0x20 CALLDATASIZE PUSH1 0x3 NOT ADD SLT PUSH2 0x540 JUMPI PUSH1 0x4 CALLDATALOAD PUSH1 0x0 MSTORE PUSH1 0xCC PUSH1 0x20 MSTORE PUSH2 0x53C PUSH2 0x1F77 PUSH1 0xC PUSH1 0x40 PUSH1 0x0 KECCAK256 ADD PUSH2 0x3360 JUMP JUMPDEST PUSH1 0x40 MLOAD SWAP2 DUP3 SWAP2 PUSH1 0x20 DUP4 MSTORE PUSH1 0x20 DUP4 ADD SWAP1 PUSH2 0x1059 JUMP JUMPDEST SWAP1 PUSH1 0x20 PUSH2 0x77C SWAP3 DUP2 DUP2 MSTORE ADD SWAP1 PUSH2 0x1914 JUMP JUMPDEST CALLVALUE PUSH2 0x540 JUMPI PUSH1 0x20 CALLDATASIZE PUSH1 0x3 NOT ADD SLT PUSH2 0x540 JUMPI PUSH2 0x1FB5 PUSH2 0x33B8 JUMP JUMPDEST POP PUSH1 0x4 CALLDATALOAD PUSH1 0x0 MSTORE PUSH1 0xCC PUSH1 0x20 MSTORE PUSH2 0x53C PUSH1 0x40 PUSH1 0x0 KECCAK256 PUSH2 0x20C5 PUSH1 0xFF PUSH1 0xD PUSH2 0x1FD8 PUSH2 0x6ED JUMP JUMPDEST SWAP4 DUP1 SLOAD DUP6 MSTORE PUSH1 0x1 DUP2 ADD SLOAD PUSH1 0x20 DUP7 ADD MSTORE PUSH1 0x2 DUP2 ADD SLOAD PUSH1 0x40 DUP7 ADD MSTORE PUSH1 0x3 DUP2 ADD SLOAD PUSH1 0x60 DUP7 ADD MSTORE PUSH1 0x4 DUP2 ADD SLOAD PUSH1 0x80 DUP7 ADD MSTORE PUSH1 0x5 DUP2 ADD SLOAD PUSH1 0xA0 DUP7 ADD MSTORE PUSH1 0x6 DUP2 ADD SLOAD PUSH1 0xC0 DUP7 ADD MSTORE PUSH2 0x2025 PUSH1 0x7 DUP3 ADD PUSH2 0x2A7 JUMP JUMPDEST PUSH1 0xE0 DUP7 ADD MSTORE PUSH2 0x2036 PUSH1 0x8 DUP3 ADD PUSH2 0x2A7 JUMP JUMPDEST PUSH2 0x100 DUP7 ADD MSTORE PUSH2 0x2048 PUSH1 0x9 DUP3 ADD PUSH2 0x2A7 JUMP JUMPDEST PUSH2 0x120 DUP7 ADD MSTORE PUSH2 0x2076 PUSH2 0x2065 PUSH1 0xA DUP4 ADD SLOAD PUSH1 0x1 PUSH1 0x1 PUSH1 0xA0 SHL SUB AND SWAP1 JUMP JUMPDEST PUSH1 0x1 PUSH1 0x1 PUSH1 0xA0 SHL SUB AND PUSH2 0x140 DUP8 ADD MSTORE JUMP JUMPDEST PUSH2 0x208D PUSH2 0x44C PUSH1 0xB DUP4 ADD SLOAD PUSH1 0x1 PUSH1 0x1 PUSH1 0xA0 SHL SUB AND SWAP1 JUMP JUMPDEST PUSH2 0x2099 PUSH1 0xC DUP3 ADD PUSH2 0x3360 JUMP JUMPDEST PUSH2 0x180 DUP7 ADD MSTORE ADD SLOAD PUSH2 0x20B1 DUP3 DUP3 AND PUSH2 0x1A0 DUP7 ADD PUSH2 0x2977 JUMP JUMPDEST PUSH1 0x8 DUP2 SWAP1 SHR DUP3 AND ISZERO ISZERO PUSH2 0x1C0 DUP6 ADD MSTORE PUSH2 0x1BC5 JUMP JUMPDEST PUSH1 0x40 MLOAD SWAP2 DUP3 SWAP2 DUP3 PUSH2 0x1F8B JUMP JUMPDEST CALLVALUE PUSH2 0x540 JUMPI PUSH1 0x20 DUP1 PUSH1 0x3 NOT CALLDATASIZE ADD SLT PUSH2 0x540 JUMPI PUSH1 0x1 PUSH1 0x1 PUSH1 0xA0 SHL SUB PUSH1 0x4 CALLDATALOAD PUSH2 0x20F7 DUP2 PUSH2 0x98C JUMP JUMPDEST AND PUSH1 0x0 SWAP2 DUP2 DUP4 MSTORE PUSH1 0xCF SWAP1 DUP2 DUP2 MSTORE PUSH1 0x40 SWAP2 DUP3 DUP6 KECCAK256 SLOAD SWAP2 PUSH2 0x2115 DUP4 PUSH2 0x342D JUMP JUMPDEST SWAP5 DUP7 JUMPDEST DUP5 DUP2 LT PUSH2 0x212C JUMPI DUP6 MLOAD DUP1 PUSH2 0x53C DUP10 DUP3 PUSH2 0x1A0E JUMP JUMPDEST PUSH1 0x1 SWAP1 DUP3 DUP10 MSTORE DUP5 DUP5 MSTORE PUSH2 0x2163 PUSH2 0x215E PUSH2 0x2147 DUP4 DUP11 DUP14 KECCAK256 PUSH2 0x315D JUMP JUMPDEST SWAP1 SLOAD SWAP1 PUSH1 0x3 SHL SHR PUSH1 0x0 MSTORE PUSH1 0xCC PUSH1 0x20 MSTORE PUSH1 0x40 PUSH1 0x0 KECCAK256 SWAP1 JUMP JUMPDEST PUSH2 0x347D JUMP JUMPDEST PUSH2 0x216D DUP3 DUP11 PUSH2 0x334C JUMP JUMPDEST MSTORE PUSH2 0x2178 DUP2 DUP10 PUSH2 0x334C JUMP JUMPDEST POP ADD PUSH2 0x2118 JUMP JUMPDEST CALLVALUE PUSH2 0x540 JUMPI PUSH1 0x20 CALLDATASIZE PUSH1 0x3 NOT ADD SLT PUSH2 0x540 JUMPI PUSH1 0x4 CALLDATALOAD PUSH2 0x219C DUP2 PUSH2 0x98C JUMP JUMPDEST PUSH2 0x21A4 PUSH2 0x22D7 JUMP JUMPDEST PUSH1 0x1 PUSH1 0x1 PUSH1 0xA0 SHL SUB DUP2 AND ISZERO PUSH2 0x21BC JUMPI PUSH2 0xC28 SWAP1 PUSH2 0x232F JUMP JUMPDEST PUSH1 0x40 MLOAD PUSH3 0x461BCD PUSH1 0xE5 SHL DUP2 MSTORE PUSH1 0x20 PUSH1 0x4 DUP3 ADD MSTORE PUSH1 0x26 PUSH1 0x24 DUP3 ADD MSTORE PUSH32 0x4F776E61626C653A206E6577206F776E657220697320746865207A65726F2061 PUSH1 0x44 DUP3 ADD MSTORE PUSH32 0x6464726573730000000000000000000000000000000000000000000000000000 PUSH1 0x64 DUP3 ADD MSTORE PUSH1 0x84 SWAP1 REVERT JUMPDEST SWAP1 PUSH1 0x20 PUSH2 0x77C SWAP3 DUP2 DUP2 MSTORE ADD SWAP1 PUSH2 0x1096 JUMP JUMPDEST CALLVALUE PUSH2 0x540 JUMPI PUSH1 0x20 DUP1 PUSH1 0x3 NOT CALLDATASIZE ADD SLT PUSH2 0x540 JUMPI PUSH1 0x4 CALLDATALOAD PUSH1 0x0 SWAP2 DUP2 DUP4 MSTORE PUSH1 0xCC DUP2 MSTORE PUSH1 0x40 SWAP3 PUSH1 0xC DUP5 DUP3 KECCAK256 ADD SWAP3 DUP4 SLOAD SWAP3 PUSH2 0x226D DUP5 PUSH2 0x331A JUMP JUMPDEST SWAP5 DUP4 JUMPDEST DUP6 DUP2 LT PUSH2 0x2284 JUMPI DUP8 MLOAD DUP1 PUSH2 0x53C DUP10 DUP3 PUSH2 0x2227 JUMP JUMPDEST DUP1 PUSH2 0x22C7 PUSH1 0x1 PUSH1 0x1 PUSH1 0xA0 SHL SUB PUSH2 0x229D PUSH2 0x22D2 SWAP5 DUP7 PUSH2 0x315D JUMP JUMPDEST SWAP1 SLOAD SWAP1 DUP9 DUP11 MSTORE PUSH1 0xCD DUP9 MSTORE PUSH1 0x3 SHL SHR AND DUP11 DUP9 KECCAK256 SWAP1 PUSH1 0x1 PUSH1 0x1 PUSH1 0xA0 SHL SUB AND PUSH1 0x0 MSTORE PUSH1 0x20 MSTORE PUSH1 0x40 PUSH1 0x0 KECCAK256 SWAP1 JUMP JUMPDEST SLOAD PUSH2 0x11C9 DUP3 DUP11 PUSH2 0x334C JUMP JUMPDEST PUSH2 0x2270 JUMP JUMPDEST PUSH1 0x1 PUSH1 0x1 PUSH1 0xA0 SHL SUB PUSH1 0x33 SLOAD AND CALLER SUB PUSH2 0x22EB JUMPI JUMP JUMPDEST PUSH1 0x64 PUSH1 0x40 MLOAD PUSH3 0x461BCD PUSH1 0xE5 SHL DUP2 MSTORE PUSH1 0x20 PUSH1 0x4 DUP3 ADD MSTORE PUSH1 0x20 PUSH1 0x24 DUP3 ADD MSTORE PUSH32 0x4F776E61626C653A2063616C6C6572206973206E6F7420746865206F776E6572 PUSH1 0x44 DUP3 ADD MSTORE REVERT JUMPDEST PUSH1 0x33 SLOAD SWAP1 PUSH1 0x1 PUSH1 0x1 PUSH1 0xA0 SHL SUB DUP1 SWAP2 AND SWAP2 DUP3 PUSH1 0x1 PUSH1 0x1 PUSH1 0xA0 SHL SUB NOT DUP3 AND OR PUSH1 0x33 SSTORE AND PUSH32 0x8BE0079C531659141344CD1FD0A4F28419497F9722A3DAAFE3B4186F6B6457E0 PUSH1 0x0 DUP1 LOG3 JUMP JUMPDEST ISZERO PUSH2 0x237E JUMPI JUMP JUMPDEST PUSH1 0x40 MLOAD PUSH3 0x461BCD PUSH1 0xE5 SHL DUP2 MSTORE PUSH1 0x20 PUSH1 0x4 DUP3 ADD MSTORE PUSH1 0x2C PUSH1 0x24 DUP3 ADD MSTORE PUSH32 0x46756E6374696F6E206D7573742062652063616C6C6564207468726F75676820 PUSH1 0x44 DUP3 ADD MSTORE PUSH32 0x64656C656761746563616C6C0000000000000000000000000000000000000000 PUSH1 0x64 DUP3 ADD MSTORE PUSH1 0x84 SWAP1 REVERT JUMPDEST ISZERO PUSH2 0x23F0 JUMPI JUMP JUMPDEST PUSH1 0x40 MLOAD PUSH3 0x461BCD PUSH1 0xE5 SHL DUP2 MSTORE PUSH1 0x20 PUSH1 0x4 DUP3 ADD MSTORE PUSH1 0x2C PUSH1 0x24 DUP3 ADD MSTORE PUSH32 0x46756E6374696F6E206D7573742062652063616C6C6564207468726F75676820 PUSH1 0x44 DUP3 ADD MSTORE PUSH32 0x6163746976652070726F78790000000000000000000000000000000000000000 PUSH1 0x64 DUP3 ADD MSTORE PUSH1 0x84 SWAP1 REVERT JUMPDEST SWAP1 DUP2 PUSH1 0x20 SWAP2 SUB SLT PUSH2 0x540 JUMPI MLOAD SWAP1 JUMP JUMPDEST PUSH1 0x40 MLOAD RETURNDATASIZE PUSH1 0x0 DUP3 RETURNDATACOPY RETURNDATASIZE SWAP1 REVERT JUMPDEST ISZERO PUSH2 0x247D JUMPI JUMP JUMPDEST PUSH1 0x40 MLOAD PUSH3 0x461BCD PUSH1 0xE5 SHL DUP2 MSTORE PUSH1 0x20 PUSH1 0x4 DUP3 ADD MSTORE PUSH1 0x29 PUSH1 0x24 DUP3 ADD MSTORE PUSH32 0x45524331393637557067726164653A20756E737570706F727465642070726F78 PUSH1 0x44 DUP3 ADD MSTORE PUSH32 0x6961626C65555549440000000000000000000000000000000000000000000000 PUSH1 0x64 DUP3 ADD MSTORE PUSH1 0x84 SWAP1 REVERT JUMPDEST DUP1 EXTCODESIZE ISZERO PUSH2 0x252B JUMPI PUSH1 0x1 PUSH1 0x1 PUSH1 0xA0 SHL SUB PUSH32 0x360894A13BA1A3210667C828492DB98DCA3E2076CC3735A920A3CA505D382BBC SWAP2 AND PUSH1 0x1 PUSH1 0x1 PUSH1 0xA0 SHL SUB NOT DUP3 SLOAD AND OR SWAP1 SSTORE JUMP JUMPDEST PUSH1 0x40 MLOAD PUSH3 0x461BCD PUSH1 0xE5 SHL DUP2 MSTORE PUSH1 0x20 PUSH1 0x4 DUP3 ADD MSTORE PUSH1 0x2D PUSH1 0x24 DUP3 ADD MSTORE PUSH32 0x455243313936373A206E657720696D706C656D656E746174696F6E206973206E PUSH1 0x44 DUP3 ADD MSTORE PUSH32 0x6F74206120636F6E747261637400000000000000000000000000000000000000 PUSH1 0x64 DUP3 ADD MSTORE PUSH1 0x84 SWAP1 REVERT JUMPDEST SWAP1 PUSH2 0x25A0 DUP3 PUSH2 0x24E8 JUMP JUMPDEST PUSH1 0x0 PUSH1 0x1 PUSH1 0x1 PUSH1 0xA0 SHL SUB DUP4 AND PUSH32 0xBC7CD75A20EE27FD9ADEBAB32041F755214DBC6BFFA90CC0225B39DA2E5C2D3B DUP3 DUP1 LOG2 DUP2 MLOAD ISZERO DUP1 ISZERO SWAP1 PUSH2 0x268A JUMPI JUMPDEST PUSH2 0x25E4 JUMPI POP POP POP JUMP JUMPDEST PUSH2 0x267E SWAP3 DUP2 DUP1 PUSH1 0x40 MLOAD SWAP5 PUSH2 0x25F7 DUP7 PUSH2 0x269 JUMP JUMPDEST PUSH1 0x27 DUP7 MSTORE PUSH32 0x416464726573733A206C6F772D6C6576656C2064656C65676174652063616C6C PUSH1 0x20 DUP8 ADD MSTORE PUSH32 0x206661696C656400000000000000000000000000000000000000000000000000 PUSH1 0x40 DUP8 ADD MSTORE PUSH1 0x20 DUP2 MLOAD SWAP2 ADD DUP5 GAS DELEGATECALL SWAP1 RETURNDATASIZE ISZERO PUSH2 0x2681 JUMPI RETURNDATASIZE PUSH2 0x2661 DUP2 PUSH2 0x70E JUMP JUMPDEST SWAP1 PUSH2 0x266F PUSH1 0x40 MLOAD SWAP3 DUP4 PUSH2 0x285 JUMP JUMPDEST DUP2 MSTORE DUP1 SWAP4 PUSH1 0x20 RETURNDATASIZE SWAP3 ADD RETURNDATACOPY PUSH2 0x26E6 JUMP JUMPDEST POP JUMP JUMPDEST PUSH1 0x60 SWAP3 POP PUSH2 0x26E6 JUMP JUMPDEST POP DUP1 PUSH2 0x25DB JUMP JUMPDEST SWAP1 PUSH2 0x269B DUP3 PUSH2 0x24E8 JUMP JUMPDEST PUSH1 0x0 PUSH1 0x1 PUSH1 0x1 PUSH1 0xA0 SHL SUB DUP4 AND PUSH32 0xBC7CD75A20EE27FD9ADEBAB32041F755214DBC6BFFA90CC0225B39DA2E5C2D3B DUP3 DUP1 LOG2 DUP2 MLOAD ISZERO DUP1 ISZERO SWAP1 PUSH2 0x26DE JUMPI PUSH2 0x25E4 JUMPI POP POP POP JUMP JUMPDEST POP PUSH1 0x1 PUSH2 0x25DB JUMP JUMPDEST SWAP2 SWAP3 SWAP1 ISZERO PUSH2 0x2748 JUMPI POP DUP2 MLOAD ISZERO PUSH2 0x26FA JUMPI POP SWAP1 JUMP JUMPDEST EXTCODESIZE ISZERO PUSH2 0x2703 JUMPI SWAP1 JUMP JUMPDEST PUSH1 0x40 MLOAD PUSH3 0x461BCD PUSH1 0xE5 SHL DUP2 MSTORE PUSH1 0x20 PUSH1 0x4 DUP3 ADD MSTORE PUSH1 0x1D PUSH1 0x24 DUP3 ADD MSTORE PUSH32 0x416464726573733A2063616C6C20746F206E6F6E2D636F6E7472616374000000 PUSH1 0x44 DUP3 ADD MSTORE PUSH1 0x64 SWAP1 REVERT JUMPDEST DUP3 MLOAD SWAP1 SWAP2 POP ISZERO PUSH2 0x275B JUMPI POP DUP1 MLOAD SWAP1 PUSH1 0x20 ADD REVERT JUMPDEST PUSH1 0x40 MLOAD PUSH3 0x461BCD PUSH1 0xE5 SHL DUP2 MSTORE PUSH1 0x20 PUSH1 0x4 DUP3 ADD MSTORE SWAP1 DUP2 SWAP1 PUSH2 0xCB1 SWAP1 PUSH1 0x24 DUP4 ADD SWAP1 PUSH2 0x34D JUMP JUMPDEST ISZERO PUSH2 0x2786 JUMPI JUMP JUMPDEST PUSH1 0x40 MLOAD PUSH3 0x461BCD PUSH1 0xE5 SHL DUP2 MSTORE PUSH1 0x20 PUSH1 0x4 DUP3 ADD MSTORE PUSH1 0x2E PUSH1 0x24 DUP3 ADD MSTORE PUSH32 0x496E697469616C697A61626C653A20636F6E747261637420697320616C726561 PUSH1 0x44 DUP3 ADD MSTORE PUSH32 0x647920696E697469616C697A6564000000000000000000000000000000000000 PUSH1 0x64 DUP3 ADD MSTORE PUSH1 0x84 SWAP1 REVERT JUMPDEST PUSH2 0x280B PUSH1 0xFF PUSH1 0x0 SLOAD PUSH1 0x8 SHR AND PUSH2 0x2806 DUP2 PUSH2 0x2821 JUMP JUMPDEST PUSH2 0x2821 JUMP JUMPDEST PUSH2 0x2814 CALLER PUSH2 0x232F JUMP JUMPDEST PUSH2 0x2E5 PUSH1 0xFF PUSH1 0x0 SLOAD PUSH1 0x8 SHR AND JUMPDEST ISZERO PUSH2 0x2828 JUMPI JUMP JUMPDEST PUSH1 0x40 MLOAD PUSH3 0x461BCD PUSH1 0xE5 SHL DUP2 MSTORE PUSH1 0x20 PUSH1 0x4 DUP3 ADD MSTORE PUSH1 0x2B PUSH1 0x24 DUP3 ADD MSTORE PUSH32 0x496E697469616C697A61626C653A20636F6E7472616374206973206E6F742069 PUSH1 0x44 DUP3 ADD MSTORE PUSH32 0x6E697469616C697A696E67000000000000000000000000000000000000000000 PUSH1 0x64 DUP3 ADD MSTORE PUSH1 0x84 SWAP1 REVERT JUMPDEST ISZERO PUSH2 0x289A JUMPI JUMP JUMPDEST PUSH1 0x40 MLOAD PUSH3 0x461BCD PUSH1 0xE5 SHL DUP2 MSTORE PUSH1 0x20 PUSH1 0x4 DUP3 ADD MSTORE PUSH1 0x18 PUSH1 0x24 DUP3 ADD MSTORE PUSH32 0x50617373776F72642063616E6E6F7420626520656D7074790000000000000000 PUSH1 0x44 DUP3 ADD MSTORE PUSH1 0x64 SWAP1 REVERT JUMPDEST ISZERO PUSH2 0x28E6 JUMPI JUMP JUMPDEST PUSH1 0x40 MLOAD PUSH3 0x461BCD PUSH1 0xE5 SHL DUP2 MSTORE PUSH1 0x20 PUSH1 0x4 DUP3 ADD MSTORE PUSH1 0x16 PUSH1 0x24 DUP3 ADD MSTORE PUSH32 0x496E76616C69642077616C6C6574206164647265737300000000000000000000 PUSH1 0x44 DUP3 ADD MSTORE PUSH1 0x64 SWAP1 REVERT JUMPDEST ISZERO PUSH2 0x2932 JUMPI JUMP JUMPDEST PUSH1 0x40 MLOAD PUSH3 0x461BCD PUSH1 0xE5 SHL DUP2 MSTORE PUSH1 0x20 PUSH1 0x4 DUP3 ADD MSTORE PUSH1 0x1A PUSH1 0x24 DUP3 ADD MSTORE PUSH32 0x5573657220697320616C72656164792072656769737465726564000000000000 PUSH1 0x44 DUP3 ADD MSTORE PUSH1 0x64 SWAP1 REVERT JUMPDEST PUSH2 0x3B7 DUP3 PUSH2 0x38D JUMP JUMPDEST SWAP1 PUSH1 0x1F DUP2 GT PUSH2 0x298E JUMPI POP POP POP JUMP JUMPDEST PUSH1 0x0 SWAP2 DUP3 MSTORE PUSH1 0x20 DUP3 KECCAK256 SWAP1 PUSH1 0x20 PUSH1 0x1F DUP6 ADD PUSH1 0x5 SHR DUP4 ADD SWAP5 LT PUSH2 0x29CA JUMPI JUMPDEST PUSH1 0x1F ADD PUSH1 0x5 SHR ADD SWAP2 JUMPDEST DUP3 DUP2 LT PUSH2 0x29BF JUMPI POP POP POP JUMP JUMPDEST DUP2 DUP2 SSTORE PUSH1 0x1 ADD PUSH2 0x29B3 JUMP JUMPDEST SWAP1 SWAP3 POP DUP3 SWAP1 PUSH2 0x29AA JUMP JUMPDEST SWAP2 SWAP1 SWAP2 DUP3 MLOAD PUSH8 0xFFFFFFFFFFFFFFFF DUP2 GT PUSH2 0x248 JUMPI PUSH2 0x29FC DUP2 PUSH2 0x29F6 DUP5 SLOAD PUSH2 0x1DC JUMP JUMPDEST DUP5 PUSH2 0x2980 JUMP JUMPDEST PUSH1 0x20 DUP1 PUSH1 0x1F DUP4 GT PUSH1 0x1 EQ PUSH2 0x2A38 JUMPI POP DUP2 SWAP3 SWAP4 SWAP5 PUSH1 0x0 SWAP3 PUSH2 0x2A2D JUMPI JUMPDEST POP POP DUP2 PUSH1 0x1 SHL SWAP2 PUSH1 0x0 NOT SWAP1 PUSH1 0x3 SHL SHR NOT AND OR SWAP1 SSTORE JUMP JUMPDEST ADD MLOAD SWAP1 POP CODESIZE DUP1 PUSH2 0x2A17 JUMP JUMPDEST SWAP1 PUSH1 0x1F NOT DUP4 AND SWAP6 PUSH2 0x2A4E DUP6 PUSH1 0x0 MSTORE PUSH1 0x20 PUSH1 0x0 KECCAK256 SWAP1 JUMP JUMPDEST SWAP3 PUSH1 0x0 SWAP1 JUMPDEST DUP9 DUP3 LT PUSH2 0x2A8B JUMPI POP POP DUP4 PUSH1 0x1 SWAP6 SWAP7 SWAP8 LT PUSH2 0x2A72 JUMPI JUMPDEST POP POP POP DUP2 SHL ADD SWAP1 SSTORE JUMP JUMPDEST ADD MLOAD PUSH1 0x0 NOT PUSH1 0xF8 DUP5 PUSH1 0x3 SHL AND SHR NOT AND SWAP1 SSTORE CODESIZE DUP1 DUP1 PUSH2 0x2A68 JUMP JUMPDEST DUP1 PUSH1 0x1 DUP6 SWAP7 DUP3 SWAP5 SWAP7 DUP7 ADD MLOAD DUP2 SSTORE ADD SWAP6 ADD SWAP4 ADD SWAP1 PUSH2 0x2A53 JUMP JUMPDEST SWAP1 PUSH2 0x2AAD DUP2 PUSH2 0x38D JUMP JUMPDEST PUSH1 0xFF DUP1 NOT DUP4 SLOAD AND SWAP2 AND OR SWAP1 SSTORE JUMP JUMPDEST SWAP2 SWAP1 DUP1 MLOAD SWAP3 DUP4 MLOAD PUSH8 0xFFFFFFFFFFFFFFFF DUP2 GT PUSH2 0x248 JUMPI PUSH2 0x2ADF DUP2 PUSH2 0x29F6 DUP5 SLOAD PUSH2 0x1DC JUMP JUMPDEST PUSH1 0x20 SWAP5 DUP6 SWAP1 PUSH1 0x1F DUP4 GT PUSH1 0x1 EQ PUSH2 0x2BFB JUMPI SWAP3 PUSH2 0x2B2C PUSH2 0x2E5 SWAP7 SWAP8 DUP5 PUSH1 0x80 SWAP6 PUSH1 0x2 SWAP6 PUSH2 0x2BA9 SWAP9 PUSH1 0x0 SWAP3 PUSH2 0x2BF0 JUMPI JUMPDEST POP POP DUP2 PUSH1 0x1 SHL SWAP2 PUSH1 0x0 NOT SWAP1 PUSH1 0x3 SHL SHR NOT AND OR DUP4 SSTORE JUMPDEST DUP7 ADD MLOAD PUSH1 0x1 DUP4 ADD PUSH2 0x29D4 JUMP JUMPDEST ADD SWAP3 PUSH2 0x2B45 PUSH1 0x40 DUP3 ADD MLOAD PUSH2 0x2B3F DUP2 PUSH2 0x38D JUMP JUMPDEST DUP6 PUSH2 0x2AA3 JUMP JUMPDEST PUSH2 0x2BA2 PUSH2 0x2B5C PUSH1 0x60 DUP4 ADD MLOAD PUSH1 0x1 PUSH1 0x1 PUSH1 0xA0 SHL SUB AND SWAP1 JUMP JUMPDEST DUP6 SLOAD PUSH32 0xFFFFFFFFFFFFFFFFFFFFFF0000000000000000000000000000000000000000FF AND PUSH1 0x8 SWAP2 SWAP1 SWAP2 SHL PUSH21 0xFFFFFFFFFFFFFFFFFFFFFFFFFFFFFFFFFFFFFFFF00 AND OR DUP6 SSTORE JUMP JUMPDEST ADD MLOAD ISZERO ISZERO SWAP1 JUMP JUMPDEST DUP2 SLOAD PUSH32 0xFFFFFFFFFFFFFFFFFFFF00FFFFFFFFFFFFFFFFFFFFFFFFFFFFFFFFFFFFFFFFFF AND SWAP1 ISZERO ISZERO PUSH1 0xA8 SHL PUSH22 0xFF000000000000000000000000000000000000000000 AND OR SWAP1 SSTORE JUMP JUMPDEST ADD MLOAD SWAP1 POP CODESIZE DUP1 PUSH2 0x2B0B JUMP JUMPDEST SWAP1 PUSH1 0x1F NOT DUP4 AND SWAP2 PUSH2 0x2C11 DUP6 PUSH1 0x0 MSTORE PUSH1 0x20 PUSH1 0x0 KECCAK256 SWAP1 JUMP JUMPDEST SWAP3 PUSH1 0x0 JUMPDEST DUP2 DUP2 LT PUSH2 0x2C61 JUMPI POP SWAP8 PUSH1 0x1 DUP6 PUSH1 0x2 SWAP6 PUSH2 0x2BA9 SWAP9 SWAP6 PUSH2 0x2B2C SWAP6 PUSH1 0x80 SWAP10 PUSH2 0x2E5 SWAP14 SWAP15 LT PUSH2 0x2C48 JUMPI JUMPDEST POP POP POP DUP2 SHL ADD DUP4 SSTORE PUSH2 0x2B20 JUMP JUMPDEST ADD MLOAD PUSH1 0x0 NOT PUSH1 0xF8 DUP5 PUSH1 0x3 SHL AND SHR NOT AND SWAP1 SSTORE CODESIZE DUP1 DUP1 PUSH2 0x2C3B JUMP JUMPDEST SWAP3 SWAP4 DUP10 PUSH1 0x1 DUP2 SWAP3 DUP8 DUP7 ADD MLOAD DUP2 SSTORE ADD SWAP6 ADD SWAP4 ADD PUSH2 0x2C15 JUMP JUMPDEST SWAP1 PUSH1 0x1 PUSH1 0x1 PUSH1 0xA0 SHL SUB PUSH2 0x2C98 PUSH1 0x40 SWAP3 SWAP6 SWAP5 SWAP6 PUSH1 0x60 DUP6 MSTORE PUSH1 0x60 DUP6 ADD SWAP1 PUSH2 0x34D JUMP JUMPDEST SWAP5 PUSH1 0x1 PUSH1 0x20 DUP6 ADD MSTORE AND SWAP2 ADD MSTORE JUMP JUMPDEST SWAP1 CALLER PUSH1 0x0 MSTORE PUSH1 0xCB PUSH1 0x20 MSTORE PUSH1 0x40 PUSH1 0x0 KECCAK256 PUSH1 0xFF PUSH1 0x2 DUP3 ADD SLOAD PUSH1 0xA8 SHR AND SWAP3 DUP4 PUSH2 0x2D03 JUMPI JUMPDEST POP DUP3 PUSH2 0x2CDE JUMPI JUMPDEST POP POP PUSH2 0x2CD9 JUMPI PUSH1 0x0 SWAP1 JUMP JUMPDEST PUSH1 0x1 SWAP1 JUMP JUMPDEST PUSH2 0x2CEC SWAP2 SWAP3 POP PUSH1 0x1 ADD PUSH2 0x2A7 JUMP JUMPDEST PUSH1 0x20 DUP2 MLOAD SWAP2 ADD KECCAK256 SWAP1 PUSH1 0x20 DUP2 MLOAD SWAP2 ADD KECCAK256 EQ CODESIZE DUP1 PUSH2 0x2CCE JUMP JUMPDEST SWAP1 SWAP3 POP PUSH2 0x2D0F DUP4 PUSH2 0x2A7 JUMP JUMPDEST PUSH1 0x20 DUP2 MLOAD SWAP2 ADD KECCAK256 SWAP1 PUSH1 0x20 DUP2 MLOAD SWAP2 ADD KECCAK256 EQ SWAP2 CODESIZE PUSH2 0x2CC7 JUMP JUMPDEST ISZERO PUSH2 0x2D2D JUMPI JUMP JUMPDEST PUSH1 0x40 MLOAD PUSH3 0x461BCD PUSH1 0xE5 SHL DUP2 MSTORE PUSH1 0x20 PUSH1 0x4 DUP3 ADD MSTORE PUSH1 0x23 PUSH1 0x24 DUP3 ADD MSTORE PUSH32 0x4F6E6C792076657269666965642075736572732063616E207061727469636970 PUSH1 0x44 DUP3 ADD MSTORE PUSH3 0x617465 PUSH1 0xE8 SHL PUSH1 0x64 DUP3 ADD MSTORE PUSH1 0x84 SWAP1 REVERT JUMPDEST ISZERO PUSH2 0x2D85 JUMPI JUMP JUMPDEST PUSH1 0x40 MLOAD PUSH3 0x461BCD PUSH1 0xE5 SHL DUP2 MSTORE PUSH1 0x20 PUSH1 0x4 DUP3 ADD MSTORE PUSH1 0x3C PUSH1 0x24 DUP3 ADD MSTORE PUSH32 0x4F6E6C79207573657273206F6620746865207370656369666965642063617465 PUSH1 0x44 DUP3 ADD MSTORE PUSH32 0x676F72792063616E20706572666F726D207468697320616374696F6E00000000 PUSH1 0x64 DUP3 ADD MSTORE PUSH1 0x84 SWAP1 REVERT JUMPDEST ISZERO PUSH2 0x2DF7 JUMPI JUMP JUMPDEST PUSH1 0x40 MLOAD PUSH3 0x461BCD PUSH1 0xE5 SHL DUP2 MSTORE PUSH1 0x20 PUSH1 0x4 DUP3 ADD MSTORE PUSH1 0x27 PUSH1 0x24 DUP3 ADD MSTORE PUSH32 0x54617267657420616D6F756E74206D7573742062652067726561746572207468 PUSH1 0x44 DUP3 ADD MSTORE PUSH32 0x616E207A65726F00000000000000000000000000000000000000000000000000 PUSH1 0x64 DUP3 ADD MSTORE PUSH1 0x84 SWAP1 REVERT JUMPDEST ISZERO PUSH2 0x2E69 JUMPI JUMP JUMPDEST PUSH1 0x40 MLOAD PUSH3 0x461BCD PUSH1 0xE5 SHL DUP2 MSTORE PUSH1 0x20 PUSH1 0x4 DUP3 ADD MSTORE PUSH1 0x29 PUSH1 0x24 DUP3 ADD MSTORE PUSH32 0x5468652063616D706169676E206D7573742062652061206461746520696E2074 PUSH1 0x44 DUP3 ADD MSTORE PUSH32 0x6865206675747572650000000000000000000000000000000000000000000000 PUSH1 0x64 DUP3 ADD MSTORE PUSH1 0x84 SWAP1 REVERT JUMPDEST PUSH4 0x4E487B71 PUSH1 0xE0 SHL PUSH1 0x0 MSTORE PUSH1 0x11 PUSH1 0x4 MSTORE PUSH1 0x24 PUSH1 0x0 REVERT JUMPDEST PUSH1 0x0 NOT DUP2 EQ PUSH2 0x2EF9 JUMPI PUSH1 0x1 ADD SWAP1 JUMP JUMPDEST PUSH2 0x2ED4 JUMP JUMPDEST PUSH1 0x0 NOT DUP2 ADD SWAP2 SWAP1 DUP3 GT PUSH2 0x2EF9 JUMPI JUMP JUMPDEST SWAP2 SWAP1 DUP3 SUB SWAP2 DUP3 GT PUSH2 0x2EF9 JUMPI JUMP JUMPDEST ISZERO PUSH2 0x2F21 JUMPI JUMP JUMPDEST PUSH1 0x40 MLOAD PUSH3 0x461BCD PUSH1 0xE5 SHL DUP2 MSTORE PUSH1 0x20 PUSH1 0x4 DUP3 ADD MSTORE PUSH1 0x17 PUSH1 0x24 DUP3 ADD MSTORE PUSH32 0x43616D706169676E20646F6573206E6F74206578697374000000000000000000 PUSH1 0x44 DUP3 ADD MSTORE PUSH1 0x64 SWAP1 REVERT JUMPDEST ISZERO PUSH2 0x2F6D JUMPI JUMP JUMPDEST PUSH1 0x40 MLOAD PUSH3 0x461BCD PUSH1 0xE5 SHL DUP2 MSTORE PUSH1 0x20 PUSH1 0x4 DUP3 ADD MSTORE PUSH1 0x17 PUSH1 0x24 DUP3 ADD MSTORE PUSH32 0x43616D706169676E206973206E6F74206F6E676F696E67000000000000000000 PUSH1 0x44 DUP3 ADD MSTORE PUSH1 0x64 SWAP1 REVERT JUMPDEST ISZERO PUSH2 0x2FB9 JUMPI JUMP JUMPDEST PUSH1 0x40 MLOAD PUSH3 0x461BCD PUSH1 0xE5 SHL DUP2 MSTORE PUSH1 0x20 PUSH1 0x4 DUP3 ADD MSTORE PUSH1 0x19 PUSH1 0x24 DUP3 ADD MSTORE PUSH32 0x43616D706169676E20706572696F642068617320656E64656400000000000000 PUSH1 0x44 DUP3 ADD MSTORE PUSH1 0x64 SWAP1 REVERT JUMPDEST ISZERO PUSH2 0x3005 JUMPI JUMP JUMPDEST PUSH1 0x40 MLOAD PUSH3 0x461BCD PUSH1 0xE5 SHL DUP2 MSTORE PUSH1 0x20 PUSH1 0x4 DUP3 ADD MSTORE PUSH1 0x29 PUSH1 0x24 DUP3 ADD MSTORE PUSH32 0x446F6E6174696F6E20616D6F756E74206D757374206265206772656174657220 PUSH1 0x44 DUP3 ADD MSTORE PUSH32 0x7468616E207A65726F0000000000000000000000000000000000000000000000 PUSH1 0x64 DUP3 ADD MSTORE PUSH1 0x84 SWAP1 REVERT JUMPDEST ISZERO PUSH2 0x3077 JUMPI JUMP JUMPDEST PUSH1 0x40 MLOAD PUSH3 0x461BCD PUSH1 0xE5 SHL DUP2 MSTORE PUSH1 0x20 PUSH1 0x4 DUP3 ADD MSTORE PUSH1 0x23 PUSH1 0x24 DUP3 ADD MSTORE PUSH32 0x41206D696E756D756D20636F6E747269627574696F6E20697320726571756972 PUSH1 0x44 DUP3 ADD MSTORE PUSH3 0x32B217 PUSH1 0xE9 SHL PUSH1 0x64 DUP3 ADD MSTORE PUSH1 0x84 SWAP1 REVERT JUMPDEST ISZERO PUSH2 0x30CF JUMPI JUMP JUMPDEST PUSH1 0x40 MLOAD PUSH3 0x461BCD PUSH1 0xE5 SHL DUP2 MSTORE PUSH1 0x20 PUSH1 0x4 DUP3 ADD MSTORE PUSH1 0x33 PUSH1 0x24 DUP3 ADD MSTORE PUSH32 0x46756E647320666F7220746869732063616D706169676E206861766520616C72 PUSH1 0x44 DUP3 ADD MSTORE PUSH32 0x65616479206265656E2072656365697665642E00000000000000000000000000 PUSH1 0x64 DUP3 ADD MSTORE PUSH1 0x84 SWAP1 REVERT JUMPDEST SWAP2 SWAP1 DUP3 ADD DUP1 SWAP3 GT PUSH2 0x2EF9 JUMPI JUMP JUMPDEST PUSH4 0x4E487B71 PUSH1 0xE0 SHL PUSH1 0x0 MSTORE PUSH1 0x32 PUSH1 0x4 MSTORE PUSH1 0x24 PUSH1 0x0 REVERT JUMPDEST DUP1 SLOAD DUP3 LT ISZERO PUSH2 0x3175 JUMPI PUSH1 0x0 MSTORE PUSH1 0x20 PUSH1 0x0 KECCAK256 ADD SWAP1 PUSH1 0x0 SWAP1 JUMP JUMPDEST PUSH2 0x3147 JUMP JUMPDEST DUP1 SLOAD PUSH9 0x10000000000000000 DUP2 LT ISZERO PUSH2 0x248 JUMPI PUSH2 0x319C SWAP2 PUSH1 0x1 DUP3 ADD DUP2 SSTORE PUSH2 0x315D JUMP JUMPDEST DUP2 SWAP3 SWAP2 SLOAD SWAP1 PUSH1 0x3 SHL SWAP2 PUSH1 0x1 PUSH1 0x1 PUSH1 0xA0 SHL SUB DUP1 SWAP2 AND DUP4 SHL SWAP3 SHL NOT AND OR SWAP1 SSTORE JUMP JUMPDEST PUSH2 0x2E5 SWAP1 PUSH2 0x31D3 DUP2 PUSH1 0x0 MSTORE PUSH1 0xCC PUSH1 0x20 MSTORE PUSH1 0x40 PUSH1 0x0 KECCAK256 SWAP1 JUMP JUMPDEST PUSH2 0x3220 PUSH1 0xFF PUSH1 0xD DUP4 ADD SLOAD PUSH2 0x31EC DUP3 DUP3 AND PUSH2 0xD73 DUP2 PUSH2 0x38D JUMP JUMPDEST PUSH2 0x31FB PUSH1 0x4 DUP6 ADD SLOAD TIMESTAMP LT PUSH2 0x2FB2 JUMP JUMPDEST PUSH2 0x3206 CALLVALUE ISZERO ISZERO PUSH2 0x2FFE JUMP JUMPDEST PUSH2 0x3216 PUSH1 0x6 DUP6 ADD SLOAD CALLVALUE LT ISZERO PUSH2 0x3070 JUMP JUMPDEST PUSH1 0x10 SHR AND ISZERO PUSH2 0x30C8 JUMP JUMPDEST PUSH2 0x324F PUSH2 0x3237 DUP4 PUSH1 0x0 MSTORE PUSH1 0xCD PUSH1 0x20 MSTORE PUSH1 0x40 PUSH1 0x0 KECCAK256 SWAP1 JUMP JUMPDEST CALLER PUSH1 0x1 PUSH1 0x1 PUSH1 0xA0 SHL SUB AND PUSH1 0x0 MSTORE PUSH1 0x20 MSTORE PUSH1 0x40 PUSH1 0x0 KECCAK256 SWAP1 JUMP JUMPDEST PUSH2 0x325A CALLVALUE DUP3 SLOAD PUSH2 0x313A JUMP JUMPDEST SWAP1 SSTORE PUSH1 0x2 DUP2 ADD PUSH2 0x326B CALLVALUE DUP3 SLOAD PUSH2 0x313A JUMP JUMPDEST SWAP1 SSTORE PUSH2 0x3281 DUP3 PUSH1 0x0 MSTORE PUSH1 0xCA PUSH1 0x20 MSTORE PUSH1 0x40 PUSH1 0x0 KECCAK256 SWAP1 JUMP JUMPDEST PUSH2 0x328B DUP2 SLOAD PUSH2 0x2EEA JUMP JUMPDEST SWAP1 SSTORE CALLVALUE PUSH2 0x32A6 CALLER PUSH2 0x5E1 DUP6 PUSH1 0x0 MSTORE PUSH1 0xCD PUSH1 0x20 MSTORE PUSH1 0x40 PUSH1 0x0 KECCAK256 SWAP1 JUMP JUMPDEST SLOAD EQ PUSH2 0x32EE JUMPI JUMPDEST POP PUSH1 0x40 DUP1 MLOAD DUP3 DUP2 MSTORE CALLER PUSH1 0x20 DUP3 ADD MSTORE CALLVALUE SWAP2 DUP2 ADD SWAP2 SWAP1 SWAP2 MSTORE PUSH32 0xA4A91237423E0A1766A761C7CB029311D8B95D6B1B81DB1B949A70C98B4E08E SWAP1 PUSH1 0x60 SWAP1 LOG1 PUSH2 0x39E0 JUMP JUMPDEST PUSH2 0x32FC SWAP1 PUSH1 0xC CALLER SWAP2 ADD PUSH2 0x317A JUMP JUMPDEST CODESIZE PUSH2 0x32AD JUMP JUMPDEST PUSH8 0xFFFFFFFFFFFFFFFF DUP2 GT PUSH2 0x248 JUMPI PUSH1 0x5 SHL PUSH1 0x20 ADD SWAP1 JUMP JUMPDEST SWAP1 PUSH2 0x3324 DUP3 PUSH2 0x3302 JUMP JUMPDEST PUSH2 0x3331 PUSH1 0x40 MLOAD SWAP2 DUP3 PUSH2 0x285 JUMP JUMPDEST DUP3 DUP2 MSTORE DUP1 SWAP3 PUSH2 0x3342 PUSH1 0x1F NOT SWAP2 PUSH2 0x3302 JUMP JUMPDEST ADD SWAP1 PUSH1 0x20 CALLDATASIZE SWAP2 ADD CALLDATACOPY JUMP JUMPDEST DUP1 MLOAD DUP3 LT ISZERO PUSH2 0x3175 JUMPI PUSH1 0x20 SWAP2 PUSH1 0x5 SHL ADD ADD SWAP1 JUMP JUMPDEST SWAP1 PUSH1 0x40 MLOAD SWAP2 DUP3 DUP2 SLOAD SWAP2 DUP3 DUP3 MSTORE PUSH1 0x20 SWAP3 DUP4 DUP4 ADD SWAP2 PUSH1 0x0 MSTORE DUP4 PUSH1 0x0 KECCAK256 SWAP4 PUSH1 0x0 SWAP1 JUMPDEST DUP3 DUP3 LT PUSH2 0x3395 JUMPI POP POP POP PUSH2 0x2E5 SWAP3 POP SUB DUP4 PUSH2 0x285 JUMP JUMPDEST DUP6 SLOAD PUSH1 0x1 PUSH1 0x1 PUSH1 0xA0 SHL SUB AND DUP5 MSTORE PUSH1 0x1 SWAP6 DUP7 ADD SWAP6 DUP9 SWAP6 POP SWAP4 DUP2 ADD SWAP4 SWAP1 SWAP2 ADD SWAP1 PUSH2 0x337F JUMP JUMPDEST PUSH2 0x33C0 PUSH2 0x6ED JUMP JUMPDEST SWAP1 PUSH1 0x0 DUP1 DUP4 MSTORE DUP1 PUSH1 0x20 DUP5 ADD MSTORE DUP1 PUSH1 0x40 DUP5 ADD MSTORE DUP1 PUSH1 0x60 DUP5 ADD MSTORE DUP1 PUSH1 0x80 DUP5 ADD MSTORE DUP1 PUSH1 0xA0 DUP5 ADD MSTORE DUP1 PUSH1 0xC0 DUP5 ADD MSTORE PUSH1 0x60 PUSH1 0xE0 DUP5 ADD MSTORE PUSH1 0x60 PUSH2 0x100 DUP5 ADD MSTORE PUSH1 0x60 PUSH2 0x120 DUP5 ADD MSTORE DUP1 PUSH2 0x140 DUP5 ADD MSTORE DUP1 PUSH2 0x160 DUP5 ADD MSTORE PUSH1 0x60 PUSH2 0x180 DUP5 ADD MSTORE DUP1 PUSH2 0x1A0 DUP5 ADD MSTORE DUP1 PUSH2 0x1C0 DUP5 ADD MSTORE PUSH2 0x1E0 DUP4 ADD MSTORE JUMP JUMPDEST SWAP1 PUSH2 0x3437 DUP3 PUSH2 0x3302 JUMP JUMPDEST PUSH2 0x3444 PUSH1 0x40 MLOAD SWAP2 DUP3 PUSH2 0x285 JUMP JUMPDEST DUP3 DUP2 MSTORE DUP1 SWAP3 PUSH2 0x3455 PUSH1 0x1F NOT SWAP2 PUSH2 0x3302 JUMP JUMPDEST ADD SWAP1 PUSH1 0x0 JUMPDEST DUP3 DUP2 LT PUSH2 0x3466 JUMPI POP POP POP JUMP JUMPDEST PUSH1 0x20 SWAP1 PUSH2 0x3471 PUSH2 0x33B8 JUMP JUMPDEST DUP3 DUP3 DUP6 ADD ADD MSTORE ADD PUSH2 0x345A JUMP JUMPDEST SWAP1 PUSH2 0x2E5 PUSH1 0xFF PUSH1 0xD PUSH2 0x348D PUSH2 0x6ED JUMP JUMPDEST SWAP5 DUP1 SLOAD DUP7 MSTORE PUSH1 0x1 DUP2 ADD SLOAD PUSH1 0x20 DUP8 ADD MSTORE PUSH1 0x2 DUP2 ADD SLOAD PUSH1 0x40 DUP8 ADD MSTORE PUSH1 0x3 DUP2 ADD SLOAD PUSH1 0x60 DUP8 ADD MSTORE PUSH1 0x4 DUP2 ADD SLOAD PUSH1 0x80 DUP8 ADD MSTORE PUSH1 0x5 DUP2 ADD SLOAD PUSH1 0xA0 DUP8 ADD MSTORE PUSH1 0x6 DUP2 ADD SLOAD PUSH1 0xC0 DUP8 ADD MSTORE PUSH2 0x34DA PUSH1 0x7 DUP3 ADD PUSH2 0x2A7 JUMP JUMPDEST PUSH1 0xE0 DUP8 ADD MSTORE PUSH2 0x34EB PUSH1 0x8 DUP3 ADD PUSH2 0x2A7 JUMP JUMPDEST PUSH2 0x100 DUP8 ADD MSTORE PUSH2 0x34FD PUSH1 0x9 DUP3 ADD PUSH2 0x2A7 JUMP JUMPDEST PUSH2 0x120 DUP8 ADD MSTORE PUSH2 0x351A PUSH2 0x1B54 PUSH1 0xA DUP4 ADD SLOAD PUSH1 0x1 PUSH1 0x1 PUSH1 0xA0 SHL SUB AND SWAP1 JUMP JUMPDEST PUSH2 0x3531 PUSH2 0x1B7C PUSH1 0xB DUP4 ADD SLOAD PUSH1 0x1 PUSH1 0x1 PUSH1 0xA0 SHL SUB AND SWAP1 JUMP JUMPDEST PUSH2 0x353D PUSH1 0xC DUP3 ADD PUSH2 0x3360 JUMP JUMPDEST PUSH2 0x180 DUP8 ADD MSTORE ADD SLOAD PUSH2 0x3555 DUP3 DUP3 AND PUSH2 0x1A0 DUP8 ADD PUSH2 0x2977 JUMP JUMPDEST PUSH1 0x8 DUP2 SWAP1 SHR DUP3 AND ISZERO ISZERO PUSH2 0x1C0 DUP7 ADD MSTORE PUSH1 0x10 SHR AND ISZERO ISZERO PUSH2 0x1E0 DUP5 ADD MSTORE JUMP JUMPDEST ISZERO PUSH2 0x3579 JUMPI JUMP JUMPDEST PUSH1 0x40 MLOAD PUSH3 0x461BCD PUSH1 0xE5 SHL DUP2 MSTORE PUSH1 0x20 PUSH1 0x4 DUP3 ADD MSTORE PUSH1 0x2A PUSH1 0x24 DUP3 ADD MSTORE PUSH32 0x4F6E6C792074686520656E7472657072656E6575722063616E20637265617465 PUSH1 0x44 DUP3 ADD MSTORE PUSH32 0x2061207265717565737400000000000000000000000000000000000000000000 PUSH1 0x64 DUP3 ADD MSTORE PUSH1 0x84 SWAP1 REVERT JUMPDEST ISZERO PUSH2 0x35EB JUMPI JUMP JUMPDEST PUSH1 0x40 MLOAD PUSH3 0x461BCD PUSH1 0xE5 SHL DUP2 MSTORE PUSH1 0x20 PUSH1 0x4 DUP3 ADD MSTORE PUSH1 0x34 PUSH1 0x24 DUP3 ADD MSTORE PUSH32 0x4120726571756573742068617320616C7265616479206265656E206372656174 PUSH1 0x44 DUP3 ADD MSTORE PUSH32 0x656420666F7220746869732063616D706169676E000000000000000000000000 PUSH1 0x64 DUP3 ADD MSTORE PUSH1 0x84 SWAP1 REVERT JUMPDEST ISZERO PUSH2 0x365D JUMPI JUMP JUMPDEST PUSH1 0x40 MLOAD PUSH3 0x461BCD PUSH1 0xE5 SHL DUP2 MSTORE PUSH1 0x20 PUSH1 0x4 DUP3 ADD MSTORE PUSH1 0x3E PUSH1 0x24 DUP3 ADD MSTORE PUSH32 0x5265717565737420616D6F756E74206D757374206265206C657373207468616E PUSH1 0x44 DUP3 ADD MSTORE PUSH32 0x206F7220657175616C20746F207468652072616973656420616D6F756E740000 PUSH1 0x64 DUP3 ADD MSTORE PUSH1 0x84 SWAP1 REVERT JUMPDEST ISZERO PUSH2 0x36CF JUMPI JUMP JUMPDEST PUSH1 0x40 MLOAD PUSH3 0x461BCD PUSH1 0xE5 SHL DUP2 MSTORE PUSH1 0x20 PUSH1 0x4 DUP3 ADD MSTORE PUSH1 0x24 DUP1 DUP3 ADD MSTORE PUSH32 0x4F6E6C7920696E766573746F72732063616E20617070726F7665206120726571 PUSH1 0x44 DUP3 ADD MSTORE PUSH4 0x1D595CDD PUSH1 0xE2 SHL PUSH1 0x64 DUP3 ADD MSTORE PUSH1 0x84 SWAP1 REVERT JUMPDEST ISZERO PUSH2 0x3727 JUMPI JUMP JUMPDEST PUSH1 0x40 MLOAD PUSH3 0x461BCD PUSH1 0xE5 SHL DUP2 MSTORE PUSH1 0x20 PUSH1 0x4 DUP3 ADD MSTORE PUSH1 0x23 PUSH1 0x24 DUP3 ADD MSTORE PUSH32 0x4E6F20726571756573742065786973747320666F7220746869732063616D7061 PUSH1 0x44 DUP3 ADD MSTORE PUSH3 0x34B3B7 PUSH1 0xE9 SHL PUSH1 0x64 DUP3 ADD MSTORE PUSH1 0x84 SWAP1 REVERT JUMPDEST ISZERO PUSH2 0x377F JUMPI JUMP JUMPDEST PUSH1 0x40 MLOAD PUSH3 0x461BCD PUSH1 0xE5 SHL DUP2 MSTORE PUSH1 0x20 PUSH1 0x4 DUP3 ADD MSTORE PUSH1 0x29 PUSH1 0x24 DUP3 ADD MSTORE PUSH32 0x496E766573746F722068617320616C726561647920617070726F766564207468 PUSH1 0x44 DUP3 ADD MSTORE PUSH32 0x6520726571756573740000000000000000000000000000000000000000000000 PUSH1 0x64 DUP3 ADD MSTORE PUSH1 0x84 SWAP1 REVERT JUMPDEST ISZERO PUSH2 0x37F1 JUMPI JUMP JUMPDEST PUSH1 0x40 MLOAD PUSH3 0x461BCD PUSH1 0xE5 SHL DUP2 MSTORE PUSH1 0x20 PUSH1 0x4 DUP3 ADD MSTORE PUSH1 0x41 PUSH1 0x24 DUP3 ADD MSTORE PUSH32 0x5265717565737420686173206E6F74206265656E20617070726F766564206279 PUSH1 0x44 DUP3 ADD MSTORE PUSH32 0x20746865207265717569726564206E756D626572206F6620696E766573746F72 PUSH1 0x64 DUP3 ADD MSTORE PUSH1 0x73 PUSH1 0xF8 SHL PUSH1 0x84 DUP3 ADD MSTORE PUSH1 0xA4 SWAP1 REVERT JUMPDEST ISZERO PUSH2 0x386D JUMPI JUMP JUMPDEST PUSH1 0x40 MLOAD PUSH3 0x461BCD PUSH1 0xE5 SHL DUP2 MSTORE PUSH1 0x20 PUSH1 0x4 DUP3 ADD MSTORE PUSH1 0x2A PUSH1 0x24 DUP3 ADD MSTORE PUSH32 0x596F752068617665206E6F7420636F6E747269627574656420746F2074686973 PUSH1 0x44 DUP3 ADD MSTORE PUSH32 0x2063616D706169676E2E00000000000000000000000000000000000000000000 PUSH1 0x64 DUP3 ADD MSTORE PUSH1 0x84 SWAP1 REVERT JUMPDEST ISZERO PUSH2 0x38DF JUMPI JUMP JUMPDEST PUSH1 0x40 MLOAD PUSH3 0x461BCD PUSH1 0xE5 SHL DUP2 MSTORE PUSH1 0x20 PUSH1 0x4 DUP3 ADD MSTORE PUSH1 0x1D PUSH1 0x24 DUP3 ADD MSTORE PUSH32 0x43616D706169676E20686173206E6F742065787069726564207965742E000000 PUSH1 0x44 DUP3 ADD MSTORE PUSH1 0x64 SWAP1 REVERT JUMPDEST ISZERO PUSH2 0x392B JUMPI JUMP JUMPDEST PUSH1 0x40 MLOAD PUSH3 0x461BCD PUSH1 0xE5 SHL DUP2 MSTORE PUSH1 0x20 PUSH1 0x4 DUP3 ADD MSTORE PUSH1 0x25 PUSH1 0x24 DUP3 ADD MSTORE PUSH32 0x43616D706169676E20646561646C696E6520686173206E6F7420706173736564 PUSH1 0x44 DUP3 ADD MSTORE PUSH32 0x207965742E000000000000000000000000000000000000000000000000000000 PUSH1 0x64 DUP3 ADD MSTORE PUSH1 0x84 SWAP1 REVERT JUMPDEST PUSH1 0x40 MLOAD SWAP1 PUSH1 0x40 DUP3 ADD DUP3 DUP2 LT PUSH8 0xFFFFFFFFFFFFFFFF DUP3 GT OR PUSH2 0x248 JUMPI PUSH1 0x40 MSTORE PUSH1 0x10 DUP3 MSTORE PUSH32 0x616D6F756E74546F576974686472617700000000000000000000000000000000 PUSH1 0x20 DUP4 ADD MSTORE JUMP JUMPDEST DUP1 PUSH1 0x0 MSTORE PUSH1 0xCC PUSH1 0x20 MSTORE PUSH1 0x4 PUSH1 0x40 PUSH1 0x0 KECCAK256 ADD SLOAD TIMESTAMP LT PUSH1 0x0 EQ PUSH2 0x3A1F JUMPI PUSH1 0xD PUSH2 0x3A14 PUSH2 0x2E5 SWAP3 PUSH1 0x0 MSTORE PUSH1 0xCC PUSH1 0x20 MSTORE PUSH1 0x40 PUSH1 0x0 KECCAK256 SWAP1 JUMP JUMPDEST ADD DUP1 SLOAD PUSH1 0xFF NOT AND SWAP1 SSTORE JUMP JUMPDEST PUSH1 0x2 PUSH2 0x3A35 DUP3 PUSH1 0x0 MSTORE PUSH1 0xCC PUSH1 0x20 MSTORE PUSH1 0x40 PUSH1 0x0 KECCAK256 SWAP1 JUMP JUMPDEST ADD SLOAD PUSH1 0x1 PUSH2 0x3A4D DUP4 PUSH1 0x0 MSTORE PUSH1 0xCC PUSH1 0x20 MSTORE PUSH1 0x40 PUSH1 0x0 KECCAK256 SWAP1 JUMP JUMPDEST ADD SLOAD GT PUSH2 0x3A96 JUMPI PUSH2 0x3A7B PUSH1 0xD PUSH2 0x3A6D DUP4 PUSH1 0x0 MSTORE PUSH1 0xCC PUSH1 0x20 MSTORE PUSH1 0x40 PUSH1 0x0 KECCAK256 SWAP1 JUMP JUMPDEST ADD DUP1 SLOAD PUSH1 0xFF NOT AND PUSH1 0x1 OR SWAP1 SSTORE JUMP JUMPDEST PUSH1 0x5 PUSH2 0x3A92 TIMESTAMP SWAP3 PUSH1 0x0 MSTORE PUSH1 0xCC PUSH1 0x20 MSTORE PUSH1 0x40 PUSH1 0x0 KECCAK256 SWAP1 JUMP JUMPDEST ADD SSTORE JUMP JUMPDEST PUSH1 0xD PUSH2 0x3AAF PUSH2 0x2E5 SWAP3 PUSH1 0x0 MSTORE PUSH1 0xCC PUSH1 0x20 MSTORE PUSH1 0x40 PUSH1 0x0 KECCAK256 SWAP1 JUMP JUMPDEST ADD DUP1 SLOAD PUSH1 0xFF NOT AND PUSH1 0x2 OR SWAP1 SSTORE JUMP JUMPDEST DUP1 SLOAD PUSH1 0x0 SWAP1 DUP2 MSTORE PUSH1 0x20 PUSH1 0xCA DUP2 MSTORE PUSH1 0x40 SWAP2 DUP3 DUP2 KECCAK256 SLOAD SWAP3 PUSH1 0xC DUP3 SWAP6 ADD SWAP3 DUP4 SLOAD SWAP4 DUP4 JUMPDEST DUP6 DUP2 LT PUSH2 0x3AF2 JUMPI POP POP POP POP POP POP PUSH1 0x1 SHR GT ISZERO SWAP1 JUMP JUMPDEST PUSH1 0xFF PUSH2 0x3B33 PUSH1 0x1 PUSH1 0x1 PUSH1 0xA0 SHL SUB PUSH2 0x3B09 DUP5 DUP7 PUSH2 0x315D JUMP JUMPDEST SWAP1 SLOAD SWAP1 DUP6 DUP11 MSTORE PUSH1 0xCE DUP9 MSTORE PUSH1 0x3 SHL SHR AND DUP7 DUP9 KECCAK256 SWAP1 PUSH1 0x1 PUSH1 0x1 PUSH1 0xA0 SHL SUB AND PUSH1 0x0 MSTORE PUSH1 0x20 MSTORE PUSH1 0x40 PUSH1 0x0 KECCAK256 SWAP1 JUMP JUMPDEST SLOAD AND PUSH2 0x3B48 JUMPI JUMPDEST PUSH2 0x3B43 SWAP1 PUSH2 0x2EEA JUMP JUMPDEST PUSH2 0x3ADD JUMP JUMPDEST SWAP7 PUSH2 0x3B55 PUSH2 0x3B43 SWAP2 PUSH2 0x2EEA JUMP JUMPDEST SWAP8 SWAP1 POP PUSH2 0x3B3A JUMP JUMPDEST SWAP1 PUSH1 0x1 PUSH1 0x1 PUSH1 0xA0 SHL SUB PUSH2 0x267E SWAP3 AND PUSH1 0x0 MSTORE PUSH1 0xCF PUSH1 0x20 MSTORE PUSH1 0x40 PUSH1 0x0 KECCAK256 PUSH1 0x1 DUP2 ADD SWAP1 DUP3 PUSH1 0x0 MSTORE DUP2 PUSH1 0x20 MSTORE PUSH1 0x40 PUSH1 0x0 KECCAK256 SLOAD ISZERO PUSH1 0x0 EQ PUSH2 0x3BDE JUMPI DUP1 SLOAD PUSH9 0x10000000000000000 DUP2 LT ISZERO PUSH2 0x248 JUMPI DUP1 PUSH1 0x1 PUSH2 0x3BB6 SWAP3 ADD DUP4 SSTORE DUP3 PUSH2 0x315D JUMP JUMPDEST DUP2 SLOAD SWAP1 PUSH1 0x3 SHL SWAP1 DUP6 DUP3 SHL SWAP2 PUSH1 0x0 NOT SWAP1 SHL NOT AND OR SWAP1 SSTORE SLOAD SWAP2 PUSH1 0x0 MSTORE PUSH1 0x20 MSTORE PUSH1 0x40 PUSH1 0x0 KECCAK256 SSTORE PUSH1 0x1 SWAP1 JUMP JUMPDEST POP POP POP PUSH1 0x0 SWAP1 JUMP JUMPDEST PUSH1 0x0 SWAP2 SWAP1 PUSH2 0x3C1D PUSH2 0x3C2B DUP5 SWAP4 PUSH1 0x40 MLOAD SWAP3 DUP4 SWAP2 PUSH1 0x20 DUP4 ADD SWAP6 PUSH4 0x643FD0DF PUSH1 0xE0 SHL DUP8 MSTORE PUSH1 0x24 DUP5 ADD MSTORE PUSH1 0x40 PUSH1 0x44 DUP5 ADD MSTORE PUSH1 0x64 DUP4 ADD SWAP1 PUSH2 0x34D JUMP JUMPDEST SUB PUSH1 0x1F NOT DUP2 ADD DUP4 MSTORE DUP3 PUSH2 0x285 JUMP JUMPDEST MLOAD SWAP1 PUSH11 0x636F6E736F6C652E6C6F67 GAS STATICCALL POP JUMP INVALID LOG1 PUSH5 0x736F6C6343 STOP ADDMOD SLT STOP EXP "},"methodIdentifiers":{"_campaignOfEntrepreneurByIndex(address,uint256)":"24777746","approveFundReleaseRequest(uint256)":"a7247cd9","campaigns(uint256)":"141961bc","confirmFundsReceived(uint256)":"ae1f6802","createCampaign(uint256,uint256,uint256,string,string,string)":"1ad417bf","createFundReleaseRequest(uint256,uint256,address)":"70debcf7","declineFundRelease(uint256)":"73f13016","donateToCampaign(uint256)":"42a4fda8","getAllDonations(uint256)":"ffa676d1","getAllDonators(uint256)":"e27883fb","getCampaignById(uint256)":"e6ffcaa1","getCampaigns()":"a6b03633","getCampaignsByEntrepreneur(address)":"efb80183","getInvestorDonations(uint256)":"67c2cbad","getTotalCampaignsByInvestor(address)":"8e5baa62","getUserByAddress(address)":"69c212f6","initialize()":"8129fc1c","loginUser(string,string)":"22ce12e5","owner()":"8da5cb5b","proxiableUUID()":"52d1902d","registerUser(string,string,uint8)":"2e17a931","releaseFundsToVendors(uint256)":"74c49fd5","renounceOwnership()":"715018a6","transferOwnership(address)":"f2fde38b","upgradeTo(address)":"3659cfe6","upgradeToAndCall(address,bytes)":"4f1ef286","users(address)":"a87430ba","withdrawFunds(uint256)":"155dd5ee"}},"storageLayout":{"storage":[{"astId":503,"contract":"contracts/CampaignRegistry.sol:CampaignRegistry","label":"_initialized","offset":0,"slot":"0","type":"t_uint8"},{"astId":506,"contract":"contracts/CampaignRegistry.sol:CampaignRegistry","label":"_initializing","offset":1,"slot":"0","type":"t_bool"},{"astId":1172,"contract":"contracts/CampaignRegistry.sol:CampaignRegistry","label":"__gap","offset":0,"slot":"1","type":"t_array(t_uint256)50_storage"},{"astId":10,"contract":"contracts/CampaignRegistry.sol:CampaignRegistry","label":"_owner","offset":0,"slot":"51","type":"t_address"},{"astId":130,"contract":"contracts/CampaignRegistry.sol:CampaignRegistry","label":"__gap","offset":0,"slot":"52","type":"t_array(t_uint256)49_storage"},{"astId":485,"contract":"contracts/CampaignRegistry.sol:CampaignRegistry","label":"__gap","offset":0,"slot":"101","type":"t_array(t_uint256)50_storage"},{"astId":800,"contract":"contracts/CampaignRegistry.sol:CampaignRegistry","label":"__gap","offset":0,"slot":"151","type":"t_array(t_uint256)50_storage"},{"astId":1919,"contract":"contracts/CampaignRegistry.sol:CampaignRegistry","label":"campaignIdCounter","offset":0,"slot":"201","type":"t_uint256"},{"astId":1923,"contract":"contracts/CampaignRegistry.sol:CampaignRegistry","label":"donationCount","offset":0,"slot":"202","type":"t_mapping(t_uint256,t_uint256)"},{"astId":1929,"contract":"contracts/CampaignRegistry.sol:CampaignRegistry","label":"users","offset":0,"slot":"203","type":"t_mapping(t_address,t_struct(User)3455_storage)"},{"astId":1935,"contract":"contracts/CampaignRegistry.sol:CampaignRegistry","label":"campaigns","offset":0,"slot":"204","type":"t_mapping(t_uint256,t_struct(Campaign)3490_storage)"},{"astId":1941,"contract":"contracts/CampaignRegistry.sol:CampaignRegistry","label":"contributions","offset":0,"slot":"205","type":"t_mapping(t_uint256,t_mapping(t_address,t_uint256))"},{"astId":1947,"contract":"contracts/CampaignRegistry.sol:CampaignRegistry","label":"campaignInvestorApprovals","offset":0,"slot":"206","type":"t_mapping(t_uint256,t_mapping(t_address,t_bool))"},{"astId":1952,"contract":"contracts/CampaignRegistry.sol:CampaignRegistry","label":"_campaignsOwnedByEntrepreneur","offset":0,"slot":"207","type":"t_mapping(t_address,t_struct(UintSet)1766_storage)"}],"types":{"t_address":{"encoding":"inplace","label":"address","numberOfBytes":"20"},"t_address_payable":{"encoding":"inplace","label":"address payable","numberOfBytes":"20"},"t_array(t_address)dyn_storage":{"base":"t_address","encoding":"dynamic_array","label":"address[]","numberOfBytes":"32"},"t_array(t_bytes32)dyn_storage":{"base":"t_bytes32","encoding":"dynamic_array","label":"bytes32[]","numberOfBytes":"32"},"t_array(t_uint256)49_storage":{"base":"t_uint256","encoding":"inplace","label":"uint256[49]","numberOfBytes":"1568"},"t_array(t_uint256)50_storage":{"base":"t_uint256","encoding":"inplace","label":"uint256[50]","numberOfBytes":"1600"},"t_bool":{"encoding":"inplace","label":"bool","numberOfBytes":"1"},"t_bytes32":{"encoding":"inplace","label":"bytes32","numberOfBytes":"32"},"t_enum(CampaignStatus)3439":{"encoding":"inplace","label":"enum ICampaignRegistry.CampaignStatus","numberOfBytes":"1"},"t_enum(Category)3443":{"encoding":"inplace","label":"enum ICampaignRegistry.Category","numberOfBytes":"1"},"t_mapping(t_address,t_bool)":{"encoding":"mapping","key":"t_address","label":"mapping(address => bool)","numberOfBytes":"32","value":"t_bool"},"t_mapping(t_address,t_struct(UintSet)1766_storage)":{"encoding":"mapping","key":"t_address","label":"mapping(address => struct EnumerableSetUpgradeable.UintSet)","numberOfBytes":"32","value":"t_struct(UintSet)1766_storage"},"t_mapping(t_address,t_struct(User)3455_storage)":{"encoding":"mapping","key":"t_address","label":"mapping(address => struct ICampaignRegistry.User)","numberOfBytes":"32","value":"t_struct(User)3455_storage"},"t_mapping(t_address,t_uint256)":{"encoding":"mapping","key":"t_address","label":"mapping(address => uint256)","numberOfBytes":"32","value":"t_uint256"},"t_mapping(t_bytes32,t_uint256)":{"encoding":"mapping","key":"t_bytes32","label":"mapping(bytes32 => uint256)","numberOfBytes":"32","value":"t_uint256"},"t_mapping(t_uint256,t_mapping(t_address,t_bool))":{"encoding":"mapping","key":"t_uint256","label":"mapping(uint256 => mapping(address => bool))","numberOfBytes":"32","value":"t_mapping(t_address,t_bool)"},"t_mapping(t_uint256,t_mapping(t_address,t_uint256))":{"encoding":"mapping","key":"t_uint256","label":"mapping(uint256 => mapping(address => uint256))","numberOfBytes":"32","value":"t_mapping(t_address,t_uint256)"},"t_mapping(t_uint256,t_struct(Campaign)3490_storage)":{"encoding":"mapping","key":"t_uint256","label":"mapping(uint256 => struct ICampaignRegistry.Campaign)","numberOfBytes":"32","value":"t_struct(Campaign)3490_storage"},"t_mapping(t_uint256,t_uint256)":{"encoding":"mapping","key":"t_uint256","label":"mapping(uint256 => uint256)","numberOfBytes":"32","value":"t_uint256"},"t_string_storage":{"encoding":"bytes","label":"string","numberOfBytes":"32"},"t_struct(Campaign)3490_storage":{"encoding":"inplace","label":"struct ICampaignRegistry.Campaign","members":[{"astId":3457,"contract":"contracts/CampaignRegistry.sol:CampaignRegistry","label":"campaignId","offset":0,"slot":"0","type":"t_uint256"},{"astId":3459,"contract":"contracts/CampaignRegistry.sol:CampaignRegistry","label":"targetAmount","offset":0,"slot":"1","type":"t_uint256"},{"astId":3461,"contract":"contracts/CampaignRegistry.sol:CampaignRegistry","label":"raisedAmount","offset":0,"slot":"2","type":"t_uint256"},{"astId":3463,"contract":"contracts/CampaignRegistry.sol:CampaignRegistry","label":"requestAmount","offset":0,"slot":"3","type":"t_uint256"},{"astId":3465,"contract":"contracts/CampaignRegistry.sol:CampaignRegistry","label":"deadline","offset":0,"slot":"4","type":"t_uint256"},{"astId":3467,"contract":"contracts/CampaignRegistry.sol:CampaignRegistry","label":"completeAt","offset":0,"slot":"5","type":"t_uint256"},{"astId":3469,"contract":"contracts/CampaignRegistry.sol:CampaignRegistry","label":"minimumContribution","offset":0,"slot":"6","type":"t_uint256"},{"astId":3471,"contract":"contracts/CampaignRegistry.sol:CampaignRegistry","label":"imageUri","offset":0,"slot":"7","type":"t_string_storage"},{"astId":3473,"contract":"contracts/CampaignRegistry.sol:CampaignRegistry","label":"campaignTitle","offset":0,"slot":"8","type":"t_string_storage"},{"astId":3475,"contract":"contracts/CampaignRegistry.sol:CampaignRegistry","label":"campaignDescription","offset":0,"slot":"9","type":"t_string_storage"},{"astId":3477,"contract":"contracts/CampaignRegistry.sol:CampaignRegistry","label":"entrepreneur","offset":0,"slot":"10","type":"t_address"},{"astId":3479,"contract":"contracts/CampaignRegistry.sol:CampaignRegistry","label":"vendor","offset":0,"slot":"11","type":"t_address_payable"},{"astId":3482,"contract":"contracts/CampaignRegistry.sol:CampaignRegistry","label":"investors","offset":0,"slot":"12","type":"t_array(t_address)dyn_storage"},{"astId":3485,"contract":"contracts/CampaignRegistry.sol:CampaignRegistry","label":"status","offset":0,"slot":"13","type":"t_enum(CampaignStatus)3439"},{"astId":3487,"contract":"contracts/CampaignRegistry.sol:CampaignRegistry","label":"requestCreated","offset":1,"slot":"13","type":"t_bool"},{"astId":3489,"contract":"contracts/CampaignRegistry.sol:CampaignRegistry","label":"fundsReceived","offset":2,"slot":"13","type":"t_bool"}],"numberOfBytes":"448"},"t_struct(Set)1294_storage":{"encoding":"inplace","label":"struct EnumerableSetUpgradeable.Set","members":[{"astId":1289,"contract":"contracts/CampaignRegistry.sol:CampaignRegistry","label":"_values","offset":0,"slot":"0","type":"t_array(t_bytes32)dyn_storage"},{"astId":1293,"contract":"contracts/CampaignRegistry.sol:CampaignRegistry","label":"_indexes","offset":0,"slot":"1","type":"t_mapping(t_bytes32,t_uint256)"}],"numberOfBytes":"64"},"t_struct(UintSet)1766_storage":{"encoding":"inplace","label":"struct EnumerableSetUpgradeable.UintSet","members":[{"astId":1765,"contract":"contracts/CampaignRegistry.sol:CampaignRegistry","label":"_inner","offset":0,"slot":"0","type":"t_struct(Set)1294_storage"}],"numberOfBytes":"64"},"t_struct(User)3455_storage":{"encoding":"inplace","label":"struct ICampaignRegistry.User","members":[{"astId":3445,"contract":"contracts/CampaignRegistry.sol:CampaignRegistry","label":"email","offset":0,"slot":"0","type":"t_string_storage"},{"astId":3447,"contract":"contracts/CampaignRegistry.sol:CampaignRegistry","label":"password","offset":0,"slot":"1","type":"t_string_storage"},{"astId":3450,"contract":"contracts/CampaignRegistry.sol:CampaignRegistry","label":"category","offset":0,"slot":"2","type":"t_enum(Category)3443"},{"astId":3452,"contract":"contracts/CampaignRegistry.sol:CampaignRegistry","label":"walletAddress","offset":1,"slot":"2","type":"t_address"},{"astId":3454,"contract":"contracts/CampaignRegistry.sol:CampaignRegistry","label":"verified","offset":21,"slot":"2","type":"t_bool"}],"numberOfBytes":"96"},"t_uint256":{"encoding":"inplace","label":"uint256","numberOfBytes":"32"},"t_uint8":{"encoding":"inplace","label":"uint8","numberOfBytes":"1"}}}}}}