{"contracts/CampaignRegistry.sol":{"CampaignRegistry":{"abi":[{"anonymous":false,"inputs":[{"indexed":false,"internalType":"address","name":"previousAdmin","type":"address"},{"indexed":false,"internalType":"address","name":"newAdmin","type":"address"}],"name":"AdminChanged","type":"event"},{"anonymous":false,"inputs":[{"indexed":true,"internalType":"address","name":"beacon","type":"address"}],"name":"BeaconUpgraded","type":"event"},{"anonymous":false,"inputs":[{"indexed":false,"internalType":"uint256","name":"campaignId","type":"uint256"},{"indexed":false,"internalType":"address","name":"entrepreneur","type":"address"},{"indexed":false,"internalType":"uint256","name":"targetAmount","type":"uint256"},{"indexed":false,"internalType":"uint256","name":"deadline","type":"uint256"}],"name":"CampaignCreated","type":"event"},{"anonymous":false,"inputs":[{"indexed":false,"internalType":"uint256","name":"campaignId","type":"uint256"},{"indexed":false,"internalType":"address","name":"investor","type":"address"},{"indexed":false,"internalType":"uint256","name":"amount","type":"uint256"}],"name":"ContributionMade","type":"event"},{"anonymous":false,"inputs":[{"indexed":false,"internalType":"uint256","name":"campaignId","type":"uint256"},{"indexed":false,"internalType":"address","name":"vendor","type":"address"},{"indexed":false,"internalType":"uint256","name":"amount","type":"uint256"}],"name":"FundsReleased","type":"event"},{"anonymous":false,"inputs":[{"indexed":false,"internalType":"uint8","name":"version","type":"uint8"}],"name":"Initialized","type":"event"},{"anonymous":false,"inputs":[{"indexed":true,"internalType":"address","name":"previousOwner","type":"address"},{"indexed":true,"internalType":"address","name":"newOwner","type":"address"}],"name":"OwnershipTransferred","type":"event"},{"anonymous":false,"inputs":[{"indexed":false,"internalType":"uint256","name":"campaignId","type":"uint256"},{"indexed":false,"internalType":"address","name":"investor","type":"address"}],"name":"RequestApproved","type":"event"},{"anonymous":false,"inputs":[{"indexed":false,"internalType":"uint256","name":"campaignId","type":"uint256"},{"indexed":false,"internalType":"uint256","name":"requestAmount","type":"uint256"}],"name":"RequestCreated","type":"event"},{"anonymous":false,"inputs":[{"indexed":true,"internalType":"address","name":"implementation","type":"address"}],"name":"Upgraded","type":"event"},{"inputs":[{"internalType":"address","name":"_owner","type":"address"},{"internalType":"uint256","name":"index","type":"uint256"}],"name":"_campaignOfEntrepreneyrByIndex","outputs":[{"internalType":"uint256","name":"","type":"uint256"}],"stateMutability":"view","type":"function"},{"inputs":[{"internalType":"address","name":"_entrepreneur","type":"address"}],"name":"_getEntrepreneurCampaignsCount","outputs":[{"internalType":"uint256","name":"","type":"uint256"}],"stateMutability":"view","type":"function"},{"inputs":[{"internalType":"uint256","name":"_campaignId","type":"uint256"}],"name":"approveFundReleaseRequest","outputs":[],"stateMutability":"nonpayable","type":"function"},{"inputs":[{"internalType":"uint256","name":"","type":"uint256"}],"name":"campaigns","outputs":[{"internalType":"uint256","name":"campaignId","type":"uint256"},{"internalType":"uint256","name":"targetAmount","type":"uint256"},{"internalType":"uint256","name":"raisedAmount","type":"uint256"},{"internalType":"uint256","name":"requestAmount","type":"uint256"},{"internalType":"uint256","name":"deadline","type":"uint256"},{"internalType":"uint256","name":"completeAt","type":"uint256"},{"internalType":"uint256","name":"startAt","type":"uint256"},{"internalType":"string","name":"imageUri","type":"string"},{"internalType":"string","name":"campaignTitle","type":"string"},{"internalType":"string","name":"campaignDescription","type":"string"},{"internalType":"address","name":"entrepreneur","type":"address"},{"internalType":"address payable","name":"vendor","type":"address"},{"internalType":"enum ICampaignRegistry.CampaignStatus","name":"status","type":"uint8"},{"internalType":"bool","name":"requestCreated","type":"bool"},{"internalType":"uint256","name":"minimumContribution","type":"uint256"}],"stateMutability":"view","type":"function"},{"inputs":[{"internalType":"uint256","name":"_targetAmount","type":"uint256"},{"internalType":"uint256","name":"_deadline","type":"uint256"},{"internalType":"uint256","name":"minimumContribution","type":"uint256"},{"internalType":"string","name":"_imageUri","type":"string"},{"internalType":"string","name":"_campaignTitle","type":"string"},{"internalType":"string","name":"_campaignDescription","type":"string"}],"name":"createCampaign","outputs":[],"stateMutability":"nonpayable","type":"function"},{"inputs":[{"internalType":"uint256","name":"_campaignId","type":"uint256"},{"internalType":"uint256","name":"_requestAmount","type":"uint256"},{"internalType":"address payable","name":"_vendorAddress","type":"address"}],"name":"createFundReleaseRequest","outputs":[],"stateMutability":"nonpayable","type":"function"},{"inputs":[{"internalType":"uint256","name":"_campaignId","type":"uint256"}],"name":"donateToCampaign","outputs":[],"stateMutability":"payable","type":"function"},{"inputs":[{"internalType":"uint256","name":"_campaignId","type":"uint256"}],"name":"getAllDonations","outputs":[{"internalType":"uint256[]","name":"","type":"uint256[]"}],"stateMutability":"view","type":"function"},{"inputs":[{"internalType":"uint256","name":"_campaignId","type":"uint256"}],"name":"getAllDonators","outputs":[{"internalType":"address[]","name":"","type":"address[]"}],"stateMutability":"view","type":"function"},{"inputs":[{"internalType":"uint256","name":"_campaignId","type":"uint256"}],"name":"getCampaignById","outputs":[{"components":[{"internalType":"uint256","name":"campaignId","type":"uint256"},{"internalType":"uint256","name":"targetAmount","type":"uint256"},{"internalType":"uint256","name":"raisedAmount","type":"uint256"},{"internalType":"uint256","name":"requestAmount","type":"uint256"},{"internalType":"uint256","name":"deadline","type":"uint256"},{"internalType":"uint256","name":"completeAt","type":"uint256"},{"internalType":"uint256","name":"startAt","type":"uint256"},{"internalType":"string","name":"imageUri","type":"string"},{"internalType":"string","name":"campaignTitle","type":"string"},{"internalType":"string","name":"campaignDescription","type":"string"},{"internalType":"address","name":"entrepreneur","type":"address"},{"internalType":"address payable","name":"vendor","type":"address"},{"internalType":"address[]","name":"investors","type":"address[]"},{"internalType":"enum ICampaignRegistry.CampaignStatus","name":"status","type":"uint8"},{"internalType":"bool","name":"requestCreated","type":"bool"},{"internalType":"uint256","name":"minimumContribution","type":"uint256"}],"internalType":"struct ICampaignRegistry.Campaign","name":"","type":"tuple"}],"stateMutability":"view","type":"function"},{"inputs":[],"name":"getCampaigns","outputs":[{"components":[{"internalType":"uint256","name":"campaignId","type":"uint256"},{"internalType":"uint256","name":"targetAmount","type":"uint256"},{"internalType":"uint256","name":"raisedAmount","type":"uint256"},{"internalType":"uint256","name":"requestAmount","type":"uint256"},{"internalType":"uint256","name":"deadline","type":"uint256"},{"internalType":"uint256","name":"completeAt","type":"uint256"},{"internalType":"uint256","name":"startAt","type":"uint256"},{"internalType":"string","name":"imageUri","type":"string"},{"internalType":"string","name":"campaignTitle","type":"string"},{"internalType":"string","name":"campaignDescription","type":"string"},{"internalType":"address","name":"entrepreneur","type":"address"},{"internalType":"address payable","name":"vendor","type":"address"},{"internalType":"address[]","name":"investors","type":"address[]"},{"internalType":"enum ICampaignRegistry.CampaignStatus","name":"status","type":"uint8"},{"internalType":"bool","name":"requestCreated","type":"bool"},{"internalType":"uint256","name":"minimumContribution","type":"uint256"}],"internalType":"struct ICampaignRegistry.Campaign[]","name":"","type":"tuple[]"}],"stateMutability":"view","type":"function"},{"inputs":[{"internalType":"address","name":"_entrepreneur","type":"address"}],"name":"getCampaignsByEntrepreneur","outputs":[{"components":[{"internalType":"uint256","name":"campaignId","type":"uint256"},{"internalType":"uint256","name":"targetAmount","type":"uint256"},{"internalType":"uint256","name":"raisedAmount","type":"uint256"},{"internalType":"uint256","name":"requestAmount","type":"uint256"},{"internalType":"uint256","name":"deadline","type":"uint256"},{"internalType":"uint256","name":"completeAt","type":"uint256"},{"internalType":"uint256","name":"startAt","type":"uint256"},{"internalType":"string","name":"imageUri","type":"string"},{"internalType":"string","name":"campaignTitle","type":"string"},{"internalType":"string","name":"campaignDescription","type":"string"},{"internalType":"address","name":"entrepreneur","type":"address"},{"internalType":"address payable","name":"vendor","type":"address"},{"internalType":"address[]","name":"investors","type":"address[]"},{"internalType":"enum ICampaignRegistry.CampaignStatus","name":"status","type":"uint8"},{"internalType":"bool","name":"requestCreated","type":"bool"},{"internalType":"uint256","name":"minimumContribution","type":"uint256"}],"internalType":"struct ICampaignRegistry.Campaign[]","name":"","type":"tuple[]"}],"stateMutability":"view","type":"function"},{"inputs":[{"internalType":"uint256","name":"_campaignId","type":"uint256"}],"name":"getInvestorDonations","outputs":[{"internalType":"address[]","name":"","type":"address[]"},{"internalType":"uint256[]","name":"","type":"uint256[]"}],"stateMutability":"view","type":"function"},{"inputs":[{"internalType":"address","name":"_investor","type":"address"}],"name":"getTotalCampaignsByInvestor","outputs":[{"internalType":"uint256","name":"","type":"uint256"}],"stateMutability":"view","type":"function"},{"inputs":[],"name":"initialize","outputs":[],"stateMutability":"nonpayable","type":"function"},{"inputs":[{"internalType":"string","name":"_email","type":"string"},{"internalType":"string","name":"_password","type":"string"}],"name":"loginUser","outputs":[{"internalType":"bool","name":"","type":"bool"}],"stateMutability":"view","type":"function"},{"inputs":[],"name":"owner","outputs":[{"internalType":"address","name":"","type":"address"}],"stateMutability":"view","type":"function"},{"inputs":[],"name":"proxiableUUID","outputs":[{"internalType":"bytes32","name":"","type":"bytes32"}],"stateMutability":"view","type":"function"},{"inputs":[{"internalType":"string","name":"_email","type":"string"},{"internalType":"string","name":"_password","type":"string"},{"internalType":"enum ICampaignRegistry.Category","name":"_category","type":"uint8"}],"name":"registerUser","outputs":[],"stateMutability":"nonpayable","type":"function"},{"inputs":[],"name":"renounceOwnership","outputs":[],"stateMutability":"nonpayable","type":"function"},{"inputs":[{"internalType":"address","name":"newOwner","type":"address"}],"name":"transferOwnership","outputs":[],"stateMutability":"nonpayable","type":"function"},{"inputs":[{"internalType":"address","name":"newImplementation","type":"address"}],"name":"upgradeTo","outputs":[],"stateMutability":"nonpayable","type":"function"},{"inputs":[{"internalType":"address","name":"newImplementation","type":"address"},{"internalType":"bytes","name":"data","type":"bytes"}],"name":"upgradeToAndCall","outputs":[],"stateMutability":"payable","type":"function"},{"inputs":[{"internalType":"address","name":"","type":"address"}],"name":"users","outputs":[{"internalType":"string","name":"email","type":"string"},{"internalType":"string","name":"password","type":"string"},{"internalType":"enum ICampaignRegistry.Category","name":"category","type":"uint8"},{"internalType":"address","name":"walletAddress","type":"address"},{"internalType":"bool","name":"verified","type":"bool"}],"stateMutability":"view","type":"function"}],"evm":{"bytecode":{"linkReferences":{},"object":"60a08060405234610031573060805261337c908161003782396080518181816111410152818161124d01526119050152f35b600080fdfe6080604052600436101561001257600080fd5b60003560e01c8063141961bc146126605780631ad417bf1461206a57806322ce12e5146120095780632e17a93114611b7a5780633659cfe6146118df57806342a4fda8146114c55780634f1ef286146111fc57806352d1902d146111265780635ea01e59146110ec57806367c2cbad1461100957806370debcf714610da6578063715018a614610d4b5780638129fc1c14610bf65780638da5cb5b14610bcf5780638e5baa6214610b51578063a6b0363314610a0a578063a7247cd91461063e578063a87430ba1461059c578063b46b1ee714610552578063e27883fb1461050f578063e6ffcaa1146103ea578063efb8018314610270578063f2fde38b146101ca5763ffa676d11461012457600080fd5b346101c5576020806003193601126101c557600435908160005260cc8152600c60406000200191825490610157826130ee565b9360005b8381106101795760405185815280610175818801896129e3565b0390f35b806001600160a01b0361018f6101c093856130a8565b9190548660005260cd895260406000209260031b1c1660005286526040600020546101ba8289613120565b52613001565b61015b565b600080fd5b346101c55760203660031901126101c5576101e3612990565b6101eb612b69565b6001600160a01b038116156102055761020390612bc1565b005b60405162461bcd60e51b815260206004820152602660248201527f4f776e61626c653a206e6577206f776e657220697320746865207a65726f206160448201527f64647265737300000000000000000000000000000000000000000000000000006064820152608490fd5b346101c5576020806003193601126101c5576001600160a01b0380610293612990565b16908160005260cf90818452604060002054916102af83613206565b9360005b8481106102c857604051806101758882612b07565b816000528287526102dd8160406000206130a8565b919054600392831b1c60005260cc88526040600020600e60405191610301836127be565b80548352600194858201548c85015260028201546040850152810154606084015260048101546080840152600581015460a0840152600681015460c084015261034c60078201612819565b60e0840152600861035e818301612819565b61010085015261037060098301612819565b61012085015288600a8301541661014085015288600b8301541661016085015261039c600c8301613134565b610180850152600d82015460ff918282166103b6816128ff565b6101a08701521c1615156101c084015201546101e08201526103d88289613120565b526103e38188613120565b50016102b3565b346101c55760203660031901126101c55761040361318c565b5060043560005260cc6020526101756040600020600e60405191610426836127be565b8054835260018101546020840152600281015460408401526003810154606084015260048101546080840152600581015460a0840152600681015460c084015261047260078201612819565b60e084015261048360088201612819565b61010084015261049560098201612819565b6101208401526001600160a01b0380600a83015416610140850152600b820154166101608401526104c8600c8201613134565b61018084015260ff600d8201548181166104e1816128ff565b6101a086015260081c1615156101c084015201546101e0820152604051918291602083526020830190612a17565b346101c55760203660031901126101c55760043560005260cc60205261017561053e600c604060002001613134565b6040519182916020835260208301906129a6565b346101c55760403660031901126101c5576001600160a01b03610573612990565b1660005260cf602052602061058e60243560406000206130a8565b90546040519160031b1c8152f35b346101c55760203660031901126101c5576106086001600160a01b03806105c1612990565b1660005260cb602052604060002060ff6105da82612819565b9260026105e960018501612819565b930154906106168383169460405197889760a0895260a08901906128bf565b9087820360208901526128bf565b93610620816128ff565b60408601528160081c16606085015260a81c16151560808301520390f35b346101c5576020806003193601126101c557600435903360005260cb815260ff9160029061067784836040600020015460a81c16612f2a565b61068460c9548210613010565b3360005260cb835283826040600020015416926106a0846128ff565b6106ad6001809514612f82565b8160005260cc92838252604060002093600d8501546106d78882166106d1816128ff565b1561305c565b8460005260cd84526040600020336000528452604060002054156109b95760081c871615610968578360005260ce8352604060002033600052835286604060002054166108fd578360005260ce8352604060002033600052835261077960406000209560ff199688888254161790557ff3dc904660a0ea05aba8dfa1e21fbc4fb2914be2a3029da7b0fdd3e5eee20ddb604080518881523388820152a1613256565b61077f57005b836000528083526040600020926107a0600d8501988954166106d1816128ff565b6107a984613256565b1561088957600093600c01875b6107cc575b505050505050825416179055600080f35b80548510156108845784600052828252604060002094846001600160a01b03600b880154169601549060008288811561087a575b600092839283928392f11561086e577f6e3c6096795c8298a218b2cfb8bde42726ff7c9a3d27b4d3ba41ab7f74feb5fb610868928b986108606040519283928d846001600160a01b03604092959493606083019683521660208201520152565b0390a1613001565b946107b6565b6040513d6000823e3d90fd5b6108fc9250610800565b6107bb565b60a4906040519062461bcd60e51b82526004820152604160248201527f5265717565737420686173206e6f74206265656e20617070726f76656420627960448201527f20746865207265717569726564206e756d626572206f6620696e766573746f726064820152607360f81b6084820152fd5b60405162461bcd60e51b815260048101849052602960248201527f496e766573746f722068617320616c726561647920617070726f76656420746860448201527f65207265717565737400000000000000000000000000000000000000000000006064820152608490fd5b60405162461bcd60e51b815260048101849052602360248201527f4e6f20726571756573742065786973747320666f7220746869732063616d706160448201526234b3b760e91b6064820152608490fd5b60405162461bcd60e51b8152600481018590526024808201527f4f6e6c7920696e766573746f72732063616e20617070726f76652061207265716044820152631d595cdd60e21b6064820152608490fd5b346101c55760003660031901126101c55760c954610a2781613206565b9060005b818110610a4057604051806101758582612b07565b8060005260209060cc82526040600020600e60405191610a5f836127be565b805483526001948582015490840152600281015460408401526003810154606084015260048101546080840152600581015460a0840152600681015460c0840152610aac60078201612819565b60e08401526008610abe818301612819565b610100850152610ad060098301612819565b6101208501526001600160a01b0380600a84015416610140860152600b83015416610160850152610b03600c8301613134565b610180850152600d82015460ff91828216610b1d816128ff565b6101a08701521c1615156101c084015201546101e0820152610b3f8286613120565b52610b4a8185613120565b5001610a2b565b346101c5576020806003193601126101c557610b6b612990565b60c9546000916001600160a01b0316825b828110610b8e57505050604051908152f35b8060005260cd85526040600020826000528552604060002054610bba575b610bb590613001565b610b7c565b92610bc7610bb591613001565b939050610bac565b346101c55760003660031901126101c55760206001600160a01b0360335416604051908152f35b346101c55760003660031901126101c55760005460ff8160081c161590818092610d3e575b8015610d27575b15610cbc5760ff19811660011760005581610caa575b50610c5360ff60005460081c16610c4e81612e38565b612e38565b610c5c33612bc1565b60005490610c6f60ff8360081c16612e38565b610c7557005b61ff0019166000557f7f26b83ff96e1f2b6a682f133852f6798a09c465da95921460cefb3847402498602060405160018152a1005b61ffff19166101011760005581610c38565b60405162461bcd60e51b815260206004820152602e60248201527f496e697469616c697a61626c653a20636f6e747261637420697320616c72656160448201527f647920696e697469616c697a65640000000000000000000000000000000000006064820152608490fd5b50303b158015610c225750600160ff821614610c22565b50600160ff821610610c1b565b346101c55760003660031901126101c557610d64612b69565b60006001600160a01b036033546001600160a01b03198116603355167f8be0079c531659141344cd1fd0a4f28419497f9722a3daafe3b4186f6b6457e08280a3005b346101c55760603660031901126101c5576001600160a01b03600435602435604435838116908190036101c5573360005260209360cb8552610df560ff60026040600020015460a81c16612f2a565b610e0260c9548510613010565b3360005260cb8552610e2860ff60026040600020015416610e22816128ff565b15612f82565b8360005260cc8552604060002090600d820190815490610e4e60ff83166106d1816128ff565b3390600a8501541603610f9e5760ff8160081c16610f335760028301548511610ec8576003830185905561ff001916610100179055600b0180546001600160a01b031916909117905560408051928352928201527f99f063607b2d9f794eb8985daf4a0d3224e73b48e43228a183329e415dff077e9190a1005b60405162461bcd60e51b815260048101889052603e60248201527f5265717565737420616d6f756e74206d757374206265206c657373207468616e60448201527f206f7220657175616c20746f207468652072616973656420616d6f756e7400006064820152608490fd5b60405162461bcd60e51b815260048101889052603460248201527f4120726571756573742068617320616c7265616479206265656e20637265617460448201527f656420666f7220746869732063616d706169676e0000000000000000000000006064820152608490fd5b60405162461bcd60e51b815260048101889052602a60248201527f4f6e6c792074686520656e7472657072656e6575722063616e2063726561746560448201527f20612072657175657374000000000000000000000000000000000000000000006064820152608490fd5b346101c5576020806003193601126101c5576004358060005260cc8252600c6040600020018054611039816130d6565b9261104760405194856127f7565b818452601f19611056836130d6565b013686860137611065826130ee565b9260005b83811061109a5761108d8661017589886040519485946040865260408601906129a6565b91848303908501526129e3565b806001600160a01b036110b06110e793856130a8565b90549060031b1c16806110c3838a613120565b528460005260cd895260406000209060005288526040600020546101ba8288613120565b611069565b346101c55760203660031901126101c5576001600160a01b0361110d612990565b1660005260cf6020526020604060002054604051908152f35b346101c55760003660031901126101c5576001600160a01b037f00000000000000000000000000000000000000000000000000000000000000001630036111915760206040517f360894a13ba1a3210667c828492db98dca3e2076cc3735a920a3ca505d382bbc8152f35b60405162461bcd60e51b815260206004820152603860248201527f555550535570677261646561626c653a206d757374206e6f742062652063616c60448201527f6c6564207468726f7567682064656c656761746563616c6c00000000000000006064820152608490fd5b60403660031901126101c557611210612990565b60243567ffffffffffffffff81116101c557366023820112156101c55761124190369060248160040135910161293b565b6001600160a01b0390817f0000000000000000000000000000000000000000000000000000000000000000169161127a83301415612c09565b6112a97f360894a13ba1a3210667c828492db98dca3e2076cc3735a920a3ca505d382bbc938285541614612c7b565b7f4910fdfa16fed3260ed0e7147f7cc6da11a60208b5b9406d12a635614ffd91435460ff16156112df5750505061020390612ced565b8316604051926352d1902d60e01b84526020938481600481865afa60009181611496575b506113645760405162461bcd60e51b815260048101869052602e60248201527f45524331393637557067726164653a206e657720696d706c656d656e7461746960448201526d6f6e206973206e6f74205555505360901b6064820152608490fd5b9392930361143f5761137584612ced565b7fbc7cd75a20ee27fd9adebab32041f755214dbc6bffa90cc0225b39da2e5c2d3b600080a2815115801590611437575b6113ab57005b61020392600080604051946113bf866127db565b602786527f416464726573733a206c6f772d6c6576656c2064656c65676174652063616c6c85870152660819985a5b195960ca1b60408701528481519101845af4903d1561142e573d6114118161291f565b9061141f60405192836127f7565b8152600081943d92013e612d9b565b60609250612d9b565b5060016113a5565b60405162461bcd60e51b815260048101839052602960248201527f45524331393637557067726164653a20756e737570706f727465642070726f786044820152681a58589b195555525160ba1b6064820152608490fd5b9091508581813d83116114be575b6114ae81836127f7565b810103126101c557519087611303565b503d6114a4565b6020806003193601126101c557600435903360005260cb81526114f560ff60026040600020015460a81c16612f2a565b61150260c9548310613010565b3360005260cb815261152a600160ff60026040600020015416611524816128ff565b14612f82565b8160005260cc815260ff600d6040600020015416611547816128ff565b61189b578160005260cc8152600460406000200154421015611857578160005260cc8152604060002061158460ff600d830154166106d1816128ff565b60048101544210156118125734156117a7576006810154421061176257600e8101543410611711578260005260cd8252604060002033600052825260406000206115cf348254612ff4565b9055600281016115e0348254612ff4565b90558260005260ca825260406000206115f98154613001565b90558260005260cd8252604060002033600052825234604060002054146116b2575b5060408051838152336020820152349181019190915260cc92907f0a4a91237423e0a1766a761c7cb029311d8b95d6b1b81db1b949a70c98b4e08e90606090a160005252604060002060028101546001820154111560001461169257600d8101805460ff191660011790555b600542910155600080f35b600481015442111561168757600d8101805460ff19166002179055611687565b600c0191825492680100000000000000008410156116fb57836116dc91600160cc960181556130a8565b81549060031b906001600160a01b0333831b921b19161790559161161b565b634e487b7160e01b600052604160045260246000fd5b60405162461bcd60e51b815260048101839052602360248201527f41206d696e756d756d20636f6e747269627574696f6e2069732072657175697260448201526232b21760e91b6064820152608490fd5b60405162461bcd60e51b815260048101839052601c60248201527f43616d706169676e20686173206e6f74205374617274656420796574000000006044820152606490fd5b60405162461bcd60e51b815260048101839052602960248201527f446f6e6174696f6e20616d6f756e74206d75737420626520677265617465722060448201527f7468616e207a65726f00000000000000000000000000000000000000000000006064820152608490fd5b60405162461bcd60e51b815260048101839052601960248201527f43616d706169676e20706572696f642068617320656e646564000000000000006044820152606490fd5b6064906040519062461bcd60e51b82526004820152601560248201527f446561646c696e652068617320706173736564202100000000000000000000006044820152fd5b6064906040519062461bcd60e51b82526004820152600d60248201527f496e76616c6964207374617465000000000000000000000000000000000000006044820152fd5b346101c5576020806003193601126101c5576118f9612990565b6001600160a01b0391827f00000000000000000000000000000000000000000000000000000000000000001661193181301415612c09565b6119607f360894a13ba1a3210667c828492db98dca3e2076cc3735a920a3ca505d382bbc918583541614612c7b565b604051908282019482861067ffffffffffffffff8711176116fb57856040526000835260ff7f4910fdfa16fed3260ed0e7147f7cc6da11a60208b5b9406d12a635614ffd914354166000146119bd57505050506102039150612ced565b8492939416906040516352d1902d60e01b81528581600481865afa60009181611b4b575b50611a425760405162461bcd60e51b815260048101879052602e60248201527f45524331393637557067726164653a206e657720696d706c656d656e7461746960448201526d6f6e206973206e6f74205555505360901b6064820152608490fd5b94939403611af457611a5382612ced565b7fbc7cd75a20ee27fd9adebab32041f755214dbc6bffa90cc0225b39da2e5c2d3b600080a2825115801590611aec575b611a8957005b6000806102039560405195611a9d876127db565b602787527f416464726573733a206c6f772d6c6576656c2064656c65676174652063616c6c86880152660819985a5b195960ca1b60408801525190845af4903d1561142e573d6114118161291f565b506000611a83565b60405162461bcd60e51b815260048101849052602960248201527f45524331393637557067726164653a20756e737570706f727465642070726f786044820152681a58589b195555525160ba1b6064820152608490fd5b9091508681813d8311611b73575b611b6381836127f7565b810103126101c5575190886119e1565b503d611b59565b346101c55760603660031901126101c55767ffffffffffffffff6004358181116101c557611bac903690600401612972565b906024358181116101c557611bc5903690600401612972565b6044359060038210156101c557835115611fc457805115611f7f573315611f3a573360005260cb60205260ff60026040600020015460a81c16611ef5576040519360a08501858110858211176116fb5760405284526020840152611c28816128ff565b6040830152336060830152600160808301523360005260cb60205260406000209180519283518381116116fb57611c5f8254612784565b601f8111611ead575b50602094601f8211600114611e4757948192939495600092611e3c575b50508160011b916000199060031b1c19161781555b6001810160208301519384519081116116fb57611cb78254612784565b601f8111611df4575b506020601f8211600114611d8a57819060029596600092611d7f575b50508160011b916000199060031b1c19161790555b0190604081015190611d02826128ff565b611d0b826128ff565b82547fffffffffffffffffffff0000000000000000000000000000000000000000000060ff75ff000000000000000000000000000000000000000000608074ffffffffffffffffffffffffffffffffffffffff00606087015160081b16950151151560a81b16941691161717179055600080f35b015190508680611cdc565b601f198216958360005260206000209660005b818110611ddc5750916002969791846001959410611dc3575b505050811b019055611cf1565b015160001960f88460031b161c19169055868080611db6565b83830151895560019098019760209384019301611d9d565b826000526020600020601f830160051c81019160208410611e32575b601f0160051c01905b818110611e265750611cc0565b60008155600101611e19565b9091508190611e10565b015190508580611c85565b601f198216958360005260206000209160005b888110611e9557508360019596979810611e7c575b505050811b018155611c9a565b015160001960f88460031b161c19169055858080611e6f565b91926020600181928685015181550194019201611e5a565b826000526020600020601f830160051c81019160208410611eeb575b601f0160051c01905b818110611edf5750611c68565b60008155600101611ed2565b9091508190611ec9565b60405162461bcd60e51b815260206004820152601a60248201527f5573657220697320616c726561647920726567697374657265640000000000006044820152606490fd5b60405162461bcd60e51b815260206004820152601660248201527f496e76616c69642077616c6c65742061646472657373000000000000000000006044820152606490fd5b60405162461bcd60e51b815260206004820152601860248201527f50617373776f72642063616e6e6f7420626520656d70747900000000000000006044820152606490fd5b60405162461bcd60e51b815260206004820152601560248201527f456d61696c2063616e6e6f7420626520656d70747900000000000000000000006044820152606490fd5b346101c55760403660031901126101c55767ffffffffffffffff6004358181116101c55761203b903690600401612972565b906024359081116101c55760209161205a612060923690600401612972565b90612eaa565b6040519015158152f35b346101c55760c03660031901126101c55760643567ffffffffffffffff81116101c55761209b903690600401612972565b60843567ffffffffffffffff81116101c5576120bb903690600401612972565b9060a43567ffffffffffffffff81116101c5576120dc903690600401612972565b913360005260cb6020526120fd60ff60026040600020015460a81c16612f2a565b3360005260cb60205261211e60ff60026040600020015416610e22816128ff565b600435156125f55761213260243542612ff4565b9160c954918260005260cc602052604060002091426004840154101561258a57838355600a8301336001600160a01b0319825416179055600435600184015580519067ffffffffffffffff82116116fb5781906121926007860154612784565b601f8111612537575b50602090601f83116001146124c5576000926124ba575b50508160011b916000199060031b1c19161760078301555b80519067ffffffffffffffff82116116fb5781906121eb6008850154612784565b601f8111612467575b50602090601f83116001146123fa576000926123ef575b50508160011b916000199060031b1c19161760088201555b835167ffffffffffffffff81116116fb576122416009830154612784565b601f81116123a8575b506020601f8211600114612334579080600d93926122c19697600092612329575b50508160011b916000199060031b1c19161760098201555b846004820155604435600e8201554260068201550160ff1981541690556122ab60c954613001565b60c9553360005260cf60205260406000206132ed565b5060c954600019810191908211612313577f91b289a829e71d811b8c69e4a24ba2d40d115d8a236e9a724cb3bb2d43cf72239160809160405191825233602083015260043560408301526060820152a1005b634e487b7160e01b600052601160045260246000fd5b01519050878061226b565b601f198216956009840160005260206000209660005b8181106123905750966001928492600d96956122c1999a10612377575b505050811b016009820155612283565b015160001960f88460031b161c19169055878080612367565b8383015189556001909801976020938401930161234a565b600983016000526020600020601f830160051c8101602084106123e8575b601f830160051c820181106123dc57505061224a565b600081556001016123c6565b50806123c6565b01519050868061220b565b600885016000908152602081209350601f198516905b81811061244f5750908460019594939210612436575b505050811b016008820155612223565b015160001960f88460031b161c19169055868080612426565b92936020600181928786015181550195019301612410565b909150600884016000526020600020601f840160051c8101602085106124b3575b90849392915b601f830160051c820181106124a45750506121f4565b6000815585945060010161248e565b5080612488565b0151905087806121b2565b9250600785016000526020600020906000935b601f198416851061251c576001945083601f19811610612503575b505050811b0160078301556121ca565b015160001960f88460031b161c191690558780806124f3565b818101518355602094850194600190930192909101906124d8565b909150600785016000526020600020601f840160051c810160208510612583575b90849392915b601f830160051c8201811061257457505061219b565b6000815585945060010161255e565b5080612558565b60405162461bcd60e51b815260206004820152602960248201527f5468652063616d706169676e206d7573742062652061206461746520696e207460448201527f68652066757475726500000000000000000000000000000000000000000000006064820152608490fd5b60405162461bcd60e51b815260206004820152602760248201527f54617267657420616d6f756e74206d757374206265206772656174657220746860448201527f616e207a65726f000000000000000000000000000000000000000000000000006064820152608490fd5b346101c55760203660031901126101c55760043560005260cc60205260406000208054600182015491600281015460038201549160048101549260058201546006830154600784016126b190612819565b6126bd60088601612819565b916126ca60098701612819565b936001600160a01b039889600a8901541699600b8901541696600d89015498600e0154996040519d8e809e81526020015260408d015260608c015260808b015260a08a015260c08901526101e08060e08a01528801612728916128bf565b87810361010089015261273a916128bf565b86810361012088015261274c916128bf565b9361014086015261016085015260ff8116612766816128ff565b61018085015260081c60ff1615156101a08401526101c08301520390f35b90600182811c921680156127b4575b602083101461279e57565b634e487b7160e01b600052602260045260246000fd5b91607f1691612793565b610200810190811067ffffffffffffffff8211176116fb57604052565b6060810190811067ffffffffffffffff8211176116fb57604052565b90601f8019910116810190811067ffffffffffffffff8211176116fb57604052565b906040519182600082549261282d84612784565b90818452600194858116908160001461289c5750600114612859575b5050612857925003836127f7565b565b9093915060005260209081600020936000915b81831061288457505061285793508201013880612849565b8554888401850152948501948794509183019161286c565b91505061285794506020925060ff191682840152151560051b8201013880612849565b919082519283825260005b8481106128eb575050826000602080949584010152601f8019910116010190565b6020818301810151848301820152016128ca565b6003111561290957565b634e487b7160e01b600052602160045260246000fd5b67ffffffffffffffff81116116fb57601f01601f191660200190565b9291926129478261291f565b9161295560405193846127f7565b8294818452818301116101c5578281602093846000960137010152565b9080601f830112156101c55781602061298d9335910161293b565b90565b600435906001600160a01b03821682036101c557565b90815180825260208080930193019160005b8281106129c6575050505090565b83516001600160a01b0316855293810193928101926001016129b8565b90815180825260208080930193019160005b828110612a03575050505090565b8351855293810193928101926001016129f5565b90815181526020820151602082015260408201516040820152606082015160608201526080820151608082015260a082015160a082015260c082015160c0820152612ad8612aa2612a8e612a7a60e08601516102008060e08801528601906128bf565b6101008087015190868303908701526128bf565b6101208086015190858303908601526128bf565b6001600160a01b0361014081818701511690850152610160908186015116908401526101808085015190848303908501526129a6565b916101a08082015190612aea826128ff565b8301526101c0808201511515908301526101e08091015191015290565b602080820190808352835180925260408301928160408460051b8301019501936000915b848310612b3b5750505050505090565b9091929394958480612b59600193603f198682030187528a51612a17565b9801930193019194939290612b2b565b6001600160a01b03603354163303612b7d57565b606460405162461bcd60e51b815260206004820152602060248201527f4f776e61626c653a2063616c6c6572206973206e6f7420746865206f776e65726044820152fd5b603354906001600160a01b0380911691826001600160a01b0319821617603355167f8be0079c531659141344cd1fd0a4f28419497f9722a3daafe3b4186f6b6457e0600080a3565b15612c1057565b60405162461bcd60e51b815260206004820152602c60248201527f46756e6374696f6e206d7573742062652063616c6c6564207468726f7567682060448201527f64656c656761746563616c6c00000000000000000000000000000000000000006064820152608490fd5b15612c8257565b60405162461bcd60e51b815260206004820152602c60248201527f46756e6374696f6e206d7573742062652063616c6c6564207468726f7567682060448201527f6163746976652070726f787900000000000000000000000000000000000000006064820152608490fd5b803b15612d30576001600160a01b037f360894a13ba1a3210667c828492db98dca3e2076cc3735a920a3ca505d382bbc91166001600160a01b0319825416179055565b60405162461bcd60e51b815260206004820152602d60248201527f455243313936373a206e657720696d706c656d656e746174696f6e206973206e60448201527f6f74206120636f6e7472616374000000000000000000000000000000000000006064820152608490fd5b91929015612dfd5750815115612daf575090565b3b15612db85790565b60405162461bcd60e51b815260206004820152601d60248201527f416464726573733a2063616c6c20746f206e6f6e2d636f6e74726163740000006044820152606490fd5b825190915015612e105750805190602001fd5b60405162461bcd60e51b815260206004820152908190612e349060248301906128bf565b0390fd5b15612e3f57565b60405162461bcd60e51b815260206004820152602b60248201527f496e697469616c697a61626c653a20636f6e7472616374206973206e6f74206960448201527f6e697469616c697a696e670000000000000000000000000000000000000000006064820152608490fd5b903360005260cb602052604060002060ff600282015460a81c169283612f07575b5082612ee2575b5050612edd57600090565b600190565b612ef0919250600101612819565b602081519101209060208151910120143880612ed2565b909250612f1383612819565b602081519101209060208151910120149138612ecb565b15612f3157565b60405162461bcd60e51b815260206004820152602360248201527f4f6e6c792076657269666965642075736572732063616e20706172746963697060448201526261746560e81b6064820152608490fd5b15612f8957565b60405162461bcd60e51b815260206004820152603c60248201527f4f6e6c79207573657273206f662074686520737065636966696564206361746560448201527f676f72792063616e20706572666f726d207468697320616374696f6e000000006064820152608490fd5b9190820180921161231357565b60001981146123135760010190565b1561301757565b60405162461bcd60e51b815260206004820152601760248201527f43616d706169676e20646f6573206e6f742065786973740000000000000000006044820152606490fd5b1561306357565b60405162461bcd60e51b815260206004820152601760248201527f43616d706169676e206973206e6f74206f6e676f696e670000000000000000006044820152606490fd5b80548210156130c05760005260206000200190600090565b634e487b7160e01b600052603260045260246000fd5b67ffffffffffffffff81116116fb5760051b60200190565b906130f8826130d6565b61310560405191826127f7565b8281528092613116601f19916130d6565b0190602036910137565b80518210156130c05760209160051b010190565b9060405191828154918282526020928383019160005283600020936000905b82821061316957505050612857925003836127f7565b85546001600160a01b031684526001958601958895509381019390910190613153565b60405190613199826127be565b816101e06000918281528260208201528260408201528260608201528260808201528260a08201528260c0820152606060e08201526060610100820152606061012082015282610140820152826101608201526060610180820152826101a0820152826101c08201520152565b90613210826130d6565b61321d60405191826127f7565b828152809261322e601f19916130d6565b019060005b82811061323f57505050565b60209061324a61318c565b82828501015201613233565b805491600092835260209260ca845260409384822054908293835b600c870180548210156132dc5781865260ce84526001600160a01b0361329a838b8920936130a8565b90549060031b1c168652835260ff88862054166132c4575b6132bd600c91613001565b9050613271565b946132bd6132d3600c92613001565b969150506132b2565b50509550509192505060011c111590565b919060018301600090828252806020526040822054156000146133695784549468010000000000000000861015613355576133328660016040969798018355826130a8565b81549060031b9087821b91600019901b1916179055549382526020522055600190565b634e487b7160e01b83526041600452602483fd5b5092505056fea164736f6c6343000812000a","opcodes":"PUSH1 0xA0 DUP1 PUSH1 0x40 MSTORE CALLVALUE PUSH2 0x31 JUMPI ADDRESS PUSH1 0x80 MSTORE PUSH2 0x337C SWAP1 DUP2 PUSH2 0x37 DUP3 CODECOPY PUSH1 0x80 MLOAD DUP2 DUP2 DUP2 PUSH2 0x1141 ADD MSTORE DUP2 DUP2 PUSH2 0x124D ADD MSTORE PUSH2 0x1905 ADD MSTORE RETURN JUMPDEST PUSH1 0x0 DUP1 REVERT INVALID PUSH1 0x80 PUSH1 0x40 MSTORE PUSH1 0x4 CALLDATASIZE LT ISZERO PUSH2 0x12 JUMPI PUSH1 0x0 DUP1 REVERT JUMPDEST PUSH1 0x0 CALLDATALOAD PUSH1 0xE0 SHR DUP1 PUSH4 0x141961BC EQ PUSH2 0x2660 JUMPI DUP1 PUSH4 0x1AD417BF EQ PUSH2 0x206A JUMPI DUP1 PUSH4 0x22CE12E5 EQ PUSH2 0x2009 JUMPI DUP1 PUSH4 0x2E17A931 EQ PUSH2 0x1B7A JUMPI DUP1 PUSH4 0x3659CFE6 EQ PUSH2 0x18DF JUMPI DUP1 PUSH4 0x42A4FDA8 EQ PUSH2 0x14C5 JUMPI DUP1 PUSH4 0x4F1EF286 EQ PUSH2 0x11FC JUMPI DUP1 PUSH4 0x52D1902D EQ PUSH2 0x1126 JUMPI DUP1 PUSH4 0x5EA01E59 EQ PUSH2 0x10EC JUMPI DUP1 PUSH4 0x67C2CBAD EQ PUSH2 0x1009 JUMPI DUP1 PUSH4 0x70DEBCF7 EQ PUSH2 0xDA6 JUMPI DUP1 PUSH4 0x715018A6 EQ PUSH2 0xD4B JUMPI DUP1 PUSH4 0x8129FC1C EQ PUSH2 0xBF6 JUMPI DUP1 PUSH4 0x8DA5CB5B EQ PUSH2 0xBCF JUMPI DUP1 PUSH4 0x8E5BAA62 EQ PUSH2 0xB51 JUMPI DUP1 PUSH4 0xA6B03633 EQ PUSH2 0xA0A JUMPI DUP1 PUSH4 0xA7247CD9 EQ PUSH2 0x63E JUMPI DUP1 PUSH4 0xA87430BA EQ PUSH2 0x59C JUMPI DUP1 PUSH4 0xB46B1EE7 EQ PUSH2 0x552 JUMPI DUP1 PUSH4 0xE27883FB EQ PUSH2 0x50F JUMPI DUP1 PUSH4 0xE6FFCAA1 EQ PUSH2 0x3EA JUMPI DUP1 PUSH4 0xEFB80183 EQ PUSH2 0x270 JUMPI DUP1 PUSH4 0xF2FDE38B EQ PUSH2 0x1CA JUMPI PUSH4 0xFFA676D1 EQ PUSH2 0x124 JUMPI PUSH1 0x0 DUP1 REVERT JUMPDEST CALLVALUE PUSH2 0x1C5 JUMPI PUSH1 0x20 DUP1 PUSH1 0x3 NOT CALLDATASIZE ADD SLT PUSH2 0x1C5 JUMPI PUSH1 0x4 CALLDATALOAD SWAP1 DUP2 PUSH1 0x0 MSTORE PUSH1 0xCC DUP2 MSTORE PUSH1 0xC PUSH1 0x40 PUSH1 0x0 KECCAK256 ADD SWAP2 DUP3 SLOAD SWAP1 PUSH2 0x157 DUP3 PUSH2 0x30EE JUMP JUMPDEST SWAP4 PUSH1 0x0 JUMPDEST DUP4 DUP2 LT PUSH2 0x179 JUMPI PUSH1 0x40 MLOAD DUP6 DUP2 MSTORE DUP1 PUSH2 0x175 DUP2 DUP9 ADD DUP10 PUSH2 0x29E3 JUMP JUMPDEST SUB SWAP1 RETURN JUMPDEST DUP1 PUSH1 0x1 PUSH1 0x1 PUSH1 0xA0 SHL SUB PUSH2 0x18F PUSH2 0x1C0 SWAP4 DUP6 PUSH2 0x30A8 JUMP JUMPDEST SWAP2 SWAP1 SLOAD DUP7 PUSH1 0x0 MSTORE PUSH1 0xCD DUP10 MSTORE PUSH1 0x40 PUSH1 0x0 KECCAK256 SWAP3 PUSH1 0x3 SHL SHR AND PUSH1 0x0 MSTORE DUP7 MSTORE PUSH1 0x40 PUSH1 0x0 KECCAK256 SLOAD PUSH2 0x1BA DUP3 DUP10 PUSH2 0x3120 JUMP JUMPDEST MSTORE PUSH2 0x3001 JUMP JUMPDEST PUSH2 0x15B JUMP JUMPDEST PUSH1 0x0 DUP1 REVERT JUMPDEST CALLVALUE PUSH2 0x1C5 JUMPI PUSH1 0x20 CALLDATASIZE PUSH1 0x3 NOT ADD SLT PUSH2 0x1C5 JUMPI PUSH2 0x1E3 PUSH2 0x2990 JUMP JUMPDEST PUSH2 0x1EB PUSH2 0x2B69 JUMP JUMPDEST PUSH1 0x1 PUSH1 0x1 PUSH1 0xA0 SHL SUB DUP2 AND ISZERO PUSH2 0x205 JUMPI PUSH2 0x203 SWAP1 PUSH2 0x2BC1 JUMP JUMPDEST STOP JUMPDEST PUSH1 0x40 MLOAD PUSH3 0x461BCD PUSH1 0xE5 SHL DUP2 MSTORE PUSH1 0x20 PUSH1 0x4 DUP3 ADD MSTORE PUSH1 0x26 PUSH1 0x24 DUP3 ADD MSTORE PUSH32 0x4F776E61626C653A206E6577206F776E657220697320746865207A65726F2061 PUSH1 0x44 DUP3 ADD MSTORE PUSH32 0x6464726573730000000000000000000000000000000000000000000000000000 PUSH1 0x64 DUP3 ADD MSTORE PUSH1 0x84 SWAP1 REVERT JUMPDEST CALLVALUE PUSH2 0x1C5 JUMPI PUSH1 0x20 DUP1 PUSH1 0x3 NOT CALLDATASIZE ADD SLT PUSH2 0x1C5 JUMPI PUSH1 0x1 PUSH1 0x1 PUSH1 0xA0 SHL SUB DUP1 PUSH2 0x293 PUSH2 0x2990 JUMP JUMPDEST AND SWAP1 DUP2 PUSH1 0x0 MSTORE PUSH1 0xCF SWAP1 DUP2 DUP5 MSTORE PUSH1 0x40 PUSH1 0x0 KECCAK256 SLOAD SWAP2 PUSH2 0x2AF DUP4 PUSH2 0x3206 JUMP JUMPDEST SWAP4 PUSH1 0x0 JUMPDEST DUP5 DUP2 LT PUSH2 0x2C8 JUMPI PUSH1 0x40 MLOAD DUP1 PUSH2 0x175 DUP9 DUP3 PUSH2 0x2B07 JUMP JUMPDEST DUP2 PUSH1 0x0 MSTORE DUP3 DUP8 MSTORE PUSH2 0x2DD DUP2 PUSH1 0x40 PUSH1 0x0 KECCAK256 PUSH2 0x30A8 JUMP JUMPDEST SWAP2 SWAP1 SLOAD PUSH1 0x3 SWAP3 DUP4 SHL SHR PUSH1 0x0 MSTORE PUSH1 0xCC DUP9 MSTORE PUSH1 0x40 PUSH1 0x0 KECCAK256 PUSH1 0xE PUSH1 0x40 MLOAD SWAP2 PUSH2 0x301 DUP4 PUSH2 0x27BE JUMP JUMPDEST DUP1 SLOAD DUP4 MSTORE PUSH1 0x1 SWAP5 DUP6 DUP3 ADD SLOAD DUP13 DUP6 ADD MSTORE PUSH1 0x2 DUP3 ADD SLOAD PUSH1 0x40 DUP6 ADD MSTORE DUP2 ADD SLOAD PUSH1 0x60 DUP5 ADD MSTORE PUSH1 0x4 DUP2 ADD SLOAD PUSH1 0x80 DUP5 ADD MSTORE PUSH1 0x5 DUP2 ADD SLOAD PUSH1 0xA0 DUP5 ADD MSTORE PUSH1 0x6 DUP2 ADD SLOAD PUSH1 0xC0 DUP5 ADD MSTORE PUSH2 0x34C PUSH1 0x7 DUP3 ADD PUSH2 0x2819 JUMP JUMPDEST PUSH1 0xE0 DUP5 ADD MSTORE PUSH1 0x8 PUSH2 0x35E DUP2 DUP4 ADD PUSH2 0x2819 JUMP JUMPDEST PUSH2 0x100 DUP6 ADD MSTORE PUSH2 0x370 PUSH1 0x9 DUP4 ADD PUSH2 0x2819 JUMP JUMPDEST PUSH2 0x120 DUP6 ADD MSTORE DUP9 PUSH1 0xA DUP4 ADD SLOAD AND PUSH2 0x140 DUP6 ADD MSTORE DUP9 PUSH1 0xB DUP4 ADD SLOAD AND PUSH2 0x160 DUP6 ADD MSTORE PUSH2 0x39C PUSH1 0xC DUP4 ADD PUSH2 0x3134 JUMP JUMPDEST PUSH2 0x180 DUP6 ADD MSTORE PUSH1 0xD DUP3 ADD SLOAD PUSH1 0xFF SWAP2 DUP3 DUP3 AND PUSH2 0x3B6 DUP2 PUSH2 0x28FF JUMP JUMPDEST PUSH2 0x1A0 DUP8 ADD MSTORE SHR AND ISZERO ISZERO PUSH2 0x1C0 DUP5 ADD MSTORE ADD SLOAD PUSH2 0x1E0 DUP3 ADD MSTORE PUSH2 0x3D8 DUP3 DUP10 PUSH2 0x3120 JUMP JUMPDEST MSTORE PUSH2 0x3E3 DUP2 DUP9 PUSH2 0x3120 JUMP JUMPDEST POP ADD PUSH2 0x2B3 JUMP JUMPDEST CALLVALUE PUSH2 0x1C5 JUMPI PUSH1 0x20 CALLDATASIZE PUSH1 0x3 NOT ADD SLT PUSH2 0x1C5 JUMPI PUSH2 0x403 PUSH2 0x318C JUMP JUMPDEST POP PUSH1 0x4 CALLDATALOAD PUSH1 0x0 MSTORE PUSH1 0xCC PUSH1 0x20 MSTORE PUSH2 0x175 PUSH1 0x40 PUSH1 0x0 KECCAK256 PUSH1 0xE PUSH1 0x40 MLOAD SWAP2 PUSH2 0x426 DUP4 PUSH2 0x27BE JUMP JUMPDEST DUP1 SLOAD DUP4 MSTORE PUSH1 0x1 DUP2 ADD SLOAD PUSH1 0x20 DUP5 ADD MSTORE PUSH1 0x2 DUP2 ADD SLOAD PUSH1 0x40 DUP5 ADD MSTORE PUSH1 0x3 DUP2 ADD SLOAD PUSH1 0x60 DUP5 ADD MSTORE PUSH1 0x4 DUP2 ADD SLOAD PUSH1 0x80 DUP5 ADD MSTORE PUSH1 0x5 DUP2 ADD SLOAD PUSH1 0xA0 DUP5 ADD MSTORE PUSH1 0x6 DUP2 ADD SLOAD PUSH1 0xC0 DUP5 ADD MSTORE PUSH2 0x472 PUSH1 0x7 DUP3 ADD PUSH2 0x2819 JUMP JUMPDEST PUSH1 0xE0 DUP5 ADD MSTORE PUSH2 0x483 PUSH1 0x8 DUP3 ADD PUSH2 0x2819 JUMP JUMPDEST PUSH2 0x100 DUP5 ADD MSTORE PUSH2 0x495 PUSH1 0x9 DUP3 ADD PUSH2 0x2819 JUMP JUMPDEST PUSH2 0x120 DUP5 ADD MSTORE PUSH1 0x1 PUSH1 0x1 PUSH1 0xA0 SHL SUB DUP1 PUSH1 0xA DUP4 ADD SLOAD AND PUSH2 0x140 DUP6 ADD MSTORE PUSH1 0xB DUP3 ADD SLOAD AND PUSH2 0x160 DUP5 ADD MSTORE PUSH2 0x4C8 PUSH1 0xC DUP3 ADD PUSH2 0x3134 JUMP JUMPDEST PUSH2 0x180 DUP5 ADD MSTORE PUSH1 0xFF PUSH1 0xD DUP3 ADD SLOAD DUP2 DUP2 AND PUSH2 0x4E1 DUP2 PUSH2 0x28FF JUMP JUMPDEST PUSH2 0x1A0 DUP7 ADD MSTORE PUSH1 0x8 SHR AND ISZERO ISZERO PUSH2 0x1C0 DUP5 ADD MSTORE ADD SLOAD PUSH2 0x1E0 DUP3 ADD MSTORE PUSH1 0x40 MLOAD SWAP2 DUP3 SWAP2 PUSH1 0x20 DUP4 MSTORE PUSH1 0x20 DUP4 ADD SWAP1 PUSH2 0x2A17 JUMP JUMPDEST CALLVALUE PUSH2 0x1C5 JUMPI PUSH1 0x20 CALLDATASIZE PUSH1 0x3 NOT ADD SLT PUSH2 0x1C5 JUMPI PUSH1 0x4 CALLDATALOAD PUSH1 0x0 MSTORE PUSH1 0xCC PUSH1 0x20 MSTORE PUSH2 0x175 PUSH2 0x53E PUSH1 0xC PUSH1 0x40 PUSH1 0x0 KECCAK256 ADD PUSH2 0x3134 JUMP JUMPDEST PUSH1 0x40 MLOAD SWAP2 DUP3 SWAP2 PUSH1 0x20 DUP4 MSTORE PUSH1 0x20 DUP4 ADD SWAP1 PUSH2 0x29A6 JUMP JUMPDEST CALLVALUE PUSH2 0x1C5 JUMPI PUSH1 0x40 CALLDATASIZE PUSH1 0x3 NOT ADD SLT PUSH2 0x1C5 JUMPI PUSH1 0x1 PUSH1 0x1 PUSH1 0xA0 SHL SUB PUSH2 0x573 PUSH2 0x2990 JUMP JUMPDEST AND PUSH1 0x0 MSTORE PUSH1 0xCF PUSH1 0x20 MSTORE PUSH1 0x20 PUSH2 0x58E PUSH1 0x24 CALLDATALOAD PUSH1 0x40 PUSH1 0x0 KECCAK256 PUSH2 0x30A8 JUMP JUMPDEST SWAP1 SLOAD PUSH1 0x40 MLOAD SWAP2 PUSH1 0x3 SHL SHR DUP2 MSTORE RETURN JUMPDEST CALLVALUE PUSH2 0x1C5 JUMPI PUSH1 0x20 CALLDATASIZE PUSH1 0x3 NOT ADD SLT PUSH2 0x1C5 JUMPI PUSH2 0x608 PUSH1 0x1 PUSH1 0x1 PUSH1 0xA0 SHL SUB DUP1 PUSH2 0x5C1 PUSH2 0x2990 JUMP JUMPDEST AND PUSH1 0x0 MSTORE PUSH1 0xCB PUSH1 0x20 MSTORE PUSH1 0x40 PUSH1 0x0 KECCAK256 PUSH1 0xFF PUSH2 0x5DA DUP3 PUSH2 0x2819 JUMP JUMPDEST SWAP3 PUSH1 0x2 PUSH2 0x5E9 PUSH1 0x1 DUP6 ADD PUSH2 0x2819 JUMP JUMPDEST SWAP4 ADD SLOAD SWAP1 PUSH2 0x616 DUP4 DUP4 AND SWAP5 PUSH1 0x40 MLOAD SWAP8 DUP9 SWAP8 PUSH1 0xA0 DUP10 MSTORE PUSH1 0xA0 DUP10 ADD SWAP1 PUSH2 0x28BF JUMP JUMPDEST SWAP1 DUP8 DUP3 SUB PUSH1 0x20 DUP10 ADD MSTORE PUSH2 0x28BF JUMP JUMPDEST SWAP4 PUSH2 0x620 DUP2 PUSH2 0x28FF JUMP JUMPDEST PUSH1 0x40 DUP7 ADD MSTORE DUP2 PUSH1 0x8 SHR AND PUSH1 0x60 DUP6 ADD MSTORE PUSH1 0xA8 SHR AND ISZERO ISZERO PUSH1 0x80 DUP4 ADD MSTORE SUB SWAP1 RETURN JUMPDEST CALLVALUE PUSH2 0x1C5 JUMPI PUSH1 0x20 DUP1 PUSH1 0x3 NOT CALLDATASIZE ADD SLT PUSH2 0x1C5 JUMPI PUSH1 0x4 CALLDATALOAD SWAP1 CALLER PUSH1 0x0 MSTORE PUSH1 0xCB DUP2 MSTORE PUSH1 0xFF SWAP2 PUSH1 0x2 SWAP1 PUSH2 0x677 DUP5 DUP4 PUSH1 0x40 PUSH1 0x0 KECCAK256 ADD SLOAD PUSH1 0xA8 SHR AND PUSH2 0x2F2A JUMP JUMPDEST PUSH2 0x684 PUSH1 0xC9 SLOAD DUP3 LT PUSH2 0x3010 JUMP JUMPDEST CALLER PUSH1 0x0 MSTORE PUSH1 0xCB DUP4 MSTORE DUP4 DUP3 PUSH1 0x40 PUSH1 0x0 KECCAK256 ADD SLOAD AND SWAP3 PUSH2 0x6A0 DUP5 PUSH2 0x28FF JUMP JUMPDEST PUSH2 0x6AD PUSH1 0x1 DUP1 SWAP6 EQ PUSH2 0x2F82 JUMP JUMPDEST DUP2 PUSH1 0x0 MSTORE PUSH1 0xCC SWAP3 DUP4 DUP3 MSTORE PUSH1 0x40 PUSH1 0x0 KECCAK256 SWAP4 PUSH1 0xD DUP6 ADD SLOAD PUSH2 0x6D7 DUP9 DUP3 AND PUSH2 0x6D1 DUP2 PUSH2 0x28FF JUMP JUMPDEST ISZERO PUSH2 0x305C JUMP JUMPDEST DUP5 PUSH1 0x0 MSTORE PUSH1 0xCD DUP5 MSTORE PUSH1 0x40 PUSH1 0x0 KECCAK256 CALLER PUSH1 0x0 MSTORE DUP5 MSTORE PUSH1 0x40 PUSH1 0x0 KECCAK256 SLOAD ISZERO PUSH2 0x9B9 JUMPI PUSH1 0x8 SHR DUP8 AND ISZERO PUSH2 0x968 JUMPI DUP4 PUSH1 0x0 MSTORE PUSH1 0xCE DUP4 MSTORE PUSH1 0x40 PUSH1 0x0 KECCAK256 CALLER PUSH1 0x0 MSTORE DUP4 MSTORE DUP7 PUSH1 0x40 PUSH1 0x0 KECCAK256 SLOAD AND PUSH2 0x8FD JUMPI DUP4 PUSH1 0x0 MSTORE PUSH1 0xCE DUP4 MSTORE PUSH1 0x40 PUSH1 0x0 KECCAK256 CALLER PUSH1 0x0 MSTORE DUP4 MSTORE PUSH2 0x779 PUSH1 0x40 PUSH1 0x0 KECCAK256 SWAP6 PUSH1 0xFF NOT SWAP7 DUP9 DUP9 DUP3 SLOAD AND OR SWAP1 SSTORE PUSH32 0xF3DC904660A0EA05ABA8DFA1E21FBC4FB2914BE2A3029DA7B0FDD3E5EEE20DDB PUSH1 0x40 DUP1 MLOAD DUP9 DUP2 MSTORE CALLER DUP9 DUP3 ADD MSTORE LOG1 PUSH2 0x3256 JUMP JUMPDEST PUSH2 0x77F JUMPI STOP JUMPDEST DUP4 PUSH1 0x0 MSTORE DUP1 DUP4 MSTORE PUSH1 0x40 PUSH1 0x0 KECCAK256 SWAP3 PUSH2 0x7A0 PUSH1 0xD DUP6 ADD SWAP9 DUP10 SLOAD AND PUSH2 0x6D1 DUP2 PUSH2 0x28FF JUMP JUMPDEST PUSH2 0x7A9 DUP5 PUSH2 0x3256 JUMP JUMPDEST ISZERO PUSH2 0x889 JUMPI PUSH1 0x0 SWAP4 PUSH1 0xC ADD DUP8 JUMPDEST PUSH2 0x7CC JUMPI JUMPDEST POP POP POP POP POP POP DUP3 SLOAD AND OR SWAP1 SSTORE PUSH1 0x0 DUP1 RETURN JUMPDEST DUP1 SLOAD DUP6 LT ISZERO PUSH2 0x884 JUMPI DUP5 PUSH1 0x0 MSTORE DUP3 DUP3 MSTORE PUSH1 0x40 PUSH1 0x0 KECCAK256 SWAP5 DUP5 PUSH1 0x1 PUSH1 0x1 PUSH1 0xA0 SHL SUB PUSH1 0xB DUP9 ADD SLOAD AND SWAP7 ADD SLOAD SWAP1 PUSH1 0x0 DUP3 DUP9 DUP2 ISZERO PUSH2 0x87A JUMPI JUMPDEST PUSH1 0x0 SWAP3 DUP4 SWAP3 DUP4 SWAP3 DUP4 SWAP3 CALL ISZERO PUSH2 0x86E JUMPI PUSH32 0x6E3C6096795C8298A218B2CFB8BDE42726FF7C9A3D27B4D3BA41AB7F74FEB5FB PUSH2 0x868 SWAP3 DUP12 SWAP9 PUSH2 0x860 PUSH1 0x40 MLOAD SWAP3 DUP4 SWAP3 DUP14 DUP5 PUSH1 0x1 PUSH1 0x1 PUSH1 0xA0 SHL SUB PUSH1 0x40 SWAP3 SWAP6 SWAP5 SWAP4 PUSH1 0x60 DUP4 ADD SWAP7 DUP4 MSTORE AND PUSH1 0x20 DUP3 ADD MSTORE ADD MSTORE JUMP JUMPDEST SUB SWAP1 LOG1 PUSH2 0x3001 JUMP JUMPDEST SWAP5 PUSH2 0x7B6 JUMP JUMPDEST PUSH1 0x40 MLOAD RETURNDATASIZE PUSH1 0x0 DUP3 RETURNDATACOPY RETURNDATASIZE SWAP1 REVERT JUMPDEST PUSH2 0x8FC SWAP3 POP PUSH2 0x800 JUMP JUMPDEST PUSH2 0x7BB JUMP JUMPDEST PUSH1 0xA4 SWAP1 PUSH1 0x40 MLOAD SWAP1 PUSH3 0x461BCD PUSH1 0xE5 SHL DUP3 MSTORE PUSH1 0x4 DUP3 ADD MSTORE PUSH1 0x41 PUSH1 0x24 DUP3 ADD MSTORE PUSH32 0x5265717565737420686173206E6F74206265656E20617070726F766564206279 PUSH1 0x44 DUP3 ADD MSTORE PUSH32 0x20746865207265717569726564206E756D626572206F6620696E766573746F72 PUSH1 0x64 DUP3 ADD MSTORE PUSH1 0x73 PUSH1 0xF8 SHL PUSH1 0x84 DUP3 ADD MSTORE REVERT JUMPDEST PUSH1 0x40 MLOAD PUSH3 0x461BCD PUSH1 0xE5 SHL DUP2 MSTORE PUSH1 0x4 DUP2 ADD DUP5 SWAP1 MSTORE PUSH1 0x29 PUSH1 0x24 DUP3 ADD MSTORE PUSH32 0x496E766573746F722068617320616C726561647920617070726F766564207468 PUSH1 0x44 DUP3 ADD MSTORE PUSH32 0x6520726571756573740000000000000000000000000000000000000000000000 PUSH1 0x64 DUP3 ADD MSTORE PUSH1 0x84 SWAP1 REVERT JUMPDEST PUSH1 0x40 MLOAD PUSH3 0x461BCD PUSH1 0xE5 SHL DUP2 MSTORE PUSH1 0x4 DUP2 ADD DUP5 SWAP1 MSTORE PUSH1 0x23 PUSH1 0x24 DUP3 ADD MSTORE PUSH32 0x4E6F20726571756573742065786973747320666F7220746869732063616D7061 PUSH1 0x44 DUP3 ADD MSTORE PUSH3 0x34B3B7 PUSH1 0xE9 SHL PUSH1 0x64 DUP3 ADD MSTORE PUSH1 0x84 SWAP1 REVERT JUMPDEST PUSH1 0x40 MLOAD PUSH3 0x461BCD PUSH1 0xE5 SHL DUP2 MSTORE PUSH1 0x4 DUP2 ADD DUP6 SWAP1 MSTORE PUSH1 0x24 DUP1 DUP3 ADD MSTORE PUSH32 0x4F6E6C7920696E766573746F72732063616E20617070726F7665206120726571 PUSH1 0x44 DUP3 ADD MSTORE PUSH4 0x1D595CDD PUSH1 0xE2 SHL PUSH1 0x64 DUP3 ADD MSTORE PUSH1 0x84 SWAP1 REVERT JUMPDEST CALLVALUE PUSH2 0x1C5 JUMPI PUSH1 0x0 CALLDATASIZE PUSH1 0x3 NOT ADD SLT PUSH2 0x1C5 JUMPI PUSH1 0xC9 SLOAD PUSH2 0xA27 DUP2 PUSH2 0x3206 JUMP JUMPDEST SWAP1 PUSH1 0x0 JUMPDEST DUP2 DUP2 LT PUSH2 0xA40 JUMPI PUSH1 0x40 MLOAD DUP1 PUSH2 0x175 DUP6 DUP3 PUSH2 0x2B07 JUMP JUMPDEST DUP1 PUSH1 0x0 MSTORE PUSH1 0x20 SWAP1 PUSH1 0xCC DUP3 MSTORE PUSH1 0x40 PUSH1 0x0 KECCAK256 PUSH1 0xE PUSH1 0x40 MLOAD SWAP2 PUSH2 0xA5F DUP4 PUSH2 0x27BE JUMP JUMPDEST DUP1 SLOAD DUP4 MSTORE PUSH1 0x1 SWAP5 DUP6 DUP3 ADD SLOAD SWAP1 DUP5 ADD MSTORE PUSH1 0x2 DUP2 ADD SLOAD PUSH1 0x40 DUP5 ADD MSTORE PUSH1 0x3 DUP2 ADD SLOAD PUSH1 0x60 DUP5 ADD MSTORE PUSH1 0x4 DUP2 ADD SLOAD PUSH1 0x80 DUP5 ADD MSTORE PUSH1 0x5 DUP2 ADD SLOAD PUSH1 0xA0 DUP5 ADD MSTORE PUSH1 0x6 DUP2 ADD SLOAD PUSH1 0xC0 DUP5 ADD MSTORE PUSH2 0xAAC PUSH1 0x7 DUP3 ADD PUSH2 0x2819 JUMP JUMPDEST PUSH1 0xE0 DUP5 ADD MSTORE PUSH1 0x8 PUSH2 0xABE DUP2 DUP4 ADD PUSH2 0x2819 JUMP JUMPDEST PUSH2 0x100 DUP6 ADD MSTORE PUSH2 0xAD0 PUSH1 0x9 DUP4 ADD PUSH2 0x2819 JUMP JUMPDEST PUSH2 0x120 DUP6 ADD MSTORE PUSH1 0x1 PUSH1 0x1 PUSH1 0xA0 SHL SUB DUP1 PUSH1 0xA DUP5 ADD SLOAD AND PUSH2 0x140 DUP7 ADD MSTORE PUSH1 0xB DUP4 ADD SLOAD AND PUSH2 0x160 DUP6 ADD MSTORE PUSH2 0xB03 PUSH1 0xC DUP4 ADD PUSH2 0x3134 JUMP JUMPDEST PUSH2 0x180 DUP6 ADD MSTORE PUSH1 0xD DUP3 ADD SLOAD PUSH1 0xFF SWAP2 DUP3 DUP3 AND PUSH2 0xB1D DUP2 PUSH2 0x28FF JUMP JUMPDEST PUSH2 0x1A0 DUP8 ADD MSTORE SHR AND ISZERO ISZERO PUSH2 0x1C0 DUP5 ADD MSTORE ADD SLOAD PUSH2 0x1E0 DUP3 ADD MSTORE PUSH2 0xB3F DUP3 DUP7 PUSH2 0x3120 JUMP JUMPDEST MSTORE PUSH2 0xB4A DUP2 DUP6 PUSH2 0x3120 JUMP JUMPDEST POP ADD PUSH2 0xA2B JUMP JUMPDEST CALLVALUE PUSH2 0x1C5 JUMPI PUSH1 0x20 DUP1 PUSH1 0x3 NOT CALLDATASIZE ADD SLT PUSH2 0x1C5 JUMPI PUSH2 0xB6B PUSH2 0x2990 JUMP JUMPDEST PUSH1 0xC9 SLOAD PUSH1 0x0 SWAP2 PUSH1 0x1 PUSH1 0x1 PUSH1 0xA0 SHL SUB AND DUP3 JUMPDEST DUP3 DUP2 LT PUSH2 0xB8E JUMPI POP POP POP PUSH1 0x40 MLOAD SWAP1 DUP2 MSTORE RETURN JUMPDEST DUP1 PUSH1 0x0 MSTORE PUSH1 0xCD DUP6 MSTORE PUSH1 0x40 PUSH1 0x0 KECCAK256 DUP3 PUSH1 0x0 MSTORE DUP6 MSTORE PUSH1 0x40 PUSH1 0x0 KECCAK256 SLOAD PUSH2 0xBBA JUMPI JUMPDEST PUSH2 0xBB5 SWAP1 PUSH2 0x3001 JUMP JUMPDEST PUSH2 0xB7C JUMP JUMPDEST SWAP3 PUSH2 0xBC7 PUSH2 0xBB5 SWAP2 PUSH2 0x3001 JUMP JUMPDEST SWAP4 SWAP1 POP PUSH2 0xBAC JUMP JUMPDEST CALLVALUE PUSH2 0x1C5 JUMPI PUSH1 0x0 CALLDATASIZE PUSH1 0x3 NOT ADD SLT PUSH2 0x1C5 JUMPI PUSH1 0x20 PUSH1 0x1 PUSH1 0x1 PUSH1 0xA0 SHL SUB PUSH1 0x33 SLOAD AND PUSH1 0x40 MLOAD SWAP1 DUP2 MSTORE RETURN JUMPDEST CALLVALUE PUSH2 0x1C5 JUMPI PUSH1 0x0 CALLDATASIZE PUSH1 0x3 NOT ADD SLT PUSH2 0x1C5 JUMPI PUSH1 0x0 SLOAD PUSH1 0xFF DUP2 PUSH1 0x8 SHR AND ISZERO SWAP1 DUP2 DUP1 SWAP3 PUSH2 0xD3E JUMPI JUMPDEST DUP1 ISZERO PUSH2 0xD27 JUMPI JUMPDEST ISZERO PUSH2 0xCBC JUMPI PUSH1 0xFF NOT DUP2 AND PUSH1 0x1 OR PUSH1 0x0 SSTORE DUP2 PUSH2 0xCAA JUMPI JUMPDEST POP PUSH2 0xC53 PUSH1 0xFF PUSH1 0x0 SLOAD PUSH1 0x8 SHR AND PUSH2 0xC4E DUP2 PUSH2 0x2E38 JUMP JUMPDEST PUSH2 0x2E38 JUMP JUMPDEST PUSH2 0xC5C CALLER PUSH2 0x2BC1 JUMP JUMPDEST PUSH1 0x0 SLOAD SWAP1 PUSH2 0xC6F PUSH1 0xFF DUP4 PUSH1 0x8 SHR AND PUSH2 0x2E38 JUMP JUMPDEST PUSH2 0xC75 JUMPI STOP JUMPDEST PUSH2 0xFF00 NOT AND PUSH1 0x0 SSTORE PUSH32 0x7F26B83FF96E1F2B6A682F133852F6798A09C465DA95921460CEFB3847402498 PUSH1 0x20 PUSH1 0x40 MLOAD PUSH1 0x1 DUP2 MSTORE LOG1 STOP JUMPDEST PUSH2 0xFFFF NOT AND PUSH2 0x101 OR PUSH1 0x0 SSTORE DUP2 PUSH2 0xC38 JUMP JUMPDEST PUSH1 0x40 MLOAD PUSH3 0x461BCD PUSH1 0xE5 SHL DUP2 MSTORE PUSH1 0x20 PUSH1 0x4 DUP3 ADD MSTORE PUSH1 0x2E PUSH1 0x24 DUP3 ADD MSTORE PUSH32 0x496E697469616C697A61626C653A20636F6E747261637420697320616C726561 PUSH1 0x44 DUP3 ADD MSTORE PUSH32 0x647920696E697469616C697A6564000000000000000000000000000000000000 PUSH1 0x64 DUP3 ADD MSTORE PUSH1 0x84 SWAP1 REVERT JUMPDEST POP ADDRESS EXTCODESIZE ISZERO DUP1 ISZERO PUSH2 0xC22 JUMPI POP PUSH1 0x1 PUSH1 0xFF DUP3 AND EQ PUSH2 0xC22 JUMP JUMPDEST POP PUSH1 0x1 PUSH1 0xFF DUP3 AND LT PUSH2 0xC1B JUMP JUMPDEST CALLVALUE PUSH2 0x1C5 JUMPI PUSH1 0x0 CALLDATASIZE PUSH1 0x3 NOT ADD SLT PUSH2 0x1C5 JUMPI PUSH2 0xD64 PUSH2 0x2B69 JUMP JUMPDEST PUSH1 0x0 PUSH1 0x1 PUSH1 0x1 PUSH1 0xA0 SHL SUB PUSH1 0x33 SLOAD PUSH1 0x1 PUSH1 0x1 PUSH1 0xA0 SHL SUB NOT DUP2 AND PUSH1 0x33 SSTORE AND PUSH32 0x8BE0079C531659141344CD1FD0A4F28419497F9722A3DAAFE3B4186F6B6457E0 DUP3 DUP1 LOG3 STOP JUMPDEST CALLVALUE PUSH2 0x1C5 JUMPI PUSH1 0x60 CALLDATASIZE PUSH1 0x3 NOT ADD SLT PUSH2 0x1C5 JUMPI PUSH1 0x1 PUSH1 0x1 PUSH1 0xA0 SHL SUB PUSH1 0x4 CALLDATALOAD PUSH1 0x24 CALLDATALOAD PUSH1 0x44 CALLDATALOAD DUP4 DUP2 AND SWAP1 DUP2 SWAP1 SUB PUSH2 0x1C5 JUMPI CALLER PUSH1 0x0 MSTORE PUSH1 0x20 SWAP4 PUSH1 0xCB DUP6 MSTORE PUSH2 0xDF5 PUSH1 0xFF PUSH1 0x2 PUSH1 0x40 PUSH1 0x0 KECCAK256 ADD SLOAD PUSH1 0xA8 SHR AND PUSH2 0x2F2A JUMP JUMPDEST PUSH2 0xE02 PUSH1 0xC9 SLOAD DUP6 LT PUSH2 0x3010 JUMP JUMPDEST CALLER PUSH1 0x0 MSTORE PUSH1 0xCB DUP6 MSTORE PUSH2 0xE28 PUSH1 0xFF PUSH1 0x2 PUSH1 0x40 PUSH1 0x0 KECCAK256 ADD SLOAD AND PUSH2 0xE22 DUP2 PUSH2 0x28FF JUMP JUMPDEST ISZERO PUSH2 0x2F82 JUMP JUMPDEST DUP4 PUSH1 0x0 MSTORE PUSH1 0xCC DUP6 MSTORE PUSH1 0x40 PUSH1 0x0 KECCAK256 SWAP1 PUSH1 0xD DUP3 ADD SWAP1 DUP2 SLOAD SWAP1 PUSH2 0xE4E PUSH1 0xFF DUP4 AND PUSH2 0x6D1 DUP2 PUSH2 0x28FF JUMP JUMPDEST CALLER SWAP1 PUSH1 0xA DUP6 ADD SLOAD AND SUB PUSH2 0xF9E JUMPI PUSH1 0xFF DUP2 PUSH1 0x8 SHR AND PUSH2 0xF33 JUMPI PUSH1 0x2 DUP4 ADD SLOAD DUP6 GT PUSH2 0xEC8 JUMPI PUSH1 0x3 DUP4 ADD DUP6 SWAP1 SSTORE PUSH2 0xFF00 NOT AND PUSH2 0x100 OR SWAP1 SSTORE PUSH1 0xB ADD DUP1 SLOAD PUSH1 0x1 PUSH1 0x1 PUSH1 0xA0 SHL SUB NOT AND SWAP1 SWAP2 OR SWAP1 SSTORE PUSH1 0x40 DUP1 MLOAD SWAP3 DUP4 MSTORE SWAP3 DUP3 ADD MSTORE PUSH32 0x99F063607B2D9F794EB8985DAF4A0D3224E73B48E43228A183329E415DFF077E SWAP2 SWAP1 LOG1 STOP JUMPDEST PUSH1 0x40 MLOAD PUSH3 0x461BCD PUSH1 0xE5 SHL DUP2 MSTORE PUSH1 0x4 DUP2 ADD DUP9 SWAP1 MSTORE PUSH1 0x3E PUSH1 0x24 DUP3 ADD MSTORE PUSH32 0x5265717565737420616D6F756E74206D757374206265206C657373207468616E PUSH1 0x44 DUP3 ADD MSTORE PUSH32 0x206F7220657175616C20746F207468652072616973656420616D6F756E740000 PUSH1 0x64 DUP3 ADD MSTORE PUSH1 0x84 SWAP1 REVERT JUMPDEST PUSH1 0x40 MLOAD PUSH3 0x461BCD PUSH1 0xE5 SHL DUP2 MSTORE PUSH1 0x4 DUP2 ADD DUP9 SWAP1 MSTORE PUSH1 0x34 PUSH1 0x24 DUP3 ADD MSTORE PUSH32 0x4120726571756573742068617320616C7265616479206265656E206372656174 PUSH1 0x44 DUP3 ADD MSTORE PUSH32 0x656420666F7220746869732063616D706169676E000000000000000000000000 PUSH1 0x64 DUP3 ADD MSTORE PUSH1 0x84 SWAP1 REVERT JUMPDEST PUSH1 0x40 MLOAD PUSH3 0x461BCD PUSH1 0xE5 SHL DUP2 MSTORE PUSH1 0x4 DUP2 ADD DUP9 SWAP1 MSTORE PUSH1 0x2A PUSH1 0x24 DUP3 ADD MSTORE PUSH32 0x4F6E6C792074686520656E7472657072656E6575722063616E20637265617465 PUSH1 0x44 DUP3 ADD MSTORE PUSH32 0x2061207265717565737400000000000000000000000000000000000000000000 PUSH1 0x64 DUP3 ADD MSTORE PUSH1 0x84 SWAP1 REVERT JUMPDEST CALLVALUE PUSH2 0x1C5 JUMPI PUSH1 0x20 DUP1 PUSH1 0x3 NOT CALLDATASIZE ADD SLT PUSH2 0x1C5 JUMPI PUSH1 0x4 CALLDATALOAD DUP1 PUSH1 0x0 MSTORE PUSH1 0xCC DUP3 MSTORE PUSH1 0xC PUSH1 0x40 PUSH1 0x0 KECCAK256 ADD DUP1 SLOAD PUSH2 0x1039 DUP2 PUSH2 0x30D6 JUMP JUMPDEST SWAP3 PUSH2 0x1047 PUSH1 0x40 MLOAD SWAP5 DUP6 PUSH2 0x27F7 JUMP JUMPDEST DUP2 DUP5 MSTORE PUSH1 0x1F NOT PUSH2 0x1056 DUP4 PUSH2 0x30D6 JUMP JUMPDEST ADD CALLDATASIZE DUP7 DUP7 ADD CALLDATACOPY PUSH2 0x1065 DUP3 PUSH2 0x30EE JUMP JUMPDEST SWAP3 PUSH1 0x0 JUMPDEST DUP4 DUP2 LT PUSH2 0x109A JUMPI PUSH2 0x108D DUP7 PUSH2 0x175 DUP10 DUP9 PUSH1 0x40 MLOAD SWAP5 DUP6 SWAP5 PUSH1 0x40 DUP7 MSTORE PUSH1 0x40 DUP7 ADD SWAP1 PUSH2 0x29A6 JUMP JUMPDEST SWAP2 DUP5 DUP4 SUB SWAP1 DUP6 ADD MSTORE PUSH2 0x29E3 JUMP JUMPDEST DUP1 PUSH1 0x1 PUSH1 0x1 PUSH1 0xA0 SHL SUB PUSH2 0x10B0 PUSH2 0x10E7 SWAP4 DUP6 PUSH2 0x30A8 JUMP JUMPDEST SWAP1 SLOAD SWAP1 PUSH1 0x3 SHL SHR AND DUP1 PUSH2 0x10C3 DUP4 DUP11 PUSH2 0x3120 JUMP JUMPDEST MSTORE DUP5 PUSH1 0x0 MSTORE PUSH1 0xCD DUP10 MSTORE PUSH1 0x40 PUSH1 0x0 KECCAK256 SWAP1 PUSH1 0x0 MSTORE DUP9 MSTORE PUSH1 0x40 PUSH1 0x0 KECCAK256 SLOAD PUSH2 0x1BA DUP3 DUP9 PUSH2 0x3120 JUMP JUMPDEST PUSH2 0x1069 JUMP JUMPDEST CALLVALUE PUSH2 0x1C5 JUMPI PUSH1 0x20 CALLDATASIZE PUSH1 0x3 NOT ADD SLT PUSH2 0x1C5 JUMPI PUSH1 0x1 PUSH1 0x1 PUSH1 0xA0 SHL SUB PUSH2 0x110D PUSH2 0x2990 JUMP JUMPDEST AND PUSH1 0x0 MSTORE PUSH1 0xCF PUSH1 0x20 MSTORE PUSH1 0x20 PUSH1 0x40 PUSH1 0x0 KECCAK256 SLOAD PUSH1 0x40 MLOAD SWAP1 DUP2 MSTORE RETURN JUMPDEST CALLVALUE PUSH2 0x1C5 JUMPI PUSH1 0x0 CALLDATASIZE PUSH1 0x3 NOT ADD SLT PUSH2 0x1C5 JUMPI PUSH1 0x1 PUSH1 0x1 PUSH1 0xA0 SHL SUB PUSH32 0x0 AND ADDRESS SUB PUSH2 0x1191 JUMPI PUSH1 0x20 PUSH1 0x40 MLOAD PUSH32 0x360894A13BA1A3210667C828492DB98DCA3E2076CC3735A920A3CA505D382BBC DUP2 MSTORE RETURN JUMPDEST PUSH1 0x40 MLOAD PUSH3 0x461BCD PUSH1 0xE5 SHL DUP2 MSTORE PUSH1 0x20 PUSH1 0x4 DUP3 ADD MSTORE PUSH1 0x38 PUSH1 0x24 DUP3 ADD MSTORE PUSH32 0x555550535570677261646561626C653A206D757374206E6F742062652063616C PUSH1 0x44 DUP3 ADD MSTORE PUSH32 0x6C6564207468726F7567682064656C656761746563616C6C0000000000000000 PUSH1 0x64 DUP3 ADD MSTORE PUSH1 0x84 SWAP1 REVERT JUMPDEST PUSH1 0x40 CALLDATASIZE PUSH1 0x3 NOT ADD SLT PUSH2 0x1C5 JUMPI PUSH2 0x1210 PUSH2 0x2990 JUMP JUMPDEST PUSH1 0x24 CALLDATALOAD PUSH8 0xFFFFFFFFFFFFFFFF DUP2 GT PUSH2 0x1C5 JUMPI CALLDATASIZE PUSH1 0x23 DUP3 ADD SLT ISZERO PUSH2 0x1C5 JUMPI PUSH2 0x1241 SWAP1 CALLDATASIZE SWAP1 PUSH1 0x24 DUP2 PUSH1 0x4 ADD CALLDATALOAD SWAP2 ADD PUSH2 0x293B JUMP JUMPDEST PUSH1 0x1 PUSH1 0x1 PUSH1 0xA0 SHL SUB SWAP1 DUP2 PUSH32 0x0 AND SWAP2 PUSH2 0x127A DUP4 ADDRESS EQ ISZERO PUSH2 0x2C09 JUMP JUMPDEST PUSH2 0x12A9 PUSH32 0x360894A13BA1A3210667C828492DB98DCA3E2076CC3735A920A3CA505D382BBC SWAP4 DUP3 DUP6 SLOAD AND EQ PUSH2 0x2C7B JUMP JUMPDEST PUSH32 0x4910FDFA16FED3260ED0E7147F7CC6DA11A60208B5B9406D12A635614FFD9143 SLOAD PUSH1 0xFF AND ISZERO PUSH2 0x12DF JUMPI POP POP POP PUSH2 0x203 SWAP1 PUSH2 0x2CED JUMP JUMPDEST DUP4 AND PUSH1 0x40 MLOAD SWAP3 PUSH4 0x52D1902D PUSH1 0xE0 SHL DUP5 MSTORE PUSH1 0x20 SWAP4 DUP5 DUP2 PUSH1 0x4 DUP2 DUP7 GAS STATICCALL PUSH1 0x0 SWAP2 DUP2 PUSH2 0x1496 JUMPI JUMPDEST POP PUSH2 0x1364 JUMPI PUSH1 0x40 MLOAD PUSH3 0x461BCD PUSH1 0xE5 SHL DUP2 MSTORE PUSH1 0x4 DUP2 ADD DUP7 SWAP1 MSTORE PUSH1 0x2E PUSH1 0x24 DUP3 ADD MSTORE PUSH32 0x45524331393637557067726164653A206E657720696D706C656D656E74617469 PUSH1 0x44 DUP3 ADD MSTORE PUSH14 0x6F6E206973206E6F742055555053 PUSH1 0x90 SHL PUSH1 0x64 DUP3 ADD MSTORE PUSH1 0x84 SWAP1 REVERT JUMPDEST SWAP4 SWAP3 SWAP4 SUB PUSH2 0x143F JUMPI PUSH2 0x1375 DUP5 PUSH2 0x2CED JUMP JUMPDEST PUSH32 0xBC7CD75A20EE27FD9ADEBAB32041F755214DBC6BFFA90CC0225B39DA2E5C2D3B PUSH1 0x0 DUP1 LOG2 DUP2 MLOAD ISZERO DUP1 ISZERO SWAP1 PUSH2 0x1437 JUMPI JUMPDEST PUSH2 0x13AB JUMPI STOP JUMPDEST PUSH2 0x203 SWAP3 PUSH1 0x0 DUP1 PUSH1 0x40 MLOAD SWAP5 PUSH2 0x13BF DUP7 PUSH2 0x27DB JUMP JUMPDEST PUSH1 0x27 DUP7 MSTORE PUSH32 0x416464726573733A206C6F772D6C6576656C2064656C65676174652063616C6C DUP6 DUP8 ADD MSTORE PUSH7 0x819985A5B1959 PUSH1 0xCA SHL PUSH1 0x40 DUP8 ADD MSTORE DUP5 DUP2 MLOAD SWAP2 ADD DUP5 GAS DELEGATECALL SWAP1 RETURNDATASIZE ISZERO PUSH2 0x142E JUMPI RETURNDATASIZE PUSH2 0x1411 DUP2 PUSH2 0x291F JUMP JUMPDEST SWAP1 PUSH2 0x141F PUSH1 0x40 MLOAD SWAP3 DUP4 PUSH2 0x27F7 JUMP JUMPDEST DUP2 MSTORE PUSH1 0x0 DUP2 SWAP5 RETURNDATASIZE SWAP3 ADD RETURNDATACOPY PUSH2 0x2D9B JUMP JUMPDEST PUSH1 0x60 SWAP3 POP PUSH2 0x2D9B JUMP JUMPDEST POP PUSH1 0x1 PUSH2 0x13A5 JUMP JUMPDEST PUSH1 0x40 MLOAD PUSH3 0x461BCD PUSH1 0xE5 SHL DUP2 MSTORE PUSH1 0x4 DUP2 ADD DUP4 SWAP1 MSTORE PUSH1 0x29 PUSH1 0x24 DUP3 ADD MSTORE PUSH32 0x45524331393637557067726164653A20756E737570706F727465642070726F78 PUSH1 0x44 DUP3 ADD MSTORE PUSH9 0x1A58589B1955555251 PUSH1 0xBA SHL PUSH1 0x64 DUP3 ADD MSTORE PUSH1 0x84 SWAP1 REVERT JUMPDEST SWAP1 SWAP2 POP DUP6 DUP2 DUP2 RETURNDATASIZE DUP4 GT PUSH2 0x14BE JUMPI JUMPDEST PUSH2 0x14AE DUP2 DUP4 PUSH2 0x27F7 JUMP JUMPDEST DUP2 ADD SUB SLT PUSH2 0x1C5 JUMPI MLOAD SWAP1 DUP8 PUSH2 0x1303 JUMP JUMPDEST POP RETURNDATASIZE PUSH2 0x14A4 JUMP JUMPDEST PUSH1 0x20 DUP1 PUSH1 0x3 NOT CALLDATASIZE ADD SLT PUSH2 0x1C5 JUMPI PUSH1 0x4 CALLDATALOAD SWAP1 CALLER PUSH1 0x0 MSTORE PUSH1 0xCB DUP2 MSTORE PUSH2 0x14F5 PUSH1 0xFF PUSH1 0x2 PUSH1 0x40 PUSH1 0x0 KECCAK256 ADD SLOAD PUSH1 0xA8 SHR AND PUSH2 0x2F2A JUMP JUMPDEST PUSH2 0x1502 PUSH1 0xC9 SLOAD DUP4 LT PUSH2 0x3010 JUMP JUMPDEST CALLER PUSH1 0x0 MSTORE PUSH1 0xCB DUP2 MSTORE PUSH2 0x152A PUSH1 0x1 PUSH1 0xFF PUSH1 0x2 PUSH1 0x40 PUSH1 0x0 KECCAK256 ADD SLOAD AND PUSH2 0x1524 DUP2 PUSH2 0x28FF JUMP JUMPDEST EQ PUSH2 0x2F82 JUMP JUMPDEST DUP2 PUSH1 0x0 MSTORE PUSH1 0xCC DUP2 MSTORE PUSH1 0xFF PUSH1 0xD PUSH1 0x40 PUSH1 0x0 KECCAK256 ADD SLOAD AND PUSH2 0x1547 DUP2 PUSH2 0x28FF JUMP JUMPDEST PUSH2 0x189B JUMPI DUP2 PUSH1 0x0 MSTORE PUSH1 0xCC DUP2 MSTORE PUSH1 0x4 PUSH1 0x40 PUSH1 0x0 KECCAK256 ADD SLOAD TIMESTAMP LT ISZERO PUSH2 0x1857 JUMPI DUP2 PUSH1 0x0 MSTORE PUSH1 0xCC DUP2 MSTORE PUSH1 0x40 PUSH1 0x0 KECCAK256 PUSH2 0x1584 PUSH1 0xFF PUSH1 0xD DUP4 ADD SLOAD AND PUSH2 0x6D1 DUP2 PUSH2 0x28FF JUMP JUMPDEST PUSH1 0x4 DUP2 ADD SLOAD TIMESTAMP LT ISZERO PUSH2 0x1812 JUMPI CALLVALUE ISZERO PUSH2 0x17A7 JUMPI PUSH1 0x6 DUP2 ADD SLOAD TIMESTAMP LT PUSH2 0x1762 JUMPI PUSH1 0xE DUP2 ADD SLOAD CALLVALUE LT PUSH2 0x1711 JUMPI DUP3 PUSH1 0x0 MSTORE PUSH1 0xCD DUP3 MSTORE PUSH1 0x40 PUSH1 0x0 KECCAK256 CALLER PUSH1 0x0 MSTORE DUP3 MSTORE PUSH1 0x40 PUSH1 0x0 KECCAK256 PUSH2 0x15CF CALLVALUE DUP3 SLOAD PUSH2 0x2FF4 JUMP JUMPDEST SWAP1 SSTORE PUSH1 0x2 DUP2 ADD PUSH2 0x15E0 CALLVALUE DUP3 SLOAD PUSH2 0x2FF4 JUMP JUMPDEST SWAP1 SSTORE DUP3 PUSH1 0x0 MSTORE PUSH1 0xCA DUP3 MSTORE PUSH1 0x40 PUSH1 0x0 KECCAK256 PUSH2 0x15F9 DUP2 SLOAD PUSH2 0x3001 JUMP JUMPDEST SWAP1 SSTORE DUP3 PUSH1 0x0 MSTORE PUSH1 0xCD DUP3 MSTORE PUSH1 0x40 PUSH1 0x0 KECCAK256 CALLER PUSH1 0x0 MSTORE DUP3 MSTORE CALLVALUE PUSH1 0x40 PUSH1 0x0 KECCAK256 SLOAD EQ PUSH2 0x16B2 JUMPI JUMPDEST POP PUSH1 0x40 DUP1 MLOAD DUP4 DUP2 MSTORE CALLER PUSH1 0x20 DUP3 ADD MSTORE CALLVALUE SWAP2 DUP2 ADD SWAP2 SWAP1 SWAP2 MSTORE PUSH1 0xCC SWAP3 SWAP1 PUSH32 0xA4A91237423E0A1766A761C7CB029311D8B95D6B1B81DB1B949A70C98B4E08E SWAP1 PUSH1 0x60 SWAP1 LOG1 PUSH1 0x0 MSTORE MSTORE PUSH1 0x40 PUSH1 0x0 KECCAK256 PUSH1 0x2 DUP2 ADD SLOAD PUSH1 0x1 DUP3 ADD SLOAD GT ISZERO PUSH1 0x0 EQ PUSH2 0x1692 JUMPI PUSH1 0xD DUP2 ADD DUP1 SLOAD PUSH1 0xFF NOT AND PUSH1 0x1 OR SWAP1 SSTORE JUMPDEST PUSH1 0x5 TIMESTAMP SWAP2 ADD SSTORE PUSH1 0x0 DUP1 RETURN JUMPDEST PUSH1 0x4 DUP2 ADD SLOAD TIMESTAMP GT ISZERO PUSH2 0x1687 JUMPI PUSH1 0xD DUP2 ADD DUP1 SLOAD PUSH1 0xFF NOT AND PUSH1 0x2 OR SWAP1 SSTORE PUSH2 0x1687 JUMP JUMPDEST PUSH1 0xC ADD SWAP2 DUP3 SLOAD SWAP3 PUSH9 0x10000000000000000 DUP5 LT ISZERO PUSH2 0x16FB JUMPI DUP4 PUSH2 0x16DC SWAP2 PUSH1 0x1 PUSH1 0xCC SWAP7 ADD DUP2 SSTORE PUSH2 0x30A8 JUMP JUMPDEST DUP2 SLOAD SWAP1 PUSH1 0x3 SHL SWAP1 PUSH1 0x1 PUSH1 0x1 PUSH1 0xA0 SHL SUB CALLER DUP4 SHL SWAP3 SHL NOT AND OR SWAP1 SSTORE SWAP2 PUSH2 0x161B JUMP JUMPDEST PUSH4 0x4E487B71 PUSH1 0xE0 SHL PUSH1 0x0 MSTORE PUSH1 0x41 PUSH1 0x4 MSTORE PUSH1 0x24 PUSH1 0x0 REVERT JUMPDEST PUSH1 0x40 MLOAD PUSH3 0x461BCD PUSH1 0xE5 SHL DUP2 MSTORE PUSH1 0x4 DUP2 ADD DUP4 SWAP1 MSTORE PUSH1 0x23 PUSH1 0x24 DUP3 ADD MSTORE PUSH32 0x41206D696E756D756D20636F6E747269627574696F6E20697320726571756972 PUSH1 0x44 DUP3 ADD MSTORE PUSH3 0x32B217 PUSH1 0xE9 SHL PUSH1 0x64 DUP3 ADD MSTORE PUSH1 0x84 SWAP1 REVERT JUMPDEST PUSH1 0x40 MLOAD PUSH3 0x461BCD PUSH1 0xE5 SHL DUP2 MSTORE PUSH1 0x4 DUP2 ADD DUP4 SWAP1 MSTORE PUSH1 0x1C PUSH1 0x24 DUP3 ADD MSTORE PUSH32 0x43616D706169676E20686173206E6F7420537461727465642079657400000000 PUSH1 0x44 DUP3 ADD MSTORE PUSH1 0x64 SWAP1 REVERT JUMPDEST PUSH1 0x40 MLOAD PUSH3 0x461BCD PUSH1 0xE5 SHL DUP2 MSTORE PUSH1 0x4 DUP2 ADD DUP4 SWAP1 MSTORE PUSH1 0x29 PUSH1 0x24 DUP3 ADD MSTORE PUSH32 0x446F6E6174696F6E20616D6F756E74206D757374206265206772656174657220 PUSH1 0x44 DUP3 ADD MSTORE PUSH32 0x7468616E207A65726F0000000000000000000000000000000000000000000000 PUSH1 0x64 DUP3 ADD MSTORE PUSH1 0x84 SWAP1 REVERT JUMPDEST PUSH1 0x40 MLOAD PUSH3 0x461BCD PUSH1 0xE5 SHL DUP2 MSTORE PUSH1 0x4 DUP2 ADD DUP4 SWAP1 MSTORE PUSH1 0x19 PUSH1 0x24 DUP3 ADD MSTORE PUSH32 0x43616D706169676E20706572696F642068617320656E64656400000000000000 PUSH1 0x44 DUP3 ADD MSTORE PUSH1 0x64 SWAP1 REVERT JUMPDEST PUSH1 0x64 SWAP1 PUSH1 0x40 MLOAD SWAP1 PUSH3 0x461BCD PUSH1 0xE5 SHL DUP3 MSTORE PUSH1 0x4 DUP3 ADD MSTORE PUSH1 0x15 PUSH1 0x24 DUP3 ADD MSTORE PUSH32 0x446561646C696E65206861732070617373656420210000000000000000000000 PUSH1 0x44 DUP3 ADD MSTORE REVERT JUMPDEST PUSH1 0x64 SWAP1 PUSH1 0x40 MLOAD SWAP1 PUSH3 0x461BCD PUSH1 0xE5 SHL DUP3 MSTORE PUSH1 0x4 DUP3 ADD MSTORE PUSH1 0xD PUSH1 0x24 DUP3 ADD MSTORE PUSH32 0x496E76616C696420737461746500000000000000000000000000000000000000 PUSH1 0x44 DUP3 ADD MSTORE REVERT JUMPDEST CALLVALUE PUSH2 0x1C5 JUMPI PUSH1 0x20 DUP1 PUSH1 0x3 NOT CALLDATASIZE ADD SLT PUSH2 0x1C5 JUMPI PUSH2 0x18F9 PUSH2 0x2990 JUMP JUMPDEST PUSH1 0x1 PUSH1 0x1 PUSH1 0xA0 SHL SUB SWAP2 DUP3 PUSH32 0x0 AND PUSH2 0x1931 DUP2 ADDRESS EQ ISZERO PUSH2 0x2C09 JUMP JUMPDEST PUSH2 0x1960 PUSH32 0x360894A13BA1A3210667C828492DB98DCA3E2076CC3735A920A3CA505D382BBC SWAP2 DUP6 DUP4 SLOAD AND EQ PUSH2 0x2C7B JUMP JUMPDEST PUSH1 0x40 MLOAD SWAP1 DUP3 DUP3 ADD SWAP5 DUP3 DUP7 LT PUSH8 0xFFFFFFFFFFFFFFFF DUP8 GT OR PUSH2 0x16FB JUMPI DUP6 PUSH1 0x40 MSTORE PUSH1 0x0 DUP4 MSTORE PUSH1 0xFF PUSH32 0x4910FDFA16FED3260ED0E7147F7CC6DA11A60208B5B9406D12A635614FFD9143 SLOAD AND PUSH1 0x0 EQ PUSH2 0x19BD JUMPI POP POP POP POP PUSH2 0x203 SWAP2 POP PUSH2 0x2CED JUMP JUMPDEST DUP5 SWAP3 SWAP4 SWAP5 AND SWAP1 PUSH1 0x40 MLOAD PUSH4 0x52D1902D PUSH1 0xE0 SHL DUP2 MSTORE DUP6 DUP2 PUSH1 0x4 DUP2 DUP7 GAS STATICCALL PUSH1 0x0 SWAP2 DUP2 PUSH2 0x1B4B JUMPI JUMPDEST POP PUSH2 0x1A42 JUMPI PUSH1 0x40 MLOAD PUSH3 0x461BCD PUSH1 0xE5 SHL DUP2 MSTORE PUSH1 0x4 DUP2 ADD DUP8 SWAP1 MSTORE PUSH1 0x2E PUSH1 0x24 DUP3 ADD MSTORE PUSH32 0x45524331393637557067726164653A206E657720696D706C656D656E74617469 PUSH1 0x44 DUP3 ADD MSTORE PUSH14 0x6F6E206973206E6F742055555053 PUSH1 0x90 SHL PUSH1 0x64 DUP3 ADD MSTORE PUSH1 0x84 SWAP1 REVERT JUMPDEST SWAP5 SWAP4 SWAP5 SUB PUSH2 0x1AF4 JUMPI PUSH2 0x1A53 DUP3 PUSH2 0x2CED JUMP JUMPDEST PUSH32 0xBC7CD75A20EE27FD9ADEBAB32041F755214DBC6BFFA90CC0225B39DA2E5C2D3B PUSH1 0x0 DUP1 LOG2 DUP3 MLOAD ISZERO DUP1 ISZERO SWAP1 PUSH2 0x1AEC JUMPI JUMPDEST PUSH2 0x1A89 JUMPI STOP JUMPDEST PUSH1 0x0 DUP1 PUSH2 0x203 SWAP6 PUSH1 0x40 MLOAD SWAP6 PUSH2 0x1A9D DUP8 PUSH2 0x27DB JUMP JUMPDEST PUSH1 0x27 DUP8 MSTORE PUSH32 0x416464726573733A206C6F772D6C6576656C2064656C65676174652063616C6C DUP7 DUP9 ADD MSTORE PUSH7 0x819985A5B1959 PUSH1 0xCA SHL PUSH1 0x40 DUP9 ADD MSTORE MLOAD SWAP1 DUP5 GAS DELEGATECALL SWAP1 RETURNDATASIZE ISZERO PUSH2 0x142E JUMPI RETURNDATASIZE PUSH2 0x1411 DUP2 PUSH2 0x291F JUMP JUMPDEST POP PUSH1 0x0 PUSH2 0x1A83 JUMP JUMPDEST PUSH1 0x40 MLOAD PUSH3 0x461BCD PUSH1 0xE5 SHL DUP2 MSTORE PUSH1 0x4 DUP2 ADD DUP5 SWAP1 MSTORE PUSH1 0x29 PUSH1 0x24 DUP3 ADD MSTORE PUSH32 0x45524331393637557067726164653A20756E737570706F727465642070726F78 PUSH1 0x44 DUP3 ADD MSTORE PUSH9 0x1A58589B1955555251 PUSH1 0xBA SHL PUSH1 0x64 DUP3 ADD MSTORE PUSH1 0x84 SWAP1 REVERT JUMPDEST SWAP1 SWAP2 POP DUP7 DUP2 DUP2 RETURNDATASIZE DUP4 GT PUSH2 0x1B73 JUMPI JUMPDEST PUSH2 0x1B63 DUP2 DUP4 PUSH2 0x27F7 JUMP JUMPDEST DUP2 ADD SUB SLT PUSH2 0x1C5 JUMPI MLOAD SWAP1 DUP9 PUSH2 0x19E1 JUMP JUMPDEST POP RETURNDATASIZE PUSH2 0x1B59 JUMP JUMPDEST CALLVALUE PUSH2 0x1C5 JUMPI PUSH1 0x60 CALLDATASIZE PUSH1 0x3 NOT ADD SLT PUSH2 0x1C5 JUMPI PUSH8 0xFFFFFFFFFFFFFFFF PUSH1 0x4 CALLDATALOAD DUP2 DUP2 GT PUSH2 0x1C5 JUMPI PUSH2 0x1BAC SWAP1 CALLDATASIZE SWAP1 PUSH1 0x4 ADD PUSH2 0x2972 JUMP JUMPDEST SWAP1 PUSH1 0x24 CALLDATALOAD DUP2 DUP2 GT PUSH2 0x1C5 JUMPI PUSH2 0x1BC5 SWAP1 CALLDATASIZE SWAP1 PUSH1 0x4 ADD PUSH2 0x2972 JUMP JUMPDEST PUSH1 0x44 CALLDATALOAD SWAP1 PUSH1 0x3 DUP3 LT ISZERO PUSH2 0x1C5 JUMPI DUP4 MLOAD ISZERO PUSH2 0x1FC4 JUMPI DUP1 MLOAD ISZERO PUSH2 0x1F7F JUMPI CALLER ISZERO PUSH2 0x1F3A JUMPI CALLER PUSH1 0x0 MSTORE PUSH1 0xCB PUSH1 0x20 MSTORE PUSH1 0xFF PUSH1 0x2 PUSH1 0x40 PUSH1 0x0 KECCAK256 ADD SLOAD PUSH1 0xA8 SHR AND PUSH2 0x1EF5 JUMPI PUSH1 0x40 MLOAD SWAP4 PUSH1 0xA0 DUP6 ADD DUP6 DUP2 LT DUP6 DUP3 GT OR PUSH2 0x16FB JUMPI PUSH1 0x40 MSTORE DUP5 MSTORE PUSH1 0x20 DUP5 ADD MSTORE PUSH2 0x1C28 DUP2 PUSH2 0x28FF JUMP JUMPDEST PUSH1 0x40 DUP4 ADD MSTORE CALLER PUSH1 0x60 DUP4 ADD MSTORE PUSH1 0x1 PUSH1 0x80 DUP4 ADD MSTORE CALLER PUSH1 0x0 MSTORE PUSH1 0xCB PUSH1 0x20 MSTORE PUSH1 0x40 PUSH1 0x0 KECCAK256 SWAP2 DUP1 MLOAD SWAP3 DUP4 MLOAD DUP4 DUP2 GT PUSH2 0x16FB JUMPI PUSH2 0x1C5F DUP3 SLOAD PUSH2 0x2784 JUMP JUMPDEST PUSH1 0x1F DUP2 GT PUSH2 0x1EAD JUMPI JUMPDEST POP PUSH1 0x20 SWAP5 PUSH1 0x1F DUP3 GT PUSH1 0x1 EQ PUSH2 0x1E47 JUMPI SWAP5 DUP2 SWAP3 SWAP4 SWAP5 SWAP6 PUSH1 0x0 SWAP3 PUSH2 0x1E3C JUMPI JUMPDEST POP POP DUP2 PUSH1 0x1 SHL SWAP2 PUSH1 0x0 NOT SWAP1 PUSH1 0x3 SHL SHR NOT AND OR DUP2 SSTORE JUMPDEST PUSH1 0x1 DUP2 ADD PUSH1 0x20 DUP4 ADD MLOAD SWAP4 DUP5 MLOAD SWAP1 DUP2 GT PUSH2 0x16FB JUMPI PUSH2 0x1CB7 DUP3 SLOAD PUSH2 0x2784 JUMP JUMPDEST PUSH1 0x1F DUP2 GT PUSH2 0x1DF4 JUMPI JUMPDEST POP PUSH1 0x20 PUSH1 0x1F DUP3 GT PUSH1 0x1 EQ PUSH2 0x1D8A JUMPI DUP2 SWAP1 PUSH1 0x2 SWAP6 SWAP7 PUSH1 0x0 SWAP3 PUSH2 0x1D7F JUMPI JUMPDEST POP POP DUP2 PUSH1 0x1 SHL SWAP2 PUSH1 0x0 NOT SWAP1 PUSH1 0x3 SHL SHR NOT AND OR SWAP1 SSTORE JUMPDEST ADD SWAP1 PUSH1 0x40 DUP2 ADD MLOAD SWAP1 PUSH2 0x1D02 DUP3 PUSH2 0x28FF JUMP JUMPDEST PUSH2 0x1D0B DUP3 PUSH2 0x28FF JUMP JUMPDEST DUP3 SLOAD PUSH32 0xFFFFFFFFFFFFFFFFFFFF00000000000000000000000000000000000000000000 PUSH1 0xFF PUSH22 0xFF000000000000000000000000000000000000000000 PUSH1 0x80 PUSH21 0xFFFFFFFFFFFFFFFFFFFFFFFFFFFFFFFFFFFFFFFF00 PUSH1 0x60 DUP8 ADD MLOAD PUSH1 0x8 SHL AND SWAP6 ADD MLOAD ISZERO ISZERO PUSH1 0xA8 SHL AND SWAP5 AND SWAP2 AND OR OR OR SWAP1 SSTORE PUSH1 0x0 DUP1 RETURN JUMPDEST ADD MLOAD SWAP1 POP DUP7 DUP1 PUSH2 0x1CDC JUMP JUMPDEST PUSH1 0x1F NOT DUP3 AND SWAP6 DUP4 PUSH1 0x0 MSTORE PUSH1 0x20 PUSH1 0x0 KECCAK256 SWAP7 PUSH1 0x0 JUMPDEST DUP2 DUP2 LT PUSH2 0x1DDC JUMPI POP SWAP2 PUSH1 0x2 SWAP7 SWAP8 SWAP2 DUP5 PUSH1 0x1 SWAP6 SWAP5 LT PUSH2 0x1DC3 JUMPI JUMPDEST POP POP POP DUP2 SHL ADD SWAP1 SSTORE PUSH2 0x1CF1 JUMP JUMPDEST ADD MLOAD PUSH1 0x0 NOT PUSH1 0xF8 DUP5 PUSH1 0x3 SHL AND SHR NOT AND SWAP1 SSTORE DUP7 DUP1 DUP1 PUSH2 0x1DB6 JUMP JUMPDEST DUP4 DUP4 ADD MLOAD DUP10 SSTORE PUSH1 0x1 SWAP1 SWAP9 ADD SWAP8 PUSH1 0x20 SWAP4 DUP5 ADD SWAP4 ADD PUSH2 0x1D9D JUMP JUMPDEST DUP3 PUSH1 0x0 MSTORE PUSH1 0x20 PUSH1 0x0 KECCAK256 PUSH1 0x1F DUP4 ADD PUSH1 0x5 SHR DUP2 ADD SWAP2 PUSH1 0x20 DUP5 LT PUSH2 0x1E32 JUMPI JUMPDEST PUSH1 0x1F ADD PUSH1 0x5 SHR ADD SWAP1 JUMPDEST DUP2 DUP2 LT PUSH2 0x1E26 JUMPI POP PUSH2 0x1CC0 JUMP JUMPDEST PUSH1 0x0 DUP2 SSTORE PUSH1 0x1 ADD PUSH2 0x1E19 JUMP JUMPDEST SWAP1 SWAP2 POP DUP2 SWAP1 PUSH2 0x1E10 JUMP JUMPDEST ADD MLOAD SWAP1 POP DUP6 DUP1 PUSH2 0x1C85 JUMP JUMPDEST PUSH1 0x1F NOT DUP3 AND SWAP6 DUP4 PUSH1 0x0 MSTORE PUSH1 0x20 PUSH1 0x0 KECCAK256 SWAP2 PUSH1 0x0 JUMPDEST DUP9 DUP2 LT PUSH2 0x1E95 JUMPI POP DUP4 PUSH1 0x1 SWAP6 SWAP7 SWAP8 SWAP9 LT PUSH2 0x1E7C JUMPI JUMPDEST POP POP POP DUP2 SHL ADD DUP2 SSTORE PUSH2 0x1C9A JUMP JUMPDEST ADD MLOAD PUSH1 0x0 NOT PUSH1 0xF8 DUP5 PUSH1 0x3 SHL AND SHR NOT AND SWAP1 SSTORE DUP6 DUP1 DUP1 PUSH2 0x1E6F JUMP JUMPDEST SWAP2 SWAP3 PUSH1 0x20 PUSH1 0x1 DUP2 SWAP3 DUP7 DUP6 ADD MLOAD DUP2 SSTORE ADD SWAP5 ADD SWAP3 ADD PUSH2 0x1E5A JUMP JUMPDEST DUP3 PUSH1 0x0 MSTORE PUSH1 0x20 PUSH1 0x0 KECCAK256 PUSH1 0x1F DUP4 ADD PUSH1 0x5 SHR DUP2 ADD SWAP2 PUSH1 0x20 DUP5 LT PUSH2 0x1EEB JUMPI JUMPDEST PUSH1 0x1F ADD PUSH1 0x5 SHR ADD SWAP1 JUMPDEST DUP2 DUP2 LT PUSH2 0x1EDF JUMPI POP PUSH2 0x1C68 JUMP JUMPDEST PUSH1 0x0 DUP2 SSTORE PUSH1 0x1 ADD PUSH2 0x1ED2 JUMP JUMPDEST SWAP1 SWAP2 POP DUP2 SWAP1 PUSH2 0x1EC9 JUMP JUMPDEST PUSH1 0x40 MLOAD PUSH3 0x461BCD PUSH1 0xE5 SHL DUP2 MSTORE PUSH1 0x20 PUSH1 0x4 DUP3 ADD MSTORE PUSH1 0x1A PUSH1 0x24 DUP3 ADD MSTORE PUSH32 0x5573657220697320616C72656164792072656769737465726564000000000000 PUSH1 0x44 DUP3 ADD MSTORE PUSH1 0x64 SWAP1 REVERT JUMPDEST PUSH1 0x40 MLOAD PUSH3 0x461BCD PUSH1 0xE5 SHL DUP2 MSTORE PUSH1 0x20 PUSH1 0x4 DUP3 ADD MSTORE PUSH1 0x16 PUSH1 0x24 DUP3 ADD MSTORE PUSH32 0x496E76616C69642077616C6C6574206164647265737300000000000000000000 PUSH1 0x44 DUP3 ADD MSTORE PUSH1 0x64 SWAP1 REVERT JUMPDEST PUSH1 0x40 MLOAD PUSH3 0x461BCD PUSH1 0xE5 SHL DUP2 MSTORE PUSH1 0x20 PUSH1 0x4 DUP3 ADD MSTORE PUSH1 0x18 PUSH1 0x24 DUP3 ADD MSTORE PUSH32 0x50617373776F72642063616E6E6F7420626520656D7074790000000000000000 PUSH1 0x44 DUP3 ADD MSTORE PUSH1 0x64 SWAP1 REVERT JUMPDEST PUSH1 0x40 MLOAD PUSH3 0x461BCD PUSH1 0xE5 SHL DUP2 MSTORE PUSH1 0x20 PUSH1 0x4 DUP3 ADD MSTORE PUSH1 0x15 PUSH1 0x24 DUP3 ADD MSTORE PUSH32 0x456D61696C2063616E6E6F7420626520656D7074790000000000000000000000 PUSH1 0x44 DUP3 ADD MSTORE PUSH1 0x64 SWAP1 REVERT JUMPDEST CALLVALUE PUSH2 0x1C5 JUMPI PUSH1 0x40 CALLDATASIZE PUSH1 0x3 NOT ADD SLT PUSH2 0x1C5 JUMPI PUSH8 0xFFFFFFFFFFFFFFFF PUSH1 0x4 CALLDATALOAD DUP2 DUP2 GT PUSH2 0x1C5 JUMPI PUSH2 0x203B SWAP1 CALLDATASIZE SWAP1 PUSH1 0x4 ADD PUSH2 0x2972 JUMP JUMPDEST SWAP1 PUSH1 0x24 CALLDATALOAD SWAP1 DUP2 GT PUSH2 0x1C5 JUMPI PUSH1 0x20 SWAP2 PUSH2 0x205A PUSH2 0x2060 SWAP3 CALLDATASIZE SWAP1 PUSH1 0x4 ADD PUSH2 0x2972 JUMP JUMPDEST SWAP1 PUSH2 0x2EAA JUMP JUMPDEST PUSH1 0x40 MLOAD SWAP1 ISZERO ISZERO DUP2 MSTORE RETURN JUMPDEST CALLVALUE PUSH2 0x1C5 JUMPI PUSH1 0xC0 CALLDATASIZE PUSH1 0x3 NOT ADD SLT PUSH2 0x1C5 JUMPI PUSH1 0x64 CALLDATALOAD PUSH8 0xFFFFFFFFFFFFFFFF DUP2 GT PUSH2 0x1C5 JUMPI PUSH2 0x209B SWAP1 CALLDATASIZE SWAP1 PUSH1 0x4 ADD PUSH2 0x2972 JUMP JUMPDEST PUSH1 0x84 CALLDATALOAD PUSH8 0xFFFFFFFFFFFFFFFF DUP2 GT PUSH2 0x1C5 JUMPI PUSH2 0x20BB SWAP1 CALLDATASIZE SWAP1 PUSH1 0x4 ADD PUSH2 0x2972 JUMP JUMPDEST SWAP1 PUSH1 0xA4 CALLDATALOAD PUSH8 0xFFFFFFFFFFFFFFFF DUP2 GT PUSH2 0x1C5 JUMPI PUSH2 0x20DC SWAP1 CALLDATASIZE SWAP1 PUSH1 0x4 ADD PUSH2 0x2972 JUMP JUMPDEST SWAP2 CALLER PUSH1 0x0 MSTORE PUSH1 0xCB PUSH1 0x20 MSTORE PUSH2 0x20FD PUSH1 0xFF PUSH1 0x2 PUSH1 0x40 PUSH1 0x0 KECCAK256 ADD SLOAD PUSH1 0xA8 SHR AND PUSH2 0x2F2A JUMP JUMPDEST CALLER PUSH1 0x0 MSTORE PUSH1 0xCB PUSH1 0x20 MSTORE PUSH2 0x211E PUSH1 0xFF PUSH1 0x2 PUSH1 0x40 PUSH1 0x0 KECCAK256 ADD SLOAD AND PUSH2 0xE22 DUP2 PUSH2 0x28FF JUMP JUMPDEST PUSH1 0x4 CALLDATALOAD ISZERO PUSH2 0x25F5 JUMPI PUSH2 0x2132 PUSH1 0x24 CALLDATALOAD TIMESTAMP PUSH2 0x2FF4 JUMP JUMPDEST SWAP2 PUSH1 0xC9 SLOAD SWAP2 DUP3 PUSH1 0x0 MSTORE PUSH1 0xCC PUSH1 0x20 MSTORE PUSH1 0x40 PUSH1 0x0 KECCAK256 SWAP2 TIMESTAMP PUSH1 0x4 DUP5 ADD SLOAD LT ISZERO PUSH2 0x258A JUMPI DUP4 DUP4 SSTORE PUSH1 0xA DUP4 ADD CALLER PUSH1 0x1 PUSH1 0x1 PUSH1 0xA0 SHL SUB NOT DUP3 SLOAD AND OR SWAP1 SSTORE PUSH1 0x4 CALLDATALOAD PUSH1 0x1 DUP5 ADD SSTORE DUP1 MLOAD SWAP1 PUSH8 0xFFFFFFFFFFFFFFFF DUP3 GT PUSH2 0x16FB JUMPI DUP2 SWAP1 PUSH2 0x2192 PUSH1 0x7 DUP7 ADD SLOAD PUSH2 0x2784 JUMP JUMPDEST PUSH1 0x1F DUP2 GT PUSH2 0x2537 JUMPI JUMPDEST POP PUSH1 0x20 SWAP1 PUSH1 0x1F DUP4 GT PUSH1 0x1 EQ PUSH2 0x24C5 JUMPI PUSH1 0x0 SWAP3 PUSH2 0x24BA JUMPI JUMPDEST POP POP DUP2 PUSH1 0x1 SHL SWAP2 PUSH1 0x0 NOT SWAP1 PUSH1 0x3 SHL SHR NOT AND OR PUSH1 0x7 DUP4 ADD SSTORE JUMPDEST DUP1 MLOAD SWAP1 PUSH8 0xFFFFFFFFFFFFFFFF DUP3 GT PUSH2 0x16FB JUMPI DUP2 SWAP1 PUSH2 0x21EB PUSH1 0x8 DUP6 ADD SLOAD PUSH2 0x2784 JUMP JUMPDEST PUSH1 0x1F DUP2 GT PUSH2 0x2467 JUMPI JUMPDEST POP PUSH1 0x20 SWAP1 PUSH1 0x1F DUP4 GT PUSH1 0x1 EQ PUSH2 0x23FA JUMPI PUSH1 0x0 SWAP3 PUSH2 0x23EF JUMPI JUMPDEST POP POP DUP2 PUSH1 0x1 SHL SWAP2 PUSH1 0x0 NOT SWAP1 PUSH1 0x3 SHL SHR NOT AND OR PUSH1 0x8 DUP3 ADD SSTORE JUMPDEST DUP4 MLOAD PUSH8 0xFFFFFFFFFFFFFFFF DUP2 GT PUSH2 0x16FB JUMPI PUSH2 0x2241 PUSH1 0x9 DUP4 ADD SLOAD PUSH2 0x2784 JUMP JUMPDEST PUSH1 0x1F DUP2 GT PUSH2 0x23A8 JUMPI JUMPDEST POP PUSH1 0x20 PUSH1 0x1F DUP3 GT PUSH1 0x1 EQ PUSH2 0x2334 JUMPI SWAP1 DUP1 PUSH1 0xD SWAP4 SWAP3 PUSH2 0x22C1 SWAP7 SWAP8 PUSH1 0x0 SWAP3 PUSH2 0x2329 JUMPI JUMPDEST POP POP DUP2 PUSH1 0x1 SHL SWAP2 PUSH1 0x0 NOT SWAP1 PUSH1 0x3 SHL SHR NOT AND OR PUSH1 0x9 DUP3 ADD SSTORE JUMPDEST DUP5 PUSH1 0x4 DUP3 ADD SSTORE PUSH1 0x44 CALLDATALOAD PUSH1 0xE DUP3 ADD SSTORE TIMESTAMP PUSH1 0x6 DUP3 ADD SSTORE ADD PUSH1 0xFF NOT DUP2 SLOAD AND SWAP1 SSTORE PUSH2 0x22AB PUSH1 0xC9 SLOAD PUSH2 0x3001 JUMP JUMPDEST PUSH1 0xC9 SSTORE CALLER PUSH1 0x0 MSTORE PUSH1 0xCF PUSH1 0x20 MSTORE PUSH1 0x40 PUSH1 0x0 KECCAK256 PUSH2 0x32ED JUMP JUMPDEST POP PUSH1 0xC9 SLOAD PUSH1 0x0 NOT DUP2 ADD SWAP2 SWAP1 DUP3 GT PUSH2 0x2313 JUMPI PUSH32 0x91B289A829E71D811B8C69E4A24BA2D40D115D8A236E9A724CB3BB2D43CF7223 SWAP2 PUSH1 0x80 SWAP2 PUSH1 0x40 MLOAD SWAP2 DUP3 MSTORE CALLER PUSH1 0x20 DUP4 ADD MSTORE PUSH1 0x4 CALLDATALOAD PUSH1 0x40 DUP4 ADD MSTORE PUSH1 0x60 DUP3 ADD MSTORE LOG1 STOP JUMPDEST PUSH4 0x4E487B71 PUSH1 0xE0 SHL PUSH1 0x0 MSTORE PUSH1 0x11 PUSH1 0x4 MSTORE PUSH1 0x24 PUSH1 0x0 REVERT JUMPDEST ADD MLOAD SWAP1 POP DUP8 DUP1 PUSH2 0x226B JUMP JUMPDEST PUSH1 0x1F NOT DUP3 AND SWAP6 PUSH1 0x9 DUP5 ADD PUSH1 0x0 MSTORE PUSH1 0x20 PUSH1 0x0 KECCAK256 SWAP7 PUSH1 0x0 JUMPDEST DUP2 DUP2 LT PUSH2 0x2390 JUMPI POP SWAP7 PUSH1 0x1 SWAP3 DUP5 SWAP3 PUSH1 0xD SWAP7 SWAP6 PUSH2 0x22C1 SWAP10 SWAP11 LT PUSH2 0x2377 JUMPI JUMPDEST POP POP POP DUP2 SHL ADD PUSH1 0x9 DUP3 ADD SSTORE PUSH2 0x2283 JUMP JUMPDEST ADD MLOAD PUSH1 0x0 NOT PUSH1 0xF8 DUP5 PUSH1 0x3 SHL AND SHR NOT AND SWAP1 SSTORE DUP8 DUP1 DUP1 PUSH2 0x2367 JUMP JUMPDEST DUP4 DUP4 ADD MLOAD DUP10 SSTORE PUSH1 0x1 SWAP1 SWAP9 ADD SWAP8 PUSH1 0x20 SWAP4 DUP5 ADD SWAP4 ADD PUSH2 0x234A JUMP JUMPDEST PUSH1 0x9 DUP4 ADD PUSH1 0x0 MSTORE PUSH1 0x20 PUSH1 0x0 KECCAK256 PUSH1 0x1F DUP4 ADD PUSH1 0x5 SHR DUP2 ADD PUSH1 0x20 DUP5 LT PUSH2 0x23E8 JUMPI JUMPDEST PUSH1 0x1F DUP4 ADD PUSH1 0x5 SHR DUP3 ADD DUP2 LT PUSH2 0x23DC JUMPI POP POP PUSH2 0x224A JUMP JUMPDEST PUSH1 0x0 DUP2 SSTORE PUSH1 0x1 ADD PUSH2 0x23C6 JUMP JUMPDEST POP DUP1 PUSH2 0x23C6 JUMP JUMPDEST ADD MLOAD SWAP1 POP DUP7 DUP1 PUSH2 0x220B JUMP JUMPDEST PUSH1 0x8 DUP6 ADD PUSH1 0x0 SWAP1 DUP2 MSTORE PUSH1 0x20 DUP2 KECCAK256 SWAP4 POP PUSH1 0x1F NOT DUP6 AND SWAP1 JUMPDEST DUP2 DUP2 LT PUSH2 0x244F JUMPI POP SWAP1 DUP5 PUSH1 0x1 SWAP6 SWAP5 SWAP4 SWAP3 LT PUSH2 0x2436 JUMPI JUMPDEST POP POP POP DUP2 SHL ADD PUSH1 0x8 DUP3 ADD SSTORE PUSH2 0x2223 JUMP JUMPDEST ADD MLOAD PUSH1 0x0 NOT PUSH1 0xF8 DUP5 PUSH1 0x3 SHL AND SHR NOT AND SWAP1 SSTORE DUP7 DUP1 DUP1 PUSH2 0x2426 JUMP JUMPDEST SWAP3 SWAP4 PUSH1 0x20 PUSH1 0x1 DUP2 SWAP3 DUP8 DUP7 ADD MLOAD DUP2 SSTORE ADD SWAP6 ADD SWAP4 ADD PUSH2 0x2410 JUMP JUMPDEST SWAP1 SWAP2 POP PUSH1 0x8 DUP5 ADD PUSH1 0x0 MSTORE PUSH1 0x20 PUSH1 0x0 KECCAK256 PUSH1 0x1F DUP5 ADD PUSH1 0x5 SHR DUP2 ADD PUSH1 0x20 DUP6 LT PUSH2 0x24B3 JUMPI JUMPDEST SWAP1 DUP5 SWAP4 SWAP3 SWAP2 JUMPDEST PUSH1 0x1F DUP4 ADD PUSH1 0x5 SHR DUP3 ADD DUP2 LT PUSH2 0x24A4 JUMPI POP POP PUSH2 0x21F4 JUMP JUMPDEST PUSH1 0x0 DUP2 SSTORE DUP6 SWAP5 POP PUSH1 0x1 ADD PUSH2 0x248E JUMP JUMPDEST POP DUP1 PUSH2 0x2488 JUMP JUMPDEST ADD MLOAD SWAP1 POP DUP8 DUP1 PUSH2 0x21B2 JUMP JUMPDEST SWAP3 POP PUSH1 0x7 DUP6 ADD PUSH1 0x0 MSTORE PUSH1 0x20 PUSH1 0x0 KECCAK256 SWAP1 PUSH1 0x0 SWAP4 JUMPDEST PUSH1 0x1F NOT DUP5 AND DUP6 LT PUSH2 0x251C JUMPI PUSH1 0x1 SWAP5 POP DUP4 PUSH1 0x1F NOT DUP2 AND LT PUSH2 0x2503 JUMPI JUMPDEST POP POP POP DUP2 SHL ADD PUSH1 0x7 DUP4 ADD SSTORE PUSH2 0x21CA JUMP JUMPDEST ADD MLOAD PUSH1 0x0 NOT PUSH1 0xF8 DUP5 PUSH1 0x3 SHL AND SHR NOT AND SWAP1 SSTORE DUP8 DUP1 DUP1 PUSH2 0x24F3 JUMP JUMPDEST DUP2 DUP2 ADD MLOAD DUP4 SSTORE PUSH1 0x20 SWAP5 DUP6 ADD SWAP5 PUSH1 0x1 SWAP1 SWAP4 ADD SWAP3 SWAP1 SWAP2 ADD SWAP1 PUSH2 0x24D8 JUMP JUMPDEST SWAP1 SWAP2 POP PUSH1 0x7 DUP6 ADD PUSH1 0x0 MSTORE PUSH1 0x20 PUSH1 0x0 KECCAK256 PUSH1 0x1F DUP5 ADD PUSH1 0x5 SHR DUP2 ADD PUSH1 0x20 DUP6 LT PUSH2 0x2583 JUMPI JUMPDEST SWAP1 DUP5 SWAP4 SWAP3 SWAP2 JUMPDEST PUSH1 0x1F DUP4 ADD PUSH1 0x5 SHR DUP3 ADD DUP2 LT PUSH2 0x2574 JUMPI POP POP PUSH2 0x219B JUMP JUMPDEST PUSH1 0x0 DUP2 SSTORE DUP6 SWAP5 POP PUSH1 0x1 ADD PUSH2 0x255E JUMP JUMPDEST POP DUP1 PUSH2 0x2558 JUMP JUMPDEST PUSH1 0x40 MLOAD PUSH3 0x461BCD PUSH1 0xE5 SHL DUP2 MSTORE PUSH1 0x20 PUSH1 0x4 DUP3 ADD MSTORE PUSH1 0x29 PUSH1 0x24 DUP3 ADD MSTORE PUSH32 0x5468652063616D706169676E206D7573742062652061206461746520696E2074 PUSH1 0x44 DUP3 ADD MSTORE PUSH32 0x6865206675747572650000000000000000000000000000000000000000000000 PUSH1 0x64 DUP3 ADD MSTORE PUSH1 0x84 SWAP1 REVERT JUMPDEST PUSH1 0x40 MLOAD PUSH3 0x461BCD PUSH1 0xE5 SHL DUP2 MSTORE PUSH1 0x20 PUSH1 0x4 DUP3 ADD MSTORE PUSH1 0x27 PUSH1 0x24 DUP3 ADD MSTORE PUSH32 0x54617267657420616D6F756E74206D7573742062652067726561746572207468 PUSH1 0x44 DUP3 ADD MSTORE PUSH32 0x616E207A65726F00000000000000000000000000000000000000000000000000 PUSH1 0x64 DUP3 ADD MSTORE PUSH1 0x84 SWAP1 REVERT JUMPDEST CALLVALUE PUSH2 0x1C5 JUMPI PUSH1 0x20 CALLDATASIZE PUSH1 0x3 NOT ADD SLT PUSH2 0x1C5 JUMPI PUSH1 0x4 CALLDATALOAD PUSH1 0x0 MSTORE PUSH1 0xCC PUSH1 0x20 MSTORE PUSH1 0x40 PUSH1 0x0 KECCAK256 DUP1 SLOAD PUSH1 0x1 DUP3 ADD SLOAD SWAP2 PUSH1 0x2 DUP2 ADD SLOAD PUSH1 0x3 DUP3 ADD SLOAD SWAP2 PUSH1 0x4 DUP2 ADD SLOAD SWAP3 PUSH1 0x5 DUP3 ADD SLOAD PUSH1 0x6 DUP4 ADD SLOAD PUSH1 0x7 DUP5 ADD PUSH2 0x26B1 SWAP1 PUSH2 0x2819 JUMP JUMPDEST PUSH2 0x26BD PUSH1 0x8 DUP7 ADD PUSH2 0x2819 JUMP JUMPDEST SWAP2 PUSH2 0x26CA PUSH1 0x9 DUP8 ADD PUSH2 0x2819 JUMP JUMPDEST SWAP4 PUSH1 0x1 PUSH1 0x1 PUSH1 0xA0 SHL SUB SWAP9 DUP10 PUSH1 0xA DUP10 ADD SLOAD AND SWAP10 PUSH1 0xB DUP10 ADD SLOAD AND SWAP7 PUSH1 0xD DUP10 ADD SLOAD SWAP9 PUSH1 0xE ADD SLOAD SWAP10 PUSH1 0x40 MLOAD SWAP14 DUP15 DUP1 SWAP15 DUP2 MSTORE PUSH1 0x20 ADD MSTORE PUSH1 0x40 DUP14 ADD MSTORE PUSH1 0x60 DUP13 ADD MSTORE PUSH1 0x80 DUP12 ADD MSTORE PUSH1 0xA0 DUP11 ADD MSTORE PUSH1 0xC0 DUP10 ADD MSTORE PUSH2 0x1E0 DUP1 PUSH1 0xE0 DUP11 ADD MSTORE DUP9 ADD PUSH2 0x2728 SWAP2 PUSH2 0x28BF JUMP JUMPDEST DUP8 DUP2 SUB PUSH2 0x100 DUP10 ADD MSTORE PUSH2 0x273A SWAP2 PUSH2 0x28BF JUMP JUMPDEST DUP7 DUP2 SUB PUSH2 0x120 DUP9 ADD MSTORE PUSH2 0x274C SWAP2 PUSH2 0x28BF JUMP JUMPDEST SWAP4 PUSH2 0x140 DUP7 ADD MSTORE PUSH2 0x160 DUP6 ADD MSTORE PUSH1 0xFF DUP2 AND PUSH2 0x2766 DUP2 PUSH2 0x28FF JUMP JUMPDEST PUSH2 0x180 DUP6 ADD MSTORE PUSH1 0x8 SHR PUSH1 0xFF AND ISZERO ISZERO PUSH2 0x1A0 DUP5 ADD MSTORE PUSH2 0x1C0 DUP4 ADD MSTORE SUB SWAP1 RETURN JUMPDEST SWAP1 PUSH1 0x1 DUP3 DUP2 SHR SWAP3 AND DUP1 ISZERO PUSH2 0x27B4 JUMPI JUMPDEST PUSH1 0x20 DUP4 LT EQ PUSH2 0x279E JUMPI JUMP JUMPDEST PUSH4 0x4E487B71 PUSH1 0xE0 SHL PUSH1 0x0 MSTORE PUSH1 0x22 PUSH1 0x4 MSTORE PUSH1 0x24 PUSH1 0x0 REVERT JUMPDEST SWAP2 PUSH1 0x7F AND SWAP2 PUSH2 0x2793 JUMP JUMPDEST PUSH2 0x200 DUP2 ADD SWAP1 DUP2 LT PUSH8 0xFFFFFFFFFFFFFFFF DUP3 GT OR PUSH2 0x16FB JUMPI PUSH1 0x40 MSTORE JUMP JUMPDEST PUSH1 0x60 DUP2 ADD SWAP1 DUP2 LT PUSH8 0xFFFFFFFFFFFFFFFF DUP3 GT OR PUSH2 0x16FB JUMPI PUSH1 0x40 MSTORE JUMP JUMPDEST SWAP1 PUSH1 0x1F DUP1 NOT SWAP2 ADD AND DUP2 ADD SWAP1 DUP2 LT PUSH8 0xFFFFFFFFFFFFFFFF DUP3 GT OR PUSH2 0x16FB JUMPI PUSH1 0x40 MSTORE JUMP JUMPDEST SWAP1 PUSH1 0x40 MLOAD SWAP2 DUP3 PUSH1 0x0 DUP3 SLOAD SWAP3 PUSH2 0x282D DUP5 PUSH2 0x2784 JUMP JUMPDEST SWAP1 DUP2 DUP5 MSTORE PUSH1 0x1 SWAP5 DUP6 DUP2 AND SWAP1 DUP2 PUSH1 0x0 EQ PUSH2 0x289C JUMPI POP PUSH1 0x1 EQ PUSH2 0x2859 JUMPI JUMPDEST POP POP PUSH2 0x2857 SWAP3 POP SUB DUP4 PUSH2 0x27F7 JUMP JUMPDEST JUMP JUMPDEST SWAP1 SWAP4 SWAP2 POP PUSH1 0x0 MSTORE PUSH1 0x20 SWAP1 DUP2 PUSH1 0x0 KECCAK256 SWAP4 PUSH1 0x0 SWAP2 JUMPDEST DUP2 DUP4 LT PUSH2 0x2884 JUMPI POP POP PUSH2 0x2857 SWAP4 POP DUP3 ADD ADD CODESIZE DUP1 PUSH2 0x2849 JUMP JUMPDEST DUP6 SLOAD DUP9 DUP5 ADD DUP6 ADD MSTORE SWAP5 DUP6 ADD SWAP5 DUP8 SWAP5 POP SWAP2 DUP4 ADD SWAP2 PUSH2 0x286C JUMP JUMPDEST SWAP2 POP POP PUSH2 0x2857 SWAP5 POP PUSH1 0x20 SWAP3 POP PUSH1 0xFF NOT AND DUP3 DUP5 ADD MSTORE ISZERO ISZERO PUSH1 0x5 SHL DUP3 ADD ADD CODESIZE DUP1 PUSH2 0x2849 JUMP JUMPDEST SWAP2 SWAP1 DUP3 MLOAD SWAP3 DUP4 DUP3 MSTORE PUSH1 0x0 JUMPDEST DUP5 DUP2 LT PUSH2 0x28EB JUMPI POP POP DUP3 PUSH1 0x0 PUSH1 0x20 DUP1 SWAP5 SWAP6 DUP5 ADD ADD MSTORE PUSH1 0x1F DUP1 NOT SWAP2 ADD AND ADD ADD SWAP1 JUMP JUMPDEST PUSH1 0x20 DUP2 DUP4 ADD DUP2 ADD MLOAD DUP5 DUP4 ADD DUP3 ADD MSTORE ADD PUSH2 0x28CA JUMP JUMPDEST PUSH1 0x3 GT ISZERO PUSH2 0x2909 JUMPI JUMP JUMPDEST PUSH4 0x4E487B71 PUSH1 0xE0 SHL PUSH1 0x0 MSTORE PUSH1 0x21 PUSH1 0x4 MSTORE PUSH1 0x24 PUSH1 0x0 REVERT JUMPDEST PUSH8 0xFFFFFFFFFFFFFFFF DUP2 GT PUSH2 0x16FB JUMPI PUSH1 0x1F ADD PUSH1 0x1F NOT AND PUSH1 0x20 ADD SWAP1 JUMP JUMPDEST SWAP3 SWAP2 SWAP3 PUSH2 0x2947 DUP3 PUSH2 0x291F JUMP JUMPDEST SWAP2 PUSH2 0x2955 PUSH1 0x40 MLOAD SWAP4 DUP5 PUSH2 0x27F7 JUMP JUMPDEST DUP3 SWAP5 DUP2 DUP5 MSTORE DUP2 DUP4 ADD GT PUSH2 0x1C5 JUMPI DUP3 DUP2 PUSH1 0x20 SWAP4 DUP5 PUSH1 0x0 SWAP7 ADD CALLDATACOPY ADD ADD MSTORE JUMP JUMPDEST SWAP1 DUP1 PUSH1 0x1F DUP4 ADD SLT ISZERO PUSH2 0x1C5 JUMPI DUP2 PUSH1 0x20 PUSH2 0x298D SWAP4 CALLDATALOAD SWAP2 ADD PUSH2 0x293B JUMP JUMPDEST SWAP1 JUMP JUMPDEST PUSH1 0x4 CALLDATALOAD SWAP1 PUSH1 0x1 PUSH1 0x1 PUSH1 0xA0 SHL SUB DUP3 AND DUP3 SUB PUSH2 0x1C5 JUMPI JUMP JUMPDEST SWAP1 DUP2 MLOAD DUP1 DUP3 MSTORE PUSH1 0x20 DUP1 DUP1 SWAP4 ADD SWAP4 ADD SWAP2 PUSH1 0x0 JUMPDEST DUP3 DUP2 LT PUSH2 0x29C6 JUMPI POP POP POP POP SWAP1 JUMP JUMPDEST DUP4 MLOAD PUSH1 0x1 PUSH1 0x1 PUSH1 0xA0 SHL SUB AND DUP6 MSTORE SWAP4 DUP2 ADD SWAP4 SWAP3 DUP2 ADD SWAP3 PUSH1 0x1 ADD PUSH2 0x29B8 JUMP JUMPDEST SWAP1 DUP2 MLOAD DUP1 DUP3 MSTORE PUSH1 0x20 DUP1 DUP1 SWAP4 ADD SWAP4 ADD SWAP2 PUSH1 0x0 JUMPDEST DUP3 DUP2 LT PUSH2 0x2A03 JUMPI POP POP POP POP SWAP1 JUMP JUMPDEST DUP4 MLOAD DUP6 MSTORE SWAP4 DUP2 ADD SWAP4 SWAP3 DUP2 ADD SWAP3 PUSH1 0x1 ADD PUSH2 0x29F5 JUMP JUMPDEST SWAP1 DUP2 MLOAD DUP2 MSTORE PUSH1 0x20 DUP3 ADD MLOAD PUSH1 0x20 DUP3 ADD MSTORE PUSH1 0x40 DUP3 ADD MLOAD PUSH1 0x40 DUP3 ADD MSTORE PUSH1 0x60 DUP3 ADD MLOAD PUSH1 0x60 DUP3 ADD MSTORE PUSH1 0x80 DUP3 ADD MLOAD PUSH1 0x80 DUP3 ADD MSTORE PUSH1 0xA0 DUP3 ADD MLOAD PUSH1 0xA0 DUP3 ADD MSTORE PUSH1 0xC0 DUP3 ADD MLOAD PUSH1 0xC0 DUP3 ADD MSTORE PUSH2 0x2AD8 PUSH2 0x2AA2 PUSH2 0x2A8E PUSH2 0x2A7A PUSH1 0xE0 DUP7 ADD MLOAD PUSH2 0x200 DUP1 PUSH1 0xE0 DUP9 ADD MSTORE DUP7 ADD SWAP1 PUSH2 0x28BF JUMP JUMPDEST PUSH2 0x100 DUP1 DUP8 ADD MLOAD SWAP1 DUP7 DUP4 SUB SWAP1 DUP8 ADD MSTORE PUSH2 0x28BF JUMP JUMPDEST PUSH2 0x120 DUP1 DUP7 ADD MLOAD SWAP1 DUP6 DUP4 SUB SWAP1 DUP7 ADD MSTORE PUSH2 0x28BF JUMP JUMPDEST PUSH1 0x1 PUSH1 0x1 PUSH1 0xA0 SHL SUB PUSH2 0x140 DUP2 DUP2 DUP8 ADD MLOAD AND SWAP1 DUP6 ADD MSTORE PUSH2 0x160 SWAP1 DUP2 DUP7 ADD MLOAD AND SWAP1 DUP5 ADD MSTORE PUSH2 0x180 DUP1 DUP6 ADD MLOAD SWAP1 DUP5 DUP4 SUB SWAP1 DUP6 ADD MSTORE PUSH2 0x29A6 JUMP JUMPDEST SWAP2 PUSH2 0x1A0 DUP1 DUP3 ADD MLOAD SWAP1 PUSH2 0x2AEA DUP3 PUSH2 0x28FF JUMP JUMPDEST DUP4 ADD MSTORE PUSH2 0x1C0 DUP1 DUP3 ADD MLOAD ISZERO ISZERO SWAP1 DUP4 ADD MSTORE PUSH2 0x1E0 DUP1 SWAP2 ADD MLOAD SWAP2 ADD MSTORE SWAP1 JUMP JUMPDEST PUSH1 0x20 DUP1 DUP3 ADD SWAP1 DUP1 DUP4 MSTORE DUP4 MLOAD DUP1 SWAP3 MSTORE PUSH1 0x40 DUP4 ADD SWAP3 DUP2 PUSH1 0x40 DUP5 PUSH1 0x5 SHL DUP4 ADD ADD SWAP6 ADD SWAP4 PUSH1 0x0 SWAP2 JUMPDEST DUP5 DUP4 LT PUSH2 0x2B3B JUMPI POP POP POP POP POP POP SWAP1 JUMP JUMPDEST SWAP1 SWAP2 SWAP3 SWAP4 SWAP5 SWAP6 DUP5 DUP1 PUSH2 0x2B59 PUSH1 0x1 SWAP4 PUSH1 0x3F NOT DUP7 DUP3 SUB ADD DUP8 MSTORE DUP11 MLOAD PUSH2 0x2A17 JUMP JUMPDEST SWAP9 ADD SWAP4 ADD SWAP4 ADD SWAP2 SWAP5 SWAP4 SWAP3 SWAP1 PUSH2 0x2B2B JUMP JUMPDEST PUSH1 0x1 PUSH1 0x1 PUSH1 0xA0 SHL SUB PUSH1 0x33 SLOAD AND CALLER SUB PUSH2 0x2B7D JUMPI JUMP JUMPDEST PUSH1 0x64 PUSH1 0x40 MLOAD PUSH3 0x461BCD PUSH1 0xE5 SHL DUP2 MSTORE PUSH1 0x20 PUSH1 0x4 DUP3 ADD MSTORE PUSH1 0x20 PUSH1 0x24 DUP3 ADD MSTORE PUSH32 0x4F776E61626C653A2063616C6C6572206973206E6F7420746865206F776E6572 PUSH1 0x44 DUP3 ADD MSTORE REVERT JUMPDEST PUSH1 0x33 SLOAD SWAP1 PUSH1 0x1 PUSH1 0x1 PUSH1 0xA0 SHL SUB DUP1 SWAP2 AND SWAP2 DUP3 PUSH1 0x1 PUSH1 0x1 PUSH1 0xA0 SHL SUB NOT DUP3 AND OR PUSH1 0x33 SSTORE AND PUSH32 0x8BE0079C531659141344CD1FD0A4F28419497F9722A3DAAFE3B4186F6B6457E0 PUSH1 0x0 DUP1 LOG3 JUMP JUMPDEST ISZERO PUSH2 0x2C10 JUMPI JUMP JUMPDEST PUSH1 0x40 MLOAD PUSH3 0x461BCD PUSH1 0xE5 SHL DUP2 MSTORE PUSH1 0x20 PUSH1 0x4 DUP3 ADD MSTORE PUSH1 0x2C PUSH1 0x24 DUP3 ADD MSTORE PUSH32 0x46756E6374696F6E206D7573742062652063616C6C6564207468726F75676820 PUSH1 0x44 DUP3 ADD MSTORE PUSH32 0x64656C656761746563616C6C0000000000000000000000000000000000000000 PUSH1 0x64 DUP3 ADD MSTORE PUSH1 0x84 SWAP1 REVERT JUMPDEST ISZERO PUSH2 0x2C82 JUMPI JUMP JUMPDEST PUSH1 0x40 MLOAD PUSH3 0x461BCD PUSH1 0xE5 SHL DUP2 MSTORE PUSH1 0x20 PUSH1 0x4 DUP3 ADD MSTORE PUSH1 0x2C PUSH1 0x24 DUP3 ADD MSTORE PUSH32 0x46756E6374696F6E206D7573742062652063616C6C6564207468726F75676820 PUSH1 0x44 DUP3 ADD MSTORE PUSH32 0x6163746976652070726F78790000000000000000000000000000000000000000 PUSH1 0x64 DUP3 ADD MSTORE PUSH1 0x84 SWAP1 REVERT JUMPDEST DUP1 EXTCODESIZE ISZERO PUSH2 0x2D30 JUMPI PUSH1 0x1 PUSH1 0x1 PUSH1 0xA0 SHL SUB PUSH32 0x360894A13BA1A3210667C828492DB98DCA3E2076CC3735A920A3CA505D382BBC SWAP2 AND PUSH1 0x1 PUSH1 0x1 PUSH1 0xA0 SHL SUB NOT DUP3 SLOAD AND OR SWAP1 SSTORE JUMP JUMPDEST PUSH1 0x40 MLOAD PUSH3 0x461BCD PUSH1 0xE5 SHL DUP2 MSTORE PUSH1 0x20 PUSH1 0x4 DUP3 ADD MSTORE PUSH1 0x2D PUSH1 0x24 DUP3 ADD MSTORE PUSH32 0x455243313936373A206E657720696D706C656D656E746174696F6E206973206E PUSH1 0x44 DUP3 ADD MSTORE PUSH32 0x6F74206120636F6E747261637400000000000000000000000000000000000000 PUSH1 0x64 DUP3 ADD MSTORE PUSH1 0x84 SWAP1 REVERT JUMPDEST SWAP2 SWAP3 SWAP1 ISZERO PUSH2 0x2DFD JUMPI POP DUP2 MLOAD ISZERO PUSH2 0x2DAF JUMPI POP SWAP1 JUMP JUMPDEST EXTCODESIZE ISZERO PUSH2 0x2DB8 JUMPI SWAP1 JUMP JUMPDEST PUSH1 0x40 MLOAD PUSH3 0x461BCD PUSH1 0xE5 SHL DUP2 MSTORE PUSH1 0x20 PUSH1 0x4 DUP3 ADD MSTORE PUSH1 0x1D PUSH1 0x24 DUP3 ADD MSTORE PUSH32 0x416464726573733A2063616C6C20746F206E6F6E2D636F6E7472616374000000 PUSH1 0x44 DUP3 ADD MSTORE PUSH1 0x64 SWAP1 REVERT JUMPDEST DUP3 MLOAD SWAP1 SWAP2 POP ISZERO PUSH2 0x2E10 JUMPI POP DUP1 MLOAD SWAP1 PUSH1 0x20 ADD REVERT JUMPDEST PUSH1 0x40 MLOAD PUSH3 0x461BCD PUSH1 0xE5 SHL DUP2 MSTORE PUSH1 0x20 PUSH1 0x4 DUP3 ADD MSTORE SWAP1 DUP2 SWAP1 PUSH2 0x2E34 SWAP1 PUSH1 0x24 DUP4 ADD SWAP1 PUSH2 0x28BF JUMP JUMPDEST SUB SWAP1 REVERT JUMPDEST ISZERO PUSH2 0x2E3F JUMPI JUMP JUMPDEST PUSH1 0x40 MLOAD PUSH3 0x461BCD PUSH1 0xE5 SHL DUP2 MSTORE PUSH1 0x20 PUSH1 0x4 DUP3 ADD MSTORE PUSH1 0x2B PUSH1 0x24 DUP3 ADD MSTORE PUSH32 0x496E697469616C697A61626C653A20636F6E7472616374206973206E6F742069 PUSH1 0x44 DUP3 ADD MSTORE PUSH32 0x6E697469616C697A696E67000000000000000000000000000000000000000000 PUSH1 0x64 DUP3 ADD MSTORE PUSH1 0x84 SWAP1 REVERT JUMPDEST SWAP1 CALLER PUSH1 0x0 MSTORE PUSH1 0xCB PUSH1 0x20 MSTORE PUSH1 0x40 PUSH1 0x0 KECCAK256 PUSH1 0xFF PUSH1 0x2 DUP3 ADD SLOAD PUSH1 0xA8 SHR AND SWAP3 DUP4 PUSH2 0x2F07 JUMPI JUMPDEST POP DUP3 PUSH2 0x2EE2 JUMPI JUMPDEST POP POP PUSH2 0x2EDD JUMPI PUSH1 0x0 SWAP1 JUMP JUMPDEST PUSH1 0x1 SWAP1 JUMP JUMPDEST PUSH2 0x2EF0 SWAP2 SWAP3 POP PUSH1 0x1 ADD PUSH2 0x2819 JUMP JUMPDEST PUSH1 0x20 DUP2 MLOAD SWAP2 ADD KECCAK256 SWAP1 PUSH1 0x20 DUP2 MLOAD SWAP2 ADD KECCAK256 EQ CODESIZE DUP1 PUSH2 0x2ED2 JUMP JUMPDEST SWAP1 SWAP3 POP PUSH2 0x2F13 DUP4 PUSH2 0x2819 JUMP JUMPDEST PUSH1 0x20 DUP2 MLOAD SWAP2 ADD KECCAK256 SWAP1 PUSH1 0x20 DUP2 MLOAD SWAP2 ADD KECCAK256 EQ SWAP2 CODESIZE PUSH2 0x2ECB JUMP JUMPDEST ISZERO PUSH2 0x2F31 JUMPI JUMP JUMPDEST PUSH1 0x40 MLOAD PUSH3 0x461BCD PUSH1 0xE5 SHL DUP2 MSTORE PUSH1 0x20 PUSH1 0x4 DUP3 ADD MSTORE PUSH1 0x23 PUSH1 0x24 DUP3 ADD MSTORE PUSH32 0x4F6E6C792076657269666965642075736572732063616E207061727469636970 PUSH1 0x44 DUP3 ADD MSTORE PUSH3 0x617465 PUSH1 0xE8 SHL PUSH1 0x64 DUP3 ADD MSTORE PUSH1 0x84 SWAP1 REVERT JUMPDEST ISZERO PUSH2 0x2F89 JUMPI JUMP JUMPDEST PUSH1 0x40 MLOAD PUSH3 0x461BCD PUSH1 0xE5 SHL DUP2 MSTORE PUSH1 0x20 PUSH1 0x4 DUP3 ADD MSTORE PUSH1 0x3C PUSH1 0x24 DUP3 ADD MSTORE PUSH32 0x4F6E6C79207573657273206F6620746865207370656369666965642063617465 PUSH1 0x44 DUP3 ADD MSTORE PUSH32 0x676F72792063616E20706572666F726D207468697320616374696F6E00000000 PUSH1 0x64 DUP3 ADD MSTORE PUSH1 0x84 SWAP1 REVERT JUMPDEST SWAP2 SWAP1 DUP3 ADD DUP1 SWAP3 GT PUSH2 0x2313 JUMPI JUMP JUMPDEST PUSH1 0x0 NOT DUP2 EQ PUSH2 0x2313 JUMPI PUSH1 0x1 ADD SWAP1 JUMP JUMPDEST ISZERO PUSH2 0x3017 JUMPI JUMP JUMPDEST PUSH1 0x40 MLOAD PUSH3 0x461BCD PUSH1 0xE5 SHL DUP2 MSTORE PUSH1 0x20 PUSH1 0x4 DUP3 ADD MSTORE PUSH1 0x17 PUSH1 0x24 DUP3 ADD MSTORE PUSH32 0x43616D706169676E20646F6573206E6F74206578697374000000000000000000 PUSH1 0x44 DUP3 ADD MSTORE PUSH1 0x64 SWAP1 REVERT JUMPDEST ISZERO PUSH2 0x3063 JUMPI JUMP JUMPDEST PUSH1 0x40 MLOAD PUSH3 0x461BCD PUSH1 0xE5 SHL DUP2 MSTORE PUSH1 0x20 PUSH1 0x4 DUP3 ADD MSTORE PUSH1 0x17 PUSH1 0x24 DUP3 ADD MSTORE PUSH32 0x43616D706169676E206973206E6F74206F6E676F696E67000000000000000000 PUSH1 0x44 DUP3 ADD MSTORE PUSH1 0x64 SWAP1 REVERT JUMPDEST DUP1 SLOAD DUP3 LT ISZERO PUSH2 0x30C0 JUMPI PUSH1 0x0 MSTORE PUSH1 0x20 PUSH1 0x0 KECCAK256 ADD SWAP1 PUSH1 0x0 SWAP1 JUMP JUMPDEST PUSH4 0x4E487B71 PUSH1 0xE0 SHL PUSH1 0x0 MSTORE PUSH1 0x32 PUSH1 0x4 MSTORE PUSH1 0x24 PUSH1 0x0 REVERT JUMPDEST PUSH8 0xFFFFFFFFFFFFFFFF DUP2 GT PUSH2 0x16FB JUMPI PUSH1 0x5 SHL PUSH1 0x20 ADD SWAP1 JUMP JUMPDEST SWAP1 PUSH2 0x30F8 DUP3 PUSH2 0x30D6 JUMP JUMPDEST PUSH2 0x3105 PUSH1 0x40 MLOAD SWAP2 DUP3 PUSH2 0x27F7 JUMP JUMPDEST DUP3 DUP2 MSTORE DUP1 SWAP3 PUSH2 0x3116 PUSH1 0x1F NOT SWAP2 PUSH2 0x30D6 JUMP JUMPDEST ADD SWAP1 PUSH1 0x20 CALLDATASIZE SWAP2 ADD CALLDATACOPY JUMP JUMPDEST DUP1 MLOAD DUP3 LT ISZERO PUSH2 0x30C0 JUMPI PUSH1 0x20 SWAP2 PUSH1 0x5 SHL ADD ADD SWAP1 JUMP JUMPDEST SWAP1 PUSH1 0x40 MLOAD SWAP2 DUP3 DUP2 SLOAD SWAP2 DUP3 DUP3 MSTORE PUSH1 0x20 SWAP3 DUP4 DUP4 ADD SWAP2 PUSH1 0x0 MSTORE DUP4 PUSH1 0x0 KECCAK256 SWAP4 PUSH1 0x0 SWAP1 JUMPDEST DUP3 DUP3 LT PUSH2 0x3169 JUMPI POP POP POP PUSH2 0x2857 SWAP3 POP SUB DUP4 PUSH2 0x27F7 JUMP JUMPDEST DUP6 SLOAD PUSH1 0x1 PUSH1 0x1 PUSH1 0xA0 SHL SUB AND DUP5 MSTORE PUSH1 0x1 SWAP6 DUP7 ADD SWAP6 DUP9 SWAP6 POP SWAP4 DUP2 ADD SWAP4 SWAP1 SWAP2 ADD SWAP1 PUSH2 0x3153 JUMP JUMPDEST PUSH1 0x40 MLOAD SWAP1 PUSH2 0x3199 DUP3 PUSH2 0x27BE JUMP JUMPDEST DUP2 PUSH2 0x1E0 PUSH1 0x0 SWAP2 DUP3 DUP2 MSTORE DUP3 PUSH1 0x20 DUP3 ADD MSTORE DUP3 PUSH1 0x40 DUP3 ADD MSTORE DUP3 PUSH1 0x60 DUP3 ADD MSTORE DUP3 PUSH1 0x80 DUP3 ADD MSTORE DUP3 PUSH1 0xA0 DUP3 ADD MSTORE DUP3 PUSH1 0xC0 DUP3 ADD MSTORE PUSH1 0x60 PUSH1 0xE0 DUP3 ADD MSTORE PUSH1 0x60 PUSH2 0x100 DUP3 ADD MSTORE PUSH1 0x60 PUSH2 0x120 DUP3 ADD MSTORE DUP3 PUSH2 0x140 DUP3 ADD MSTORE DUP3 PUSH2 0x160 DUP3 ADD MSTORE PUSH1 0x60 PUSH2 0x180 DUP3 ADD MSTORE DUP3 PUSH2 0x1A0 DUP3 ADD MSTORE DUP3 PUSH2 0x1C0 DUP3 ADD MSTORE ADD MSTORE JUMP JUMPDEST SWAP1 PUSH2 0x3210 DUP3 PUSH2 0x30D6 JUMP JUMPDEST PUSH2 0x321D PUSH1 0x40 MLOAD SWAP2 DUP3 PUSH2 0x27F7 JUMP JUMPDEST DUP3 DUP2 MSTORE DUP1 SWAP3 PUSH2 0x322E PUSH1 0x1F NOT SWAP2 PUSH2 0x30D6 JUMP JUMPDEST ADD SWAP1 PUSH1 0x0 JUMPDEST DUP3 DUP2 LT PUSH2 0x323F JUMPI POP POP POP JUMP JUMPDEST PUSH1 0x20 SWAP1 PUSH2 0x324A PUSH2 0x318C JUMP JUMPDEST DUP3 DUP3 DUP6 ADD ADD MSTORE ADD PUSH2 0x3233 JUMP JUMPDEST DUP1 SLOAD SWAP2 PUSH1 0x0 SWAP3 DUP4 MSTORE PUSH1 0x20 SWAP3 PUSH1 0xCA DUP5 MSTORE PUSH1 0x40 SWAP4 DUP5 DUP3 KECCAK256 SLOAD SWAP1 DUP3 SWAP4 DUP4 JUMPDEST PUSH1 0xC DUP8 ADD DUP1 SLOAD DUP3 LT ISZERO PUSH2 0x32DC JUMPI DUP2 DUP7 MSTORE PUSH1 0xCE DUP5 MSTORE PUSH1 0x1 PUSH1 0x1 PUSH1 0xA0 SHL SUB PUSH2 0x329A DUP4 DUP12 DUP10 KECCAK256 SWAP4 PUSH2 0x30A8 JUMP JUMPDEST SWAP1 SLOAD SWAP1 PUSH1 0x3 SHL SHR AND DUP7 MSTORE DUP4 MSTORE PUSH1 0xFF DUP9 DUP7 KECCAK256 SLOAD AND PUSH2 0x32C4 JUMPI JUMPDEST PUSH2 0x32BD PUSH1 0xC SWAP2 PUSH2 0x3001 JUMP JUMPDEST SWAP1 POP PUSH2 0x3271 JUMP JUMPDEST SWAP5 PUSH2 0x32BD PUSH2 0x32D3 PUSH1 0xC SWAP3 PUSH2 0x3001 JUMP JUMPDEST SWAP7 SWAP2 POP POP PUSH2 0x32B2 JUMP JUMPDEST POP POP SWAP6 POP POP SWAP2 SWAP3 POP POP PUSH1 0x1 SHR GT ISZERO SWAP1 JUMP JUMPDEST SWAP2 SWAP1 PUSH1 0x1 DUP4 ADD PUSH1 0x0 SWAP1 DUP3 DUP3 MSTORE DUP1 PUSH1 0x20 MSTORE PUSH1 0x40 DUP3 KECCAK256 SLOAD ISZERO PUSH1 0x0 EQ PUSH2 0x3369 JUMPI DUP5 SLOAD SWAP5 PUSH9 0x10000000000000000 DUP7 LT ISZERO PUSH2 0x3355 JUMPI PUSH2 0x3332 DUP7 PUSH1 0x1 PUSH1 0x40 SWAP7 SWAP8 SWAP9 ADD DUP4 SSTORE DUP3 PUSH2 0x30A8 JUMP JUMPDEST DUP2 SLOAD SWAP1 PUSH1 0x3 SHL SWAP1 DUP8 DUP3 SHL SWAP2 PUSH1 0x0 NOT SWAP1 SHL NOT AND OR SWAP1 SSTORE SLOAD SWAP4 DUP3 MSTORE PUSH1 0x20 MSTORE KECCAK256 SSTORE PUSH1 0x1 SWAP1 JUMP JUMPDEST PUSH4 0x4E487B71 PUSH1 0xE0 SHL DUP4 MSTORE PUSH1 0x41 PUSH1 0x4 MSTORE PUSH1 0x24 DUP4 REVERT JUMPDEST POP SWAP3 POP POP JUMP INVALID LOG1 PUSH5 0x736F6C6343 STOP ADDMOD SLT STOP EXP "},"methodIdentifiers":{"_campaignOfEntrepreneyrByIndex(address,uint256)":"b46b1ee7","_getEntrepreneurCampaignsCount(address)":"5ea01e59","approveFundReleaseRequest(uint256)":"a7247cd9","campaigns(uint256)":"141961bc","createCampaign(uint256,uint256,uint256,string,string,string)":"1ad417bf","createFundReleaseRequest(uint256,uint256,address)":"70debcf7","donateToCampaign(uint256)":"42a4fda8","getAllDonations(uint256)":"ffa676d1","getAllDonators(uint256)":"e27883fb","getCampaignById(uint256)":"e6ffcaa1","getCampaigns()":"a6b03633","getCampaignsByEntrepreneur(address)":"efb80183","getInvestorDonations(uint256)":"67c2cbad","getTotalCampaignsByInvestor(address)":"8e5baa62","initialize()":"8129fc1c","loginUser(string,string)":"22ce12e5","owner()":"8da5cb5b","proxiableUUID()":"52d1902d","registerUser(string,string,uint8)":"2e17a931","renounceOwnership()":"715018a6","transferOwnership(address)":"f2fde38b","upgradeTo(address)":"3659cfe6","upgradeToAndCall(address,bytes)":"4f1ef286","users(address)":"a87430ba"}},"storageLayout":{"storage":[{"astId":503,"contract":"contracts/CampaignRegistry.sol:CampaignRegistry","label":"_initialized","offset":0,"slot":"0","type":"t_uint8"},{"astId":506,"contract":"contracts/CampaignRegistry.sol:CampaignRegistry","label":"_initializing","offset":1,"slot":"0","type":"t_bool"},{"astId":1172,"contract":"contracts/CampaignRegistry.sol:CampaignRegistry","label":"__gap","offset":0,"slot":"1","type":"t_array(t_uint256)50_storage"},{"astId":10,"contract":"contracts/CampaignRegistry.sol:CampaignRegistry","label":"_owner","offset":0,"slot":"51","type":"t_address"},{"astId":130,"contract":"contracts/CampaignRegistry.sol:CampaignRegistry","label":"__gap","offset":0,"slot":"52","type":"t_array(t_uint256)49_storage"},{"astId":485,"contract":"contracts/CampaignRegistry.sol:CampaignRegistry","label":"__gap","offset":0,"slot":"101","type":"t_array(t_uint256)50_storage"},{"astId":800,"contract":"contracts/CampaignRegistry.sol:CampaignRegistry","label":"__gap","offset":0,"slot":"151","type":"t_array(t_uint256)50_storage"},{"astId":1918,"contract":"contracts/CampaignRegistry.sol:CampaignRegistry","label":"campaignIdCounter","offset":0,"slot":"201","type":"t_uint256"},{"astId":1922,"contract":"contracts/CampaignRegistry.sol:CampaignRegistry","label":"donationCount","offset":0,"slot":"202","type":"t_mapping(t_uint256,t_uint256)"},{"astId":1928,"contract":"contracts/CampaignRegistry.sol:CampaignRegistry","label":"users","offset":0,"slot":"203","type":"t_mapping(t_address,t_struct(User)3207_storage)"},{"astId":1934,"contract":"contracts/CampaignRegistry.sol:CampaignRegistry","label":"campaigns","offset":0,"slot":"204","type":"t_mapping(t_uint256,t_struct(Campaign)3247_storage)"},{"astId":1940,"contract":"contracts/CampaignRegistry.sol:CampaignRegistry","label":"contributions","offset":0,"slot":"205","type":"t_mapping(t_uint256,t_mapping(t_address,t_uint256))"},{"astId":1946,"contract":"contracts/CampaignRegistry.sol:CampaignRegistry","label":"investorApprovals","offset":0,"slot":"206","type":"t_mapping(t_uint256,t_mapping(t_address,t_bool))"},{"astId":1951,"contract":"contracts/CampaignRegistry.sol:CampaignRegistry","label":"_campaignsOwnedByEntrepreneur","offset":0,"slot":"207","type":"t_mapping(t_address,t_struct(UintSet)1766_storage)"}],"types":{"t_address":{"encoding":"inplace","label":"address","numberOfBytes":"20"},"t_address_payable":{"encoding":"inplace","label":"address payable","numberOfBytes":"20"},"t_array(t_address)dyn_storage":{"base":"t_address","encoding":"dynamic_array","label":"address[]","numberOfBytes":"32"},"t_array(t_bytes32)dyn_storage":{"base":"t_bytes32","encoding":"dynamic_array","label":"bytes32[]","numberOfBytes":"32"},"t_array(t_uint256)49_storage":{"base":"t_uint256","encoding":"inplace","label":"uint256[49]","numberOfBytes":"1568"},"t_array(t_uint256)50_storage":{"base":"t_uint256","encoding":"inplace","label":"uint256[50]","numberOfBytes":"1600"},"t_bool":{"encoding":"inplace","label":"bool","numberOfBytes":"1"},"t_bytes32":{"encoding":"inplace","label":"bytes32","numberOfBytes":"32"},"t_enum(CampaignStatus)3191":{"encoding":"inplace","label":"enum ICampaignRegistry.CampaignStatus","numberOfBytes":"1"},"t_enum(Category)3195":{"encoding":"inplace","label":"enum ICampaignRegistry.Category","numberOfBytes":"1"},"t_mapping(t_address,t_bool)":{"encoding":"mapping","key":"t_address","label":"mapping(address => bool)","numberOfBytes":"32","value":"t_bool"},"t_mapping(t_address,t_struct(UintSet)1766_storage)":{"encoding":"mapping","key":"t_address","label":"mapping(address => struct EnumerableSetUpgradeable.UintSet)","numberOfBytes":"32","value":"t_struct(UintSet)1766_storage"},"t_mapping(t_address,t_struct(User)3207_storage)":{"encoding":"mapping","key":"t_address","label":"mapping(address => struct ICampaignRegistry.User)","numberOfBytes":"32","value":"t_struct(User)3207_storage"},"t_mapping(t_address,t_uint256)":{"encoding":"mapping","key":"t_address","label":"mapping(address => uint256)","numberOfBytes":"32","value":"t_uint256"},"t_mapping(t_bytes32,t_uint256)":{"encoding":"mapping","key":"t_bytes32","label":"mapping(bytes32 => uint256)","numberOfBytes":"32","value":"t_uint256"},"t_mapping(t_uint256,t_mapping(t_address,t_bool))":{"encoding":"mapping","key":"t_uint256","label":"mapping(uint256 => mapping(address => bool))","numberOfBytes":"32","value":"t_mapping(t_address,t_bool)"},"t_mapping(t_uint256,t_mapping(t_address,t_uint256))":{"encoding":"mapping","key":"t_uint256","label":"mapping(uint256 => mapping(address => uint256))","numberOfBytes":"32","value":"t_mapping(t_address,t_uint256)"},"t_mapping(t_uint256,t_struct(Campaign)3247_storage)":{"encoding":"mapping","key":"t_uint256","label":"mapping(uint256 => struct ICampaignRegistry.Campaign)","numberOfBytes":"32","value":"t_struct(Campaign)3247_storage"},"t_mapping(t_uint256,t_uint256)":{"encoding":"mapping","key":"t_uint256","label":"mapping(uint256 => uint256)","numberOfBytes":"32","value":"t_uint256"},"t_string_storage":{"encoding":"bytes","label":"string","numberOfBytes":"32"},"t_struct(Campaign)3247_storage":{"encoding":"inplace","label":"struct ICampaignRegistry.Campaign","members":[{"astId":3214,"contract":"contracts/CampaignRegistry.sol:CampaignRegistry","label":"campaignId","offset":0,"slot":"0","type":"t_uint256"},{"astId":3216,"contract":"contracts/CampaignRegistry.sol:CampaignRegistry","label":"targetAmount","offset":0,"slot":"1","type":"t_uint256"},{"astId":3218,"contract":"contracts/CampaignRegistry.sol:CampaignRegistry","label":"raisedAmount","offset":0,"slot":"2","type":"t_uint256"},{"astId":3220,"contract":"contracts/CampaignRegistry.sol:CampaignRegistry","label":"requestAmount","offset":0,"slot":"3","type":"t_uint256"},{"astId":3222,"contract":"contracts/CampaignRegistry.sol:CampaignRegistry","label":"deadline","offset":0,"slot":"4","type":"t_uint256"},{"astId":3224,"contract":"contracts/CampaignRegistry.sol:CampaignRegistry","label":"completeAt","offset":0,"slot":"5","type":"t_uint256"},{"astId":3226,"contract":"contracts/CampaignRegistry.sol:CampaignRegistry","label":"startAt","offset":0,"slot":"6","type":"t_uint256"},{"astId":3228,"contract":"contracts/CampaignRegistry.sol:CampaignRegistry","label":"imageUri","offset":0,"slot":"7","type":"t_string_storage"},{"astId":3230,"contract":"contracts/CampaignRegistry.sol:CampaignRegistry","label":"campaignTitle","offset":0,"slot":"8","type":"t_string_storage"},{"astId":3232,"contract":"contracts/CampaignRegistry.sol:CampaignRegistry","label":"campaignDescription","offset":0,"slot":"9","type":"t_string_storage"},{"astId":3234,"contract":"contracts/CampaignRegistry.sol:CampaignRegistry","label":"entrepreneur","offset":0,"slot":"10","type":"t_address"},{"astId":3236,"contract":"contracts/CampaignRegistry.sol:CampaignRegistry","label":"vendor","offset":0,"slot":"11","type":"t_address_payable"},{"astId":3239,"contract":"contracts/CampaignRegistry.sol:CampaignRegistry","label":"investors","offset":0,"slot":"12","type":"t_array(t_address)dyn_storage"},{"astId":3242,"contract":"contracts/CampaignRegistry.sol:CampaignRegistry","label":"status","offset":0,"slot":"13","type":"t_enum(CampaignStatus)3191"},{"astId":3244,"contract":"contracts/CampaignRegistry.sol:CampaignRegistry","label":"requestCreated","offset":1,"slot":"13","type":"t_bool"},{"astId":3246,"contract":"contracts/CampaignRegistry.sol:CampaignRegistry","label":"minimumContribution","offset":0,"slot":"14","type":"t_uint256"}],"numberOfBytes":"480"},"t_struct(Set)1294_storage":{"encoding":"inplace","label":"struct EnumerableSetUpgradeable.Set","members":[{"astId":1289,"contract":"contracts/CampaignRegistry.sol:CampaignRegistry","label":"_values","offset":0,"slot":"0","type":"t_array(t_bytes32)dyn_storage"},{"astId":1293,"contract":"contracts/CampaignRegistry.sol:CampaignRegistry","label":"_indexes","offset":0,"slot":"1","type":"t_mapping(t_bytes32,t_uint256)"}],"numberOfBytes":"64"},"t_struct(UintSet)1766_storage":{"encoding":"inplace","label":"struct EnumerableSetUpgradeable.UintSet","members":[{"astId":1765,"contract":"contracts/CampaignRegistry.sol:CampaignRegistry","label":"_inner","offset":0,"slot":"0","type":"t_struct(Set)1294_storage"}],"numberOfBytes":"64"},"t_struct(User)3207_storage":{"encoding":"inplace","label":"struct ICampaignRegistry.User","members":[{"astId":3197,"contract":"contracts/CampaignRegistry.sol:CampaignRegistry","label":"email","offset":0,"slot":"0","type":"t_string_storage"},{"astId":3199,"contract":"contracts/CampaignRegistry.sol:CampaignRegistry","label":"password","offset":0,"slot":"1","type":"t_string_storage"},{"astId":3202,"contract":"contracts/CampaignRegistry.sol:CampaignRegistry","label":"category","offset":0,"slot":"2","type":"t_enum(Category)3195"},{"astId":3204,"contract":"contracts/CampaignRegistry.sol:CampaignRegistry","label":"walletAddress","offset":1,"slot":"2","type":"t_address"},{"astId":3206,"contract":"contracts/CampaignRegistry.sol:CampaignRegistry","label":"verified","offset":21,"slot":"2","type":"t_bool"}],"numberOfBytes":"96"},"t_uint256":{"encoding":"inplace","label":"uint256","numberOfBytes":"32"},"t_uint8":{"encoding":"inplace","label":"uint8","numberOfBytes":"1"}}}}}}