{"contracts/CampaignRegistry.sol":{"CampaignRegistry":{"abi":[{"anonymous":false,"inputs":[{"indexed":false,"internalType":"address","name":"previousAdmin","type":"address"},{"indexed":false,"internalType":"address","name":"newAdmin","type":"address"}],"name":"AdminChanged","type":"event"},{"anonymous":false,"inputs":[{"indexed":true,"internalType":"address","name":"beacon","type":"address"}],"name":"BeaconUpgraded","type":"event"},{"anonymous":false,"inputs":[{"indexed":false,"internalType":"uint256","name":"campaignId","type":"uint256"},{"indexed":false,"internalType":"address","name":"entrepreneur","type":"address"},{"indexed":false,"internalType":"uint256","name":"targetAmount","type":"uint256"},{"indexed":false,"internalType":"uint256","name":"deadline","type":"uint256"}],"name":"CampaignCreated","type":"event"},{"anonymous":false,"inputs":[{"indexed":false,"internalType":"uint256","name":"campaignId","type":"uint256"},{"indexed":false,"internalType":"address","name":"investor","type":"address"},{"indexed":false,"internalType":"uint256","name":"amount","type":"uint256"}],"name":"ContributionMade","type":"event"},{"anonymous":false,"inputs":[{"indexed":false,"internalType":"uint256","name":"campaignId","type":"uint256"},{"indexed":false,"internalType":"address","name":"vendor","type":"address"},{"indexed":false,"internalType":"uint256","name":"amount","type":"uint256"}],"name":"FundsReleased","type":"event"},{"anonymous":false,"inputs":[{"indexed":false,"internalType":"uint8","name":"version","type":"uint8"}],"name":"Initialized","type":"event"},{"anonymous":false,"inputs":[{"indexed":true,"internalType":"address","name":"previousOwner","type":"address"},{"indexed":true,"internalType":"address","name":"newOwner","type":"address"}],"name":"OwnershipTransferred","type":"event"},{"anonymous":false,"inputs":[{"indexed":false,"internalType":"uint256","name":"campaignId","type":"uint256"},{"indexed":false,"internalType":"address","name":"investor","type":"address"}],"name":"RequestApproved","type":"event"},{"anonymous":false,"inputs":[{"indexed":false,"internalType":"uint256","name":"campaignId","type":"uint256"},{"indexed":false,"internalType":"uint256","name":"requestAmount","type":"uint256"}],"name":"RequestCreated","type":"event"},{"anonymous":false,"inputs":[{"indexed":true,"internalType":"address","name":"implementation","type":"address"}],"name":"Upgraded","type":"event"},{"inputs":[{"internalType":"uint256","name":"_campaignId","type":"uint256"}],"name":"approveFundReleaseRequest","outputs":[],"stateMutability":"nonpayable","type":"function"},{"inputs":[{"internalType":"uint256","name":"","type":"uint256"}],"name":"campaigns","outputs":[{"internalType":"uint256","name":"campaignId","type":"uint256"},{"internalType":"uint256","name":"targetAmount","type":"uint256"},{"internalType":"uint256","name":"raisedAmount","type":"uint256"},{"internalType":"uint256","name":"requestAmount","type":"uint256"},{"internalType":"uint256","name":"deadline","type":"uint256"},{"internalType":"uint256","name":"completeAt","type":"uint256"},{"internalType":"uint256","name":"startAt","type":"uint256"},{"internalType":"string","name":"imageUri","type":"string"},{"internalType":"string","name":"campaignTitle","type":"string"},{"internalType":"string","name":"campaignDescription","type":"string"},{"internalType":"address","name":"entrepreneur","type":"address"},{"internalType":"address payable","name":"vendor","type":"address"},{"internalType":"enum ICampaignRegistry.CampaignStatus","name":"status","type":"uint8"},{"internalType":"bool","name":"requestCreated","type":"bool"},{"internalType":"uint256","name":"minimumContribution","type":"uint256"}],"stateMutability":"view","type":"function"},{"inputs":[{"internalType":"address","name":"","type":"address"},{"internalType":"uint256","name":"","type":"uint256"}],"name":"campaignsByEntrepreneur","outputs":[{"internalType":"uint256","name":"","type":"uint256"}],"stateMutability":"view","type":"function"},{"inputs":[{"internalType":"uint256","name":"_targetAmount","type":"uint256"},{"internalType":"uint256","name":"_deadline","type":"uint256"},{"internalType":"uint256","name":"minimumContribution","type":"uint256"},{"internalType":"string","name":"_imageUri","type":"string"},{"internalType":"string","name":"_campaignTitle","type":"string"},{"internalType":"string","name":"_campaignDescription","type":"string"}],"name":"createCampaign","outputs":[],"stateMutability":"nonpayable","type":"function"},{"inputs":[{"internalType":"uint256","name":"_campaignId","type":"uint256"},{"internalType":"uint256","name":"_requestAmount","type":"uint256"},{"internalType":"address payable","name":"_vendorAddress","type":"address"}],"name":"createFundReleaseRequest","outputs":[],"stateMutability":"nonpayable","type":"function"},{"inputs":[{"internalType":"uint256","name":"_campaignId","type":"uint256"}],"name":"donateToCampaign","outputs":[],"stateMutability":"payable","type":"function"},{"inputs":[{"internalType":"uint256","name":"_campaignId","type":"uint256"}],"name":"getAllDonations","outputs":[{"internalType":"uint256[]","name":"","type":"uint256[]"}],"stateMutability":"view","type":"function"},{"inputs":[{"internalType":"uint256","name":"_campaignId","type":"uint256"}],"name":"getAllDonators","outputs":[{"internalType":"address[]","name":"","type":"address[]"}],"stateMutability":"view","type":"function"},{"inputs":[{"internalType":"uint256","name":"_campaignId","type":"uint256"}],"name":"getCampaignById","outputs":[{"components":[{"internalType":"uint256","name":"campaignId","type":"uint256"},{"internalType":"uint256","name":"targetAmount","type":"uint256"},{"internalType":"uint256","name":"raisedAmount","type":"uint256"},{"internalType":"uint256","name":"requestAmount","type":"uint256"},{"internalType":"uint256","name":"deadline","type":"uint256"},{"internalType":"uint256","name":"completeAt","type":"uint256"},{"internalType":"uint256","name":"startAt","type":"uint256"},{"internalType":"string","name":"imageUri","type":"string"},{"internalType":"string","name":"campaignTitle","type":"string"},{"internalType":"string","name":"campaignDescription","type":"string"},{"internalType":"address","name":"entrepreneur","type":"address"},{"internalType":"address payable","name":"vendor","type":"address"},{"internalType":"address[]","name":"investors","type":"address[]"},{"internalType":"enum ICampaignRegistry.CampaignStatus","name":"status","type":"uint8"},{"internalType":"bool","name":"requestCreated","type":"bool"},{"internalType":"uint256","name":"minimumContribution","type":"uint256"}],"internalType":"struct ICampaignRegistry.Campaign","name":"","type":"tuple"}],"stateMutability":"view","type":"function"},{"inputs":[],"name":"getCampaigns","outputs":[{"components":[{"internalType":"uint256","name":"campaignId","type":"uint256"},{"internalType":"uint256","name":"targetAmount","type":"uint256"},{"internalType":"uint256","name":"raisedAmount","type":"uint256"},{"internalType":"uint256","name":"requestAmount","type":"uint256"},{"internalType":"uint256","name":"deadline","type":"uint256"},{"internalType":"uint256","name":"completeAt","type":"uint256"},{"internalType":"uint256","name":"startAt","type":"uint256"},{"internalType":"string","name":"imageUri","type":"string"},{"internalType":"string","name":"campaignTitle","type":"string"},{"internalType":"string","name":"campaignDescription","type":"string"},{"internalType":"address","name":"entrepreneur","type":"address"},{"internalType":"address payable","name":"vendor","type":"address"},{"internalType":"address[]","name":"investors","type":"address[]"},{"internalType":"enum ICampaignRegistry.CampaignStatus","name":"status","type":"uint8"},{"internalType":"bool","name":"requestCreated","type":"bool"},{"internalType":"uint256","name":"minimumContribution","type":"uint256"}],"internalType":"struct ICampaignRegistry.Campaign[]","name":"","type":"tuple[]"}],"stateMutability":"view","type":"function"},{"inputs":[{"internalType":"address","name":"_entrepreneur","type":"address"}],"name":"getCampaignsByEntrepreneur","outputs":[{"components":[{"internalType":"uint256","name":"campaignId","type":"uint256"},{"internalType":"uint256","name":"targetAmount","type":"uint256"},{"internalType":"uint256","name":"raisedAmount","type":"uint256"},{"internalType":"uint256","name":"requestAmount","type":"uint256"},{"internalType":"uint256","name":"deadline","type":"uint256"},{"internalType":"uint256","name":"completeAt","type":"uint256"},{"internalType":"uint256","name":"startAt","type":"uint256"},{"internalType":"string","name":"imageUri","type":"string"},{"internalType":"string","name":"campaignTitle","type":"string"},{"internalType":"string","name":"campaignDescription","type":"string"},{"internalType":"address","name":"entrepreneur","type":"address"},{"internalType":"address payable","name":"vendor","type":"address"},{"internalType":"address[]","name":"investors","type":"address[]"},{"internalType":"enum ICampaignRegistry.CampaignStatus","name":"status","type":"uint8"},{"internalType":"bool","name":"requestCreated","type":"bool"},{"internalType":"uint256","name":"minimumContribution","type":"uint256"}],"internalType":"struct ICampaignRegistry.Campaign[]","name":"","type":"tuple[]"}],"stateMutability":"view","type":"function"},{"inputs":[{"internalType":"uint256","name":"_campaignId","type":"uint256"}],"name":"getInvestorDonations","outputs":[{"internalType":"address[]","name":"","type":"address[]"},{"internalType":"uint256[]","name":"","type":"uint256[]"}],"stateMutability":"view","type":"function"},{"inputs":[{"internalType":"address","name":"_investor","type":"address"}],"name":"getTotalCampaignsByInvestor","outputs":[{"internalType":"uint256","name":"","type":"uint256"}],"stateMutability":"view","type":"function"},{"inputs":[],"name":"initialize","outputs":[],"stateMutability":"nonpayable","type":"function"},{"inputs":[{"internalType":"string","name":"_email","type":"string"},{"internalType":"string","name":"_password","type":"string"}],"name":"loginUser","outputs":[{"internalType":"bool","name":"","type":"bool"}],"stateMutability":"view","type":"function"},{"inputs":[],"name":"owner","outputs":[{"internalType":"address","name":"","type":"address"}],"stateMutability":"view","type":"function"},{"inputs":[],"name":"proxiableUUID","outputs":[{"internalType":"bytes32","name":"","type":"bytes32"}],"stateMutability":"view","type":"function"},{"inputs":[{"internalType":"string","name":"_email","type":"string"},{"internalType":"string","name":"_password","type":"string"},{"internalType":"enum ICampaignRegistry.Category","name":"_category","type":"uint8"}],"name":"registerUser","outputs":[],"stateMutability":"nonpayable","type":"function"},{"inputs":[],"name":"renounceOwnership","outputs":[],"stateMutability":"nonpayable","type":"function"},{"inputs":[{"internalType":"address","name":"newOwner","type":"address"}],"name":"transferOwnership","outputs":[],"stateMutability":"nonpayable","type":"function"},{"inputs":[{"internalType":"address","name":"newImplementation","type":"address"}],"name":"upgradeTo","outputs":[],"stateMutability":"nonpayable","type":"function"},{"inputs":[{"internalType":"address","name":"newImplementation","type":"address"},{"internalType":"bytes","name":"data","type":"bytes"}],"name":"upgradeToAndCall","outputs":[],"stateMutability":"payable","type":"function"},{"inputs":[{"internalType":"address","name":"","type":"address"}],"name":"users","outputs":[{"internalType":"string","name":"email","type":"string"},{"internalType":"string","name":"password","type":"string"},{"internalType":"enum ICampaignRegistry.Category","name":"category","type":"uint8"},{"internalType":"address","name":"walletAddress","type":"address"},{"internalType":"bool","name":"verified","type":"bool"}],"stateMutability":"view","type":"function"}],"evm":{"bytecode":{"linkReferences":{},"object":"60a080604052346100315730608052613319908161003782396080518181816110e6015281816111f201526118aa0152f35b600080fdfe6080604052600436101561001257600080fd5b60003560e01c80630f35f5df1461274d578063141961bc146126295780631ad417bf1461200f57806322ce12e514611fae5780632e17a93114611b1f5780633659cfe61461188457806342a4fda81461146a5780634f1ef286146111a157806352d1902d146110cb57806367c2cbad14610fe857806370debcf714610d85578063715018a614610d2a5780638129fc1c14610bd55780638da5cb5b14610bae5780638e5baa6214610b30578063a6b03633146109e9578063a7247cd91461061d578063a87430ba1461057b578063e27883fb14610538578063e6ffcaa114610413578063efb8018314610265578063f2fde38b146101bf5763ffa676d11461011957600080fd5b346101ba576020806003193601126101ba57600435908160005260cc8152600c6040600020019182549061014c8261310d565b9360005b83811061016e576040518581528061016a81880189612a30565b0390f35b806001600160a01b036101846101b593856127b9565b9190548660005260cd895260406000209260031b1c1660005286526040600020546101af828961313f565b5261304e565b610150565b600080fd5b346101ba5760203660031901126101ba576101d86127a3565b6101e0612bb6565b6001600160a01b038116156101fa576101f890612c0e565b005b60405162461bcd60e51b815260206004820152602660248201527f4f776e61626c653a206e6577206f776e657220697320746865207a65726f206160448201527f64647265737300000000000000000000000000000000000000000000000000006064820152608490fd5b346101ba576020806003193601126101ba576001600160a01b03806102886127a3565b1660005260cf8252604060002090604051808385829554938481520190600052856000209260005b878282106103fd575050506102c79250038361285a565b6102d18251613225565b9060005b83518110156103ef576102e8818561313f565b5160005260cc855260406000209060405161030281612821565b82548152600e6001938481015489840152600281015460408401526003810154606084015260048101546080840152600581015460a0840152600681015460c08401526103516007820161287c565b60e0840152600861036381830161287c565b6101008501526103756009830161287c565b61012085015286600a8301541661014085015286600b830154166101608501526103a1600c8301613153565b610180850152600d82015460ff918282166103bb81612962565b6101a08701521c1615156101c084015201546101e08201526103dd828661313f565b526103e8818561313f565b50016102d5565b6040518061016a8582612b54565b85548452600195860195889550930192016102b0565b346101ba5760203660031901126101ba5761042c6131ab565b5060043560005260cc60205261016a6040600020600e6040519161044f83612821565b8054835260018101546020840152600281015460408401526003810154606084015260048101546080840152600581015460a0840152600681015460c084015261049b6007820161287c565b60e08401526104ac6008820161287c565b6101008401526104be6009820161287c565b6101208401526001600160a01b0380600a83015416610140850152600b820154166101608401526104f1600c8201613153565b61018084015260ff600d82015481811661050a81612962565b6101a086015260081c1615156101c084015201546101e0820152604051918291602083526020830190612a64565b346101ba5760203660031901126101ba5760043560005260cc60205261016a610567600c604060002001613153565b6040519182916020835260208301906129f3565b346101ba5760203660031901126101ba576105e76001600160a01b03806105a06127a3565b1660005260cb602052604060002060ff6105b98261287c565b9260026105c86001850161287c565b930154906105f58383169460405197889760a0895260a0890190612922565b908782036020890152612922565b936105ff81612962565b60408601528160081c16606085015260a81c16151560808301520390f35b346101ba576020806003193601126101ba57600435903360005260cb815260ff9160029061065684836040600020015460a81c16612f77565b61066360c954821061305d565b3360005260cb8352838260406000200154169261067f84612962565b61068c6001809514612fcf565b8160005260cc92838252604060002093600d8501546106b68882166106b081612962565b156130a9565b8460005260cd84526040600020336000528452604060002054156109985760081c871615610947578360005260ce8352604060002033600052835286604060002054166108dc578360005260ce8352604060002033600052835261075860406000209560ff199688888254161790557ff3dc904660a0ea05aba8dfa1e21fbc4fb2914be2a3029da7b0fdd3e5eee20ddb604080518881523388820152a1613275565b61075e57005b8360005280835260406000209261077f600d8501988954166106b081612962565b61078884613275565b1561086857600093600c01875b6107ab575b505050505050825416179055600080f35b80548510156108635784600052828252604060002094846001600160a01b03600b8801541696015490600082888115610859575b600092839283928392f11561084d577f6e3c6096795c8298a218b2cfb8bde42726ff7c9a3d27b4d3ba41ab7f74feb5fb610847928b9861083f6040519283928d846001600160a01b03604092959493606083019683521660208201520152565b0390a161304e565b94610795565b6040513d6000823e3d90fd5b6108fc92506107df565b61079a565b60a4906040519062461bcd60e51b82526004820152604160248201527f5265717565737420686173206e6f74206265656e20617070726f76656420627960448201527f20746865207265717569726564206e756d626572206f6620696e766573746f726064820152607360f81b6084820152fd5b60405162461bcd60e51b815260048101849052602960248201527f496e766573746f722068617320616c726561647920617070726f76656420746860448201527f65207265717565737400000000000000000000000000000000000000000000006064820152608490fd5b60405162461bcd60e51b815260048101849052602360248201527f4e6f20726571756573742065786973747320666f7220746869732063616d706160448201526234b3b760e91b6064820152608490fd5b60405162461bcd60e51b8152600481018590526024808201527f4f6e6c7920696e766573746f72732063616e20617070726f76652061207265716044820152631d595cdd60e21b6064820152608490fd5b346101ba5760003660031901126101ba5760c954610a0681613225565b9060005b818110610a1f576040518061016a8582612b54565b8060005260209060cc82526040600020600e60405191610a3e83612821565b805483526001948582015490840152600281015460408401526003810154606084015260048101546080840152600581015460a0840152600681015460c0840152610a8b6007820161287c565b60e08401526008610a9d81830161287c565b610100850152610aaf6009830161287c565b6101208501526001600160a01b0380600a84015416610140860152600b83015416610160850152610ae2600c8301613153565b610180850152600d82015460ff91828216610afc81612962565b6101a08701521c1615156101c084015201546101e0820152610b1e828661313f565b52610b29818561313f565b5001610a0a565b346101ba576020806003193601126101ba57610b4a6127a3565b60c9546000916001600160a01b0316825b828110610b6d57505050604051908152f35b8060005260cd85526040600020826000528552604060002054610b99575b610b949061304e565b610b5b565b92610ba6610b949161304e565b939050610b8b565b346101ba5760003660031901126101ba5760206001600160a01b0360335416604051908152f35b346101ba5760003660031901126101ba5760005460ff8160081c161590818092610d1d575b8015610d06575b15610c9b5760ff19811660011760005581610c89575b50610c3260ff60005460081c16610c2d81612e85565b612e85565b610c3b33612c0e565b60005490610c4e60ff8360081c16612e85565b610c5457005b61ff0019166000557f7f26b83ff96e1f2b6a682f133852f6798a09c465da95921460cefb3847402498602060405160018152a1005b61ffff19166101011760005581610c17565b60405162461bcd60e51b815260206004820152602e60248201527f496e697469616c697a61626c653a20636f6e747261637420697320616c72656160448201527f647920696e697469616c697a65640000000000000000000000000000000000006064820152608490fd5b50303b158015610c015750600160ff821614610c01565b50600160ff821610610bfa565b346101ba5760003660031901126101ba57610d43612bb6565b60006001600160a01b036033546001600160a01b03198116603355167f8be0079c531659141344cd1fd0a4f28419497f9722a3daafe3b4186f6b6457e08280a3005b346101ba5760603660031901126101ba576001600160a01b03600435602435604435838116908190036101ba573360005260209360cb8552610dd460ff60026040600020015460a81c16612f77565b610de160c954851061305d565b3360005260cb8552610e0760ff60026040600020015416610e0181612962565b15612fcf565b8360005260cc8552604060002090600d820190815490610e2d60ff83166106b081612962565b3390600a8501541603610f7d5760ff8160081c16610f125760028301548511610ea7576003830185905561ff001916610100179055600b0180546001600160a01b031916909117905560408051928352928201527f99f063607b2d9f794eb8985daf4a0d3224e73b48e43228a183329e415dff077e9190a1005b60405162461bcd60e51b815260048101889052603e60248201527f5265717565737420616d6f756e74206d757374206265206c657373207468616e60448201527f206f7220657175616c20746f207468652072616973656420616d6f756e7400006064820152608490fd5b60405162461bcd60e51b815260048101889052603460248201527f4120726571756573742068617320616c7265616479206265656e20637265617460448201527f656420666f7220746869732063616d706169676e0000000000000000000000006064820152608490fd5b60405162461bcd60e51b815260048101889052602a60248201527f4f6e6c792074686520656e7472657072656e6575722063616e2063726561746560448201527f20612072657175657374000000000000000000000000000000000000000000006064820152608490fd5b346101ba576020806003193601126101ba576004358060005260cc8252600c6040600020018054611018816130f5565b92611026604051948561285a565b818452601f19611035836130f5565b0136868601376110448261310d565b9260005b8381106110795761106c8661016a89886040519485946040865260408601906129f3565b9184830390850152612a30565b806001600160a01b0361108f6110c693856127b9565b90549060031b1c16806110a2838a61313f565b528460005260cd895260406000209060005288526040600020546101af828861313f565b611048565b346101ba5760003660031901126101ba576001600160a01b037f00000000000000000000000000000000000000000000000000000000000000001630036111365760206040517f360894a13ba1a3210667c828492db98dca3e2076cc3735a920a3ca505d382bbc8152f35b60405162461bcd60e51b815260206004820152603860248201527f555550535570677261646561626c653a206d757374206e6f742062652063616c60448201527f6c6564207468726f7567682064656c656761746563616c6c00000000000000006064820152608490fd5b60403660031901126101ba576111b56127a3565b60243567ffffffffffffffff81116101ba57366023820112156101ba576111e690369060248160040135910161299e565b6001600160a01b0390817f0000000000000000000000000000000000000000000000000000000000000000169161121f83301415612c56565b61124e7f360894a13ba1a3210667c828492db98dca3e2076cc3735a920a3ca505d382bbc938285541614612cc8565b7f4910fdfa16fed3260ed0e7147f7cc6da11a60208b5b9406d12a635614ffd91435460ff1615611284575050506101f890612d3a565b8316604051926352d1902d60e01b84526020938481600481865afa6000918161143b575b506113095760405162461bcd60e51b815260048101869052602e60248201527f45524331393637557067726164653a206e657720696d706c656d656e7461746960448201526d6f6e206973206e6f74205555505360901b6064820152608490fd5b939293036113e45761131a84612d3a565b7fbc7cd75a20ee27fd9adebab32041f755214dbc6bffa90cc0225b39da2e5c2d3b600080a28151158015906113dc575b61135057005b6101f892600080604051946113648661283e565b602786527f416464726573733a206c6f772d6c6576656c2064656c65676174652063616c6c85870152660819985a5b195960ca1b60408701528481519101845af4903d156113d3573d6113b681612982565b906113c4604051928361285a565b8152600081943d92013e612de8565b60609250612de8565b50600161134a565b60405162461bcd60e51b815260048101839052602960248201527f45524331393637557067726164653a20756e737570706f727465642070726f786044820152681a58589b195555525160ba1b6064820152608490fd5b9091508581813d8311611463575b611453818361285a565b810103126101ba575190876112a8565b503d611449565b6020806003193601126101ba57600435903360005260cb815261149a60ff60026040600020015460a81c16612f77565b6114a760c954831061305d565b3360005260cb81526114cf600160ff600260406000200154166114c981612962565b14612fcf565b8160005260cc815260ff600d60406000200154166114ec81612962565b611840578160005260cc81526004604060002001544210156117fc578160005260cc8152604060002061152960ff600d830154166106b081612962565b60048101544210156117b757341561174c576006810154421061170757600e81015434106116b6578260005260cd825260406000203360005282526040600020611574348254613041565b905560028101611585348254613041565b90558260005260ca8252604060002061159e815461304e565b90558260005260cd825260406000203360005282523460406000205414611657575b5060408051838152336020820152349181019190915260cc92907f0a4a91237423e0a1766a761c7cb029311d8b95d6b1b81db1b949a70c98b4e08e90606090a160005252604060002060028101546001820154111560001461163757600d8101805460ff191660011790555b600542910155600080f35b600481015442111561162c57600d8101805460ff1916600217905561162c565b600c0191825492680100000000000000008410156116a0578361168191600160cc960181556127b9565b81549060031b906001600160a01b0333831b921b1916179055916115c0565b634e487b7160e01b600052604160045260246000fd5b60405162461bcd60e51b815260048101839052602360248201527f41206d696e756d756d20636f6e747269627574696f6e2069732072657175697260448201526232b21760e91b6064820152608490fd5b60405162461bcd60e51b815260048101839052601c60248201527f43616d706169676e20686173206e6f74205374617274656420796574000000006044820152606490fd5b60405162461bcd60e51b815260048101839052602960248201527f446f6e6174696f6e20616d6f756e74206d75737420626520677265617465722060448201527f7468616e207a65726f00000000000000000000000000000000000000000000006064820152608490fd5b60405162461bcd60e51b815260048101839052601960248201527f43616d706169676e20706572696f642068617320656e646564000000000000006044820152606490fd5b6064906040519062461bcd60e51b82526004820152601560248201527f446561646c696e652068617320706173736564202100000000000000000000006044820152fd5b6064906040519062461bcd60e51b82526004820152600d60248201527f496e76616c6964207374617465000000000000000000000000000000000000006044820152fd5b346101ba576020806003193601126101ba5761189e6127a3565b6001600160a01b0391827f0000000000000000000000000000000000000000000000000000000000000000166118d681301415612c56565b6119057f360894a13ba1a3210667c828492db98dca3e2076cc3735a920a3ca505d382bbc918583541614612cc8565b604051908282019482861067ffffffffffffffff8711176116a057856040526000835260ff7f4910fdfa16fed3260ed0e7147f7cc6da11a60208b5b9406d12a635614ffd9143541660001461196257505050506101f89150612d3a565b8492939416906040516352d1902d60e01b81528581600481865afa60009181611af0575b506119e75760405162461bcd60e51b815260048101879052602e60248201527f45524331393637557067726164653a206e657720696d706c656d656e7461746960448201526d6f6e206973206e6f74205555505360901b6064820152608490fd5b94939403611a99576119f882612d3a565b7fbc7cd75a20ee27fd9adebab32041f755214dbc6bffa90cc0225b39da2e5c2d3b600080a2825115801590611a91575b611a2e57005b6000806101f89560405195611a428761283e565b602787527f416464726573733a206c6f772d6c6576656c2064656c65676174652063616c6c86880152660819985a5b195960ca1b60408801525190845af4903d156113d3573d6113b681612982565b506000611a28565b60405162461bcd60e51b815260048101849052602960248201527f45524331393637557067726164653a20756e737570706f727465642070726f786044820152681a58589b195555525160ba1b6064820152608490fd5b9091508681813d8311611b18575b611b08818361285a565b810103126101ba57519088611986565b503d611afe565b346101ba5760603660031901126101ba5767ffffffffffffffff6004358181116101ba57611b519036906004016129d5565b906024358181116101ba57611b6a9036906004016129d5565b6044359060038210156101ba57835115611f6957805115611f24573315611edf573360005260cb60205260ff60026040600020015460a81c16611e9a576040519360a08501858110858211176116a05760405284526020840152611bcd81612962565b6040830152336060830152600160808301523360005260cb60205260406000209180519283518381116116a057611c0482546127e7565b601f8111611e52575b50602094601f8211600114611dec57948192939495600092611de1575b50508160011b916000199060031b1c19161781555b6001810160208301519384519081116116a057611c5c82546127e7565b601f8111611d99575b506020601f8211600114611d2f57819060029596600092611d24575b50508160011b916000199060031b1c19161790555b0190604081015190611ca782612962565b611cb082612962565b82547fffffffffffffffffffff0000000000000000000000000000000000000000000060ff75ff000000000000000000000000000000000000000000608074ffffffffffffffffffffffffffffffffffffffff00606087015160081b16950151151560a81b16941691161717179055600080f35b015190508680611c81565b601f198216958360005260206000209660005b818110611d815750916002969791846001959410611d68575b505050811b019055611c96565b015160001960f88460031b161c19169055868080611d5b565b83830151895560019098019760209384019301611d42565b826000526020600020601f830160051c81019160208410611dd7575b601f0160051c01905b818110611dcb5750611c65565b60008155600101611dbe565b9091508190611db5565b015190508580611c2a565b601f198216958360005260206000209160005b888110611e3a57508360019596979810611e21575b505050811b018155611c3f565b015160001960f88460031b161c19169055858080611e14565b91926020600181928685015181550194019201611dff565b826000526020600020601f830160051c81019160208410611e90575b601f0160051c01905b818110611e845750611c0d565b60008155600101611e77565b9091508190611e6e565b60405162461bcd60e51b815260206004820152601a60248201527f5573657220697320616c726561647920726567697374657265640000000000006044820152606490fd5b60405162461bcd60e51b815260206004820152601660248201527f496e76616c69642077616c6c65742061646472657373000000000000000000006044820152606490fd5b60405162461bcd60e51b815260206004820152601860248201527f50617373776f72642063616e6e6f7420626520656d70747900000000000000006044820152606490fd5b60405162461bcd60e51b815260206004820152601560248201527f456d61696c2063616e6e6f7420626520656d70747900000000000000000000006044820152606490fd5b346101ba5760403660031901126101ba5767ffffffffffffffff6004358181116101ba57611fe09036906004016129d5565b906024359081116101ba57602091611fff6120059236906004016129d5565b90612ef7565b6040519015158152f35b346101ba5760c03660031901126101ba5760643567ffffffffffffffff81116101ba576120409036906004016129d5565b60843567ffffffffffffffff81116101ba576120609036906004016129d5565b9060a43567ffffffffffffffff81116101ba576120819036906004016129d5565b903360005260cb6020526120a260ff60026040600020015460a81c16612f77565b3360005260cb6020526120c360ff60026040600020015416610e0181612962565b600435156125be576120d760243542613041565b9160c954918260005260cc6020526040600020924260048501541015612553578355600a8301336001600160a01b0319825416179055600435600184015580519067ffffffffffffffff82116116a057819061213660078601546127e7565b601f8111612500575b50602090601f831160011461248e57600092612483575b50508160011b916000199060031b1c19161760078301555b835167ffffffffffffffff81116116a05761218c60088401546127e7565b601f811161243c575b506020601f82116001146123cd5781929394956000926123c2575b50508160011b916000199060031b1c19161760088301555b80519067ffffffffffffffff82116116a0576121e760098401546127e7565b601f8111612377575b50602090601f831160011461230657600d939291600091836122fb575b50508160011b916000199060031b1c19161760098201555b826004820155604435600e8201554260068201550160ff19815416905561224d60c95461304e565b908160c9553360005260cf60205260406000208054680100000000000000008110156116a057612282916001820181556127b9565b81549060031b906000198095831b921b191617905560c9549182019182116122e5577f91b289a829e71d811b8c69e4a24ba2d40d115d8a236e9a724cb3bb2d43cf72239160809160405191825233602083015260043560408301526060820152a1005b634e487b7160e01b600052601160045260246000fd5b01519050858061220d565b90601f198316916009850160005260206000209260005b81811061235f5750916001939185600d97969410612346575b505050811b016009820155612225565b015160001960f88460031b161c19169055858080612336565b9293602060018192878601518155019501930161231d565b600984016000526020600020601f840160051c810191602085106123b8575b601f0160051c01905b8181106123ac57506121f0565b6000815560010161239f565b9091508190612396565b0151905085806121b0565b6008840160005260206000209060005b601f1984168110612424575060019394959683601f1981161061240b575b505050811b0160088301556121c8565b015160001960f88460031b161c191690558580806123fb565b9091602060018192858b0151815501930191016123dd565b600884016000526020600020601f830160051c81016020841061247c575b601f830160051c82018110612470575050612195565b6000815560010161245a565b508061245a565b015190508680612156565b9250600785016000526020600020906000935b601f19841685106124e5576001945083601f198116106124cc575b505050811b01600783015561216e565b015160001960f88460031b161c191690558680806124bc565b818101518355602094850194600190930192909101906124a1565b909150600785016000526020600020601f840160051c81016020851061254c575b90849392915b601f830160051c8201811061253d57505061213f565b60008155859450600101612527565b5080612521565b60405162461bcd60e51b815260206004820152602960248201527f5468652063616d706169676e206d7573742062652061206461746520696e207460448201527f68652066757475726500000000000000000000000000000000000000000000006064820152608490fd5b60405162461bcd60e51b815260206004820152602760248201527f54617267657420616d6f756e74206d757374206265206772656174657220746860448201527f616e207a65726f000000000000000000000000000000000000000000000000006064820152608490fd5b346101ba5760203660031901126101ba5760043560005260cc602052604060002080546001820154916002810154600382015491600481015492600582015460068301546007840161267a9061287c565b6126866008860161287c565b916126936009870161287c565b936001600160a01b039889600a8901541699600b8901541696600d89015498600e0154996040519d8e809e81526020015260408d015260608c015260808b015260a08a015260c08901526101e08060e08a015288016126f191612922565b87810361010089015261270391612922565b86810361012088015261271591612922565b9361014086015261016085015260ff811661272f81612962565b61018085015260081c60ff1615156101a08401526101c08301520390f35b346101ba5760403660031901126101ba576127666127a3565b6001600160a01b03602435911660005260cf602052604060002080548210156101ba57602091612795916127b9565b90546040519160031b1c8152f35b600435906001600160a01b03821682036101ba57565b80548210156127d15760005260206000200190600090565b634e487b7160e01b600052603260045260246000fd5b90600182811c92168015612817575b602083101461280157565b634e487b7160e01b600052602260045260246000fd5b91607f16916127f6565b610200810190811067ffffffffffffffff8211176116a057604052565b6060810190811067ffffffffffffffff8211176116a057604052565b90601f8019910116810190811067ffffffffffffffff8211176116a057604052565b9060405191826000825492612890846127e7565b9081845260019485811690816000146128ff57506001146128bc575b50506128ba9250038361285a565b565b9093915060005260209081600020936000915b8183106128e75750506128ba935082010138806128ac565b855488840185015294850194879450918301916128cf565b9150506128ba94506020925060ff191682840152151560051b82010138806128ac565b919082519283825260005b84811061294e575050826000602080949584010152601f8019910116010190565b60208183018101518483018201520161292d565b6003111561296c57565b634e487b7160e01b600052602160045260246000fd5b67ffffffffffffffff81116116a057601f01601f191660200190565b9291926129aa82612982565b916129b8604051938461285a565b8294818452818301116101ba578281602093846000960137010152565b9080601f830112156101ba578160206129f09335910161299e565b90565b90815180825260208080930193019160005b828110612a13575050505090565b83516001600160a01b031685529381019392810192600101612a05565b90815180825260208080930193019160005b828110612a50575050505090565b835185529381019392810192600101612a42565b90815181526020820151602082015260408201516040820152606082015160608201526080820151608082015260a082015160a082015260c082015160c0820152612b25612aef612adb612ac760e08601516102008060e0880152860190612922565b610100808701519086830390870152612922565b610120808601519085830390860152612922565b6001600160a01b0361014081818701511690850152610160908186015116908401526101808085015190848303908501526129f3565b916101a08082015190612b3782612962565b8301526101c0808201511515908301526101e08091015191015290565b602080820190808352835180925260408301928160408460051b8301019501936000915b848310612b885750505050505090565b9091929394958480612ba6600193603f198682030187528a51612a64565b9801930193019194939290612b78565b6001600160a01b03603354163303612bca57565b606460405162461bcd60e51b815260206004820152602060248201527f4f776e61626c653a2063616c6c6572206973206e6f7420746865206f776e65726044820152fd5b603354906001600160a01b0380911691826001600160a01b0319821617603355167f8be0079c531659141344cd1fd0a4f28419497f9722a3daafe3b4186f6b6457e0600080a3565b15612c5d57565b60405162461bcd60e51b815260206004820152602c60248201527f46756e6374696f6e206d7573742062652063616c6c6564207468726f7567682060448201527f64656c656761746563616c6c00000000000000000000000000000000000000006064820152608490fd5b15612ccf57565b60405162461bcd60e51b815260206004820152602c60248201527f46756e6374696f6e206d7573742062652063616c6c6564207468726f7567682060448201527f6163746976652070726f787900000000000000000000000000000000000000006064820152608490fd5b803b15612d7d576001600160a01b037f360894a13ba1a3210667c828492db98dca3e2076cc3735a920a3ca505d382bbc91166001600160a01b0319825416179055565b60405162461bcd60e51b815260206004820152602d60248201527f455243313936373a206e657720696d706c656d656e746174696f6e206973206e60448201527f6f74206120636f6e7472616374000000000000000000000000000000000000006064820152608490fd5b91929015612e4a5750815115612dfc575090565b3b15612e055790565b60405162461bcd60e51b815260206004820152601d60248201527f416464726573733a2063616c6c20746f206e6f6e2d636f6e74726163740000006044820152606490fd5b825190915015612e5d5750805190602001fd5b60405162461bcd60e51b815260206004820152908190612e81906024830190612922565b0390fd5b15612e8c57565b60405162461bcd60e51b815260206004820152602b60248201527f496e697469616c697a61626c653a20636f6e7472616374206973206e6f74206960448201527f6e697469616c697a696e670000000000000000000000000000000000000000006064820152608490fd5b903360005260cb602052604060002060ff600282015460a81c169283612f54575b5082612f2f575b5050612f2a57600090565b600190565b612f3d91925060010161287c565b602081519101209060208151910120143880612f1f565b909250612f608361287c565b602081519101209060208151910120149138612f18565b15612f7e57565b60405162461bcd60e51b815260206004820152602360248201527f4f6e6c792076657269666965642075736572732063616e20706172746963697060448201526261746560e81b6064820152608490fd5b15612fd657565b60405162461bcd60e51b815260206004820152603c60248201527f4f6e6c79207573657273206f662074686520737065636966696564206361746560448201527f676f72792063616e20706572666f726d207468697320616374696f6e000000006064820152608490fd5b919082018092116122e557565b60001981146122e55760010190565b1561306457565b60405162461bcd60e51b815260206004820152601760248201527f43616d706169676e20646f6573206e6f742065786973740000000000000000006044820152606490fd5b156130b057565b60405162461bcd60e51b815260206004820152601760248201527f43616d706169676e206973206e6f74206f6e676f696e670000000000000000006044820152606490fd5b67ffffffffffffffff81116116a05760051b60200190565b90613117826130f5565b613124604051918261285a565b8281528092613135601f19916130f5565b0190602036910137565b80518210156127d15760209160051b010190565b9060405191828154918282526020928383019160005283600020936000905b828210613188575050506128ba9250038361285a565b85546001600160a01b031684526001958601958895509381019390910190613172565b604051906131b882612821565b816101e06000918281528260208201528260408201528260608201528260808201528260a08201528260c0820152606060e08201526060610100820152606061012082015282610140820152826101608201526060610180820152826101a0820152826101c08201520152565b9061322f826130f5565b61323c604051918261285a565b828152809261324d601f19916130f5565b019060005b82811061325e57505050565b6020906132696131ab565b82828501015201613252565b805491600092835260209260ca845260409384822054908293835b600c870180548210156132fb5781865260ce84526001600160a01b036132b9838b8920936127b9565b90549060031b1c168652835260ff88862054166132e3575b6132dc600c9161304e565b9050613290565b946132dc6132f2600c9261304e565b969150506132d1565b50509550509192505060011c11159056fea164736f6c6343000812000a","opcodes":"PUSH1 0xA0 DUP1 PUSH1 0x40 MSTORE CALLVALUE PUSH2 0x31 JUMPI ADDRESS PUSH1 0x80 MSTORE PUSH2 0x3319 SWAP1 DUP2 PUSH2 0x37 DUP3 CODECOPY PUSH1 0x80 MLOAD DUP2 DUP2 DUP2 PUSH2 0x10E6 ADD MSTORE DUP2 DUP2 PUSH2 0x11F2 ADD MSTORE PUSH2 0x18AA ADD MSTORE RETURN JUMPDEST PUSH1 0x0 DUP1 REVERT INVALID PUSH1 0x80 PUSH1 0x40 MSTORE PUSH1 0x4 CALLDATASIZE LT ISZERO PUSH2 0x12 JUMPI PUSH1 0x0 DUP1 REVERT JUMPDEST PUSH1 0x0 CALLDATALOAD PUSH1 0xE0 SHR DUP1 PUSH4 0xF35F5DF EQ PUSH2 0x274D JUMPI DUP1 PUSH4 0x141961BC EQ PUSH2 0x2629 JUMPI DUP1 PUSH4 0x1AD417BF EQ PUSH2 0x200F JUMPI DUP1 PUSH4 0x22CE12E5 EQ PUSH2 0x1FAE JUMPI DUP1 PUSH4 0x2E17A931 EQ PUSH2 0x1B1F JUMPI DUP1 PUSH4 0x3659CFE6 EQ PUSH2 0x1884 JUMPI DUP1 PUSH4 0x42A4FDA8 EQ PUSH2 0x146A JUMPI DUP1 PUSH4 0x4F1EF286 EQ PUSH2 0x11A1 JUMPI DUP1 PUSH4 0x52D1902D EQ PUSH2 0x10CB JUMPI DUP1 PUSH4 0x67C2CBAD EQ PUSH2 0xFE8 JUMPI DUP1 PUSH4 0x70DEBCF7 EQ PUSH2 0xD85 JUMPI DUP1 PUSH4 0x715018A6 EQ PUSH2 0xD2A JUMPI DUP1 PUSH4 0x8129FC1C EQ PUSH2 0xBD5 JUMPI DUP1 PUSH4 0x8DA5CB5B EQ PUSH2 0xBAE JUMPI DUP1 PUSH4 0x8E5BAA62 EQ PUSH2 0xB30 JUMPI DUP1 PUSH4 0xA6B03633 EQ PUSH2 0x9E9 JUMPI DUP1 PUSH4 0xA7247CD9 EQ PUSH2 0x61D JUMPI DUP1 PUSH4 0xA87430BA EQ PUSH2 0x57B JUMPI DUP1 PUSH4 0xE27883FB EQ PUSH2 0x538 JUMPI DUP1 PUSH4 0xE6FFCAA1 EQ PUSH2 0x413 JUMPI DUP1 PUSH4 0xEFB80183 EQ PUSH2 0x265 JUMPI DUP1 PUSH4 0xF2FDE38B EQ PUSH2 0x1BF JUMPI PUSH4 0xFFA676D1 EQ PUSH2 0x119 JUMPI PUSH1 0x0 DUP1 REVERT JUMPDEST CALLVALUE PUSH2 0x1BA JUMPI PUSH1 0x20 DUP1 PUSH1 0x3 NOT CALLDATASIZE ADD SLT PUSH2 0x1BA JUMPI PUSH1 0x4 CALLDATALOAD SWAP1 DUP2 PUSH1 0x0 MSTORE PUSH1 0xCC DUP2 MSTORE PUSH1 0xC PUSH1 0x40 PUSH1 0x0 KECCAK256 ADD SWAP2 DUP3 SLOAD SWAP1 PUSH2 0x14C DUP3 PUSH2 0x310D JUMP JUMPDEST SWAP4 PUSH1 0x0 JUMPDEST DUP4 DUP2 LT PUSH2 0x16E JUMPI PUSH1 0x40 MLOAD DUP6 DUP2 MSTORE DUP1 PUSH2 0x16A DUP2 DUP9 ADD DUP10 PUSH2 0x2A30 JUMP JUMPDEST SUB SWAP1 RETURN JUMPDEST DUP1 PUSH1 0x1 PUSH1 0x1 PUSH1 0xA0 SHL SUB PUSH2 0x184 PUSH2 0x1B5 SWAP4 DUP6 PUSH2 0x27B9 JUMP JUMPDEST SWAP2 SWAP1 SLOAD DUP7 PUSH1 0x0 MSTORE PUSH1 0xCD DUP10 MSTORE PUSH1 0x40 PUSH1 0x0 KECCAK256 SWAP3 PUSH1 0x3 SHL SHR AND PUSH1 0x0 MSTORE DUP7 MSTORE PUSH1 0x40 PUSH1 0x0 KECCAK256 SLOAD PUSH2 0x1AF DUP3 DUP10 PUSH2 0x313F JUMP JUMPDEST MSTORE PUSH2 0x304E JUMP JUMPDEST PUSH2 0x150 JUMP JUMPDEST PUSH1 0x0 DUP1 REVERT JUMPDEST CALLVALUE PUSH2 0x1BA JUMPI PUSH1 0x20 CALLDATASIZE PUSH1 0x3 NOT ADD SLT PUSH2 0x1BA JUMPI PUSH2 0x1D8 PUSH2 0x27A3 JUMP JUMPDEST PUSH2 0x1E0 PUSH2 0x2BB6 JUMP JUMPDEST PUSH1 0x1 PUSH1 0x1 PUSH1 0xA0 SHL SUB DUP2 AND ISZERO PUSH2 0x1FA JUMPI PUSH2 0x1F8 SWAP1 PUSH2 0x2C0E JUMP JUMPDEST STOP JUMPDEST PUSH1 0x40 MLOAD PUSH3 0x461BCD PUSH1 0xE5 SHL DUP2 MSTORE PUSH1 0x20 PUSH1 0x4 DUP3 ADD MSTORE PUSH1 0x26 PUSH1 0x24 DUP3 ADD MSTORE PUSH32 0x4F776E61626C653A206E6577206F776E657220697320746865207A65726F2061 PUSH1 0x44 DUP3 ADD MSTORE PUSH32 0x6464726573730000000000000000000000000000000000000000000000000000 PUSH1 0x64 DUP3 ADD MSTORE PUSH1 0x84 SWAP1 REVERT JUMPDEST CALLVALUE PUSH2 0x1BA JUMPI PUSH1 0x20 DUP1 PUSH1 0x3 NOT CALLDATASIZE ADD SLT PUSH2 0x1BA JUMPI PUSH1 0x1 PUSH1 0x1 PUSH1 0xA0 SHL SUB DUP1 PUSH2 0x288 PUSH2 0x27A3 JUMP JUMPDEST AND PUSH1 0x0 MSTORE PUSH1 0xCF DUP3 MSTORE PUSH1 0x40 PUSH1 0x0 KECCAK256 SWAP1 PUSH1 0x40 MLOAD DUP1 DUP4 DUP6 DUP3 SWAP6 SLOAD SWAP4 DUP5 DUP2 MSTORE ADD SWAP1 PUSH1 0x0 MSTORE DUP6 PUSH1 0x0 KECCAK256 SWAP3 PUSH1 0x0 JUMPDEST DUP8 DUP3 DUP3 LT PUSH2 0x3FD JUMPI POP POP POP PUSH2 0x2C7 SWAP3 POP SUB DUP4 PUSH2 0x285A JUMP JUMPDEST PUSH2 0x2D1 DUP3 MLOAD PUSH2 0x3225 JUMP JUMPDEST SWAP1 PUSH1 0x0 JUMPDEST DUP4 MLOAD DUP2 LT ISZERO PUSH2 0x3EF JUMPI PUSH2 0x2E8 DUP2 DUP6 PUSH2 0x313F JUMP JUMPDEST MLOAD PUSH1 0x0 MSTORE PUSH1 0xCC DUP6 MSTORE PUSH1 0x40 PUSH1 0x0 KECCAK256 SWAP1 PUSH1 0x40 MLOAD PUSH2 0x302 DUP2 PUSH2 0x2821 JUMP JUMPDEST DUP3 SLOAD DUP2 MSTORE PUSH1 0xE PUSH1 0x1 SWAP4 DUP5 DUP2 ADD SLOAD DUP10 DUP5 ADD MSTORE PUSH1 0x2 DUP2 ADD SLOAD PUSH1 0x40 DUP5 ADD MSTORE PUSH1 0x3 DUP2 ADD SLOAD PUSH1 0x60 DUP5 ADD MSTORE PUSH1 0x4 DUP2 ADD SLOAD PUSH1 0x80 DUP5 ADD MSTORE PUSH1 0x5 DUP2 ADD SLOAD PUSH1 0xA0 DUP5 ADD MSTORE PUSH1 0x6 DUP2 ADD SLOAD PUSH1 0xC0 DUP5 ADD MSTORE PUSH2 0x351 PUSH1 0x7 DUP3 ADD PUSH2 0x287C JUMP JUMPDEST PUSH1 0xE0 DUP5 ADD MSTORE PUSH1 0x8 PUSH2 0x363 DUP2 DUP4 ADD PUSH2 0x287C JUMP JUMPDEST PUSH2 0x100 DUP6 ADD MSTORE PUSH2 0x375 PUSH1 0x9 DUP4 ADD PUSH2 0x287C JUMP JUMPDEST PUSH2 0x120 DUP6 ADD MSTORE DUP7 PUSH1 0xA DUP4 ADD SLOAD AND PUSH2 0x140 DUP6 ADD MSTORE DUP7 PUSH1 0xB DUP4 ADD SLOAD AND PUSH2 0x160 DUP6 ADD MSTORE PUSH2 0x3A1 PUSH1 0xC DUP4 ADD PUSH2 0x3153 JUMP JUMPDEST PUSH2 0x180 DUP6 ADD MSTORE PUSH1 0xD DUP3 ADD SLOAD PUSH1 0xFF SWAP2 DUP3 DUP3 AND PUSH2 0x3BB DUP2 PUSH2 0x2962 JUMP JUMPDEST PUSH2 0x1A0 DUP8 ADD MSTORE SHR AND ISZERO ISZERO PUSH2 0x1C0 DUP5 ADD MSTORE ADD SLOAD PUSH2 0x1E0 DUP3 ADD MSTORE PUSH2 0x3DD DUP3 DUP7 PUSH2 0x313F JUMP JUMPDEST MSTORE PUSH2 0x3E8 DUP2 DUP6 PUSH2 0x313F JUMP JUMPDEST POP ADD PUSH2 0x2D5 JUMP JUMPDEST PUSH1 0x40 MLOAD DUP1 PUSH2 0x16A DUP6 DUP3 PUSH2 0x2B54 JUMP JUMPDEST DUP6 SLOAD DUP5 MSTORE PUSH1 0x1 SWAP6 DUP7 ADD SWAP6 DUP9 SWAP6 POP SWAP4 ADD SWAP3 ADD PUSH2 0x2B0 JUMP JUMPDEST CALLVALUE PUSH2 0x1BA JUMPI PUSH1 0x20 CALLDATASIZE PUSH1 0x3 NOT ADD SLT PUSH2 0x1BA JUMPI PUSH2 0x42C PUSH2 0x31AB JUMP JUMPDEST POP PUSH1 0x4 CALLDATALOAD PUSH1 0x0 MSTORE PUSH1 0xCC PUSH1 0x20 MSTORE PUSH2 0x16A PUSH1 0x40 PUSH1 0x0 KECCAK256 PUSH1 0xE PUSH1 0x40 MLOAD SWAP2 PUSH2 0x44F DUP4 PUSH2 0x2821 JUMP JUMPDEST DUP1 SLOAD DUP4 MSTORE PUSH1 0x1 DUP2 ADD SLOAD PUSH1 0x20 DUP5 ADD MSTORE PUSH1 0x2 DUP2 ADD SLOAD PUSH1 0x40 DUP5 ADD MSTORE PUSH1 0x3 DUP2 ADD SLOAD PUSH1 0x60 DUP5 ADD MSTORE PUSH1 0x4 DUP2 ADD SLOAD PUSH1 0x80 DUP5 ADD MSTORE PUSH1 0x5 DUP2 ADD SLOAD PUSH1 0xA0 DUP5 ADD MSTORE PUSH1 0x6 DUP2 ADD SLOAD PUSH1 0xC0 DUP5 ADD MSTORE PUSH2 0x49B PUSH1 0x7 DUP3 ADD PUSH2 0x287C JUMP JUMPDEST PUSH1 0xE0 DUP5 ADD MSTORE PUSH2 0x4AC PUSH1 0x8 DUP3 ADD PUSH2 0x287C JUMP JUMPDEST PUSH2 0x100 DUP5 ADD MSTORE PUSH2 0x4BE PUSH1 0x9 DUP3 ADD PUSH2 0x287C JUMP JUMPDEST PUSH2 0x120 DUP5 ADD MSTORE PUSH1 0x1 PUSH1 0x1 PUSH1 0xA0 SHL SUB DUP1 PUSH1 0xA DUP4 ADD SLOAD AND PUSH2 0x140 DUP6 ADD MSTORE PUSH1 0xB DUP3 ADD SLOAD AND PUSH2 0x160 DUP5 ADD MSTORE PUSH2 0x4F1 PUSH1 0xC DUP3 ADD PUSH2 0x3153 JUMP JUMPDEST PUSH2 0x180 DUP5 ADD MSTORE PUSH1 0xFF PUSH1 0xD DUP3 ADD SLOAD DUP2 DUP2 AND PUSH2 0x50A DUP2 PUSH2 0x2962 JUMP JUMPDEST PUSH2 0x1A0 DUP7 ADD MSTORE PUSH1 0x8 SHR AND ISZERO ISZERO PUSH2 0x1C0 DUP5 ADD MSTORE ADD SLOAD PUSH2 0x1E0 DUP3 ADD MSTORE PUSH1 0x40 MLOAD SWAP2 DUP3 SWAP2 PUSH1 0x20 DUP4 MSTORE PUSH1 0x20 DUP4 ADD SWAP1 PUSH2 0x2A64 JUMP JUMPDEST CALLVALUE PUSH2 0x1BA JUMPI PUSH1 0x20 CALLDATASIZE PUSH1 0x3 NOT ADD SLT PUSH2 0x1BA JUMPI PUSH1 0x4 CALLDATALOAD PUSH1 0x0 MSTORE PUSH1 0xCC PUSH1 0x20 MSTORE PUSH2 0x16A PUSH2 0x567 PUSH1 0xC PUSH1 0x40 PUSH1 0x0 KECCAK256 ADD PUSH2 0x3153 JUMP JUMPDEST PUSH1 0x40 MLOAD SWAP2 DUP3 SWAP2 PUSH1 0x20 DUP4 MSTORE PUSH1 0x20 DUP4 ADD SWAP1 PUSH2 0x29F3 JUMP JUMPDEST CALLVALUE PUSH2 0x1BA JUMPI PUSH1 0x20 CALLDATASIZE PUSH1 0x3 NOT ADD SLT PUSH2 0x1BA JUMPI PUSH2 0x5E7 PUSH1 0x1 PUSH1 0x1 PUSH1 0xA0 SHL SUB DUP1 PUSH2 0x5A0 PUSH2 0x27A3 JUMP JUMPDEST AND PUSH1 0x0 MSTORE PUSH1 0xCB PUSH1 0x20 MSTORE PUSH1 0x40 PUSH1 0x0 KECCAK256 PUSH1 0xFF PUSH2 0x5B9 DUP3 PUSH2 0x287C JUMP JUMPDEST SWAP3 PUSH1 0x2 PUSH2 0x5C8 PUSH1 0x1 DUP6 ADD PUSH2 0x287C JUMP JUMPDEST SWAP4 ADD SLOAD SWAP1 PUSH2 0x5F5 DUP4 DUP4 AND SWAP5 PUSH1 0x40 MLOAD SWAP8 DUP9 SWAP8 PUSH1 0xA0 DUP10 MSTORE PUSH1 0xA0 DUP10 ADD SWAP1 PUSH2 0x2922 JUMP JUMPDEST SWAP1 DUP8 DUP3 SUB PUSH1 0x20 DUP10 ADD MSTORE PUSH2 0x2922 JUMP JUMPDEST SWAP4 PUSH2 0x5FF DUP2 PUSH2 0x2962 JUMP JUMPDEST PUSH1 0x40 DUP7 ADD MSTORE DUP2 PUSH1 0x8 SHR AND PUSH1 0x60 DUP6 ADD MSTORE PUSH1 0xA8 SHR AND ISZERO ISZERO PUSH1 0x80 DUP4 ADD MSTORE SUB SWAP1 RETURN JUMPDEST CALLVALUE PUSH2 0x1BA JUMPI PUSH1 0x20 DUP1 PUSH1 0x3 NOT CALLDATASIZE ADD SLT PUSH2 0x1BA JUMPI PUSH1 0x4 CALLDATALOAD SWAP1 CALLER PUSH1 0x0 MSTORE PUSH1 0xCB DUP2 MSTORE PUSH1 0xFF SWAP2 PUSH1 0x2 SWAP1 PUSH2 0x656 DUP5 DUP4 PUSH1 0x40 PUSH1 0x0 KECCAK256 ADD SLOAD PUSH1 0xA8 SHR AND PUSH2 0x2F77 JUMP JUMPDEST PUSH2 0x663 PUSH1 0xC9 SLOAD DUP3 LT PUSH2 0x305D JUMP JUMPDEST CALLER PUSH1 0x0 MSTORE PUSH1 0xCB DUP4 MSTORE DUP4 DUP3 PUSH1 0x40 PUSH1 0x0 KECCAK256 ADD SLOAD AND SWAP3 PUSH2 0x67F DUP5 PUSH2 0x2962 JUMP JUMPDEST PUSH2 0x68C PUSH1 0x1 DUP1 SWAP6 EQ PUSH2 0x2FCF JUMP JUMPDEST DUP2 PUSH1 0x0 MSTORE PUSH1 0xCC SWAP3 DUP4 DUP3 MSTORE PUSH1 0x40 PUSH1 0x0 KECCAK256 SWAP4 PUSH1 0xD DUP6 ADD SLOAD PUSH2 0x6B6 DUP9 DUP3 AND PUSH2 0x6B0 DUP2 PUSH2 0x2962 JUMP JUMPDEST ISZERO PUSH2 0x30A9 JUMP JUMPDEST DUP5 PUSH1 0x0 MSTORE PUSH1 0xCD DUP5 MSTORE PUSH1 0x40 PUSH1 0x0 KECCAK256 CALLER PUSH1 0x0 MSTORE DUP5 MSTORE PUSH1 0x40 PUSH1 0x0 KECCAK256 SLOAD ISZERO PUSH2 0x998 JUMPI PUSH1 0x8 SHR DUP8 AND ISZERO PUSH2 0x947 JUMPI DUP4 PUSH1 0x0 MSTORE PUSH1 0xCE DUP4 MSTORE PUSH1 0x40 PUSH1 0x0 KECCAK256 CALLER PUSH1 0x0 MSTORE DUP4 MSTORE DUP7 PUSH1 0x40 PUSH1 0x0 KECCAK256 SLOAD AND PUSH2 0x8DC JUMPI DUP4 PUSH1 0x0 MSTORE PUSH1 0xCE DUP4 MSTORE PUSH1 0x40 PUSH1 0x0 KECCAK256 CALLER PUSH1 0x0 MSTORE DUP4 MSTORE PUSH2 0x758 PUSH1 0x40 PUSH1 0x0 KECCAK256 SWAP6 PUSH1 0xFF NOT SWAP7 DUP9 DUP9 DUP3 SLOAD AND OR SWAP1 SSTORE PUSH32 0xF3DC904660A0EA05ABA8DFA1E21FBC4FB2914BE2A3029DA7B0FDD3E5EEE20DDB PUSH1 0x40 DUP1 MLOAD DUP9 DUP2 MSTORE CALLER DUP9 DUP3 ADD MSTORE LOG1 PUSH2 0x3275 JUMP JUMPDEST PUSH2 0x75E JUMPI STOP JUMPDEST DUP4 PUSH1 0x0 MSTORE DUP1 DUP4 MSTORE PUSH1 0x40 PUSH1 0x0 KECCAK256 SWAP3 PUSH2 0x77F PUSH1 0xD DUP6 ADD SWAP9 DUP10 SLOAD AND PUSH2 0x6B0 DUP2 PUSH2 0x2962 JUMP JUMPDEST PUSH2 0x788 DUP5 PUSH2 0x3275 JUMP JUMPDEST ISZERO PUSH2 0x868 JUMPI PUSH1 0x0 SWAP4 PUSH1 0xC ADD DUP8 JUMPDEST PUSH2 0x7AB JUMPI JUMPDEST POP POP POP POP POP POP DUP3 SLOAD AND OR SWAP1 SSTORE PUSH1 0x0 DUP1 RETURN JUMPDEST DUP1 SLOAD DUP6 LT ISZERO PUSH2 0x863 JUMPI DUP5 PUSH1 0x0 MSTORE DUP3 DUP3 MSTORE PUSH1 0x40 PUSH1 0x0 KECCAK256 SWAP5 DUP5 PUSH1 0x1 PUSH1 0x1 PUSH1 0xA0 SHL SUB PUSH1 0xB DUP9 ADD SLOAD AND SWAP7 ADD SLOAD SWAP1 PUSH1 0x0 DUP3 DUP9 DUP2 ISZERO PUSH2 0x859 JUMPI JUMPDEST PUSH1 0x0 SWAP3 DUP4 SWAP3 DUP4 SWAP3 DUP4 SWAP3 CALL ISZERO PUSH2 0x84D JUMPI PUSH32 0x6E3C6096795C8298A218B2CFB8BDE42726FF7C9A3D27B4D3BA41AB7F74FEB5FB PUSH2 0x847 SWAP3 DUP12 SWAP9 PUSH2 0x83F PUSH1 0x40 MLOAD SWAP3 DUP4 SWAP3 DUP14 DUP5 PUSH1 0x1 PUSH1 0x1 PUSH1 0xA0 SHL SUB PUSH1 0x40 SWAP3 SWAP6 SWAP5 SWAP4 PUSH1 0x60 DUP4 ADD SWAP7 DUP4 MSTORE AND PUSH1 0x20 DUP3 ADD MSTORE ADD MSTORE JUMP JUMPDEST SUB SWAP1 LOG1 PUSH2 0x304E JUMP JUMPDEST SWAP5 PUSH2 0x795 JUMP JUMPDEST PUSH1 0x40 MLOAD RETURNDATASIZE PUSH1 0x0 DUP3 RETURNDATACOPY RETURNDATASIZE SWAP1 REVERT JUMPDEST PUSH2 0x8FC SWAP3 POP PUSH2 0x7DF JUMP JUMPDEST PUSH2 0x79A JUMP JUMPDEST PUSH1 0xA4 SWAP1 PUSH1 0x40 MLOAD SWAP1 PUSH3 0x461BCD PUSH1 0xE5 SHL DUP3 MSTORE PUSH1 0x4 DUP3 ADD MSTORE PUSH1 0x41 PUSH1 0x24 DUP3 ADD MSTORE PUSH32 0x5265717565737420686173206E6F74206265656E20617070726F766564206279 PUSH1 0x44 DUP3 ADD MSTORE PUSH32 0x20746865207265717569726564206E756D626572206F6620696E766573746F72 PUSH1 0x64 DUP3 ADD MSTORE PUSH1 0x73 PUSH1 0xF8 SHL PUSH1 0x84 DUP3 ADD MSTORE REVERT JUMPDEST PUSH1 0x40 MLOAD PUSH3 0x461BCD PUSH1 0xE5 SHL DUP2 MSTORE PUSH1 0x4 DUP2 ADD DUP5 SWAP1 MSTORE PUSH1 0x29 PUSH1 0x24 DUP3 ADD MSTORE PUSH32 0x496E766573746F722068617320616C726561647920617070726F766564207468 PUSH1 0x44 DUP3 ADD MSTORE PUSH32 0x6520726571756573740000000000000000000000000000000000000000000000 PUSH1 0x64 DUP3 ADD MSTORE PUSH1 0x84 SWAP1 REVERT JUMPDEST PUSH1 0x40 MLOAD PUSH3 0x461BCD PUSH1 0xE5 SHL DUP2 MSTORE PUSH1 0x4 DUP2 ADD DUP5 SWAP1 MSTORE PUSH1 0x23 PUSH1 0x24 DUP3 ADD MSTORE PUSH32 0x4E6F20726571756573742065786973747320666F7220746869732063616D7061 PUSH1 0x44 DUP3 ADD MSTORE PUSH3 0x34B3B7 PUSH1 0xE9 SHL PUSH1 0x64 DUP3 ADD MSTORE PUSH1 0x84 SWAP1 REVERT JUMPDEST PUSH1 0x40 MLOAD PUSH3 0x461BCD PUSH1 0xE5 SHL DUP2 MSTORE PUSH1 0x4 DUP2 ADD DUP6 SWAP1 MSTORE PUSH1 0x24 DUP1 DUP3 ADD MSTORE PUSH32 0x4F6E6C7920696E766573746F72732063616E20617070726F7665206120726571 PUSH1 0x44 DUP3 ADD MSTORE PUSH4 0x1D595CDD PUSH1 0xE2 SHL PUSH1 0x64 DUP3 ADD MSTORE PUSH1 0x84 SWAP1 REVERT JUMPDEST CALLVALUE PUSH2 0x1BA JUMPI PUSH1 0x0 CALLDATASIZE PUSH1 0x3 NOT ADD SLT PUSH2 0x1BA JUMPI PUSH1 0xC9 SLOAD PUSH2 0xA06 DUP2 PUSH2 0x3225 JUMP JUMPDEST SWAP1 PUSH1 0x0 JUMPDEST DUP2 DUP2 LT PUSH2 0xA1F JUMPI PUSH1 0x40 MLOAD DUP1 PUSH2 0x16A DUP6 DUP3 PUSH2 0x2B54 JUMP JUMPDEST DUP1 PUSH1 0x0 MSTORE PUSH1 0x20 SWAP1 PUSH1 0xCC DUP3 MSTORE PUSH1 0x40 PUSH1 0x0 KECCAK256 PUSH1 0xE PUSH1 0x40 MLOAD SWAP2 PUSH2 0xA3E DUP4 PUSH2 0x2821 JUMP JUMPDEST DUP1 SLOAD DUP4 MSTORE PUSH1 0x1 SWAP5 DUP6 DUP3 ADD SLOAD SWAP1 DUP5 ADD MSTORE PUSH1 0x2 DUP2 ADD SLOAD PUSH1 0x40 DUP5 ADD MSTORE PUSH1 0x3 DUP2 ADD SLOAD PUSH1 0x60 DUP5 ADD MSTORE PUSH1 0x4 DUP2 ADD SLOAD PUSH1 0x80 DUP5 ADD MSTORE PUSH1 0x5 DUP2 ADD SLOAD PUSH1 0xA0 DUP5 ADD MSTORE PUSH1 0x6 DUP2 ADD SLOAD PUSH1 0xC0 DUP5 ADD MSTORE PUSH2 0xA8B PUSH1 0x7 DUP3 ADD PUSH2 0x287C JUMP JUMPDEST PUSH1 0xE0 DUP5 ADD MSTORE PUSH1 0x8 PUSH2 0xA9D DUP2 DUP4 ADD PUSH2 0x287C JUMP JUMPDEST PUSH2 0x100 DUP6 ADD MSTORE PUSH2 0xAAF PUSH1 0x9 DUP4 ADD PUSH2 0x287C JUMP JUMPDEST PUSH2 0x120 DUP6 ADD MSTORE PUSH1 0x1 PUSH1 0x1 PUSH1 0xA0 SHL SUB DUP1 PUSH1 0xA DUP5 ADD SLOAD AND PUSH2 0x140 DUP7 ADD MSTORE PUSH1 0xB DUP4 ADD SLOAD AND PUSH2 0x160 DUP6 ADD MSTORE PUSH2 0xAE2 PUSH1 0xC DUP4 ADD PUSH2 0x3153 JUMP JUMPDEST PUSH2 0x180 DUP6 ADD MSTORE PUSH1 0xD DUP3 ADD SLOAD PUSH1 0xFF SWAP2 DUP3 DUP3 AND PUSH2 0xAFC DUP2 PUSH2 0x2962 JUMP JUMPDEST PUSH2 0x1A0 DUP8 ADD MSTORE SHR AND ISZERO ISZERO PUSH2 0x1C0 DUP5 ADD MSTORE ADD SLOAD PUSH2 0x1E0 DUP3 ADD MSTORE PUSH2 0xB1E DUP3 DUP7 PUSH2 0x313F JUMP JUMPDEST MSTORE PUSH2 0xB29 DUP2 DUP6 PUSH2 0x313F JUMP JUMPDEST POP ADD PUSH2 0xA0A JUMP JUMPDEST CALLVALUE PUSH2 0x1BA JUMPI PUSH1 0x20 DUP1 PUSH1 0x3 NOT CALLDATASIZE ADD SLT PUSH2 0x1BA JUMPI PUSH2 0xB4A PUSH2 0x27A3 JUMP JUMPDEST PUSH1 0xC9 SLOAD PUSH1 0x0 SWAP2 PUSH1 0x1 PUSH1 0x1 PUSH1 0xA0 SHL SUB AND DUP3 JUMPDEST DUP3 DUP2 LT PUSH2 0xB6D JUMPI POP POP POP PUSH1 0x40 MLOAD SWAP1 DUP2 MSTORE RETURN JUMPDEST DUP1 PUSH1 0x0 MSTORE PUSH1 0xCD DUP6 MSTORE PUSH1 0x40 PUSH1 0x0 KECCAK256 DUP3 PUSH1 0x0 MSTORE DUP6 MSTORE PUSH1 0x40 PUSH1 0x0 KECCAK256 SLOAD PUSH2 0xB99 JUMPI JUMPDEST PUSH2 0xB94 SWAP1 PUSH2 0x304E JUMP JUMPDEST PUSH2 0xB5B JUMP JUMPDEST SWAP3 PUSH2 0xBA6 PUSH2 0xB94 SWAP2 PUSH2 0x304E JUMP JUMPDEST SWAP4 SWAP1 POP PUSH2 0xB8B JUMP JUMPDEST CALLVALUE PUSH2 0x1BA JUMPI PUSH1 0x0 CALLDATASIZE PUSH1 0x3 NOT ADD SLT PUSH2 0x1BA JUMPI PUSH1 0x20 PUSH1 0x1 PUSH1 0x1 PUSH1 0xA0 SHL SUB PUSH1 0x33 SLOAD AND PUSH1 0x40 MLOAD SWAP1 DUP2 MSTORE RETURN JUMPDEST CALLVALUE PUSH2 0x1BA JUMPI PUSH1 0x0 CALLDATASIZE PUSH1 0x3 NOT ADD SLT PUSH2 0x1BA JUMPI PUSH1 0x0 SLOAD PUSH1 0xFF DUP2 PUSH1 0x8 SHR AND ISZERO SWAP1 DUP2 DUP1 SWAP3 PUSH2 0xD1D JUMPI JUMPDEST DUP1 ISZERO PUSH2 0xD06 JUMPI JUMPDEST ISZERO PUSH2 0xC9B JUMPI PUSH1 0xFF NOT DUP2 AND PUSH1 0x1 OR PUSH1 0x0 SSTORE DUP2 PUSH2 0xC89 JUMPI JUMPDEST POP PUSH2 0xC32 PUSH1 0xFF PUSH1 0x0 SLOAD PUSH1 0x8 SHR AND PUSH2 0xC2D DUP2 PUSH2 0x2E85 JUMP JUMPDEST PUSH2 0x2E85 JUMP JUMPDEST PUSH2 0xC3B CALLER PUSH2 0x2C0E JUMP JUMPDEST PUSH1 0x0 SLOAD SWAP1 PUSH2 0xC4E PUSH1 0xFF DUP4 PUSH1 0x8 SHR AND PUSH2 0x2E85 JUMP JUMPDEST PUSH2 0xC54 JUMPI STOP JUMPDEST PUSH2 0xFF00 NOT AND PUSH1 0x0 SSTORE PUSH32 0x7F26B83FF96E1F2B6A682F133852F6798A09C465DA95921460CEFB3847402498 PUSH1 0x20 PUSH1 0x40 MLOAD PUSH1 0x1 DUP2 MSTORE LOG1 STOP JUMPDEST PUSH2 0xFFFF NOT AND PUSH2 0x101 OR PUSH1 0x0 SSTORE DUP2 PUSH2 0xC17 JUMP JUMPDEST PUSH1 0x40 MLOAD PUSH3 0x461BCD PUSH1 0xE5 SHL DUP2 MSTORE PUSH1 0x20 PUSH1 0x4 DUP3 ADD MSTORE PUSH1 0x2E PUSH1 0x24 DUP3 ADD MSTORE PUSH32 0x496E697469616C697A61626C653A20636F6E747261637420697320616C726561 PUSH1 0x44 DUP3 ADD MSTORE PUSH32 0x647920696E697469616C697A6564000000000000000000000000000000000000 PUSH1 0x64 DUP3 ADD MSTORE PUSH1 0x84 SWAP1 REVERT JUMPDEST POP ADDRESS EXTCODESIZE ISZERO DUP1 ISZERO PUSH2 0xC01 JUMPI POP PUSH1 0x1 PUSH1 0xFF DUP3 AND EQ PUSH2 0xC01 JUMP JUMPDEST POP PUSH1 0x1 PUSH1 0xFF DUP3 AND LT PUSH2 0xBFA JUMP JUMPDEST CALLVALUE PUSH2 0x1BA JUMPI PUSH1 0x0 CALLDATASIZE PUSH1 0x3 NOT ADD SLT PUSH2 0x1BA JUMPI PUSH2 0xD43 PUSH2 0x2BB6 JUMP JUMPDEST PUSH1 0x0 PUSH1 0x1 PUSH1 0x1 PUSH1 0xA0 SHL SUB PUSH1 0x33 SLOAD PUSH1 0x1 PUSH1 0x1 PUSH1 0xA0 SHL SUB NOT DUP2 AND PUSH1 0x33 SSTORE AND PUSH32 0x8BE0079C531659141344CD1FD0A4F28419497F9722A3DAAFE3B4186F6B6457E0 DUP3 DUP1 LOG3 STOP JUMPDEST CALLVALUE PUSH2 0x1BA JUMPI PUSH1 0x60 CALLDATASIZE PUSH1 0x3 NOT ADD SLT PUSH2 0x1BA JUMPI PUSH1 0x1 PUSH1 0x1 PUSH1 0xA0 SHL SUB PUSH1 0x4 CALLDATALOAD PUSH1 0x24 CALLDATALOAD PUSH1 0x44 CALLDATALOAD DUP4 DUP2 AND SWAP1 DUP2 SWAP1 SUB PUSH2 0x1BA JUMPI CALLER PUSH1 0x0 MSTORE PUSH1 0x20 SWAP4 PUSH1 0xCB DUP6 MSTORE PUSH2 0xDD4 PUSH1 0xFF PUSH1 0x2 PUSH1 0x40 PUSH1 0x0 KECCAK256 ADD SLOAD PUSH1 0xA8 SHR AND PUSH2 0x2F77 JUMP JUMPDEST PUSH2 0xDE1 PUSH1 0xC9 SLOAD DUP6 LT PUSH2 0x305D JUMP JUMPDEST CALLER PUSH1 0x0 MSTORE PUSH1 0xCB DUP6 MSTORE PUSH2 0xE07 PUSH1 0xFF PUSH1 0x2 PUSH1 0x40 PUSH1 0x0 KECCAK256 ADD SLOAD AND PUSH2 0xE01 DUP2 PUSH2 0x2962 JUMP JUMPDEST ISZERO PUSH2 0x2FCF JUMP JUMPDEST DUP4 PUSH1 0x0 MSTORE PUSH1 0xCC DUP6 MSTORE PUSH1 0x40 PUSH1 0x0 KECCAK256 SWAP1 PUSH1 0xD DUP3 ADD SWAP1 DUP2 SLOAD SWAP1 PUSH2 0xE2D PUSH1 0xFF DUP4 AND PUSH2 0x6B0 DUP2 PUSH2 0x2962 JUMP JUMPDEST CALLER SWAP1 PUSH1 0xA DUP6 ADD SLOAD AND SUB PUSH2 0xF7D JUMPI PUSH1 0xFF DUP2 PUSH1 0x8 SHR AND PUSH2 0xF12 JUMPI PUSH1 0x2 DUP4 ADD SLOAD DUP6 GT PUSH2 0xEA7 JUMPI PUSH1 0x3 DUP4 ADD DUP6 SWAP1 SSTORE PUSH2 0xFF00 NOT AND PUSH2 0x100 OR SWAP1 SSTORE PUSH1 0xB ADD DUP1 SLOAD PUSH1 0x1 PUSH1 0x1 PUSH1 0xA0 SHL SUB NOT AND SWAP1 SWAP2 OR SWAP1 SSTORE PUSH1 0x40 DUP1 MLOAD SWAP3 DUP4 MSTORE SWAP3 DUP3 ADD MSTORE PUSH32 0x99F063607B2D9F794EB8985DAF4A0D3224E73B48E43228A183329E415DFF077E SWAP2 SWAP1 LOG1 STOP JUMPDEST PUSH1 0x40 MLOAD PUSH3 0x461BCD PUSH1 0xE5 SHL DUP2 MSTORE PUSH1 0x4 DUP2 ADD DUP9 SWAP1 MSTORE PUSH1 0x3E PUSH1 0x24 DUP3 ADD MSTORE PUSH32 0x5265717565737420616D6F756E74206D757374206265206C657373207468616E PUSH1 0x44 DUP3 ADD MSTORE PUSH32 0x206F7220657175616C20746F207468652072616973656420616D6F756E740000 PUSH1 0x64 DUP3 ADD MSTORE PUSH1 0x84 SWAP1 REVERT JUMPDEST PUSH1 0x40 MLOAD PUSH3 0x461BCD PUSH1 0xE5 SHL DUP2 MSTORE PUSH1 0x4 DUP2 ADD DUP9 SWAP1 MSTORE PUSH1 0x34 PUSH1 0x24 DUP3 ADD MSTORE PUSH32 0x4120726571756573742068617320616C7265616479206265656E206372656174 PUSH1 0x44 DUP3 ADD MSTORE PUSH32 0x656420666F7220746869732063616D706169676E000000000000000000000000 PUSH1 0x64 DUP3 ADD MSTORE PUSH1 0x84 SWAP1 REVERT JUMPDEST PUSH1 0x40 MLOAD PUSH3 0x461BCD PUSH1 0xE5 SHL DUP2 MSTORE PUSH1 0x4 DUP2 ADD DUP9 SWAP1 MSTORE PUSH1 0x2A PUSH1 0x24 DUP3 ADD MSTORE PUSH32 0x4F6E6C792074686520656E7472657072656E6575722063616E20637265617465 PUSH1 0x44 DUP3 ADD MSTORE PUSH32 0x2061207265717565737400000000000000000000000000000000000000000000 PUSH1 0x64 DUP3 ADD MSTORE PUSH1 0x84 SWAP1 REVERT JUMPDEST CALLVALUE PUSH2 0x1BA JUMPI PUSH1 0x20 DUP1 PUSH1 0x3 NOT CALLDATASIZE ADD SLT PUSH2 0x1BA JUMPI PUSH1 0x4 CALLDATALOAD DUP1 PUSH1 0x0 MSTORE PUSH1 0xCC DUP3 MSTORE PUSH1 0xC PUSH1 0x40 PUSH1 0x0 KECCAK256 ADD DUP1 SLOAD PUSH2 0x1018 DUP2 PUSH2 0x30F5 JUMP JUMPDEST SWAP3 PUSH2 0x1026 PUSH1 0x40 MLOAD SWAP5 DUP6 PUSH2 0x285A JUMP JUMPDEST DUP2 DUP5 MSTORE PUSH1 0x1F NOT PUSH2 0x1035 DUP4 PUSH2 0x30F5 JUMP JUMPDEST ADD CALLDATASIZE DUP7 DUP7 ADD CALLDATACOPY PUSH2 0x1044 DUP3 PUSH2 0x310D JUMP JUMPDEST SWAP3 PUSH1 0x0 JUMPDEST DUP4 DUP2 LT PUSH2 0x1079 JUMPI PUSH2 0x106C DUP7 PUSH2 0x16A DUP10 DUP9 PUSH1 0x40 MLOAD SWAP5 DUP6 SWAP5 PUSH1 0x40 DUP7 MSTORE PUSH1 0x40 DUP7 ADD SWAP1 PUSH2 0x29F3 JUMP JUMPDEST SWAP2 DUP5 DUP4 SUB SWAP1 DUP6 ADD MSTORE PUSH2 0x2A30 JUMP JUMPDEST DUP1 PUSH1 0x1 PUSH1 0x1 PUSH1 0xA0 SHL SUB PUSH2 0x108F PUSH2 0x10C6 SWAP4 DUP6 PUSH2 0x27B9 JUMP JUMPDEST SWAP1 SLOAD SWAP1 PUSH1 0x3 SHL SHR AND DUP1 PUSH2 0x10A2 DUP4 DUP11 PUSH2 0x313F JUMP JUMPDEST MSTORE DUP5 PUSH1 0x0 MSTORE PUSH1 0xCD DUP10 MSTORE PUSH1 0x40 PUSH1 0x0 KECCAK256 SWAP1 PUSH1 0x0 MSTORE DUP9 MSTORE PUSH1 0x40 PUSH1 0x0 KECCAK256 SLOAD PUSH2 0x1AF DUP3 DUP9 PUSH2 0x313F JUMP JUMPDEST PUSH2 0x1048 JUMP JUMPDEST CALLVALUE PUSH2 0x1BA JUMPI PUSH1 0x0 CALLDATASIZE PUSH1 0x3 NOT ADD SLT PUSH2 0x1BA JUMPI PUSH1 0x1 PUSH1 0x1 PUSH1 0xA0 SHL SUB PUSH32 0x0 AND ADDRESS SUB PUSH2 0x1136 JUMPI PUSH1 0x20 PUSH1 0x40 MLOAD PUSH32 0x360894A13BA1A3210667C828492DB98DCA3E2076CC3735A920A3CA505D382BBC DUP2 MSTORE RETURN JUMPDEST PUSH1 0x40 MLOAD PUSH3 0x461BCD PUSH1 0xE5 SHL DUP2 MSTORE PUSH1 0x20 PUSH1 0x4 DUP3 ADD MSTORE PUSH1 0x38 PUSH1 0x24 DUP3 ADD MSTORE PUSH32 0x555550535570677261646561626C653A206D757374206E6F742062652063616C PUSH1 0x44 DUP3 ADD MSTORE PUSH32 0x6C6564207468726F7567682064656C656761746563616C6C0000000000000000 PUSH1 0x64 DUP3 ADD MSTORE PUSH1 0x84 SWAP1 REVERT JUMPDEST PUSH1 0x40 CALLDATASIZE PUSH1 0x3 NOT ADD SLT PUSH2 0x1BA JUMPI PUSH2 0x11B5 PUSH2 0x27A3 JUMP JUMPDEST PUSH1 0x24 CALLDATALOAD PUSH8 0xFFFFFFFFFFFFFFFF DUP2 GT PUSH2 0x1BA JUMPI CALLDATASIZE PUSH1 0x23 DUP3 ADD SLT ISZERO PUSH2 0x1BA JUMPI PUSH2 0x11E6 SWAP1 CALLDATASIZE SWAP1 PUSH1 0x24 DUP2 PUSH1 0x4 ADD CALLDATALOAD SWAP2 ADD PUSH2 0x299E JUMP JUMPDEST PUSH1 0x1 PUSH1 0x1 PUSH1 0xA0 SHL SUB SWAP1 DUP2 PUSH32 0x0 AND SWAP2 PUSH2 0x121F DUP4 ADDRESS EQ ISZERO PUSH2 0x2C56 JUMP JUMPDEST PUSH2 0x124E PUSH32 0x360894A13BA1A3210667C828492DB98DCA3E2076CC3735A920A3CA505D382BBC SWAP4 DUP3 DUP6 SLOAD AND EQ PUSH2 0x2CC8 JUMP JUMPDEST PUSH32 0x4910FDFA16FED3260ED0E7147F7CC6DA11A60208B5B9406D12A635614FFD9143 SLOAD PUSH1 0xFF AND ISZERO PUSH2 0x1284 JUMPI POP POP POP PUSH2 0x1F8 SWAP1 PUSH2 0x2D3A JUMP JUMPDEST DUP4 AND PUSH1 0x40 MLOAD SWAP3 PUSH4 0x52D1902D PUSH1 0xE0 SHL DUP5 MSTORE PUSH1 0x20 SWAP4 DUP5 DUP2 PUSH1 0x4 DUP2 DUP7 GAS STATICCALL PUSH1 0x0 SWAP2 DUP2 PUSH2 0x143B JUMPI JUMPDEST POP PUSH2 0x1309 JUMPI PUSH1 0x40 MLOAD PUSH3 0x461BCD PUSH1 0xE5 SHL DUP2 MSTORE PUSH1 0x4 DUP2 ADD DUP7 SWAP1 MSTORE PUSH1 0x2E PUSH1 0x24 DUP3 ADD MSTORE PUSH32 0x45524331393637557067726164653A206E657720696D706C656D656E74617469 PUSH1 0x44 DUP3 ADD MSTORE PUSH14 0x6F6E206973206E6F742055555053 PUSH1 0x90 SHL PUSH1 0x64 DUP3 ADD MSTORE PUSH1 0x84 SWAP1 REVERT JUMPDEST SWAP4 SWAP3 SWAP4 SUB PUSH2 0x13E4 JUMPI PUSH2 0x131A DUP5 PUSH2 0x2D3A JUMP JUMPDEST PUSH32 0xBC7CD75A20EE27FD9ADEBAB32041F755214DBC6BFFA90CC0225B39DA2E5C2D3B PUSH1 0x0 DUP1 LOG2 DUP2 MLOAD ISZERO DUP1 ISZERO SWAP1 PUSH2 0x13DC JUMPI JUMPDEST PUSH2 0x1350 JUMPI STOP JUMPDEST PUSH2 0x1F8 SWAP3 PUSH1 0x0 DUP1 PUSH1 0x40 MLOAD SWAP5 PUSH2 0x1364 DUP7 PUSH2 0x283E JUMP JUMPDEST PUSH1 0x27 DUP7 MSTORE PUSH32 0x416464726573733A206C6F772D6C6576656C2064656C65676174652063616C6C DUP6 DUP8 ADD MSTORE PUSH7 0x819985A5B1959 PUSH1 0xCA SHL PUSH1 0x40 DUP8 ADD MSTORE DUP5 DUP2 MLOAD SWAP2 ADD DUP5 GAS DELEGATECALL SWAP1 RETURNDATASIZE ISZERO PUSH2 0x13D3 JUMPI RETURNDATASIZE PUSH2 0x13B6 DUP2 PUSH2 0x2982 JUMP JUMPDEST SWAP1 PUSH2 0x13C4 PUSH1 0x40 MLOAD SWAP3 DUP4 PUSH2 0x285A JUMP JUMPDEST DUP2 MSTORE PUSH1 0x0 DUP2 SWAP5 RETURNDATASIZE SWAP3 ADD RETURNDATACOPY PUSH2 0x2DE8 JUMP JUMPDEST PUSH1 0x60 SWAP3 POP PUSH2 0x2DE8 JUMP JUMPDEST POP PUSH1 0x1 PUSH2 0x134A JUMP JUMPDEST PUSH1 0x40 MLOAD PUSH3 0x461BCD PUSH1 0xE5 SHL DUP2 MSTORE PUSH1 0x4 DUP2 ADD DUP4 SWAP1 MSTORE PUSH1 0x29 PUSH1 0x24 DUP3 ADD MSTORE PUSH32 0x45524331393637557067726164653A20756E737570706F727465642070726F78 PUSH1 0x44 DUP3 ADD MSTORE PUSH9 0x1A58589B1955555251 PUSH1 0xBA SHL PUSH1 0x64 DUP3 ADD MSTORE PUSH1 0x84 SWAP1 REVERT JUMPDEST SWAP1 SWAP2 POP DUP6 DUP2 DUP2 RETURNDATASIZE DUP4 GT PUSH2 0x1463 JUMPI JUMPDEST PUSH2 0x1453 DUP2 DUP4 PUSH2 0x285A JUMP JUMPDEST DUP2 ADD SUB SLT PUSH2 0x1BA JUMPI MLOAD SWAP1 DUP8 PUSH2 0x12A8 JUMP JUMPDEST POP RETURNDATASIZE PUSH2 0x1449 JUMP JUMPDEST PUSH1 0x20 DUP1 PUSH1 0x3 NOT CALLDATASIZE ADD SLT PUSH2 0x1BA JUMPI PUSH1 0x4 CALLDATALOAD SWAP1 CALLER PUSH1 0x0 MSTORE PUSH1 0xCB DUP2 MSTORE PUSH2 0x149A PUSH1 0xFF PUSH1 0x2 PUSH1 0x40 PUSH1 0x0 KECCAK256 ADD SLOAD PUSH1 0xA8 SHR AND PUSH2 0x2F77 JUMP JUMPDEST PUSH2 0x14A7 PUSH1 0xC9 SLOAD DUP4 LT PUSH2 0x305D JUMP JUMPDEST CALLER PUSH1 0x0 MSTORE PUSH1 0xCB DUP2 MSTORE PUSH2 0x14CF PUSH1 0x1 PUSH1 0xFF PUSH1 0x2 PUSH1 0x40 PUSH1 0x0 KECCAK256 ADD SLOAD AND PUSH2 0x14C9 DUP2 PUSH2 0x2962 JUMP JUMPDEST EQ PUSH2 0x2FCF JUMP JUMPDEST DUP2 PUSH1 0x0 MSTORE PUSH1 0xCC DUP2 MSTORE PUSH1 0xFF PUSH1 0xD PUSH1 0x40 PUSH1 0x0 KECCAK256 ADD SLOAD AND PUSH2 0x14EC DUP2 PUSH2 0x2962 JUMP JUMPDEST PUSH2 0x1840 JUMPI DUP2 PUSH1 0x0 MSTORE PUSH1 0xCC DUP2 MSTORE PUSH1 0x4 PUSH1 0x40 PUSH1 0x0 KECCAK256 ADD SLOAD TIMESTAMP LT ISZERO PUSH2 0x17FC JUMPI DUP2 PUSH1 0x0 MSTORE PUSH1 0xCC DUP2 MSTORE PUSH1 0x40 PUSH1 0x0 KECCAK256 PUSH2 0x1529 PUSH1 0xFF PUSH1 0xD DUP4 ADD SLOAD AND PUSH2 0x6B0 DUP2 PUSH2 0x2962 JUMP JUMPDEST PUSH1 0x4 DUP2 ADD SLOAD TIMESTAMP LT ISZERO PUSH2 0x17B7 JUMPI CALLVALUE ISZERO PUSH2 0x174C JUMPI PUSH1 0x6 DUP2 ADD SLOAD TIMESTAMP LT PUSH2 0x1707 JUMPI PUSH1 0xE DUP2 ADD SLOAD CALLVALUE LT PUSH2 0x16B6 JUMPI DUP3 PUSH1 0x0 MSTORE PUSH1 0xCD DUP3 MSTORE PUSH1 0x40 PUSH1 0x0 KECCAK256 CALLER PUSH1 0x0 MSTORE DUP3 MSTORE PUSH1 0x40 PUSH1 0x0 KECCAK256 PUSH2 0x1574 CALLVALUE DUP3 SLOAD PUSH2 0x3041 JUMP JUMPDEST SWAP1 SSTORE PUSH1 0x2 DUP2 ADD PUSH2 0x1585 CALLVALUE DUP3 SLOAD PUSH2 0x3041 JUMP JUMPDEST SWAP1 SSTORE DUP3 PUSH1 0x0 MSTORE PUSH1 0xCA DUP3 MSTORE PUSH1 0x40 PUSH1 0x0 KECCAK256 PUSH2 0x159E DUP2 SLOAD PUSH2 0x304E JUMP JUMPDEST SWAP1 SSTORE DUP3 PUSH1 0x0 MSTORE PUSH1 0xCD DUP3 MSTORE PUSH1 0x40 PUSH1 0x0 KECCAK256 CALLER PUSH1 0x0 MSTORE DUP3 MSTORE CALLVALUE PUSH1 0x40 PUSH1 0x0 KECCAK256 SLOAD EQ PUSH2 0x1657 JUMPI JUMPDEST POP PUSH1 0x40 DUP1 MLOAD DUP4 DUP2 MSTORE CALLER PUSH1 0x20 DUP3 ADD MSTORE CALLVALUE SWAP2 DUP2 ADD SWAP2 SWAP1 SWAP2 MSTORE PUSH1 0xCC SWAP3 SWAP1 PUSH32 0xA4A91237423E0A1766A761C7CB029311D8B95D6B1B81DB1B949A70C98B4E08E SWAP1 PUSH1 0x60 SWAP1 LOG1 PUSH1 0x0 MSTORE MSTORE PUSH1 0x40 PUSH1 0x0 KECCAK256 PUSH1 0x2 DUP2 ADD SLOAD PUSH1 0x1 DUP3 ADD SLOAD GT ISZERO PUSH1 0x0 EQ PUSH2 0x1637 JUMPI PUSH1 0xD DUP2 ADD DUP1 SLOAD PUSH1 0xFF NOT AND PUSH1 0x1 OR SWAP1 SSTORE JUMPDEST PUSH1 0x5 TIMESTAMP SWAP2 ADD SSTORE PUSH1 0x0 DUP1 RETURN JUMPDEST PUSH1 0x4 DUP2 ADD SLOAD TIMESTAMP GT ISZERO PUSH2 0x162C JUMPI PUSH1 0xD DUP2 ADD DUP1 SLOAD PUSH1 0xFF NOT AND PUSH1 0x2 OR SWAP1 SSTORE PUSH2 0x162C JUMP JUMPDEST PUSH1 0xC ADD SWAP2 DUP3 SLOAD SWAP3 PUSH9 0x10000000000000000 DUP5 LT ISZERO PUSH2 0x16A0 JUMPI DUP4 PUSH2 0x1681 SWAP2 PUSH1 0x1 PUSH1 0xCC SWAP7 ADD DUP2 SSTORE PUSH2 0x27B9 JUMP JUMPDEST DUP2 SLOAD SWAP1 PUSH1 0x3 SHL SWAP1 PUSH1 0x1 PUSH1 0x1 PUSH1 0xA0 SHL SUB CALLER DUP4 SHL SWAP3 SHL NOT AND OR SWAP1 SSTORE SWAP2 PUSH2 0x15C0 JUMP JUMPDEST PUSH4 0x4E487B71 PUSH1 0xE0 SHL PUSH1 0x0 MSTORE PUSH1 0x41 PUSH1 0x4 MSTORE PUSH1 0x24 PUSH1 0x0 REVERT JUMPDEST PUSH1 0x40 MLOAD PUSH3 0x461BCD PUSH1 0xE5 SHL DUP2 MSTORE PUSH1 0x4 DUP2 ADD DUP4 SWAP1 MSTORE PUSH1 0x23 PUSH1 0x24 DUP3 ADD MSTORE PUSH32 0x41206D696E756D756D20636F6E747269627574696F6E20697320726571756972 PUSH1 0x44 DUP3 ADD MSTORE PUSH3 0x32B217 PUSH1 0xE9 SHL PUSH1 0x64 DUP3 ADD MSTORE PUSH1 0x84 SWAP1 REVERT JUMPDEST PUSH1 0x40 MLOAD PUSH3 0x461BCD PUSH1 0xE5 SHL DUP2 MSTORE PUSH1 0x4 DUP2 ADD DUP4 SWAP1 MSTORE PUSH1 0x1C PUSH1 0x24 DUP3 ADD MSTORE PUSH32 0x43616D706169676E20686173206E6F7420537461727465642079657400000000 PUSH1 0x44 DUP3 ADD MSTORE PUSH1 0x64 SWAP1 REVERT JUMPDEST PUSH1 0x40 MLOAD PUSH3 0x461BCD PUSH1 0xE5 SHL DUP2 MSTORE PUSH1 0x4 DUP2 ADD DUP4 SWAP1 MSTORE PUSH1 0x29 PUSH1 0x24 DUP3 ADD MSTORE PUSH32 0x446F6E6174696F6E20616D6F756E74206D757374206265206772656174657220 PUSH1 0x44 DUP3 ADD MSTORE PUSH32 0x7468616E207A65726F0000000000000000000000000000000000000000000000 PUSH1 0x64 DUP3 ADD MSTORE PUSH1 0x84 SWAP1 REVERT JUMPDEST PUSH1 0x40 MLOAD PUSH3 0x461BCD PUSH1 0xE5 SHL DUP2 MSTORE PUSH1 0x4 DUP2 ADD DUP4 SWAP1 MSTORE PUSH1 0x19 PUSH1 0x24 DUP3 ADD MSTORE PUSH32 0x43616D706169676E20706572696F642068617320656E64656400000000000000 PUSH1 0x44 DUP3 ADD MSTORE PUSH1 0x64 SWAP1 REVERT JUMPDEST PUSH1 0x64 SWAP1 PUSH1 0x40 MLOAD SWAP1 PUSH3 0x461BCD PUSH1 0xE5 SHL DUP3 MSTORE PUSH1 0x4 DUP3 ADD MSTORE PUSH1 0x15 PUSH1 0x24 DUP3 ADD MSTORE PUSH32 0x446561646C696E65206861732070617373656420210000000000000000000000 PUSH1 0x44 DUP3 ADD MSTORE REVERT JUMPDEST PUSH1 0x64 SWAP1 PUSH1 0x40 MLOAD SWAP1 PUSH3 0x461BCD PUSH1 0xE5 SHL DUP3 MSTORE PUSH1 0x4 DUP3 ADD MSTORE PUSH1 0xD PUSH1 0x24 DUP3 ADD MSTORE PUSH32 0x496E76616C696420737461746500000000000000000000000000000000000000 PUSH1 0x44 DUP3 ADD MSTORE REVERT JUMPDEST CALLVALUE PUSH2 0x1BA JUMPI PUSH1 0x20 DUP1 PUSH1 0x3 NOT CALLDATASIZE ADD SLT PUSH2 0x1BA JUMPI PUSH2 0x189E PUSH2 0x27A3 JUMP JUMPDEST PUSH1 0x1 PUSH1 0x1 PUSH1 0xA0 SHL SUB SWAP2 DUP3 PUSH32 0x0 AND PUSH2 0x18D6 DUP2 ADDRESS EQ ISZERO PUSH2 0x2C56 JUMP JUMPDEST PUSH2 0x1905 PUSH32 0x360894A13BA1A3210667C828492DB98DCA3E2076CC3735A920A3CA505D382BBC SWAP2 DUP6 DUP4 SLOAD AND EQ PUSH2 0x2CC8 JUMP JUMPDEST PUSH1 0x40 MLOAD SWAP1 DUP3 DUP3 ADD SWAP5 DUP3 DUP7 LT PUSH8 0xFFFFFFFFFFFFFFFF DUP8 GT OR PUSH2 0x16A0 JUMPI DUP6 PUSH1 0x40 MSTORE PUSH1 0x0 DUP4 MSTORE PUSH1 0xFF PUSH32 0x4910FDFA16FED3260ED0E7147F7CC6DA11A60208B5B9406D12A635614FFD9143 SLOAD AND PUSH1 0x0 EQ PUSH2 0x1962 JUMPI POP POP POP POP PUSH2 0x1F8 SWAP2 POP PUSH2 0x2D3A JUMP JUMPDEST DUP5 SWAP3 SWAP4 SWAP5 AND SWAP1 PUSH1 0x40 MLOAD PUSH4 0x52D1902D PUSH1 0xE0 SHL DUP2 MSTORE DUP6 DUP2 PUSH1 0x4 DUP2 DUP7 GAS STATICCALL PUSH1 0x0 SWAP2 DUP2 PUSH2 0x1AF0 JUMPI JUMPDEST POP PUSH2 0x19E7 JUMPI PUSH1 0x40 MLOAD PUSH3 0x461BCD PUSH1 0xE5 SHL DUP2 MSTORE PUSH1 0x4 DUP2 ADD DUP8 SWAP1 MSTORE PUSH1 0x2E PUSH1 0x24 DUP3 ADD MSTORE PUSH32 0x45524331393637557067726164653A206E657720696D706C656D656E74617469 PUSH1 0x44 DUP3 ADD MSTORE PUSH14 0x6F6E206973206E6F742055555053 PUSH1 0x90 SHL PUSH1 0x64 DUP3 ADD MSTORE PUSH1 0x84 SWAP1 REVERT JUMPDEST SWAP5 SWAP4 SWAP5 SUB PUSH2 0x1A99 JUMPI PUSH2 0x19F8 DUP3 PUSH2 0x2D3A JUMP JUMPDEST PUSH32 0xBC7CD75A20EE27FD9ADEBAB32041F755214DBC6BFFA90CC0225B39DA2E5C2D3B PUSH1 0x0 DUP1 LOG2 DUP3 MLOAD ISZERO DUP1 ISZERO SWAP1 PUSH2 0x1A91 JUMPI JUMPDEST PUSH2 0x1A2E JUMPI STOP JUMPDEST PUSH1 0x0 DUP1 PUSH2 0x1F8 SWAP6 PUSH1 0x40 MLOAD SWAP6 PUSH2 0x1A42 DUP8 PUSH2 0x283E JUMP JUMPDEST PUSH1 0x27 DUP8 MSTORE PUSH32 0x416464726573733A206C6F772D6C6576656C2064656C65676174652063616C6C DUP7 DUP9 ADD MSTORE PUSH7 0x819985A5B1959 PUSH1 0xCA SHL PUSH1 0x40 DUP9 ADD MSTORE MLOAD SWAP1 DUP5 GAS DELEGATECALL SWAP1 RETURNDATASIZE ISZERO PUSH2 0x13D3 JUMPI RETURNDATASIZE PUSH2 0x13B6 DUP2 PUSH2 0x2982 JUMP JUMPDEST POP PUSH1 0x0 PUSH2 0x1A28 JUMP JUMPDEST PUSH1 0x40 MLOAD PUSH3 0x461BCD PUSH1 0xE5 SHL DUP2 MSTORE PUSH1 0x4 DUP2 ADD DUP5 SWAP1 MSTORE PUSH1 0x29 PUSH1 0x24 DUP3 ADD MSTORE PUSH32 0x45524331393637557067726164653A20756E737570706F727465642070726F78 PUSH1 0x44 DUP3 ADD MSTORE PUSH9 0x1A58589B1955555251 PUSH1 0xBA SHL PUSH1 0x64 DUP3 ADD MSTORE PUSH1 0x84 SWAP1 REVERT JUMPDEST SWAP1 SWAP2 POP DUP7 DUP2 DUP2 RETURNDATASIZE DUP4 GT PUSH2 0x1B18 JUMPI JUMPDEST PUSH2 0x1B08 DUP2 DUP4 PUSH2 0x285A JUMP JUMPDEST DUP2 ADD SUB SLT PUSH2 0x1BA JUMPI MLOAD SWAP1 DUP9 PUSH2 0x1986 JUMP JUMPDEST POP RETURNDATASIZE PUSH2 0x1AFE JUMP JUMPDEST CALLVALUE PUSH2 0x1BA JUMPI PUSH1 0x60 CALLDATASIZE PUSH1 0x3 NOT ADD SLT PUSH2 0x1BA JUMPI PUSH8 0xFFFFFFFFFFFFFFFF PUSH1 0x4 CALLDATALOAD DUP2 DUP2 GT PUSH2 0x1BA JUMPI PUSH2 0x1B51 SWAP1 CALLDATASIZE SWAP1 PUSH1 0x4 ADD PUSH2 0x29D5 JUMP JUMPDEST SWAP1 PUSH1 0x24 CALLDATALOAD DUP2 DUP2 GT PUSH2 0x1BA JUMPI PUSH2 0x1B6A SWAP1 CALLDATASIZE SWAP1 PUSH1 0x4 ADD PUSH2 0x29D5 JUMP JUMPDEST PUSH1 0x44 CALLDATALOAD SWAP1 PUSH1 0x3 DUP3 LT ISZERO PUSH2 0x1BA JUMPI DUP4 MLOAD ISZERO PUSH2 0x1F69 JUMPI DUP1 MLOAD ISZERO PUSH2 0x1F24 JUMPI CALLER ISZERO PUSH2 0x1EDF JUMPI CALLER PUSH1 0x0 MSTORE PUSH1 0xCB PUSH1 0x20 MSTORE PUSH1 0xFF PUSH1 0x2 PUSH1 0x40 PUSH1 0x0 KECCAK256 ADD SLOAD PUSH1 0xA8 SHR AND PUSH2 0x1E9A JUMPI PUSH1 0x40 MLOAD SWAP4 PUSH1 0xA0 DUP6 ADD DUP6 DUP2 LT DUP6 DUP3 GT OR PUSH2 0x16A0 JUMPI PUSH1 0x40 MSTORE DUP5 MSTORE PUSH1 0x20 DUP5 ADD MSTORE PUSH2 0x1BCD DUP2 PUSH2 0x2962 JUMP JUMPDEST PUSH1 0x40 DUP4 ADD MSTORE CALLER PUSH1 0x60 DUP4 ADD MSTORE PUSH1 0x1 PUSH1 0x80 DUP4 ADD MSTORE CALLER PUSH1 0x0 MSTORE PUSH1 0xCB PUSH1 0x20 MSTORE PUSH1 0x40 PUSH1 0x0 KECCAK256 SWAP2 DUP1 MLOAD SWAP3 DUP4 MLOAD DUP4 DUP2 GT PUSH2 0x16A0 JUMPI PUSH2 0x1C04 DUP3 SLOAD PUSH2 0x27E7 JUMP JUMPDEST PUSH1 0x1F DUP2 GT PUSH2 0x1E52 JUMPI JUMPDEST POP PUSH1 0x20 SWAP5 PUSH1 0x1F DUP3 GT PUSH1 0x1 EQ PUSH2 0x1DEC JUMPI SWAP5 DUP2 SWAP3 SWAP4 SWAP5 SWAP6 PUSH1 0x0 SWAP3 PUSH2 0x1DE1 JUMPI JUMPDEST POP POP DUP2 PUSH1 0x1 SHL SWAP2 PUSH1 0x0 NOT SWAP1 PUSH1 0x3 SHL SHR NOT AND OR DUP2 SSTORE JUMPDEST PUSH1 0x1 DUP2 ADD PUSH1 0x20 DUP4 ADD MLOAD SWAP4 DUP5 MLOAD SWAP1 DUP2 GT PUSH2 0x16A0 JUMPI PUSH2 0x1C5C DUP3 SLOAD PUSH2 0x27E7 JUMP JUMPDEST PUSH1 0x1F DUP2 GT PUSH2 0x1D99 JUMPI JUMPDEST POP PUSH1 0x20 PUSH1 0x1F DUP3 GT PUSH1 0x1 EQ PUSH2 0x1D2F JUMPI DUP2 SWAP1 PUSH1 0x2 SWAP6 SWAP7 PUSH1 0x0 SWAP3 PUSH2 0x1D24 JUMPI JUMPDEST POP POP DUP2 PUSH1 0x1 SHL SWAP2 PUSH1 0x0 NOT SWAP1 PUSH1 0x3 SHL SHR NOT AND OR SWAP1 SSTORE JUMPDEST ADD SWAP1 PUSH1 0x40 DUP2 ADD MLOAD SWAP1 PUSH2 0x1CA7 DUP3 PUSH2 0x2962 JUMP JUMPDEST PUSH2 0x1CB0 DUP3 PUSH2 0x2962 JUMP JUMPDEST DUP3 SLOAD PUSH32 0xFFFFFFFFFFFFFFFFFFFF00000000000000000000000000000000000000000000 PUSH1 0xFF PUSH22 0xFF000000000000000000000000000000000000000000 PUSH1 0x80 PUSH21 0xFFFFFFFFFFFFFFFFFFFFFFFFFFFFFFFFFFFFFFFF00 PUSH1 0x60 DUP8 ADD MLOAD PUSH1 0x8 SHL AND SWAP6 ADD MLOAD ISZERO ISZERO PUSH1 0xA8 SHL AND SWAP5 AND SWAP2 AND OR OR OR SWAP1 SSTORE PUSH1 0x0 DUP1 RETURN JUMPDEST ADD MLOAD SWAP1 POP DUP7 DUP1 PUSH2 0x1C81 JUMP JUMPDEST PUSH1 0x1F NOT DUP3 AND SWAP6 DUP4 PUSH1 0x0 MSTORE PUSH1 0x20 PUSH1 0x0 KECCAK256 SWAP7 PUSH1 0x0 JUMPDEST DUP2 DUP2 LT PUSH2 0x1D81 JUMPI POP SWAP2 PUSH1 0x2 SWAP7 SWAP8 SWAP2 DUP5 PUSH1 0x1 SWAP6 SWAP5 LT PUSH2 0x1D68 JUMPI JUMPDEST POP POP POP DUP2 SHL ADD SWAP1 SSTORE PUSH2 0x1C96 JUMP JUMPDEST ADD MLOAD PUSH1 0x0 NOT PUSH1 0xF8 DUP5 PUSH1 0x3 SHL AND SHR NOT AND SWAP1 SSTORE DUP7 DUP1 DUP1 PUSH2 0x1D5B JUMP JUMPDEST DUP4 DUP4 ADD MLOAD DUP10 SSTORE PUSH1 0x1 SWAP1 SWAP9 ADD SWAP8 PUSH1 0x20 SWAP4 DUP5 ADD SWAP4 ADD PUSH2 0x1D42 JUMP JUMPDEST DUP3 PUSH1 0x0 MSTORE PUSH1 0x20 PUSH1 0x0 KECCAK256 PUSH1 0x1F DUP4 ADD PUSH1 0x5 SHR DUP2 ADD SWAP2 PUSH1 0x20 DUP5 LT PUSH2 0x1DD7 JUMPI JUMPDEST PUSH1 0x1F ADD PUSH1 0x5 SHR ADD SWAP1 JUMPDEST DUP2 DUP2 LT PUSH2 0x1DCB JUMPI POP PUSH2 0x1C65 JUMP JUMPDEST PUSH1 0x0 DUP2 SSTORE PUSH1 0x1 ADD PUSH2 0x1DBE JUMP JUMPDEST SWAP1 SWAP2 POP DUP2 SWAP1 PUSH2 0x1DB5 JUMP JUMPDEST ADD MLOAD SWAP1 POP DUP6 DUP1 PUSH2 0x1C2A JUMP JUMPDEST PUSH1 0x1F NOT DUP3 AND SWAP6 DUP4 PUSH1 0x0 MSTORE PUSH1 0x20 PUSH1 0x0 KECCAK256 SWAP2 PUSH1 0x0 JUMPDEST DUP9 DUP2 LT PUSH2 0x1E3A JUMPI POP DUP4 PUSH1 0x1 SWAP6 SWAP7 SWAP8 SWAP9 LT PUSH2 0x1E21 JUMPI JUMPDEST POP POP POP DUP2 SHL ADD DUP2 SSTORE PUSH2 0x1C3F JUMP JUMPDEST ADD MLOAD PUSH1 0x0 NOT PUSH1 0xF8 DUP5 PUSH1 0x3 SHL AND SHR NOT AND SWAP1 SSTORE DUP6 DUP1 DUP1 PUSH2 0x1E14 JUMP JUMPDEST SWAP2 SWAP3 PUSH1 0x20 PUSH1 0x1 DUP2 SWAP3 DUP7 DUP6 ADD MLOAD DUP2 SSTORE ADD SWAP5 ADD SWAP3 ADD PUSH2 0x1DFF JUMP JUMPDEST DUP3 PUSH1 0x0 MSTORE PUSH1 0x20 PUSH1 0x0 KECCAK256 PUSH1 0x1F DUP4 ADD PUSH1 0x5 SHR DUP2 ADD SWAP2 PUSH1 0x20 DUP5 LT PUSH2 0x1E90 JUMPI JUMPDEST PUSH1 0x1F ADD PUSH1 0x5 SHR ADD SWAP1 JUMPDEST DUP2 DUP2 LT PUSH2 0x1E84 JUMPI POP PUSH2 0x1C0D JUMP JUMPDEST PUSH1 0x0 DUP2 SSTORE PUSH1 0x1 ADD PUSH2 0x1E77 JUMP JUMPDEST SWAP1 SWAP2 POP DUP2 SWAP1 PUSH2 0x1E6E JUMP JUMPDEST PUSH1 0x40 MLOAD PUSH3 0x461BCD PUSH1 0xE5 SHL DUP2 MSTORE PUSH1 0x20 PUSH1 0x4 DUP3 ADD MSTORE PUSH1 0x1A PUSH1 0x24 DUP3 ADD MSTORE PUSH32 0x5573657220697320616C72656164792072656769737465726564000000000000 PUSH1 0x44 DUP3 ADD MSTORE PUSH1 0x64 SWAP1 REVERT JUMPDEST PUSH1 0x40 MLOAD PUSH3 0x461BCD PUSH1 0xE5 SHL DUP2 MSTORE PUSH1 0x20 PUSH1 0x4 DUP3 ADD MSTORE PUSH1 0x16 PUSH1 0x24 DUP3 ADD MSTORE PUSH32 0x496E76616C69642077616C6C6574206164647265737300000000000000000000 PUSH1 0x44 DUP3 ADD MSTORE PUSH1 0x64 SWAP1 REVERT JUMPDEST PUSH1 0x40 MLOAD PUSH3 0x461BCD PUSH1 0xE5 SHL DUP2 MSTORE PUSH1 0x20 PUSH1 0x4 DUP3 ADD MSTORE PUSH1 0x18 PUSH1 0x24 DUP3 ADD MSTORE PUSH32 0x50617373776F72642063616E6E6F7420626520656D7074790000000000000000 PUSH1 0x44 DUP3 ADD MSTORE PUSH1 0x64 SWAP1 REVERT JUMPDEST PUSH1 0x40 MLOAD PUSH3 0x461BCD PUSH1 0xE5 SHL DUP2 MSTORE PUSH1 0x20 PUSH1 0x4 DUP3 ADD MSTORE PUSH1 0x15 PUSH1 0x24 DUP3 ADD MSTORE PUSH32 0x456D61696C2063616E6E6F7420626520656D7074790000000000000000000000 PUSH1 0x44 DUP3 ADD MSTORE PUSH1 0x64 SWAP1 REVERT JUMPDEST CALLVALUE PUSH2 0x1BA JUMPI PUSH1 0x40 CALLDATASIZE PUSH1 0x3 NOT ADD SLT PUSH2 0x1BA JUMPI PUSH8 0xFFFFFFFFFFFFFFFF PUSH1 0x4 CALLDATALOAD DUP2 DUP2 GT PUSH2 0x1BA JUMPI PUSH2 0x1FE0 SWAP1 CALLDATASIZE SWAP1 PUSH1 0x4 ADD PUSH2 0x29D5 JUMP JUMPDEST SWAP1 PUSH1 0x24 CALLDATALOAD SWAP1 DUP2 GT PUSH2 0x1BA JUMPI PUSH1 0x20 SWAP2 PUSH2 0x1FFF PUSH2 0x2005 SWAP3 CALLDATASIZE SWAP1 PUSH1 0x4 ADD PUSH2 0x29D5 JUMP JUMPDEST SWAP1 PUSH2 0x2EF7 JUMP JUMPDEST PUSH1 0x40 MLOAD SWAP1 ISZERO ISZERO DUP2 MSTORE RETURN JUMPDEST CALLVALUE PUSH2 0x1BA JUMPI PUSH1 0xC0 CALLDATASIZE PUSH1 0x3 NOT ADD SLT PUSH2 0x1BA JUMPI PUSH1 0x64 CALLDATALOAD PUSH8 0xFFFFFFFFFFFFFFFF DUP2 GT PUSH2 0x1BA JUMPI PUSH2 0x2040 SWAP1 CALLDATASIZE SWAP1 PUSH1 0x4 ADD PUSH2 0x29D5 JUMP JUMPDEST PUSH1 0x84 CALLDATALOAD PUSH8 0xFFFFFFFFFFFFFFFF DUP2 GT PUSH2 0x1BA JUMPI PUSH2 0x2060 SWAP1 CALLDATASIZE SWAP1 PUSH1 0x4 ADD PUSH2 0x29D5 JUMP JUMPDEST SWAP1 PUSH1 0xA4 CALLDATALOAD PUSH8 0xFFFFFFFFFFFFFFFF DUP2 GT PUSH2 0x1BA JUMPI PUSH2 0x2081 SWAP1 CALLDATASIZE SWAP1 PUSH1 0x4 ADD PUSH2 0x29D5 JUMP JUMPDEST SWAP1 CALLER PUSH1 0x0 MSTORE PUSH1 0xCB PUSH1 0x20 MSTORE PUSH2 0x20A2 PUSH1 0xFF PUSH1 0x2 PUSH1 0x40 PUSH1 0x0 KECCAK256 ADD SLOAD PUSH1 0xA8 SHR AND PUSH2 0x2F77 JUMP JUMPDEST CALLER PUSH1 0x0 MSTORE PUSH1 0xCB PUSH1 0x20 MSTORE PUSH2 0x20C3 PUSH1 0xFF PUSH1 0x2 PUSH1 0x40 PUSH1 0x0 KECCAK256 ADD SLOAD AND PUSH2 0xE01 DUP2 PUSH2 0x2962 JUMP JUMPDEST PUSH1 0x4 CALLDATALOAD ISZERO PUSH2 0x25BE JUMPI PUSH2 0x20D7 PUSH1 0x24 CALLDATALOAD TIMESTAMP PUSH2 0x3041 JUMP JUMPDEST SWAP2 PUSH1 0xC9 SLOAD SWAP2 DUP3 PUSH1 0x0 MSTORE PUSH1 0xCC PUSH1 0x20 MSTORE PUSH1 0x40 PUSH1 0x0 KECCAK256 SWAP3 TIMESTAMP PUSH1 0x4 DUP6 ADD SLOAD LT ISZERO PUSH2 0x2553 JUMPI DUP4 SSTORE PUSH1 0xA DUP4 ADD CALLER PUSH1 0x1 PUSH1 0x1 PUSH1 0xA0 SHL SUB NOT DUP3 SLOAD AND OR SWAP1 SSTORE PUSH1 0x4 CALLDATALOAD PUSH1 0x1 DUP5 ADD SSTORE DUP1 MLOAD SWAP1 PUSH8 0xFFFFFFFFFFFFFFFF DUP3 GT PUSH2 0x16A0 JUMPI DUP2 SWAP1 PUSH2 0x2136 PUSH1 0x7 DUP7 ADD SLOAD PUSH2 0x27E7 JUMP JUMPDEST PUSH1 0x1F DUP2 GT PUSH2 0x2500 JUMPI JUMPDEST POP PUSH1 0x20 SWAP1 PUSH1 0x1F DUP4 GT PUSH1 0x1 EQ PUSH2 0x248E JUMPI PUSH1 0x0 SWAP3 PUSH2 0x2483 JUMPI JUMPDEST POP POP DUP2 PUSH1 0x1 SHL SWAP2 PUSH1 0x0 NOT SWAP1 PUSH1 0x3 SHL SHR NOT AND OR PUSH1 0x7 DUP4 ADD SSTORE JUMPDEST DUP4 MLOAD PUSH8 0xFFFFFFFFFFFFFFFF DUP2 GT PUSH2 0x16A0 JUMPI PUSH2 0x218C PUSH1 0x8 DUP5 ADD SLOAD PUSH2 0x27E7 JUMP JUMPDEST PUSH1 0x1F DUP2 GT PUSH2 0x243C JUMPI JUMPDEST POP PUSH1 0x20 PUSH1 0x1F DUP3 GT PUSH1 0x1 EQ PUSH2 0x23CD JUMPI DUP2 SWAP3 SWAP4 SWAP5 SWAP6 PUSH1 0x0 SWAP3 PUSH2 0x23C2 JUMPI JUMPDEST POP POP DUP2 PUSH1 0x1 SHL SWAP2 PUSH1 0x0 NOT SWAP1 PUSH1 0x3 SHL SHR NOT AND OR PUSH1 0x8 DUP4 ADD SSTORE JUMPDEST DUP1 MLOAD SWAP1 PUSH8 0xFFFFFFFFFFFFFFFF DUP3 GT PUSH2 0x16A0 JUMPI PUSH2 0x21E7 PUSH1 0x9 DUP5 ADD SLOAD PUSH2 0x27E7 JUMP JUMPDEST PUSH1 0x1F DUP2 GT PUSH2 0x2377 JUMPI JUMPDEST POP PUSH1 0x20 SWAP1 PUSH1 0x1F DUP4 GT PUSH1 0x1 EQ PUSH2 0x2306 JUMPI PUSH1 0xD SWAP4 SWAP3 SWAP2 PUSH1 0x0 SWAP2 DUP4 PUSH2 0x22FB JUMPI JUMPDEST POP POP DUP2 PUSH1 0x1 SHL SWAP2 PUSH1 0x0 NOT SWAP1 PUSH1 0x3 SHL SHR NOT AND OR PUSH1 0x9 DUP3 ADD SSTORE JUMPDEST DUP3 PUSH1 0x4 DUP3 ADD SSTORE PUSH1 0x44 CALLDATALOAD PUSH1 0xE DUP3 ADD SSTORE TIMESTAMP PUSH1 0x6 DUP3 ADD SSTORE ADD PUSH1 0xFF NOT DUP2 SLOAD AND SWAP1 SSTORE PUSH2 0x224D PUSH1 0xC9 SLOAD PUSH2 0x304E JUMP JUMPDEST SWAP1 DUP2 PUSH1 0xC9 SSTORE CALLER PUSH1 0x0 MSTORE PUSH1 0xCF PUSH1 0x20 MSTORE PUSH1 0x40 PUSH1 0x0 KECCAK256 DUP1 SLOAD PUSH9 0x10000000000000000 DUP2 LT ISZERO PUSH2 0x16A0 JUMPI PUSH2 0x2282 SWAP2 PUSH1 0x1 DUP3 ADD DUP2 SSTORE PUSH2 0x27B9 JUMP JUMPDEST DUP2 SLOAD SWAP1 PUSH1 0x3 SHL SWAP1 PUSH1 0x0 NOT DUP1 SWAP6 DUP4 SHL SWAP3 SHL NOT AND OR SWAP1 SSTORE PUSH1 0xC9 SLOAD SWAP2 DUP3 ADD SWAP2 DUP3 GT PUSH2 0x22E5 JUMPI PUSH32 0x91B289A829E71D811B8C69E4A24BA2D40D115D8A236E9A724CB3BB2D43CF7223 SWAP2 PUSH1 0x80 SWAP2 PUSH1 0x40 MLOAD SWAP2 DUP3 MSTORE CALLER PUSH1 0x20 DUP4 ADD MSTORE PUSH1 0x4 CALLDATALOAD PUSH1 0x40 DUP4 ADD MSTORE PUSH1 0x60 DUP3 ADD MSTORE LOG1 STOP JUMPDEST PUSH4 0x4E487B71 PUSH1 0xE0 SHL PUSH1 0x0 MSTORE PUSH1 0x11 PUSH1 0x4 MSTORE PUSH1 0x24 PUSH1 0x0 REVERT JUMPDEST ADD MLOAD SWAP1 POP DUP6 DUP1 PUSH2 0x220D JUMP JUMPDEST SWAP1 PUSH1 0x1F NOT DUP4 AND SWAP2 PUSH1 0x9 DUP6 ADD PUSH1 0x0 MSTORE PUSH1 0x20 PUSH1 0x0 KECCAK256 SWAP3 PUSH1 0x0 JUMPDEST DUP2 DUP2 LT PUSH2 0x235F JUMPI POP SWAP2 PUSH1 0x1 SWAP4 SWAP2 DUP6 PUSH1 0xD SWAP8 SWAP7 SWAP5 LT PUSH2 0x2346 JUMPI JUMPDEST POP POP POP DUP2 SHL ADD PUSH1 0x9 DUP3 ADD SSTORE PUSH2 0x2225 JUMP JUMPDEST ADD MLOAD PUSH1 0x0 NOT PUSH1 0xF8 DUP5 PUSH1 0x3 SHL AND SHR NOT AND SWAP1 SSTORE DUP6 DUP1 DUP1 PUSH2 0x2336 JUMP JUMPDEST SWAP3 SWAP4 PUSH1 0x20 PUSH1 0x1 DUP2 SWAP3 DUP8 DUP7 ADD MLOAD DUP2 SSTORE ADD SWAP6 ADD SWAP4 ADD PUSH2 0x231D JUMP JUMPDEST PUSH1 0x9 DUP5 ADD PUSH1 0x0 MSTORE PUSH1 0x20 PUSH1 0x0 KECCAK256 PUSH1 0x1F DUP5 ADD PUSH1 0x5 SHR DUP2 ADD SWAP2 PUSH1 0x20 DUP6 LT PUSH2 0x23B8 JUMPI JUMPDEST PUSH1 0x1F ADD PUSH1 0x5 SHR ADD SWAP1 JUMPDEST DUP2 DUP2 LT PUSH2 0x23AC JUMPI POP PUSH2 0x21F0 JUMP JUMPDEST PUSH1 0x0 DUP2 SSTORE PUSH1 0x1 ADD PUSH2 0x239F JUMP JUMPDEST SWAP1 SWAP2 POP DUP2 SWAP1 PUSH2 0x2396 JUMP JUMPDEST ADD MLOAD SWAP1 POP DUP6 DUP1 PUSH2 0x21B0 JUMP JUMPDEST PUSH1 0x8 DUP5 ADD PUSH1 0x0 MSTORE PUSH1 0x20 PUSH1 0x0 KECCAK256 SWAP1 PUSH1 0x0 JUMPDEST PUSH1 0x1F NOT DUP5 AND DUP2 LT PUSH2 0x2424 JUMPI POP PUSH1 0x1 SWAP4 SWAP5 SWAP6 SWAP7 DUP4 PUSH1 0x1F NOT DUP2 AND LT PUSH2 0x240B JUMPI JUMPDEST POP POP POP DUP2 SHL ADD PUSH1 0x8 DUP4 ADD SSTORE PUSH2 0x21C8 JUMP JUMPDEST ADD MLOAD PUSH1 0x0 NOT PUSH1 0xF8 DUP5 PUSH1 0x3 SHL AND SHR NOT AND SWAP1 SSTORE DUP6 DUP1 DUP1 PUSH2 0x23FB JUMP JUMPDEST SWAP1 SWAP2 PUSH1 0x20 PUSH1 0x1 DUP2 SWAP3 DUP6 DUP12 ADD MLOAD DUP2 SSTORE ADD SWAP4 ADD SWAP2 ADD PUSH2 0x23DD JUMP JUMPDEST PUSH1 0x8 DUP5 ADD PUSH1 0x0 MSTORE PUSH1 0x20 PUSH1 0x0 KECCAK256 PUSH1 0x1F DUP4 ADD PUSH1 0x5 SHR DUP2 ADD PUSH1 0x20 DUP5 LT PUSH2 0x247C JUMPI JUMPDEST PUSH1 0x1F DUP4 ADD PUSH1 0x5 SHR DUP3 ADD DUP2 LT PUSH2 0x2470 JUMPI POP POP PUSH2 0x2195 JUMP JUMPDEST PUSH1 0x0 DUP2 SSTORE PUSH1 0x1 ADD PUSH2 0x245A JUMP JUMPDEST POP DUP1 PUSH2 0x245A JUMP JUMPDEST ADD MLOAD SWAP1 POP DUP7 DUP1 PUSH2 0x2156 JUMP JUMPDEST SWAP3 POP PUSH1 0x7 DUP6 ADD PUSH1 0x0 MSTORE PUSH1 0x20 PUSH1 0x0 KECCAK256 SWAP1 PUSH1 0x0 SWAP4 JUMPDEST PUSH1 0x1F NOT DUP5 AND DUP6 LT PUSH2 0x24E5 JUMPI PUSH1 0x1 SWAP5 POP DUP4 PUSH1 0x1F NOT DUP2 AND LT PUSH2 0x24CC JUMPI JUMPDEST POP POP POP DUP2 SHL ADD PUSH1 0x7 DUP4 ADD SSTORE PUSH2 0x216E JUMP JUMPDEST ADD MLOAD PUSH1 0x0 NOT PUSH1 0xF8 DUP5 PUSH1 0x3 SHL AND SHR NOT AND SWAP1 SSTORE DUP7 DUP1 DUP1 PUSH2 0x24BC JUMP JUMPDEST DUP2 DUP2 ADD MLOAD DUP4 SSTORE PUSH1 0x20 SWAP5 DUP6 ADD SWAP5 PUSH1 0x1 SWAP1 SWAP4 ADD SWAP3 SWAP1 SWAP2 ADD SWAP1 PUSH2 0x24A1 JUMP JUMPDEST SWAP1 SWAP2 POP PUSH1 0x7 DUP6 ADD PUSH1 0x0 MSTORE PUSH1 0x20 PUSH1 0x0 KECCAK256 PUSH1 0x1F DUP5 ADD PUSH1 0x5 SHR DUP2 ADD PUSH1 0x20 DUP6 LT PUSH2 0x254C JUMPI JUMPDEST SWAP1 DUP5 SWAP4 SWAP3 SWAP2 JUMPDEST PUSH1 0x1F DUP4 ADD PUSH1 0x5 SHR DUP3 ADD DUP2 LT PUSH2 0x253D JUMPI POP POP PUSH2 0x213F JUMP JUMPDEST PUSH1 0x0 DUP2 SSTORE DUP6 SWAP5 POP PUSH1 0x1 ADD PUSH2 0x2527 JUMP JUMPDEST POP DUP1 PUSH2 0x2521 JUMP JUMPDEST PUSH1 0x40 MLOAD PUSH3 0x461BCD PUSH1 0xE5 SHL DUP2 MSTORE PUSH1 0x20 PUSH1 0x4 DUP3 ADD MSTORE PUSH1 0x29 PUSH1 0x24 DUP3 ADD MSTORE PUSH32 0x5468652063616D706169676E206D7573742062652061206461746520696E2074 PUSH1 0x44 DUP3 ADD MSTORE PUSH32 0x6865206675747572650000000000000000000000000000000000000000000000 PUSH1 0x64 DUP3 ADD MSTORE PUSH1 0x84 SWAP1 REVERT JUMPDEST PUSH1 0x40 MLOAD PUSH3 0x461BCD PUSH1 0xE5 SHL DUP2 MSTORE PUSH1 0x20 PUSH1 0x4 DUP3 ADD MSTORE PUSH1 0x27 PUSH1 0x24 DUP3 ADD MSTORE PUSH32 0x54617267657420616D6F756E74206D7573742062652067726561746572207468 PUSH1 0x44 DUP3 ADD MSTORE PUSH32 0x616E207A65726F00000000000000000000000000000000000000000000000000 PUSH1 0x64 DUP3 ADD MSTORE PUSH1 0x84 SWAP1 REVERT JUMPDEST CALLVALUE PUSH2 0x1BA JUMPI PUSH1 0x20 CALLDATASIZE PUSH1 0x3 NOT ADD SLT PUSH2 0x1BA JUMPI PUSH1 0x4 CALLDATALOAD PUSH1 0x0 MSTORE PUSH1 0xCC PUSH1 0x20 MSTORE PUSH1 0x40 PUSH1 0x0 KECCAK256 DUP1 SLOAD PUSH1 0x1 DUP3 ADD SLOAD SWAP2 PUSH1 0x2 DUP2 ADD SLOAD PUSH1 0x3 DUP3 ADD SLOAD SWAP2 PUSH1 0x4 DUP2 ADD SLOAD SWAP3 PUSH1 0x5 DUP3 ADD SLOAD PUSH1 0x6 DUP4 ADD SLOAD PUSH1 0x7 DUP5 ADD PUSH2 0x267A SWAP1 PUSH2 0x287C JUMP JUMPDEST PUSH2 0x2686 PUSH1 0x8 DUP7 ADD PUSH2 0x287C JUMP JUMPDEST SWAP2 PUSH2 0x2693 PUSH1 0x9 DUP8 ADD PUSH2 0x287C JUMP JUMPDEST SWAP4 PUSH1 0x1 PUSH1 0x1 PUSH1 0xA0 SHL SUB SWAP9 DUP10 PUSH1 0xA DUP10 ADD SLOAD AND SWAP10 PUSH1 0xB DUP10 ADD SLOAD AND SWAP7 PUSH1 0xD DUP10 ADD SLOAD SWAP9 PUSH1 0xE ADD SLOAD SWAP10 PUSH1 0x40 MLOAD SWAP14 DUP15 DUP1 SWAP15 DUP2 MSTORE PUSH1 0x20 ADD MSTORE PUSH1 0x40 DUP14 ADD MSTORE PUSH1 0x60 DUP13 ADD MSTORE PUSH1 0x80 DUP12 ADD MSTORE PUSH1 0xA0 DUP11 ADD MSTORE PUSH1 0xC0 DUP10 ADD MSTORE PUSH2 0x1E0 DUP1 PUSH1 0xE0 DUP11 ADD MSTORE DUP9 ADD PUSH2 0x26F1 SWAP2 PUSH2 0x2922 JUMP JUMPDEST DUP8 DUP2 SUB PUSH2 0x100 DUP10 ADD MSTORE PUSH2 0x2703 SWAP2 PUSH2 0x2922 JUMP JUMPDEST DUP7 DUP2 SUB PUSH2 0x120 DUP9 ADD MSTORE PUSH2 0x2715 SWAP2 PUSH2 0x2922 JUMP JUMPDEST SWAP4 PUSH2 0x140 DUP7 ADD MSTORE PUSH2 0x160 DUP6 ADD MSTORE PUSH1 0xFF DUP2 AND PUSH2 0x272F DUP2 PUSH2 0x2962 JUMP JUMPDEST PUSH2 0x180 DUP6 ADD MSTORE PUSH1 0x8 SHR PUSH1 0xFF AND ISZERO ISZERO PUSH2 0x1A0 DUP5 ADD MSTORE PUSH2 0x1C0 DUP4 ADD MSTORE SUB SWAP1 RETURN JUMPDEST CALLVALUE PUSH2 0x1BA JUMPI PUSH1 0x40 CALLDATASIZE PUSH1 0x3 NOT ADD SLT PUSH2 0x1BA JUMPI PUSH2 0x2766 PUSH2 0x27A3 JUMP JUMPDEST PUSH1 0x1 PUSH1 0x1 PUSH1 0xA0 SHL SUB PUSH1 0x24 CALLDATALOAD SWAP2 AND PUSH1 0x0 MSTORE PUSH1 0xCF PUSH1 0x20 MSTORE PUSH1 0x40 PUSH1 0x0 KECCAK256 DUP1 SLOAD DUP3 LT ISZERO PUSH2 0x1BA JUMPI PUSH1 0x20 SWAP2 PUSH2 0x2795 SWAP2 PUSH2 0x27B9 JUMP JUMPDEST SWAP1 SLOAD PUSH1 0x40 MLOAD SWAP2 PUSH1 0x3 SHL SHR DUP2 MSTORE RETURN JUMPDEST PUSH1 0x4 CALLDATALOAD SWAP1 PUSH1 0x1 PUSH1 0x1 PUSH1 0xA0 SHL SUB DUP3 AND DUP3 SUB PUSH2 0x1BA JUMPI JUMP JUMPDEST DUP1 SLOAD DUP3 LT ISZERO PUSH2 0x27D1 JUMPI PUSH1 0x0 MSTORE PUSH1 0x20 PUSH1 0x0 KECCAK256 ADD SWAP1 PUSH1 0x0 SWAP1 JUMP JUMPDEST PUSH4 0x4E487B71 PUSH1 0xE0 SHL PUSH1 0x0 MSTORE PUSH1 0x32 PUSH1 0x4 MSTORE PUSH1 0x24 PUSH1 0x0 REVERT JUMPDEST SWAP1 PUSH1 0x1 DUP3 DUP2 SHR SWAP3 AND DUP1 ISZERO PUSH2 0x2817 JUMPI JUMPDEST PUSH1 0x20 DUP4 LT EQ PUSH2 0x2801 JUMPI JUMP JUMPDEST PUSH4 0x4E487B71 PUSH1 0xE0 SHL PUSH1 0x0 MSTORE PUSH1 0x22 PUSH1 0x4 MSTORE PUSH1 0x24 PUSH1 0x0 REVERT JUMPDEST SWAP2 PUSH1 0x7F AND SWAP2 PUSH2 0x27F6 JUMP JUMPDEST PUSH2 0x200 DUP2 ADD SWAP1 DUP2 LT PUSH8 0xFFFFFFFFFFFFFFFF DUP3 GT OR PUSH2 0x16A0 JUMPI PUSH1 0x40 MSTORE JUMP JUMPDEST PUSH1 0x60 DUP2 ADD SWAP1 DUP2 LT PUSH8 0xFFFFFFFFFFFFFFFF DUP3 GT OR PUSH2 0x16A0 JUMPI PUSH1 0x40 MSTORE JUMP JUMPDEST SWAP1 PUSH1 0x1F DUP1 NOT SWAP2 ADD AND DUP2 ADD SWAP1 DUP2 LT PUSH8 0xFFFFFFFFFFFFFFFF DUP3 GT OR PUSH2 0x16A0 JUMPI PUSH1 0x40 MSTORE JUMP JUMPDEST SWAP1 PUSH1 0x40 MLOAD SWAP2 DUP3 PUSH1 0x0 DUP3 SLOAD SWAP3 PUSH2 0x2890 DUP5 PUSH2 0x27E7 JUMP JUMPDEST SWAP1 DUP2 DUP5 MSTORE PUSH1 0x1 SWAP5 DUP6 DUP2 AND SWAP1 DUP2 PUSH1 0x0 EQ PUSH2 0x28FF JUMPI POP PUSH1 0x1 EQ PUSH2 0x28BC JUMPI JUMPDEST POP POP PUSH2 0x28BA SWAP3 POP SUB DUP4 PUSH2 0x285A JUMP JUMPDEST JUMP JUMPDEST SWAP1 SWAP4 SWAP2 POP PUSH1 0x0 MSTORE PUSH1 0x20 SWAP1 DUP2 PUSH1 0x0 KECCAK256 SWAP4 PUSH1 0x0 SWAP2 JUMPDEST DUP2 DUP4 LT PUSH2 0x28E7 JUMPI POP POP PUSH2 0x28BA SWAP4 POP DUP3 ADD ADD CODESIZE DUP1 PUSH2 0x28AC JUMP JUMPDEST DUP6 SLOAD DUP9 DUP5 ADD DUP6 ADD MSTORE SWAP5 DUP6 ADD SWAP5 DUP8 SWAP5 POP SWAP2 DUP4 ADD SWAP2 PUSH2 0x28CF JUMP JUMPDEST SWAP2 POP POP PUSH2 0x28BA SWAP5 POP PUSH1 0x20 SWAP3 POP PUSH1 0xFF NOT AND DUP3 DUP5 ADD MSTORE ISZERO ISZERO PUSH1 0x5 SHL DUP3 ADD ADD CODESIZE DUP1 PUSH2 0x28AC JUMP JUMPDEST SWAP2 SWAP1 DUP3 MLOAD SWAP3 DUP4 DUP3 MSTORE PUSH1 0x0 JUMPDEST DUP5 DUP2 LT PUSH2 0x294E JUMPI POP POP DUP3 PUSH1 0x0 PUSH1 0x20 DUP1 SWAP5 SWAP6 DUP5 ADD ADD MSTORE PUSH1 0x1F DUP1 NOT SWAP2 ADD AND ADD ADD SWAP1 JUMP JUMPDEST PUSH1 0x20 DUP2 DUP4 ADD DUP2 ADD MLOAD DUP5 DUP4 ADD DUP3 ADD MSTORE ADD PUSH2 0x292D JUMP JUMPDEST PUSH1 0x3 GT ISZERO PUSH2 0x296C JUMPI JUMP JUMPDEST PUSH4 0x4E487B71 PUSH1 0xE0 SHL PUSH1 0x0 MSTORE PUSH1 0x21 PUSH1 0x4 MSTORE PUSH1 0x24 PUSH1 0x0 REVERT JUMPDEST PUSH8 0xFFFFFFFFFFFFFFFF DUP2 GT PUSH2 0x16A0 JUMPI PUSH1 0x1F ADD PUSH1 0x1F NOT AND PUSH1 0x20 ADD SWAP1 JUMP JUMPDEST SWAP3 SWAP2 SWAP3 PUSH2 0x29AA DUP3 PUSH2 0x2982 JUMP JUMPDEST SWAP2 PUSH2 0x29B8 PUSH1 0x40 MLOAD SWAP4 DUP5 PUSH2 0x285A JUMP JUMPDEST DUP3 SWAP5 DUP2 DUP5 MSTORE DUP2 DUP4 ADD GT PUSH2 0x1BA JUMPI DUP3 DUP2 PUSH1 0x20 SWAP4 DUP5 PUSH1 0x0 SWAP7 ADD CALLDATACOPY ADD ADD MSTORE JUMP JUMPDEST SWAP1 DUP1 PUSH1 0x1F DUP4 ADD SLT ISZERO PUSH2 0x1BA JUMPI DUP2 PUSH1 0x20 PUSH2 0x29F0 SWAP4 CALLDATALOAD SWAP2 ADD PUSH2 0x299E JUMP JUMPDEST SWAP1 JUMP JUMPDEST SWAP1 DUP2 MLOAD DUP1 DUP3 MSTORE PUSH1 0x20 DUP1 DUP1 SWAP4 ADD SWAP4 ADD SWAP2 PUSH1 0x0 JUMPDEST DUP3 DUP2 LT PUSH2 0x2A13 JUMPI POP POP POP POP SWAP1 JUMP JUMPDEST DUP4 MLOAD PUSH1 0x1 PUSH1 0x1 PUSH1 0xA0 SHL SUB AND DUP6 MSTORE SWAP4 DUP2 ADD SWAP4 SWAP3 DUP2 ADD SWAP3 PUSH1 0x1 ADD PUSH2 0x2A05 JUMP JUMPDEST SWAP1 DUP2 MLOAD DUP1 DUP3 MSTORE PUSH1 0x20 DUP1 DUP1 SWAP4 ADD SWAP4 ADD SWAP2 PUSH1 0x0 JUMPDEST DUP3 DUP2 LT PUSH2 0x2A50 JUMPI POP POP POP POP SWAP1 JUMP JUMPDEST DUP4 MLOAD DUP6 MSTORE SWAP4 DUP2 ADD SWAP4 SWAP3 DUP2 ADD SWAP3 PUSH1 0x1 ADD PUSH2 0x2A42 JUMP JUMPDEST SWAP1 DUP2 MLOAD DUP2 MSTORE PUSH1 0x20 DUP3 ADD MLOAD PUSH1 0x20 DUP3 ADD MSTORE PUSH1 0x40 DUP3 ADD MLOAD PUSH1 0x40 DUP3 ADD MSTORE PUSH1 0x60 DUP3 ADD MLOAD PUSH1 0x60 DUP3 ADD MSTORE PUSH1 0x80 DUP3 ADD MLOAD PUSH1 0x80 DUP3 ADD MSTORE PUSH1 0xA0 DUP3 ADD MLOAD PUSH1 0xA0 DUP3 ADD MSTORE PUSH1 0xC0 DUP3 ADD MLOAD PUSH1 0xC0 DUP3 ADD MSTORE PUSH2 0x2B25 PUSH2 0x2AEF PUSH2 0x2ADB PUSH2 0x2AC7 PUSH1 0xE0 DUP7 ADD MLOAD PUSH2 0x200 DUP1 PUSH1 0xE0 DUP9 ADD MSTORE DUP7 ADD SWAP1 PUSH2 0x2922 JUMP JUMPDEST PUSH2 0x100 DUP1 DUP8 ADD MLOAD SWAP1 DUP7 DUP4 SUB SWAP1 DUP8 ADD MSTORE PUSH2 0x2922 JUMP JUMPDEST PUSH2 0x120 DUP1 DUP7 ADD MLOAD SWAP1 DUP6 DUP4 SUB SWAP1 DUP7 ADD MSTORE PUSH2 0x2922 JUMP JUMPDEST PUSH1 0x1 PUSH1 0x1 PUSH1 0xA0 SHL SUB PUSH2 0x140 DUP2 DUP2 DUP8 ADD MLOAD AND SWAP1 DUP6 ADD MSTORE PUSH2 0x160 SWAP1 DUP2 DUP7 ADD MLOAD AND SWAP1 DUP5 ADD MSTORE PUSH2 0x180 DUP1 DUP6 ADD MLOAD SWAP1 DUP5 DUP4 SUB SWAP1 DUP6 ADD MSTORE PUSH2 0x29F3 JUMP JUMPDEST SWAP2 PUSH2 0x1A0 DUP1 DUP3 ADD MLOAD SWAP1 PUSH2 0x2B37 DUP3 PUSH2 0x2962 JUMP JUMPDEST DUP4 ADD MSTORE PUSH2 0x1C0 DUP1 DUP3 ADD MLOAD ISZERO ISZERO SWAP1 DUP4 ADD MSTORE PUSH2 0x1E0 DUP1 SWAP2 ADD MLOAD SWAP2 ADD MSTORE SWAP1 JUMP JUMPDEST PUSH1 0x20 DUP1 DUP3 ADD SWAP1 DUP1 DUP4 MSTORE DUP4 MLOAD DUP1 SWAP3 MSTORE PUSH1 0x40 DUP4 ADD SWAP3 DUP2 PUSH1 0x40 DUP5 PUSH1 0x5 SHL DUP4 ADD ADD SWAP6 ADD SWAP4 PUSH1 0x0 SWAP2 JUMPDEST DUP5 DUP4 LT PUSH2 0x2B88 JUMPI POP POP POP POP POP POP SWAP1 JUMP JUMPDEST SWAP1 SWAP2 SWAP3 SWAP4 SWAP5 SWAP6 DUP5 DUP1 PUSH2 0x2BA6 PUSH1 0x1 SWAP4 PUSH1 0x3F NOT DUP7 DUP3 SUB ADD DUP8 MSTORE DUP11 MLOAD PUSH2 0x2A64 JUMP JUMPDEST SWAP9 ADD SWAP4 ADD SWAP4 ADD SWAP2 SWAP5 SWAP4 SWAP3 SWAP1 PUSH2 0x2B78 JUMP JUMPDEST PUSH1 0x1 PUSH1 0x1 PUSH1 0xA0 SHL SUB PUSH1 0x33 SLOAD AND CALLER SUB PUSH2 0x2BCA JUMPI JUMP JUMPDEST PUSH1 0x64 PUSH1 0x40 MLOAD PUSH3 0x461BCD PUSH1 0xE5 SHL DUP2 MSTORE PUSH1 0x20 PUSH1 0x4 DUP3 ADD MSTORE PUSH1 0x20 PUSH1 0x24 DUP3 ADD MSTORE PUSH32 0x4F776E61626C653A2063616C6C6572206973206E6F7420746865206F776E6572 PUSH1 0x44 DUP3 ADD MSTORE REVERT JUMPDEST PUSH1 0x33 SLOAD SWAP1 PUSH1 0x1 PUSH1 0x1 PUSH1 0xA0 SHL SUB DUP1 SWAP2 AND SWAP2 DUP3 PUSH1 0x1 PUSH1 0x1 PUSH1 0xA0 SHL SUB NOT DUP3 AND OR PUSH1 0x33 SSTORE AND PUSH32 0x8BE0079C531659141344CD1FD0A4F28419497F9722A3DAAFE3B4186F6B6457E0 PUSH1 0x0 DUP1 LOG3 JUMP JUMPDEST ISZERO PUSH2 0x2C5D JUMPI JUMP JUMPDEST PUSH1 0x40 MLOAD PUSH3 0x461BCD PUSH1 0xE5 SHL DUP2 MSTORE PUSH1 0x20 PUSH1 0x4 DUP3 ADD MSTORE PUSH1 0x2C PUSH1 0x24 DUP3 ADD MSTORE PUSH32 0x46756E6374696F6E206D7573742062652063616C6C6564207468726F75676820 PUSH1 0x44 DUP3 ADD MSTORE PUSH32 0x64656C656761746563616C6C0000000000000000000000000000000000000000 PUSH1 0x64 DUP3 ADD MSTORE PUSH1 0x84 SWAP1 REVERT JUMPDEST ISZERO PUSH2 0x2CCF JUMPI JUMP JUMPDEST PUSH1 0x40 MLOAD PUSH3 0x461BCD PUSH1 0xE5 SHL DUP2 MSTORE PUSH1 0x20 PUSH1 0x4 DUP3 ADD MSTORE PUSH1 0x2C PUSH1 0x24 DUP3 ADD MSTORE PUSH32 0x46756E6374696F6E206D7573742062652063616C6C6564207468726F75676820 PUSH1 0x44 DUP3 ADD MSTORE PUSH32 0x6163746976652070726F78790000000000000000000000000000000000000000 PUSH1 0x64 DUP3 ADD MSTORE PUSH1 0x84 SWAP1 REVERT JUMPDEST DUP1 EXTCODESIZE ISZERO PUSH2 0x2D7D JUMPI PUSH1 0x1 PUSH1 0x1 PUSH1 0xA0 SHL SUB PUSH32 0x360894A13BA1A3210667C828492DB98DCA3E2076CC3735A920A3CA505D382BBC SWAP2 AND PUSH1 0x1 PUSH1 0x1 PUSH1 0xA0 SHL SUB NOT DUP3 SLOAD AND OR SWAP1 SSTORE JUMP JUMPDEST PUSH1 0x40 MLOAD PUSH3 0x461BCD PUSH1 0xE5 SHL DUP2 MSTORE PUSH1 0x20 PUSH1 0x4 DUP3 ADD MSTORE PUSH1 0x2D PUSH1 0x24 DUP3 ADD MSTORE PUSH32 0x455243313936373A206E657720696D706C656D656E746174696F6E206973206E PUSH1 0x44 DUP3 ADD MSTORE PUSH32 0x6F74206120636F6E747261637400000000000000000000000000000000000000 PUSH1 0x64 DUP3 ADD MSTORE PUSH1 0x84 SWAP1 REVERT JUMPDEST SWAP2 SWAP3 SWAP1 ISZERO PUSH2 0x2E4A JUMPI POP DUP2 MLOAD ISZERO PUSH2 0x2DFC JUMPI POP SWAP1 JUMP JUMPDEST EXTCODESIZE ISZERO PUSH2 0x2E05 JUMPI SWAP1 JUMP JUMPDEST PUSH1 0x40 MLOAD PUSH3 0x461BCD PUSH1 0xE5 SHL DUP2 MSTORE PUSH1 0x20 PUSH1 0x4 DUP3 ADD MSTORE PUSH1 0x1D PUSH1 0x24 DUP3 ADD MSTORE PUSH32 0x416464726573733A2063616C6C20746F206E6F6E2D636F6E7472616374000000 PUSH1 0x44 DUP3 ADD MSTORE PUSH1 0x64 SWAP1 REVERT JUMPDEST DUP3 MLOAD SWAP1 SWAP2 POP ISZERO PUSH2 0x2E5D JUMPI POP DUP1 MLOAD SWAP1 PUSH1 0x20 ADD REVERT JUMPDEST PUSH1 0x40 MLOAD PUSH3 0x461BCD PUSH1 0xE5 SHL DUP2 MSTORE PUSH1 0x20 PUSH1 0x4 DUP3 ADD MSTORE SWAP1 DUP2 SWAP1 PUSH2 0x2E81 SWAP1 PUSH1 0x24 DUP4 ADD SWAP1 PUSH2 0x2922 JUMP JUMPDEST SUB SWAP1 REVERT JUMPDEST ISZERO PUSH2 0x2E8C JUMPI JUMP JUMPDEST PUSH1 0x40 MLOAD PUSH3 0x461BCD PUSH1 0xE5 SHL DUP2 MSTORE PUSH1 0x20 PUSH1 0x4 DUP3 ADD MSTORE PUSH1 0x2B PUSH1 0x24 DUP3 ADD MSTORE PUSH32 0x496E697469616C697A61626C653A20636F6E7472616374206973206E6F742069 PUSH1 0x44 DUP3 ADD MSTORE PUSH32 0x6E697469616C697A696E67000000000000000000000000000000000000000000 PUSH1 0x64 DUP3 ADD MSTORE PUSH1 0x84 SWAP1 REVERT JUMPDEST SWAP1 CALLER PUSH1 0x0 MSTORE PUSH1 0xCB PUSH1 0x20 MSTORE PUSH1 0x40 PUSH1 0x0 KECCAK256 PUSH1 0xFF PUSH1 0x2 DUP3 ADD SLOAD PUSH1 0xA8 SHR AND SWAP3 DUP4 PUSH2 0x2F54 JUMPI JUMPDEST POP DUP3 PUSH2 0x2F2F JUMPI JUMPDEST POP POP PUSH2 0x2F2A JUMPI PUSH1 0x0 SWAP1 JUMP JUMPDEST PUSH1 0x1 SWAP1 JUMP JUMPDEST PUSH2 0x2F3D SWAP2 SWAP3 POP PUSH1 0x1 ADD PUSH2 0x287C JUMP JUMPDEST PUSH1 0x20 DUP2 MLOAD SWAP2 ADD KECCAK256 SWAP1 PUSH1 0x20 DUP2 MLOAD SWAP2 ADD KECCAK256 EQ CODESIZE DUP1 PUSH2 0x2F1F JUMP JUMPDEST SWAP1 SWAP3 POP PUSH2 0x2F60 DUP4 PUSH2 0x287C JUMP JUMPDEST PUSH1 0x20 DUP2 MLOAD SWAP2 ADD KECCAK256 SWAP1 PUSH1 0x20 DUP2 MLOAD SWAP2 ADD KECCAK256 EQ SWAP2 CODESIZE PUSH2 0x2F18 JUMP JUMPDEST ISZERO PUSH2 0x2F7E JUMPI JUMP JUMPDEST PUSH1 0x40 MLOAD PUSH3 0x461BCD PUSH1 0xE5 SHL DUP2 MSTORE PUSH1 0x20 PUSH1 0x4 DUP3 ADD MSTORE PUSH1 0x23 PUSH1 0x24 DUP3 ADD MSTORE PUSH32 0x4F6E6C792076657269666965642075736572732063616E207061727469636970 PUSH1 0x44 DUP3 ADD MSTORE PUSH3 0x617465 PUSH1 0xE8 SHL PUSH1 0x64 DUP3 ADD MSTORE PUSH1 0x84 SWAP1 REVERT JUMPDEST ISZERO PUSH2 0x2FD6 JUMPI JUMP JUMPDEST PUSH1 0x40 MLOAD PUSH3 0x461BCD PUSH1 0xE5 SHL DUP2 MSTORE PUSH1 0x20 PUSH1 0x4 DUP3 ADD MSTORE PUSH1 0x3C PUSH1 0x24 DUP3 ADD MSTORE PUSH32 0x4F6E6C79207573657273206F6620746865207370656369666965642063617465 PUSH1 0x44 DUP3 ADD MSTORE PUSH32 0x676F72792063616E20706572666F726D207468697320616374696F6E00000000 PUSH1 0x64 DUP3 ADD MSTORE PUSH1 0x84 SWAP1 REVERT JUMPDEST SWAP2 SWAP1 DUP3 ADD DUP1 SWAP3 GT PUSH2 0x22E5 JUMPI JUMP JUMPDEST PUSH1 0x0 NOT DUP2 EQ PUSH2 0x22E5 JUMPI PUSH1 0x1 ADD SWAP1 JUMP JUMPDEST ISZERO PUSH2 0x3064 JUMPI JUMP JUMPDEST PUSH1 0x40 MLOAD PUSH3 0x461BCD PUSH1 0xE5 SHL DUP2 MSTORE PUSH1 0x20 PUSH1 0x4 DUP3 ADD MSTORE PUSH1 0x17 PUSH1 0x24 DUP3 ADD MSTORE PUSH32 0x43616D706169676E20646F6573206E6F74206578697374000000000000000000 PUSH1 0x44 DUP3 ADD MSTORE PUSH1 0x64 SWAP1 REVERT JUMPDEST ISZERO PUSH2 0x30B0 JUMPI JUMP JUMPDEST PUSH1 0x40 MLOAD PUSH3 0x461BCD PUSH1 0xE5 SHL DUP2 MSTORE PUSH1 0x20 PUSH1 0x4 DUP3 ADD MSTORE PUSH1 0x17 PUSH1 0x24 DUP3 ADD MSTORE PUSH32 0x43616D706169676E206973206E6F74206F6E676F696E67000000000000000000 PUSH1 0x44 DUP3 ADD MSTORE PUSH1 0x64 SWAP1 REVERT JUMPDEST PUSH8 0xFFFFFFFFFFFFFFFF DUP2 GT PUSH2 0x16A0 JUMPI PUSH1 0x5 SHL PUSH1 0x20 ADD SWAP1 JUMP JUMPDEST SWAP1 PUSH2 0x3117 DUP3 PUSH2 0x30F5 JUMP JUMPDEST PUSH2 0x3124 PUSH1 0x40 MLOAD SWAP2 DUP3 PUSH2 0x285A JUMP JUMPDEST DUP3 DUP2 MSTORE DUP1 SWAP3 PUSH2 0x3135 PUSH1 0x1F NOT SWAP2 PUSH2 0x30F5 JUMP JUMPDEST ADD SWAP1 PUSH1 0x20 CALLDATASIZE SWAP2 ADD CALLDATACOPY JUMP JUMPDEST DUP1 MLOAD DUP3 LT ISZERO PUSH2 0x27D1 JUMPI PUSH1 0x20 SWAP2 PUSH1 0x5 SHL ADD ADD SWAP1 JUMP JUMPDEST SWAP1 PUSH1 0x40 MLOAD SWAP2 DUP3 DUP2 SLOAD SWAP2 DUP3 DUP3 MSTORE PUSH1 0x20 SWAP3 DUP4 DUP4 ADD SWAP2 PUSH1 0x0 MSTORE DUP4 PUSH1 0x0 KECCAK256 SWAP4 PUSH1 0x0 SWAP1 JUMPDEST DUP3 DUP3 LT PUSH2 0x3188 JUMPI POP POP POP PUSH2 0x28BA SWAP3 POP SUB DUP4 PUSH2 0x285A JUMP JUMPDEST DUP6 SLOAD PUSH1 0x1 PUSH1 0x1 PUSH1 0xA0 SHL SUB AND DUP5 MSTORE PUSH1 0x1 SWAP6 DUP7 ADD SWAP6 DUP9 SWAP6 POP SWAP4 DUP2 ADD SWAP4 SWAP1 SWAP2 ADD SWAP1 PUSH2 0x3172 JUMP JUMPDEST PUSH1 0x40 MLOAD SWAP1 PUSH2 0x31B8 DUP3 PUSH2 0x2821 JUMP JUMPDEST DUP2 PUSH2 0x1E0 PUSH1 0x0 SWAP2 DUP3 DUP2 MSTORE DUP3 PUSH1 0x20 DUP3 ADD MSTORE DUP3 PUSH1 0x40 DUP3 ADD MSTORE DUP3 PUSH1 0x60 DUP3 ADD MSTORE DUP3 PUSH1 0x80 DUP3 ADD MSTORE DUP3 PUSH1 0xA0 DUP3 ADD MSTORE DUP3 PUSH1 0xC0 DUP3 ADD MSTORE PUSH1 0x60 PUSH1 0xE0 DUP3 ADD MSTORE PUSH1 0x60 PUSH2 0x100 DUP3 ADD MSTORE PUSH1 0x60 PUSH2 0x120 DUP3 ADD MSTORE DUP3 PUSH2 0x140 DUP3 ADD MSTORE DUP3 PUSH2 0x160 DUP3 ADD MSTORE PUSH1 0x60 PUSH2 0x180 DUP3 ADD MSTORE DUP3 PUSH2 0x1A0 DUP3 ADD MSTORE DUP3 PUSH2 0x1C0 DUP3 ADD MSTORE ADD MSTORE JUMP JUMPDEST SWAP1 PUSH2 0x322F DUP3 PUSH2 0x30F5 JUMP JUMPDEST PUSH2 0x323C PUSH1 0x40 MLOAD SWAP2 DUP3 PUSH2 0x285A JUMP JUMPDEST DUP3 DUP2 MSTORE DUP1 SWAP3 PUSH2 0x324D PUSH1 0x1F NOT SWAP2 PUSH2 0x30F5 JUMP JUMPDEST ADD SWAP1 PUSH1 0x0 JUMPDEST DUP3 DUP2 LT PUSH2 0x325E JUMPI POP POP POP JUMP JUMPDEST PUSH1 0x20 SWAP1 PUSH2 0x3269 PUSH2 0x31AB JUMP JUMPDEST DUP3 DUP3 DUP6 ADD ADD MSTORE ADD PUSH2 0x3252 JUMP JUMPDEST DUP1 SLOAD SWAP2 PUSH1 0x0 SWAP3 DUP4 MSTORE PUSH1 0x20 SWAP3 PUSH1 0xCA DUP5 MSTORE PUSH1 0x40 SWAP4 DUP5 DUP3 KECCAK256 SLOAD SWAP1 DUP3 SWAP4 DUP4 JUMPDEST PUSH1 0xC DUP8 ADD DUP1 SLOAD DUP3 LT ISZERO PUSH2 0x32FB JUMPI DUP2 DUP7 MSTORE PUSH1 0xCE DUP5 MSTORE PUSH1 0x1 PUSH1 0x1 PUSH1 0xA0 SHL SUB PUSH2 0x32B9 DUP4 DUP12 DUP10 KECCAK256 SWAP4 PUSH2 0x27B9 JUMP JUMPDEST SWAP1 SLOAD SWAP1 PUSH1 0x3 SHL SHR AND DUP7 MSTORE DUP4 MSTORE PUSH1 0xFF DUP9 DUP7 KECCAK256 SLOAD AND PUSH2 0x32E3 JUMPI JUMPDEST PUSH2 0x32DC PUSH1 0xC SWAP2 PUSH2 0x304E JUMP JUMPDEST SWAP1 POP PUSH2 0x3290 JUMP JUMPDEST SWAP5 PUSH2 0x32DC PUSH2 0x32F2 PUSH1 0xC SWAP3 PUSH2 0x304E JUMP JUMPDEST SWAP7 SWAP2 POP POP PUSH2 0x32D1 JUMP JUMPDEST POP POP SWAP6 POP POP SWAP2 SWAP3 POP POP PUSH1 0x1 SHR GT ISZERO SWAP1 JUMP INVALID LOG1 PUSH5 0x736F6C6343 STOP ADDMOD SLT STOP EXP "},"methodIdentifiers":{"approveFundReleaseRequest(uint256)":"a7247cd9","campaigns(uint256)":"141961bc","campaignsByEntrepreneur(address,uint256)":"0f35f5df","createCampaign(uint256,uint256,uint256,string,string,string)":"1ad417bf","createFundReleaseRequest(uint256,uint256,address)":"70debcf7","donateToCampaign(uint256)":"42a4fda8","getAllDonations(uint256)":"ffa676d1","getAllDonators(uint256)":"e27883fb","getCampaignById(uint256)":"e6ffcaa1","getCampaigns()":"a6b03633","getCampaignsByEntrepreneur(address)":"efb80183","getInvestorDonations(uint256)":"67c2cbad","getTotalCampaignsByInvestor(address)":"8e5baa62","initialize()":"8129fc1c","loginUser(string,string)":"22ce12e5","owner()":"8da5cb5b","proxiableUUID()":"52d1902d","registerUser(string,string,uint8)":"2e17a931","renounceOwnership()":"715018a6","transferOwnership(address)":"f2fde38b","upgradeTo(address)":"3659cfe6","upgradeToAndCall(address,bytes)":"4f1ef286","users(address)":"a87430ba"}},"storageLayout":{"storage":[{"astId":503,"contract":"contracts/CampaignRegistry.sol:CampaignRegistry","label":"_initialized","offset":0,"slot":"0","type":"t_uint8"},{"astId":506,"contract":"contracts/CampaignRegistry.sol:CampaignRegistry","label":"_initializing","offset":1,"slot":"0","type":"t_bool"},{"astId":1172,"contract":"contracts/CampaignRegistry.sol:CampaignRegistry","label":"__gap","offset":0,"slot":"1","type":"t_array(t_uint256)50_storage"},{"astId":10,"contract":"contracts/CampaignRegistry.sol:CampaignRegistry","label":"_owner","offset":0,"slot":"51","type":"t_address"},{"astId":130,"contract":"contracts/CampaignRegistry.sol:CampaignRegistry","label":"__gap","offset":0,"slot":"52","type":"t_array(t_uint256)49_storage"},{"astId":485,"contract":"contracts/CampaignRegistry.sol:CampaignRegistry","label":"__gap","offset":0,"slot":"101","type":"t_array(t_uint256)50_storage"},{"astId":800,"contract":"contracts/CampaignRegistry.sol:CampaignRegistry","label":"__gap","offset":0,"slot":"151","type":"t_array(t_uint256)50_storage"},{"astId":1301,"contract":"contracts/CampaignRegistry.sol:CampaignRegistry","label":"campaignIdCounter","offset":0,"slot":"201","type":"t_uint256"},{"astId":1305,"contract":"contracts/CampaignRegistry.sol:CampaignRegistry","label":"donationCount","offset":0,"slot":"202","type":"t_mapping(t_uint256,t_uint256)"},{"astId":1311,"contract":"contracts/CampaignRegistry.sol:CampaignRegistry","label":"users","offset":0,"slot":"203","type":"t_mapping(t_address,t_struct(User)2542_storage)"},{"astId":1317,"contract":"contracts/CampaignRegistry.sol:CampaignRegistry","label":"campaigns","offset":0,"slot":"204","type":"t_mapping(t_uint256,t_struct(Campaign)2582_storage)"},{"astId":1323,"contract":"contracts/CampaignRegistry.sol:CampaignRegistry","label":"contributions","offset":0,"slot":"205","type":"t_mapping(t_uint256,t_mapping(t_address,t_uint256))"},{"astId":1329,"contract":"contracts/CampaignRegistry.sol:CampaignRegistry","label":"investorApprovals","offset":0,"slot":"206","type":"t_mapping(t_uint256,t_mapping(t_address,t_bool))"},{"astId":1334,"contract":"contracts/CampaignRegistry.sol:CampaignRegistry","label":"campaignsByEntrepreneur","offset":0,"slot":"207","type":"t_mapping(t_address,t_array(t_uint256)dyn_storage)"}],"types":{"t_address":{"encoding":"inplace","label":"address","numberOfBytes":"20"},"t_address_payable":{"encoding":"inplace","label":"address payable","numberOfBytes":"20"},"t_array(t_address)dyn_storage":{"base":"t_address","encoding":"dynamic_array","label":"address[]","numberOfBytes":"32"},"t_array(t_uint256)49_storage":{"base":"t_uint256","encoding":"inplace","label":"uint256[49]","numberOfBytes":"1568"},"t_array(t_uint256)50_storage":{"base":"t_uint256","encoding":"inplace","label":"uint256[50]","numberOfBytes":"1600"},"t_array(t_uint256)dyn_storage":{"base":"t_uint256","encoding":"dynamic_array","label":"uint256[]","numberOfBytes":"32"},"t_bool":{"encoding":"inplace","label":"bool","numberOfBytes":"1"},"t_enum(CampaignStatus)2526":{"encoding":"inplace","label":"enum ICampaignRegistry.CampaignStatus","numberOfBytes":"1"},"t_enum(Category)2530":{"encoding":"inplace","label":"enum ICampaignRegistry.Category","numberOfBytes":"1"},"t_mapping(t_address,t_array(t_uint256)dyn_storage)":{"encoding":"mapping","key":"t_address","label":"mapping(address => uint256[])","numberOfBytes":"32","value":"t_array(t_uint256)dyn_storage"},"t_mapping(t_address,t_bool)":{"encoding":"mapping","key":"t_address","label":"mapping(address => bool)","numberOfBytes":"32","value":"t_bool"},"t_mapping(t_address,t_struct(User)2542_storage)":{"encoding":"mapping","key":"t_address","label":"mapping(address => struct ICampaignRegistry.User)","numberOfBytes":"32","value":"t_struct(User)2542_storage"},"t_mapping(t_address,t_uint256)":{"encoding":"mapping","key":"t_address","label":"mapping(address => uint256)","numberOfBytes":"32","value":"t_uint256"},"t_mapping(t_uint256,t_mapping(t_address,t_bool))":{"encoding":"mapping","key":"t_uint256","label":"mapping(uint256 => mapping(address => bool))","numberOfBytes":"32","value":"t_mapping(t_address,t_bool)"},"t_mapping(t_uint256,t_mapping(t_address,t_uint256))":{"encoding":"mapping","key":"t_uint256","label":"mapping(uint256 => mapping(address => uint256))","numberOfBytes":"32","value":"t_mapping(t_address,t_uint256)"},"t_mapping(t_uint256,t_struct(Campaign)2582_storage)":{"encoding":"mapping","key":"t_uint256","label":"mapping(uint256 => struct ICampaignRegistry.Campaign)","numberOfBytes":"32","value":"t_struct(Campaign)2582_storage"},"t_mapping(t_uint256,t_uint256)":{"encoding":"mapping","key":"t_uint256","label":"mapping(uint256 => uint256)","numberOfBytes":"32","value":"t_uint256"},"t_string_storage":{"encoding":"bytes","label":"string","numberOfBytes":"32"},"t_struct(Campaign)2582_storage":{"encoding":"inplace","label":"struct ICampaignRegistry.Campaign","members":[{"astId":2549,"contract":"contracts/CampaignRegistry.sol:CampaignRegistry","label":"campaignId","offset":0,"slot":"0","type":"t_uint256"},{"astId":2551,"contract":"contracts/CampaignRegistry.sol:CampaignRegistry","label":"targetAmount","offset":0,"slot":"1","type":"t_uint256"},{"astId":2553,"contract":"contracts/CampaignRegistry.sol:CampaignRegistry","label":"raisedAmount","offset":0,"slot":"2","type":"t_uint256"},{"astId":2555,"contract":"contracts/CampaignRegistry.sol:CampaignRegistry","label":"requestAmount","offset":0,"slot":"3","type":"t_uint256"},{"astId":2557,"contract":"contracts/CampaignRegistry.sol:CampaignRegistry","label":"deadline","offset":0,"slot":"4","type":"t_uint256"},{"astId":2559,"contract":"contracts/CampaignRegistry.sol:CampaignRegistry","label":"completeAt","offset":0,"slot":"5","type":"t_uint256"},{"astId":2561,"contract":"contracts/CampaignRegistry.sol:CampaignRegistry","label":"startAt","offset":0,"slot":"6","type":"t_uint256"},{"astId":2563,"contract":"contracts/CampaignRegistry.sol:CampaignRegistry","label":"imageUri","offset":0,"slot":"7","type":"t_string_storage"},{"astId":2565,"contract":"contracts/CampaignRegistry.sol:CampaignRegistry","label":"campaignTitle","offset":0,"slot":"8","type":"t_string_storage"},{"astId":2567,"contract":"contracts/CampaignRegistry.sol:CampaignRegistry","label":"campaignDescription","offset":0,"slot":"9","type":"t_string_storage"},{"astId":2569,"contract":"contracts/CampaignRegistry.sol:CampaignRegistry","label":"entrepreneur","offset":0,"slot":"10","type":"t_address"},{"astId":2571,"contract":"contracts/CampaignRegistry.sol:CampaignRegistry","label":"vendor","offset":0,"slot":"11","type":"t_address_payable"},{"astId":2574,"contract":"contracts/CampaignRegistry.sol:CampaignRegistry","label":"investors","offset":0,"slot":"12","type":"t_array(t_address)dyn_storage"},{"astId":2577,"contract":"contracts/CampaignRegistry.sol:CampaignRegistry","label":"status","offset":0,"slot":"13","type":"t_enum(CampaignStatus)2526"},{"astId":2579,"contract":"contracts/CampaignRegistry.sol:CampaignRegistry","label":"requestCreated","offset":1,"slot":"13","type":"t_bool"},{"astId":2581,"contract":"contracts/CampaignRegistry.sol:CampaignRegistry","label":"minimumContribution","offset":0,"slot":"14","type":"t_uint256"}],"numberOfBytes":"480"},"t_struct(User)2542_storage":{"encoding":"inplace","label":"struct ICampaignRegistry.User","members":[{"astId":2532,"contract":"contracts/CampaignRegistry.sol:CampaignRegistry","label":"email","offset":0,"slot":"0","type":"t_string_storage"},{"astId":2534,"contract":"contracts/CampaignRegistry.sol:CampaignRegistry","label":"password","offset":0,"slot":"1","type":"t_string_storage"},{"astId":2537,"contract":"contracts/CampaignRegistry.sol:CampaignRegistry","label":"category","offset":0,"slot":"2","type":"t_enum(Category)2530"},{"astId":2539,"contract":"contracts/CampaignRegistry.sol:CampaignRegistry","label":"walletAddress","offset":1,"slot":"2","type":"t_address"},{"astId":2541,"contract":"contracts/CampaignRegistry.sol:CampaignRegistry","label":"verified","offset":21,"slot":"2","type":"t_bool"}],"numberOfBytes":"96"},"t_uint256":{"encoding":"inplace","label":"uint256","numberOfBytes":"32"},"t_uint8":{"encoding":"inplace","label":"uint8","numberOfBytes":"1"}}}}}}